:040000006F00C0735A
:100004000000000000000000F00300206A0300204C
:10001400A9BDF9F35C1F000000000000000000000F
:100024005C1F00005C1F00000000000000000000D6
:100034005C1F0000000000005C1F000000000000C6
:10004400000000005C1F0000000000005C1F0000B6
:100054005C1F00005C1F00009000002000000000F6
:100064005C1F000000000000000000005C1F000096
:100074005C1F00005C1F00005C1F00005C1F000090
:10008400000000005C1F0000000000005C1F000076
:10009400971000E0E780008C730020309307000C79
:1000A4000111631CF50493078008F3B7078093F7E5
:1000B40087083EC00F100000B717004013077005F3
:1000C4002380E704130780FA2380E7040F1000005D
:1000D40003C7F70013670704A387E70003C7870074
:1000E4001367070C2384E700238007048247F3A7E0
:1000F40007800F10000005618280B717004003C716
:10010400A700118B79EF83C6E7041307800893F6E1
:10011400F60F733607801376860832C20F1000007C
:100124001308700523800705930580FA2380B7041C
:100134000F10000003C6E704136636002387C704C4
:1001440003C6A700136646002385C700238007045F
:100154001246732606800F10000003C6870013762C
:10016400F60F73370780137787083AC40F1000001F
:10017400238007052380B7040F10000003C78700FE
:100184001367070C2384E70023800704A247F3A71F
:1001940007800F100000A5470100FD1793F7F70F24
:1001A400E5FF93078008F3B7078093F787083EC6F7
:1001B4000F100000B7170040130770052380E704F1
:1001C400130780FA2380E7040F1000002384C7007C
:1001D4002387D70423800704B247F3A707800F10AF
:1001E40000009377050C130700046392E70A930752
:1001F4008008F3B7078093F787083EC80F10000004
:10020400B7170040130770052380E704130780FA2B
:100214002380E7040F10000003C7A7008546136777
:1002240007012385E70037270040A303D7808346CF
:10023400578093E60601A302D78023800704C247B0
:10024400F3A707800F10000093078008F3B7078017
:1002540093F787083ECE0F100000B717004013072E
:1002640070052380E704130780FA2380E7040F1046
:10027400000003C7F7001375F50F13670704A3877E
:10028400E7002384A70023800704F2478DB5937702
:10029400F5019DCF93078008F3B7078093F787088C
:1002A4003ECA0F100000B7170040130770052380E3
:1002B400E704130780FA2380E7040F1000003727B0
:1002C40000408946A303D78023800704D2478DBF0B
:1002D40093078008F3B7078093F787083ECC0F1085
:1002E4000000B7170040130770052380E7041307C5
:1002F40080FA2380E7040F100000372700409D4652
:10030400A303D78023800704E2471DBF0111814660
:1003140001468145114506CE971000E0E78080DD57
:1003240093078008F3B7078093F787083EC60F103A
:100334000000B7170040130770052380E704130774
:1003440080FA2380E7040F10000003C767041367D3
:1003540017002383E70423800704B247F3A7078029
:100364000F100000F2400561828041118146014670
:1003740081451145971000E0E780C0D71307800836
:10038400F337078093F787083EC40F100000B717B0
:100394000040130670052380C704930680FA238067
:1003A400D7040F100000FD552396B70223800704DD
:1003B400A245F3A505800F1000007337078013775B
:1003C40087083AC60F1000002380C7042380D7048F
:1003D4000F10000003C76704136717002383E704A3
:1003E40023800704B247F3A707800F10000001A081
:1003F40001A0E5473305F50201007D1575FD8280F6
:10040400411122C406C62A847D1442041305803E89
:100414004180C53775F8B2402244410182802E964E
:10042400AA870F70B6788280230304801547A287B9
:100434002303E480010001002302A48003C7678032
:1004440062076187E34C07FE2382A78022878347E4
:100454006780E207E187E3CC07FE82802303048000
:1004640015472303E480010001002302A480828055
:1004740083076480E3CE07FE23030480828083071E
:100484006480E3CE07FE0345448082808307648052
:10049400E3CE07FE2302A4808280411126C44AC20F
:1004A4004EC006C61377F50BAD47AA892E8995442D
:1004B4006306F70019455D37653F8D444E85793FE6
:1004C400FD59FD1463983401B240A2441249824993
:1004D40041018280135509011375F50F453F220927
:1004E400CDB7011126CC06CEB70408005137154507
:1004F400B537713769372AC6A53F3245937715005A
:1005040089EB136515001375F50FF240E24405619C
:100514008280FD14E9FC0145CDBF411106C6B71721
:100524000040130770052380E704130780FA238033
:10053400E70403C747041305F00F1367070E23826C
:10054400E70491472303F480C535B24041010DB758
:10055400011126CC4ACA4EC852C606CE2A89AE8993
:10056400B284554A5D3F91E82137F24026855249CD
:10057400E244C249324A05618280CA850945313F55
:10058400910903A7C9FF91472320E48003076480EE
:10059400E34E07FE23034481FD17EDFBFD1411090F
:1005A40081C49377F90FE9FF2D3F55FDFD5475BFC5
:1005B400011126CC4ACA4EC852C656C45AC206CEE7
:1005C4002A89328A8D49913FC164C16A056B938738
:1005D400F4FFB3F7270199E363719A02FD1991803F
:1005E400E39709FE71350145F240E2445249C2499C
:1005F400324AA24A124B056182801305800D63883A
:100604005401130500026384640113051008CA85AC
:100614006935C13D09C52699330A9A4075BF7D5590
:10062400E1B7011106CE26CC4ACAB2844EC82AC606
:100634002E89E5353245FD14FD59AA852D45B13D78
:10064400639A34013535F24026855249E244C24961
:10065400056182802D3593F7340091EB8326048065
:100664000327090093074900E39EE6FC3E89FD1435
:10067400C1BF011106CE2AC64D353245C533F240FD
:100684000561FDB3011106CE26CC4ACA4EC852C636
:10069400AA8956C42E895135CE852D45FD3B81440A
:1006A4008D4A214AE93B6396540183270480232021
:1006B400F9008504E39844FF8327048013972901F4
:1006C400635C07002312F900F240E2445249C24934
:1006D400324AA24A056169BB2322F900F5B74111E8
:1006E40006C626C44AC24EC0AE89053D81451305DF
:1006F400B0046533BD447D59593393F77400CE97E4
:1007040003C70700FD14398D2380A700E39624FF57
:10071400B240A24412498249410199BB411106C623
:10072400ED3B130560061D3BA133130590093D33D2
:08073400B240410135BB000099
:10073C00971100209381C185173100201301C18BC3
:10074C0013054000970500209385058B17060020A4
:10075C00130606FE63FAC5008322050023A055008C
:10076C0011059105E3EAC5FE171500001305C57EBA
:10077C00970500209385C5FB1386018163FAC5009C
:10078C008322050023A0550011059105E3EAC5FE5F
:10079C0013850181938541A86377B500232005005B
:1007AC001105E36DB5FE93025002739002BC8D42AD
:1007BC00739042808542739012BC930280087390B0
:1007CC000230970200209382228393E232007390CE
:1007DC005230970200009382C2057390123473005A
:1007EC0020302A8309CA83830500230073007D16F9
:1007FC00050385056DFA82802A8311C62300B30098
:10080C007D16050365FE8280411106C6B7170040B0
:10081C00214723ACE70A8D45214539250146814501
:10082C000545EF00C07BB24041016F0020784111BB
:10083C0022C4371400408357840126C2F174FD147E
:10084C0006C6E58F231CF4001945792313056004B3
:10085C0097000020E7800084453F17150000130522
:10086C00255BEF00B02B9387419C23A4F1829387E7
:10087C00419423A2F1829387418C23A0F1829707A4
:10088C000020938727F523AEF18083578401E58FF1
:10089C00231CF400EF00A077B7E700E03707400017
:1008AC0023A0E71001A081471386418213F7F70FAD
:1008BC006364A7006F00807D18423E978346070053
:1008CC00850793C6F6FF2300D704CDB7814713865F
:1008DC00018213F7F70F6364A7006F00807C184246
:1008EC003E9783460700850793C6F6FF2300D7047F
:1008FC00CDB781471386C18113F7F70F6364A70047
:10090C006F00807B18423E9783460700850793C68D
:10091C00F6FF2300D704CDB793070004138681821A
:10092C00138707FC1377F70F6364A7006F00207A17
:10093C0018423E9783460700850793C6F6FF2300AF
:10094C00D704F9BF378700408347670093F6F70F4A
:10095C00898B63870744011106CE22CC26CA4AC86C
:10096C004EC652C456C2834777009306000393F7D2
:10097C0007036385D70683477700114693F7F70380
:10098C006363F604FD1793F7F70F8D4663EBF612CE
:10099C0017170000130747488A07BA979C43BA9762
:1009AC0082879387F7FD93F7F70F8D4663E7F60879
:1009BC0017170000130747478A07BA979C43BA9743
:1009CC00378700408287938607FE93F6F60FE37A0B
:1009DC00D6FCB787004009472383E70037870040E0
:1009EC0083477700E207E18763D20726930720FC51
:1009FC002301F702138781820843138441818346C4
:100A0C00750083476500A206DD8E2310D400834752
:100A1C001500238BF1808349050013FA0906631C2A
:100A2C000A2029466369F620171600001306C640F3
:100A3C008A07B2979C43B297828783C76181954698
:100A4C006381D7069946639BD7069389418103D767
:100A5C00090093060004BA8763F4E60093070004C8
:100A6C0093840181139907018C40135909014A861B
:100A7C0003A5818213F4F70FAD3383D70900B38735
:100A8C0027412390F9009C40CA979CC0B78700402F
:100A9C002380870203C72702134707042381E70239
:100AAC000DBF8347370083C6418193F70708D58F65
:100ABC00A301F70089472301F70221BF2300070296
:100ACC00D5BF8347870031B7B787004003C777008E
:100ADC0013770704E30F07EE03C7670213470708F2
:100AEC002383E70203C587007D3BE5B58347670297
:100AFC0093C707042303F7028347670293F7C70FD3
:100B0C0093E727002303F702E9B5B787004003C733
:100B1C00770013770704E30E07EA03C7A70213470E
:100B2C0007082385E70203C587004D335DB583476E
:100B3C00A70293C707042305F7028347A70293F77D
:100B4C00C70F93E727002305F70261B5B78700406D
:100B5C0003C7770013770704E30D07E603C7E70223
:100B6C00134707082387E70203C58700593395B558
:100B7C008347E70293C707042307F7028347E7027B
:100B8C0093F7C70F93E727002307F70299B5B787A9
:100B9C00004003C7770013770704E30C07E203C791
:100BAC002703134707082389E70203C58700AD33E2
:100BBC000DB58347270393C707042309F70283471F
:100BCC00270393F7C70F93E727002309F70211B503
:100BDC0083473500034725000946A2075D8FA18393
:100BEC0093840181638DC7068D456383B7080547E0
:100BFC006398E708971700009387472D9CC001491D
:100C0C00C94763F4D7002310F4008357040013077B
:100C1C000004BE8A6374F700930A00048C40C20A75
:100C2C0093DA0A015686753E9C40D6979CC0930772
:100C3C00F00F6315F90AB78700401307F0FC238106
:100C4C00E702B787004009472383E700F24062447C
:100C5C00D2444249B249224A924A0561828097178E
:100C6C0000009387E7219CC001499307A00451BF62
:100C7C009377F70F05476389E700638FC7008DC72C
:100C8C0081471309F00FB5BF971700009387471ED4
:100C9C009CC00149B947B5B7971700009387871CCB
:100CAC009CC00149B147B1BF938781809CC0014969
:100CBC00914781BF834725002310F40005A083C70B
:100CCC0071812300F50003570400854763F8E700A2
:100CDC008547DDB783472500A38BF180E20993D9C3
:100CEC00894163D0090283570400930600043E87B0
:100CFC0063F4F60013070004998F137AF70F23108F
:100D0C00F400B787004023804703130700FC05BF9E
:100D1C0013F7F9018947E310F7F28347450093066F
:100D2C001008638FD70263EEF60085466385D704FF
:100D3C00E393E7F0378700408347A70293F7370721
:100D4C0029A813072008E398E7EE3787004083476C
:100D5C00A70293F7C70B93E727002305F702BDBF44
:100D6C00378700408347670293F7C70B93E7270049
:100D7C002303F702A5B7378700408347670293F731
:100D8C003707FDB7230005003DBF230005001C43BA
:100D9C00A3800700035704008947E3F1E7F429BF58
:100DAC0093F7160085C38947A30107002301F702B7
:100DBC002303F7022305F7022307F70285472303D2
:100DCC00F700828093F7460089C783475700914705
:100DDC00FDB72303D7008280371700408347E70411
:100DEC0012054111BD8BC98F93F7F70F930680083D
:100DFC00F3B6068093F6860836C60F1000009306ED
:100E0C0070052300D704930680FA2300D7040F1033
:100E1C0000002307F70423000704B247F3A7078059
:100E2C000F10000041018280914763EAB7089717C1
:100E3C0000009387E70A8A05BE9598413E97B7173D
:100E4C0000409387470B028794431345F5FF3717F0
:100E5C000040E98E94C39306070B9C42E98F9CC219
:100E6C009307070A9843798D88C3828090439346F1
:100E7C00F5FF37170040758E90C31306070B1C4205
:100E8C00C98F1CC29307070A9843F98E94C38280BA
:100E9C00944337170040C98E94C39306070B9C42AA
:100EAC001345F5FF65BF94431347F5FF758F98C342
:100EBC00B71700409387070A9843498F98C38280DD
:100ECC009843498FEDB7B717004003C787009306C7
:100EDC00000C1377070C6315D70003A58181828062
:100EEC0003C78700930600041377070C6312D7021D
:100EFC0083C6870013070002FD8A81C603C78700DB
:100F0C007D8B3745C323130505603345E50282808D
:100F1C0083C6870013070002FD8A81C603C78700BA
:100F2C007D8B3755E80113050580C5B732858147A0
:100F3C0037370040A14663C3A70082800346B74001
:100F4C00E30ED6FE3386F500034606008507230420
:100F5C00C740D5B79706002093868683AA87884218
:100F6C00138741A8AA9763E9E7000A87130707FCD0
:100F7C006364F7009CC282807D558280411122C43B
:100F8C0006C62A8489372947B307E502B2408D8308
:100F9C00B3D7870222449507B3D7E702373700400F
:100FAC00C207C1832316F74041018280716541114C
:100FBC001305052006C6D937B7370040130710F8BC
:100FCC002381E7400D47A381E74013070004A3806A
:100FDC00E74005472387E740B2404101828037173D
:100FEC0000408357A701C207C18393F707FCC207D0
:100FFC00C183231DF70019C98357A7018E055D8E88
:10100C00D18DC205C181231DB70082808280B78734
:10101C000040238007001307C0FC2386E700A3864B
:10102C00E70003D781822398E70003D74182239AF4
:10103C00E70003D70182239CE70003D7C181239EDD
:10104C00E70089462381D70249472383E70223859A
:10105C00E7022387E7022389D702A381070013073E
:10106C0090022380E700B716004003D786010D6677
:10107C00518F239CE6007D572383E700130710F85C
:10108C00A380E7001D472381E7008280B7870040DB
:10109C002382A70203C767021377C70F2383E702D4
:1010AC008280B78700402384A70203C7A702137767
:1010BC00C70F2385E7028280B78700402386A702EB
:1010CC0003C7E7021377C70F2387E7028280B7872E
:1010DC0000402388A70203C727031377C70F238970
:1010EC00E702828001112A8706CE2E8526CCB28596
:1010FC004ACA368622C637240040B7E700E0FD56C0
:10110C0003A90700C44323A0D71823A2D718930719
:10111C00F7FF93F7F70F0948636AF808B717004011
:10112C0083C75704B7C80300F95763741505B30692
:10113C00C50063E0D80463140705098297F0FF1F0C
:10114C00E7808040AA87371700409306700523007C
:10115C00D704930680FA2300D70483464704C18A38
:10116C002302D70437E700E023202711232297100E
:10117C003244F240E24452493E8505618280854703
:10118C00631FF7008567FD173E96E98F3E96FD7746
:10119C007D8E7D8D97F0FF1FE780004165B797F03E
:1011AC00FF1FE78080479307150071BFB547631A8F
:1011BC00F7001305900B97F0FF1FE780004B81475A
:1011CC0059B7B1476315F7001305B00AEDB7994746
:1011DC006317F70097F0FF1FE780404ACDB79D4794
:1011EC00631BF70023A0050023A2050097F0FF1F47
:1011FC00E780604EE9B791476317F70097F0FF1F40
:10120C00E78040516DBF81471DDFF1572DBF0111A4
:10121C0026CA06CE22CC4AC84EC652C4AA8419E1AC
:10122C001C4502901C4D2E89A5E7B9239C4C80448B
:10123C00B5C3971700009387E7CF6310F406C0403F
:10124C007C50858B81EB8357C40093F7072099E37F
:10125C00284C45258357C400A18B99C31C48C5E76E
:10126C00A2852685512245C1FD547C50858B81EB8E
:10127C008357C40093F7072099E3284CA52DF2401F
:10128C0062444249B249224A2685D2440561828091
:10129C00004545B72685CD2169BF97170000938778
:1012AC0067C76314F400804461BF971700009387ED
:1012BC0067C4E317F4F8C04461B71CC4050963C9DB
:1012CC0007021C401387170018C02380B7001C446A
:1012DC0083450900FD17F5F11CC463D9070222866A
:1012EC00A94526859120FD57E300F5F8A944B5BF23
:1012FC00184C63C4E700E39645FD228626852D2015
:10130C00E31735FD95B7FD59294AD1B71C40138712
:10131C00170018C029472380E700C9BFAA8517F515
:10132C00FF1F03252547E5B5011122CC26CA4AC863
:10133C0006CE4EC6AA842E89328401C51C4D91E37B
:10134C002529971700009387E7BE6318F402C04065
:10135C001C4C1CC48357C400A18B99C31C4895EF2B
:10136C00A2852685512015C97D59F2406244D2448C
:10137C00B2494A85424905618280971700009387DC
:10138C0067B96314F4008044E1B7971700009387A2
:10139C0067B6E31FF4FAC04465BF1C480840937954
:1013AC00F90F1379F90F1D8D5C486346F500A28582
:1013BC002685B52455F91C440505FD171CC41C4095
:1013CC001387170018C0238037015C486389A70076
:1013DC008357C400858BD1DBA947E318F9F8A285A4
:1013EC002685352C59D149B7411122C426C24AC091
:1013FC0006C697F4FF1F83A4E4392A892E8489C476
:10140C009C4C99E326858D2E97170000938787B205
:10141C006314F402C0408317C40013F787002DEB4C
:10142C0013F7070115EB25472320E90093E7070481
:10143C002316F4007D5559A897170000938787ADA4
:10144C006314F4008044C1BF97170000938787AAE8
:10145C00E313F4FCC044C1B7918B8DC74C5889C9B8
:10146C00930744046384F5004A856123232A04020C
:10147C008357C4002322040093F7B7FD2316F4000E
:10148C001C481CC08357C40093E787002316F40044
:10149C001C4881EF8357C4001307002093F70728DB
:1014AC006385E700A2854A8565218317C40013F77D
:1014BC0017001DC35848232404003307E04018CC00
:1014CC001848014501E713F707082DF3B2402244F1
:1014DC00924402494101828013F72700814611E3AF
:1014EC00544814C4F1BF8397C500011122CC26CAFD
:1014FC0006CE4AC84EC613F78700AA842E8469E725
:10150C00D8416345E000B8416358E008585449C7D6
:10151C00B18303A90400858B23A004000C50B9CB24
:10152C0070488357C400918B99C75C401D8E5C58E2
:10153C0099C33C401D8E5C540C5081462685829785
:10154C00FD57630DF5041C480567232204001CC0DD
:10155C008357C400F98F91C368C84C5823A0240149
:10156C0085CD930744046384F50026855921232AED
:10157C0004021DA00146854626850297FD572A8642
:10158C00E311F5FA9C40D1DF75476385E7005947B5
:10159C006395E70623A024010145BDA0984083175D
:1015AC00C40001CFF5466305D700D9466319D704AB
:1015BC001C48232204001CC04DB71848B1832322B9
:1015CC00040018C0858B41BF83A90501E38609FC83
:1015DC0003A905008D8B23A035013309394101473F
:1015EC0091E3D84918C4E35920FB1C540C50CA860B
:1015FC004E86268582976340A0028317C40093E72A
:10160C0007042316F4007D55F2406244D24442494B
:10161C00B24905618280AA993309A940E9B79C496E
:10162C00411106C622C426C281EB8144B240224439
:10163C002685924441018280AA842E8401C51C4DCA
:10164C0091E31D2A971700009387C78E631DF40240
:10165C00C0408317C400F1DB7850058B11E793F77A
:10166C00072099E3284C71242685A285AD3D7C503A
:10167C00AA84858BC5FF8357C40093F70720DDF739
:10168C00284C8D2C65B7971700009387A788631497
:10169C00F40080447DBF971700009387A785E31A59
:1016AC00F4FAC0447DB7411122C406C62A8423161D
:1016BC00B5002317C5002320050023220500232491
:1016CC0005002322050623280500232A0500232CC8
:1016DC000500214681451305C505EFF0EF919707ED
:1016EC000000938767535CD0970700009387C7551A
:1016FC001CD4970700009387075A5CD49707000007
:10170C009387C75CB24000D01CD822444101828030
:10171C00970500009385E5F0BDA2411126C2930701
:10172C0080069384F5FFB384F4024AC02E8922C448
:10173C0006C6938544077D262A8401CD2320050007
:10174C0023222501310508C4138684068145EFF058
:10175C00AF8AB240228522449244024941018280E0
:10176C001385018379A21385018369A213854183B3
:10177C0049A213854183BDAA411122C406C62A84FD
:10178C00F5371C4C89C72244B2404101DDB797079D
:10179C000000938727F81CD4232404042326040474
:1017AC002328040483A7C1806394870085471CCC3D
:1017BC0022853D2048C02285252008C422850D2085
:1017CC0048C4484001469145F93D08440546A545A5
:1017DC00D93D48440946C945F93585471CCC65B700
:1017EC00411126C24AC006C622C42A89953F83A449
:1017FC00C1809C4C99E326854137938484048044B2
:10180C00DC40FD1763D607009C40BDC38440C5BFB8
:10181C000317C40039EBC17785075CC41305840535
:10182C0023220406F120813721462320040023249F
:10183C0004002322040023280400232A0400232C60
:10184C00040081451305C405EFE01FFB232A0402A5
:10185C00232C04022324040423260404B2402285EE
:10186C00224492440249410182801304840651BFF0
:10187C0091454A855D3588C02A8449F9ED35B147D3
:10188C002320F900E1BF797122D44AD04ECE52CC3C
:10189C005AC85EC606D626D256CA2A892E8A130480
:1018AC0085048149054BFD5B0444832A4400FD1AE1
:1018BC0063D00A0200406DF8B2502254925402597F
:1018CC00624AD24A424BB24B4E85F2494561828004
:1018DC0083D7C400637BFB008397E40063877701A5
:1018EC00A6854A85029AB3E9A90093848406C1B7F8
:1018FC008280828082805971A2D42E848395E500E7
:10190C00A6D2CAD086D6B284368963D30502835751
:10191C00C40093F707088DEB13070040B65026540C
:10192C002320F90098C006599654014565618280C0
:10193C003000FD26E34D05FC3247BD67F98F797702
:10194C00BA9793B71700C9BF814713070004F9B7BB
:10195C0083D7C500797122D406D626D24AD04ECE72
:10196C00898B2E8491CF930774041CC01CC88547A7
:10197C005CC8B250225492540259F249456182809B
:10198C0074003000AA84853FA2492A892685CE8519
:10199C00912A01ED8317C40013F7072079FBF19B03
:1019AC0093E727002316F4007DBF97070000938769
:1019BC0067D69CD48357C40008C008C893E70708AF
:1019CC002316F400B247232A340189CF8315E4008F
:1019DC0026859D2E01C98357C400F19B93E7170000
:1019EC002316F4008357C40033E527012316A40003
:1019FC0049B7D1CD83A7C5FF011122CC06CE1384E4
:101A0C00C5FF63D307003E942AC679261387C1838A
:101A1C001C43324581EB2322040000C36244F24094
:101A2C000561B5AE637DF4001040B306C400639647
:101A3C00D7009443DC43B29614C05CC0F9BF3E8718
:101A4C00DC4399C3E37DF4FE14433306D700631FD4
:101A5C0086001040B29614C33306D700E390C7FC3F
:101A6C009043DC43B29614C35CC34DBF6375C40092
:101A7C00B1471CC165B71040B306C4006396D700CC
:101A8C009443DC43B29614C05CC040C341BF828017
:101A9C0041114AC0138981838327090022C426C2BD
:101AAC0006C6AA842E8489E7814589222320A900B1
:101ABC00A2852685252A7D59631A25017D54B240BD
:101ACC00228522449244024941018280130435004C
:101ADC007198E30685FEB305A4402685012AE31020
:101AEC0025FFE9BF011126CA93843500F1984AC835
:101AFC0006CE22CC4EC6A104B1472A8963F3F40664
:101B0C00B14463E2B4064A85412C9389C18383A70F
:101B1C0009003E8425E4A6854A859D3FFD572A840D
:101B2C006314F50C03A40900A287D5E783290400EC
:101B3C0081454A85A2995D286392A90A1C408D04AF
:101B4C009D8CF198A104B14763F3F400B144A685D0
:101B5C004A853D3FFD576303F5081C40A6971CC002
:101B6C003DA8E3D004FAB1472320F9000145F24027
:101B7C006244D2444249B249056182801440858E48
:101B8C0063C806042D47637DD70204C03307940055
:101B9C006396870223A0E9005C4014C35CC34A85AA
:101BAC00FD2A1305B4009307440061993307F540EF
:101BBC00E30FF5FA3A94898F1CC055BFD8C3E9BF1F
:101BCC0058406395870023A0E900D1BFD8C3C1BF9B
:101BDC00A287404081B73E84DC4381BFB1472320BC
:101BEC00F9004A856D2A59B704C155BF411122C469
:101BFC002A842E8523A0018406C6EFF0AFB5FD57CD
:101C0C006316F50083A7018491C31CC0B240224423
:101C1C0041018280411122C42E848395E50006C6C1
:101C2C005122634905007C48AA977CC8B2402244E3
:101C3C00410182808357C4007D777D17F98F23166D
:101C4C00F400EDB783D7C500011122CC26CA4AC8CF
:101C5C004EC606CE93F70710AA842E843289B68915
:101C6C0091C78395E5008946014611228357C4002C
:101C7C007D777D17F98F8315E4002316F4006244F9
:101C8C00F240CE864A86B24942492685D244056145
:101C9C003DA8411122C42E848395E50006C6C128B7
:101CAC007D578357C400631BE5007D777D17F98F43
:101CBC002316F400B2402244410182800567D98F7B
:101CCC002316F40068C8FDB78395E5003DA04111CB
:101CDC0022C42A842E85B285368623A0018406C6AA
:101CEC00EFF0CFA4FD576316F50083A7018491C3D1
:101CFC001CC0B240224441018280411122C42A847A
:101D0C002E8523A0018406C6D920FD576316F50045
:101D1C0083A7018491C31CC0B2402244410182803C
:101D2C00411122C42A842E85B28523A0018406C6C3
:101D3C006D20FD576316F50083A7018491C31CC069
:101D4C00B240224441018280411122C42A842E8552
:101D5C0023A0018406C64128FD576316F50083A70E
:101D6C00018491C31CC0B2402244410182804111C4
:101D7C0022C42A842E85B285368623A0018406C609
:101D8C008D28FD576316F50083A7018491C31CC0F1
:101D9C00B2402244410182801385C18299BE1385D1
:101DAC00C18289BE411122C42A842E85B285368611
:101DBC0023A0018406C6A120FD576316F50083A756
:101DCC00018491C31CC0B24022444101828093071C
:101DDC00800523A0F1847D5582809307800523A084
:101DEC00F1847D5582809307800523A0F184014501
:101DFC0082809307800523A0F1847D558280930710
:101E0C00800523A0F1847D5582800000737461727B
:101E1C0074000000B4ECFFFFF6ECFFFF38EDFFFFA1
:101E2C007AEDFFFFC8ECFFFF0AEDFFFF4CEDFFFF63
:101E3C008EEDFFFF56EFFFFFDCEEFFFF02EEFFFF24
:101E4C0002EEFFFF02EEFFFF80EEFFFF9CEDFFFFB7
:101E5C0002EEFFFF8AEEFFFFA0EEFFFF50EFFFFF49
:101E6C000C03430048003500380078000E0377005F
:101E7C00630068002E0063006E00000009024A0037
:101E8C0001010080320904000008FF80550007059D
:101E9C00840240000007050402400000070583028D
:101EAC0040000007050302400000070582024000C5
:101EBC0000070502024000000705810240000007F0
:101ECC00050102400000000012011001FF80554086
:101EDC00861A375500010102000100006CEFFFFF6C
:101EEC0090EFFFFFB4EFFFFFCAEFFFFFE4EFFFFF40
:101EFC0000000000000000000000000000000000D6
:101F0C0000000000000000000000000000000000C5
:101F1C0000000000000000000000000000000000B5
:101F2C0000000000000000000000000000000000A5
:101F3C000000000000000000000000000000000095
:101F4C000000000000000000000000000000000085
:021F5C0001A0E2
:101F6000000000003C1F00001C1F0000FC1E0000C1
:101F70000000000000000000000000000000000061
:101F80000000000000000000000000000000000051
:101F90000000000000000000000000000000000041
:101FA0000000000000000000000000000000000031
:101FB0000000000000000000000000000000000021
:101FC0001C0A0020380700200403090438070020F9
:00000001FF
