:040000006F00406AE3
:10000400000000000000000064030020E002002063
:10001400A9BDF9F348220000000000000000000020
:1000240048220000482200000000000000000000F8
:1000340048220000000000004822000000000000E8
:1000440000000000482200000000000048220000D8
:10005400482200004822000048220000000000005E
:1000640048220000000000000000000048220000B8
:1000740048220000482200004822000048220000D4
:100084000000000048220000000000004822000098
:100094009307000C01116318F50493078008F3B764
:1000A400078093F787083EC00F100000B717004081
:1000B400130770052380E704130780FA2380E704FD
:1000C4000F100000F83713670704F8B79827136771
:1000D400070C98A7238007048247F3A707800F1013
:1000E400000005618280B7170040B827118B69EBC7
:1000F40083C6E7041307800893F6F60F7336078068
:100104001376860832C20F1000001308700523808E
:100114000705930580FA2380B7040F10000003C677
:10012400E704136636002387C704B0271366460026
:10013400B0A7238007041246732606800F10000020
:1001440090271376F60F73370780137787083AC41E
:100154000F100000238007052380B7040F10000050
:1001640098271367070C98A723800704A247F3A7CF
:1001740007800F100000A5470100FD1793F7F70F44
:10018400E5FF93078008F3B7078093F787083EC617
:100194000F100000B7170040130770052380E70411
:1001A400130780FA2380E7040F10000090A7238729
:1001B400D70423800704B247F3A707800F10000079
:1001C4009377050C13070004639DE70893078008E1
:1001D400F3B7078093F787083EC80F100000B717DE
:1001E4000040130770052380E704130780FA238077
:1001F400E7040F100000B827854613670701B8A766
:1002040037270040A303D7808346578093E606012F
:10021400A302D78023800704C247F3A707800F10E7
:10022400000093078008F3B7078093F787083ECE52
:100234000F100000B7170040130770052380E70470
:10024400130780FA2380E7040F100000F8371375B2
:10025400F50F13670704F8B788A723800704F2474C
:10026400ADBD9377F5019DCF93078008F3B7078061
:1002740093F787083ECA0F100000B7170040130712
:1002840070052380E704130780FA2380E7040F1026
:100294000000372700408946A303D7802380070442
:1002A400D247A5BF93078008F3B7078093F7870861
:1002B4003ECC0F100000B7170040130770052380D1
:1002C400E704130780FA2380E7040F1000003727A0
:1002D40000409D46A303D78023800704E24735BF2F
:1002E40041118146014681451145971000E0E780A0
:1002F400E09413078008F337078093F787083EC418
:100304000F100000B7170040130670052380C704C0
:10031400930680FA2380D7040F100000FD55CEB752
:1003240023800704A245F3A505800F10000073374E
:100334000780137787083AC60F1000002380C7048C
:100344002380D7040F10000003C767041367170046
:100354002383E70423800704B247F3A707800F1021
:10036400000001A001A0E5473305F50201007D1559
:1003740075FD8280411122C406C62A841305803E7D
:100384007D14D5373344040875F8B2402244410142
:100394008280230304801547A2872303E48001009D
:1003A40001002302A48003C7678062076187E34CCE
:1003B40007FE2382A780228783476780E207E187BD
:1003C400E3CC07FE82802303048015472303E480E3
:1003D400010001002302A480828083076480E3CEAD
:1003E40007FE23030480828083076480E3CE07FE34
:1003F40003454480828083076480E3CE07FE2302A2
:10040400A4808280411126C44AC24EC006C6137716
:10041400F50BAD47AA892E8995446306F700194563
:100424005D37653F8D444E85793FFD59FD146398D2
:100434003401B240A24412498249410182801355D9
:1004440009011375F50F453F2209CDB7011126CCDB
:1004540006CEB704080051371545B53771376937EB
:100464002AC6A53F32459377150089EB136515001D
:100474001375F50FF240E24405618280FD14E9FC36
:100484000145CDBF411106C6B717004013077005DB
:100494002380E704130780FA2380E70403C7470493
:1004A4001305F00F1367070E2382E7049147230314
:1004B400F480C535B24041010DB7011126CC4ACABA
:1004C4004EC852C606CE2A89AE89B284554A5D3FCB
:1004D40091E82137F24026855249E244C249324A22
:1004E40005618280CA850945313F910903A7C9FF87
:1004F40091472320E48003076480E34E07FE23032F
:100504004481FD17EDFBFD14110981C49377F90FA4
:10051400E9FF2D3F55FDFD5475BF011126CC4ACA94
:100524004EC852C656C45AC206CE2A89328A8D494A
:10053400913FC164C16A056B9387F4FFB3F7270148
:1005440099E363719A02FD199180E39709FE71356D
:100554000145F240E2445249C249324AA24A124B8E
:10056400056182801305800D638854011305000220
:100574006384640113051008CA856935C13D09C542
:100584002699330A9A4075BF7D55E1B7011106CE0D
:1005940026CC4ACAB2844EC82AC62E89E5353245CD
:1005A400FD14FD59AA852D45B13D639A34013535B5
:1005B400F24026855249E244C249056182802D35C4
:1005C40093F7340091EB83260480032709009307F3
:1005D4004900E39EE6FC3E89FD14C1BF011106CE2D
:1005E4002AC64D353245C533F2400561FDB30111CC
:1005F40006CE26CC4ACA4EC852C6AA8956C42E89EB
:100604005135CE852D45FD3B81448D4A214AE93B38
:1006140063965401832704802320F9008504E3981A
:1006240044FF8327048013972901635C0700231286
:10063400F900F240E2445249C249324AA24A0561F1
:1006440069BB2322F900F5B7411106C626C44AC284
:100654004EC0AE89053D81451305B0046533BD44E4
:100664007D59593393F77400CE9703C70700FD14DF
:10067400398D2380A700E39624FFB240A244124997
:100684008249410199BB411106C6ED3B1305600641
:100694001D3BA133130590093D33B240410135BBE5
:1006A400971100209381C1861731002013014195D1
:1006B40013054000970500209385859417060020B4
:1006C400130606FE63FAC5008322050023A0550025
:1006D40011059105E3EAC5FE17250000130505B7CA
:1006E400970500209385C5FB1386C18063FAC50076
:1006F4008322050023A0550011059105E3EAC5FEF8
:100704001385C180938581836377B5002320050019
:100714001105E36DB5FE93025002739002BC8D4245
:10072400739042808542739012BC93028008739048
:100734000230970200209382A28C93E232007390DD
:100744005230970200009382820473901234730033
:1007540020302A8311C62300B3007D16050365FEED
:100764008280411106C6B7170040214723ACE70A2F
:1007740085451145D92A8D452145C12A0146814522
:1007840005456921B240410189A9797122D4371400
:1007940000401E2C71777D1706D6F98F4AD026D2D9
:1007A4004ECE1EAC1945912A130560049700002013
:1007B400E780008E7D378345140417250000130558
:1007C400E591C144692B1725000013056592EF00DC
:1007D400207B1305400697000020E780A0B98D45D3
:1007E400232C940A1305000B8D221309840BF92A78
:1007F4001304C40A04C013055005DD2A054523204B
:10080400990097000020E780E0B604C011242AC6AE
:1008140023209900094597000020E780A0B5B24540
:10082400172500001305C58E972900009389C98FE9
:100834003D23A14504C017050020130565E6CD2A14
:1008440009452320990097000020E780A0B2A14524
:1008540004C013858182012C094523209900970047
:100864000020E78020B1172500001305258BC5293A
:10087400014413898182A144B30724018C234E854A
:100884000504F129E31A94FE2945C144012B3714C8
:1008940000402326940AB14517050020130545E0BE
:1008A400CD2A9309C40A1304840B04C00945970094
:1008B4000020E78020ACB14523A0990013858182F4
:1008C4002924172500001305658604C0492901441D
:1008D4009729000093894985B144B30789008C2383
:1008E4004E850504AD29E31A94FE294545291725AB
:1008F400000013056584692501A03717004083476C
:10090400E70412054111BD8BC98F93F7F70F9306C6
:100914008008F3B6068093F6860836C60F100000EA
:10092400930670052300D704930680FA2300D704A6
:100934000F1000002307F70423000704B247F3A7AE
:1009440007800F10000041018280914763ECB704D7
:10095400971700009387C77EB3C5F52098413E974B
:10096400B71700409387470B02879443371700401B
:10097400B3F6A64094C39306070B9C42B3F7A74073
:1009840019A8944337170040B3F6A64094C39306BE
:10099400070B9C42C98F9CC29307070A984333777D
:1009A400A74098C38280944337170040C98ED9B7B3
:1009B40098433377A74098C3B71700409387070A33
:1009C4009843498FF9BF9843498FF5B7B74700401B
:1009D4001147B8B3094798A31307000698A398339F
:1009E4001367070198B398331377E70F98B382809E
:1009F400B747004098231377F70E98A30547DAA763
:100A040088AB374700407C2393F70704EDDF8280EF
:100A1400B747004098231377F70E98A37D57D8A3C0
:100A2400374700407C2393F70704EDDF4823828097
:100A3400B74700409823B74600401377F70E98A3B2
:100A4400CEA70547F8A3AA951D476317B5003747F6
:100A540000407C33FDFF8280F033E368C7FE102141
:100A6400050590AADDB7B74700409823136707012F
:100A740098A3CEA70547F8A3AA9537470040631368
:100A8400B5008280F433E5DE142B0505A30FD5FEF3
:100A9400FDB7B747004098231377F70E98A3334761
:100AA40005082E959AAF33450508CAAFCEA725474A
:100AB400F8A398331367170098B3F823058B75DFF1
:100AC40098331377E70F98B38280B7470040982391
:100AD4001367070198A3334705082E959AAF33454A
:100AE4000508CAAFCEA72547F8A3983313671700A4
:100AF40098B3F823058B75DF98331377E70F98B312
:100B04008280B717004098279306000C1377070CD0
:100B14006315D70003A5C18082809827930600043B
:100B24001377070C6310D702942713070002FD8A7A
:100B340099C298277D8B3745C32313050560334538
:100B4400E5028280942713070002FD8A99C2982740
:100B54007D8B3755E80113050580D5B7328581476C
:100B640037370040A14663C3A70082800346B740DD
:100B7400E30ED6FE3386F500102285072304C74012
:100B8400DDB7970600209386A6B8AA878842138704
:100B94008183AA9763E9E7000A87130707FC636464
:100BA400F7009CC282807D558280411122C406C612
:100BB4002A84813F2947B307E502B2408D83B3D726
:100BC400870222449507B3D7E70237370040B3C7FB
:100BD40007082316F740410182807165411113050E
:100BE400052006C6D937B7370040130710F823810C
:100BF400E7400D47A381E74013070004A380E740C3
:100C040005472387E740B2404101828037170040FF
:100C14003E2FB3C7070893F707FCB3C707083EAFD7
:100C240009C93E2F8E055D8ED18DB3C505082EAF43
:100C34008280828001112A8706CE2E8526CCB28539
:100C44004ACA368622C637240040B7E700E0FD567C
:100C540003A90700C44323A0D71823A2D7189307D6
:100C6400F7FF93F7F70F0948636AF808B7170040CE
:100C740083C75704B7C80300F95763741505B3064F
:100C8400C50063E0D80463140705098297000020B7
:100C9400E780A082AA8737170040930670052300D7
:100CA400D704930680FA2300D70483464704C18AF5
:100CB4002302D70437E700E02320271123229710CB
:100CC4003244F240E24452493E85056182808547C0
:100CD400631FF7008567FD173E96E98F3E96FD7703
:100CE4007D8E7D8D97000020E780208365B7970077
:100CF4000020E780A0899307150071BFB547631AE8
:100D0400F7001305900B97000020E780208D8147A2
:100D140059B7B1476315F7001305B00AEDB7994702
:100D24006317F70097000020E780608CCDB79D47DC
:100D3400631BF70023A0050023A2050097000020F1
:100D4400E7808090E9B791476317F7009700002088
:100D5400E78060936DBF81471DDFF1572DBF5D7143
:100D640022D406D62A842EDA32DC36DEBAC0BEC2DB
:100D7400C2C4C6C6170500200325C59911C51C4D5C
:100D840081E72AC6352D32450C455418228636CEC5
:100D9400EF00302FB250225461618280AA8517057A
:100DA40000200325259711CD1C4D81EF011106CE9E
:100DB4002EC62AC431252245B245F24010450561AC
:100DC40019A01045F5BF411122C426C24AC006C667
:100DD4002A89AE84328401C51C4D91E3D52397172B
:100DE40000009387273B6313F406032449007C50D7
:100DF400858B81EB5E2493F7072081E7284CEF0075
:100E0400A0731C44FD171CC463DA0700184C63C1AB
:100E1400E70693F7F40F2947638CE7041C40138714
:100E2400170018C084A393F4F40F7C50858B81EBD6
:100E34005E2493F7072081E7284CEF000070B2404E
:100E4400224402492685924441018280971700007A
:100E5400938747326315F4000324890049BF971729
:100E640000009387272FE314F4F80324C90041B743
:100E7400A68522864A85192AAA8445BF011126CA55
:100E840006CE22CC4AC84EC652C4AA8419E11C45D7
:100E940002901C4D2E89ADE325239C4C8044B9CF90
:100EA400971700009387072F631DF404C0407C50FC
:100EB400858B99E75E2493F7072099E3284CAD2DA1
:100EC4005E24A18B99C31C48D5E3A2852685AD2A4F
:100ED40051CDFD547C50858B99E75E2493F7072010
:100EE40099E3284C992DF24062444249B249224A7E
:100EF4002685D2440561828000455DB72685C921D7
:100F040045B7971700009387E7266314F4008044DD
:100F140079BF971700009387E723E31AF4F8C044D6
:100F240079B71CC4050963C807021C40138717005E
:100F340018C08CA31C4483450900FD17FDF11CC493
:100F440063D907022286A94526858920FD57E30235
:100F5400F5F8A94441B7184C63C4E700E39745FD8D
:100F6400228626852520E31735FDA5B7FD59294A94
:100F7400D1B71C401387170018C0294798A3D1BFC5
:100F8400AA8517F5FF1F0325E578CDBD011122CCF5
:100F940026CA4AC806CE4EC6AA842E89328401C502
:100FA4001C4D91E33129971700009387A71E6317FF
:100FB400F402C0401C4C1CC45E24A18B99C31C4881
:100FC40095EFA2852685492015C97D59F2406244D2
:100FD400D244B2494A85424905618280971700008C
:100FE400938747196314F4008044E9B79717000006
:100FF40093874716E310F4FCC0446DBF1C480840B7
:101004009379F90F1379F90F1D8D5C486346F50048
:10101400A2852685A12C55F91C440505FD171CC481
:101024001C401387170018C0238037015C4863886D
:10103400A7005E24858BD9DBA947E319F9F8A285BB
:1010440026852D2441D551B7411122C426C24AC058
:1010540006C697F4FF1F83A4E46B2A892E8489C4EF
:101064009C4C99E32685A92E971700009387871235
:101074006313F402C0408317C40013F7870025E705
:1010840013F707010DEB25472320E90093E7070435
:101094005EA47D5571A0971700009387A70D631474
:1010A400F4008044C9BF971700009387A70AE3148C
:1010B400F4FCC044C9B7918B9DC34C5889C99307AC
:1010C40044046384F5004A85B92B232A04025E2470
:1010D4002322040093F7B7FD5EA41C481CC05E24C1
:1010E40093E787005EA41C4899EB5E241307002055
:1010F40093F707286385E700A2854A85612983174A
:10110400C40013F717001DC35848232404003307F1
:10111400E04018CC1848014501E713F707083DF7EC
:10112400B2402244924402494101828013F72700CD
:10113400814611E3544814C4F1BF8397C5000111DB
:1011440022CC26CA06CE4AC84EC613F78700AA8404
:101154002E8479E3D8416345E000B8416356E00842
:10116400585459C303A9040023A004000C5093D776
:10117400C748A9CB70485E24918B99C75C401D8EEB
:101184005C5899C33C401D8E5C540C5081462685A6
:101194008297FD57630CF5041C480567232204005D
:1011A4001CC05E24F98F91C368C84C5823A0240145
:1011B40085CD930744046384F5002685AD21232A55
:1011C40004021DA00146854626850297FD572A86FE
:1011D400E313F5FA9C40C5D375476385E700594787
:1011E4006395E70623A024010145B5A09840831721
:1011F400C40001CFF5466305D700D9466319D70467
:101204001C48232204001CC04DB7184823220400A4
:1012140093D7C74818C041BF83A90501E38609FCD9
:1012240003A905008D8B23A03501330939410147FA
:1012340091E3D84918C4E35920FB1C540C50CA86C6
:101244004E8626858297634FA0008317C40093E7D8
:1012540007045EA47D55F2406244D2444249B24937
:1012640005618280AA993309A940F1B79C494111CB
:1012740006C622C426C281EB8144B240224426859C
:10128400924441018280AA842E8401C51C4D91E3BD
:10129400052A971700009387E7EF631CF402C04008
:1012A4008317C400F1DB7850058B11E793F707200F
:1012B40099E3284C51242685A28541357C50AA8483
:1012C400858BC5FF5E2493F70720C5FB284CB52406
:1012D4006DB7971700009387E7E96314F40080441F
:1012E400C1B7971700009387E7E6E31BF4FAC044FD
:1012F40045BF411122C406C62A844EA572A52320E7
:1013040005002322050023240500232205062328A3
:101314000500232A0500232C0500214681451305D9
:10132400C505EFF00FC397170000938747835CD080
:1013340097170000938747851CD49717000093875D
:1013440007895CD4971700009387478BB24000D07D
:101354001CD822444101828097050000938545F101
:10136400BDA2411126C2930780069384F5FFB3847E
:10137400F4024AC02E8922C406C693854407692E06
:101384002A8401CD2320050023222501310508C428
:10139400138684068145EFF0CFBBB24022852244F8
:1013A40092440249410182801385418171A21385CF
:1013B400418161A21385818141A213858181B5AAEE
:1013C400411122C406C62A84F5371C4C89C722441D
:1013D400B2404101DDB797070000938727F81CD47A
:1013E40023240404232604042328040483A78180DB
:1013F4006394870085471CCC22853D2048C0228504
:10140400252008C422850D2048C448400146914542
:10141400CD3508440546A545E93D48440946C94536
:10142400C93D85471CCC65B7411126C24AC006C6D2
:1014340022C42A89953F83A481809C4C99E3268504
:101444004137938484048044DC40FD1763D607004D
:101454009C40BDC38440C5BF0317C40039EBC177AA
:1014640085075CC41305840523220406E92081371B
:1014740021462320040023240400232204002328DB
:101484000400232A0400232C040081451305C40509
:10149400EFF02FAC232A0402232C04022324040497
:1014A40023260404B2402285224492440249410185
:1014B40082801304840651BF91454A855D3588C0F6
:1014C4002A8449F9ED35B1472320F900E1BF797148
:1014D40022D44AD04ECE52CC5AC85EC606D626D2A4
:1014E40056CA2A892E8A130485048149054BFD5B5B
:1014F4000444832A4400FD1A63D00A0200406DF8B4
:10150400B250225492540259624AD24A424BB24BCC
:101514004E85F24945618280DE24637BFB0083971C
:10152400E40063877701A6854A85029AB3E9A90096
:1015340093848406C9B78280828082805971A2D440
:101544002E848395E500A6D2CAD086D6B284368985
:1015540063D205025E2493F707088DEB130700405E
:10156400B65026542320F90098C0065996540145D4
:10157400656182803000E92DE34E05FC3247BD678A
:10158400F98F7977BA9793B71700C9BF81471307C3
:101594000004F9B7DE25797122D406D626D24AD0C2
:1015A4004ECE898B2E8491CF930774041CC01CC823
:1015B40085475CC8B250225492540259F24945619D
:1015C400828074003000AA84953FA2492A89268526
:1015D400CE85992219E98317C40013F7072079FBF4
:1015E400F19B93E727005EA4C1B797070000938798
:1015F400E7D69CD45E2408C008C893E707085EA415
:10160400B247232A340199CB8315E4002685AD25FE
:1016140011C55E24F19B93E717005EA45E2433E5B5
:1016240027014AA441BFD1CD83A7C5FF011122CC14
:1016340006CE1384C5FF63D307003E942AC64D2506
:10164400138701821C43324581EB2322040000C32B
:101654006244F240056149AD637DF4001040B30675
:10166400C4006396D7009443DC43B29614C05CC0B4
:10167400F9BF3E87DC4399C3E37DF4FE144333068C
:10168400D700631F86001040B29614C33306D700F8
:10169400E390C7FC9043DC43B29614C35CC34DBFD4
:1016A4006375C400B1471CC165B71040B306C400DC
:1016B4006396D7009443DC43B29614C05CC040C325
:1016C40041BF828041114AC01389C1818327090027
:1016D40022C426C206C6AA842E8489E7814591299C
:1016E4002320A900A2852685A9217D59631A2501F5
:1016F4007D54B240228522449244024941018280B1
:10170400130435007198E30685FEB305A4402685CD
:101714000D21E31025FFE9BF011126CA938435008A
:10172400F1984AC8A104B14706CE22CC4EC62A89F4
:10173400B3F4F40A63C4040063FDB400B147232086
:10174400F9000145F2406244D2444249B24905617C
:10175400828079239389018283A709003E8431E43E
:10176400A6854A858537FD572A846316F50A03A49E
:101774000900A287C1EB8329040081454A85A29907
:101784004D2E6394A9081C408D044A859D8CF198C4
:10179400B147A104B3F4F40AA6852D37FD576306B7
:1017A400F5061C40A6971CC015A01440858E63C87E
:1017B40006042D47637DD70204C033079400639663
:1017C400870223A0E9005C4014C35CC34A85292B2B
:1017D4001305B4009307440061993307F540E3030C
:1017E400F5F63A94898F1CC0B1BFD8C3E9BF5840FD
:1017F4006395870023A0E900D1BFD8C3C1BFA287E6
:101804004040B1BF3E84DC43B5B7B1472320F90063
:101814004A85D9293DB704C155BF1C46FD171CC6CE
:1018240063DA0700184E63C5E700A9476394F5001F
:101834006FF0CFF51C422E851387170018C28CA3B6
:101844008280011122CC26CA4AC84EC652C406CE92
:101854002A89AE893284B304D6007D5A6314940075
:10186400014501A80C204E864A85453F0504E3172F
:1018740045FFF2406244D2444249B249224A0561DA
:101884008280357122CD26CB4AC94EC706CF52C5B8
:1018940056C35AC1DEDEE2DCAA892E843289B684BC
:1018A40001C51C4D91E3293E971700009387878E4D
:1018B4006317F40403A449007C50858B99E75E24E4
:1018C40093F7072099E3284C85395E24A18B99C3AB
:1018D4001C48B9EFA2854E85EFF00FF731C97C5053
:1018E400858BA1C37D55FA406A44DA444A49BA4912
:1018F4002A4A9A4A0A4BF65B665C0D618280971706
:101904000000938727876315F40003A489006DB74B
:101914009717000093870784E310F4FA03A4C9001F
:1019240061BF5E2493F70720D5FF284C39315DBF92
:1019340093070002A304F1029307000302D22305D4
:10194400F10226C6930B5002971A0000938A8A86E6
:10195400294BCA849C2099C363997709338C244109
:10196400638D2401E2864A86A2854E85D93DFD57C2
:101974006306F5189257E2973ED29C2063800718BD
:10198400FD571389140002C802CE3ECA02CCA30933
:10199400010482D483450900154656853526C2477D
:1019A4009304190029E513F7070109C71307000277
:1019B400A309E10413F7870009C71307B002A309B9
:1019C400E104834609001307A0026389E602F24793
:1019D400CA8481462546982093851400130707FD81
:1019E4006372E60685C63ECE15A08504A5B7330509
:1019F4005541B397A72826893EC869BF3247930645
:101A04004700184336C6634807023ACE9820930726
:101A1400E002631CF70498309307A002631AF702EC
:101A2400B2478904138747009C433AC67D57B3E7FE
:101A3400E70A3ECA1DA83307E04093E727003ACEE1
:101A44003EC8E9B7B3876703AE848546BA9761B7E2
:101A5400850402CA8146814725469820938514004F
:101A6400130707FD6372E606E9F68C200D46170599
:101A740000001305A574892C11CD970700009387E6
:101A8400E7731D8DC247130700043317A700D98FCE
:101A940085043EC88C2019461705000013054572BD
:101AA400138914002304B102052435C993070000E7
:101AB40095E74247B2471377071009CF91073EC60F
:101AC4009257D2973ED271B5B3876703AE848546E9
:101AD400BA9761B79D07E19BA107D5B77800970630
:101AE4000000938646D622860C084E859700000097
:101AF400E7000000FD572A8AE314F5FC7C50858B2F
:101B040081EB5E2493F7072081E7284CEFF0FFA2D6
:101B14005E2493F70704E39707DC1255E9B37800D2
:101B240097060000938626D222860C084E85F1245F
:101B3400D1B7411122C42A842E8523A2018206C66C
:101B4400EFF02F84FD576316F50083A7418291C3FC
:101B54001CC0B240224441018280411122C42E841F
:101B64008395E50006C63123634905007C48AA979E
:101B74007CC8B2402244410182805E249397C748C6
:101B84005EA4C5BFDE25011122CC26CA4AC84EC6B2
:101B940006CE93F70710AA842E843289B68991C79A
:101BA4008395E50089460146DD285E248315E4001B
:101BB400F2409397C7485EA46244CE864A86B249EF
:101BC40042492685D24405611DA8411122C42E84B0
:101BD4008395E50006C6E1207D575E246319E50080
:101BE4009397C7485EA4B2402244410182809397F0
:101BF400C72868C85EA4C5BF8395E5003DA0411110
:101C040022C42A842E85B285368623A2018206C682
:101C1400EFE0DFF4FD576316F50083A7418291C31B
:101C24001CC0B240224441018280411122C42A8452
:101C34002E8523A2018206C69521FD576316F50061
:101C440083A7418291C31CC0B240224441018280D7
:101C5400411122C42A842E85B28523A2018206C69C
:101C6400A121FD576316F50083A7418291C31CC0CF
:101C7400B240224441018280411122C42A842E852B
:101C840023A2018206C63D21FD576316F50083A7F2
:101C9400418291C31CC0B24022444101828041115F
:101CA40022C42A842E85B285368623A2018206C6E2
:101CB4000129FD576316F50083A7418291C31CC017
:101CC400B24022444101828093F5F50F2A966314B1
:101CD400C500014582801C21E38EB7FE0505C5BF02
:101CE400138501816FF05F85138501816FF0FF8497
:101CF400797156CA9C49BA8A984522D44AD04ECEA4
:101D040052CC06D626D25AC85EC6B3E7E70A1CC22E
:101D140003C73504AA892E843289368A19C38507F4
:101D24001CC21C4093F7070291C783270900890747
:101D34002320F9000440998891E8130B9401FD5B7A
:101D44005C4403270900998F63CCF404834734046B
:101D5400B336F0001C4093F70702A5EB13063404D6
:101D6400D2854E85829AFD576303F5041C401147C2
:101D74008144998B6399E7008327090044449D8C2F
:101D84008147B3E4F40A1C4418486354F700998F5C
:101D9400BE94014969047D5B63982405014509A843
:101DA40085465A86D2854E85829A631E75017D5575
:101DB400B250225492540259F249624AD24A424BD6
:101DC400B24B456182808504A5BF3307D400130656
:101DD4000003A301C7040347540493871600A29782
:101DE4008906A381E7049DBF85462286D2854E8558
:101DF400829AE30E65FB050945B7797122D44AD06E
:101E04004ECE52CC06D626D256CA5AC803C885012D
:101E1400930780072A892E84B289368A63E20703EE
:101E2400930720069386350463E10703630B081CBC
:101E34009307800517060000130606396307F81494
:101E4400930424042301040515A89307D8F993F7F0
:101E5400F70F5546E366F6FE1706000013064639EB
:101E6400B3C7C7209C43B29782871C43938425043D
:101E7400938647009C4314C32381F504854765A2D8
:101E840090411C43137506089385470029C19C4360
:101E94000CC3584063DE07129305D002A301B404B7
:101EA40018C4635E0702B307F04017060000130668
:101EB400A6312948B68433F70703FD143297182353
:101EC40098A03E87B3D70703E37707FF85A09C4319
:101ED400137506040CC355DD939757605DBF6D9A67
:101EE40010C0D1B790411C43137506089385470071
:101EF40001C50CC39C4331A0137606040CC37DDAE0
:101F04009E231307F006170600001306E62B631F33
:101F1400E80A2148A3010404584018C4E34C07F814
:101F24000C40ED990CC0D9F7B68449F7A147631E5C
:101F3400F8001C40858B91CB58401C4863C7E700D0
:101F440093070003A38FF4FEFD14858E14C85287F3
:101F5400CE867000A2854A85613BFD5A6319550DF2
:101F64007D55B250225492540259F249624AD24ADF
:101F7400424B456182809C4193E707029CC1130850
:101F840080071706000013066625A30204050C400B
:101F94001C4313F80508138547006305080008C3AC
:101FA4009C4339A013F8050408C3E30B08FE9E23E1
:101FB40013F7150001C793E505020CC099C3414806
:101FC40091BF18401377F7FD18C0D5BF294899B7BA
:101FD400170600001306461F29483DBF90411C43C5
:101FE400CC4913780608138547006306080008C324
:101FF4009C438CC339A008C3137606049C4375DA4A
:102004008EA323280400B68499B71C43D04181458C
:102014009386470014C3844326857D3101C5B307E5
:1020240095405CC05C401CC8A30104040DB714486F
:102034002686CE854A85029AE30455F31C40898B93
:1020440085E74844B2473365F50A21BF854656867D
:10205400CE854A85029AE30565F185045C443247DE
:10206400998FE3C5F4FEF1BF8144930A94017D5B2B
:10207400F5B7411122C42A842E85B285368623A25F
:10208400018206C6A120FD576316F50083A741828D
:1020940091C31CC0B2402244410182809307800551
:1020A40023A2F1827D5582809307800523A2F182C9
:1020B4007D5582809307800523A2F18201458280A9
:1020C4009307800523A2F1827D55828093078005C2
:1020D40023A2F1827D55828053746172742040433F
:1020E40068697049443D253032580A00312E7370B6
:1020F40069206D6173746572206D6F64652073650A
:102104006E642064617461202E2E2E0072656365F6
:102114006976652025780A004649464F2072656332
:102124007620000020257800444D412072656376B6
:1021340020000000454E44202E2E2E002EE8FFFFE6
:1021440046E8FFFF6AE8FFFF74E8FFFF8AE8FFFF45
:10215400000000000000000000000000000000007B
:10216400000000000000000000000000000000006B
:10217400000000000000000000000000000000005B
:10218400000000000000000000000000000000004B
:10219400000000000000000000000000000000003B
:1021A400000000000000000000000000000000002B
:1021B400232D302B20000000686C4C0065666745B9
:1021C40046470000303132333435363738394142EE
:1021D400434445460000000030313233343536374D
:1021E4003839616263646566000000007EFCFFFFAD
:1021F40094FCFFFF54FCFFFF54FCFFFF54FCFFFF63
:1022040054FCFFFF94FCFFFF54FCFFFF54FCFFFF52
:1022140054FCFFFF54FCFFFFF0FDFFFFF8FCFFFF41
:102224008AFDFFFF54FCFFFF54FCFFFF1EFEFFFF6F
:1022340054FCFFFFF8FCFFFF54FCFFFF54FCFFFFBE
:0422440092FDFFFF09
:0222480001A0F3
:10224C000102030405060708090001020304050640
:10225C0000000000942100007421000054210000B3
:10226C000000000000000000000000000000000062
:10227C000000000000000000000000000000000052
:10228C000000000000000000000000000000000042
:10229C000000000000000000000000000000000032
:1022AC000000000000000000000000000000000022
:0C22BC0048070020B0060020B0060020FB
:00000001FF
