:040000006F00C0735A
:100004000000000000000000F00300206A0300204C
:10001400A9BDF9F3DC2B0000000000000000000083
:10002400DC2B0000DC2B00000000000000000000BE
:10003400DC2B000000000000DC2B000000000000AE
:1000440000000000DC2B000000000000DC2B00009E
:10005400DC2B0000DC2B00009000002000000000DE
:10006400DC2B00000000000000000000DC2B00007E
:10007400DC2B0000DC2B0000DC2B0000DC2B000060
:1000840000000000DC2B000000000000DC2B00005E
:10009400971000E0E7806098730020309307000C0D
:1000A4000111631CF50493078008F3B7078093F7E5
:1000B40087083EC00F100000B717004013077005F3
:1000C4002380E704130780FA2380E7040F1000005D
:1000D40003C7F70013670704A387E70003C7870074
:1000E4001367070C2384E700238007048247F3A7E0
:1000F40007800F10000005618280B717004003C716
:10010400A700118B79EF83C6E7041307800893F6E1
:10011400F60F733607801376860832C20F1000007C
:100124001308700523800705930580FA2380B7041C
:100134000F10000003C6E704136636002387C704C4
:1001440003C6A700136646002385C700238007045F
:100154001246732606800F10000003C6870013762C
:10016400F60F73370780137787083AC40F1000001F
:10017400238007052380B7040F10000003C78700FE
:100184001367070C2384E70023800704A247F3A71F
:1001940007800F100000A5470100FD1793F7F70F24
:1001A400E5FF93078008F3B7078093F787083EC6F7
:1001B4000F100000B7170040130770052380E704F1
:1001C400130780FA2380E7040F1000002384C7007C
:1001D4002387D70423800704B247F3A707800F10AF
:1001E40000009377050C130700046392E70A930752
:1001F4008008F3B7078093F787083EC80F10000004
:10020400B7170040130770052380E704130780FA2B
:100214002380E7040F10000003C7A7008546136777
:1002240007012385E70037270040A303D7808346CF
:10023400578093E60601A302D78023800704C247B0
:10024400F3A707800F10000093078008F3B7078017
:1002540093F787083ECE0F100000B717004013072E
:1002640070052380E704130780FA2380E7040F1046
:10027400000003C7F7001375F50F13670704A3877E
:10028400E7002384A70023800704F2478DB5937702
:10029400F5019DCF93078008F3B7078093F787088C
:1002A4003ECA0F100000B7170040130770052380E3
:1002B400E704130780FA2380E7040F1000003727B0
:1002C40000408946A303D78023800704D2478DBF0B
:1002D40093078008F3B7078093F787083ECC0F1085
:1002E4000000B7170040130770052380E7041307C5
:1002F40080FA2380E7040F100000372700409D4652
:10030400A303D78023800704E2471DBF0111814660
:1003140001468145114506CE971000E0E780001C98
:1003240093078008F3B7078093F787083EC60F103A
:100334000000B7170040130770052380E704130774
:1003440080FA2380E7040F10000003C767041367D3
:1003540017002383E70423800704B247F3A7078029
:100364000F100000F2400561828041118146014670
:1003740081451145971000E0E78040161307800877
:10038400F337078093F787083EC40F100000B717B0
:100394000040130670052380C704930680FA238067
:1003A400D7040F100000FD552396B70223800704DD
:1003B400A245F3A505800F1000007337078013775B
:1003C40087083AC60F1000002380C7042380D7048F
:1003D4000F10000003C76704136717002383E704A3
:1003E40023800704B247F3A707800F10000001A081
:1003F40001A0E5473305F50201007D1575FD8280F6
:10040400411122C406C62A841305803E7D14D537C3
:100414003344040875F8B2402244410182802E9688
:10042400AA870F70B6788280230304801547A287B9
:100434002303E480010001002302A48003C7678032
:1004440062076187E34C07FE2382A78022878347E4
:100454006780E207E187E3CC07FE82802303048000
:1004640015472303E480010001002302A480828055
:1004740083076480E3CE07FE23030480828083071E
:100484006480E3CE07FE0345448082808307648052
:10049400E3CE07FE2302A4808280411126C44AC20F
:1004A4004EC006C61377F50BAD47AA892E8995442D
:1004B4006306F70019455D37653F8D444E85793FE6
:1004C400FD59FD1463983401B240A2441249824993
:1004D40041018280135509011375F50F453F220927
:1004E400CDB7011126CC06CEB70408005137154507
:1004F400B537713769372AC6A53F3245937715005A
:1005040089EB136515001375F50FF240E24405619C
:100514008280FD14E9FC0145CDBF411106C6B71721
:100524000040130770052380E704130780FA238033
:10053400E70403C747041305F00F1367070E23826C
:10054400E70491472303F480C535B24041010DB758
:10055400011126CC4ACA4EC852C606CE2A89AE8993
:10056400B284554A5D3F91E82137F24026855249CD
:10057400E244C249324A05618280CA850945313F55
:10058400910903A7C9FF91472320E48003076480EE
:10059400E34E07FE23034481FD17EDFBFD1411090F
:1005A40081C49377F90FE9FF2D3F55FDFD5475BFC5
:1005B400011126CC4ACA4EC852C656C45AC206CEE7
:1005C4002A89328A8D49913FC164C16A056B938738
:1005D400F4FFB3F7270199E363719A02FD1991803F
:1005E400E39709FE71350145F240E2445249C2499C
:1005F400324AA24A124B056182801305800D63883A
:100604005401130500026384640113051008CA85AC
:100614006935C13D09C52699330A9A4075BF7D5590
:10062400E1B7011106CE26CC4ACAB2844EC82AC606
:100634002E89E5353245FD14FD59AA852D45B13D78
:10064400639A34013535F24026855249E244C24961
:10065400056182802D3593F7340091EB8326048065
:100664000327090093074900E39EE6FC3E89FD1435
:10067400C1BF011106CE2AC64D353245C533F240FD
:100684000561FDB3011106CE26CC4ACA4EC852C636
:10069400AA8956C42E895135CE852D45FD3B81440A
:1006A4008D4A214AE93B6396540183270480232021
:1006B400F9008504E39844FF8327048013972901F4
:1006C400635C07002312F900F240E2445249C24934
:1006D400324AA24A056169BB2322F900F5B74111E8
:1006E40006C626C44AC24EC0AE89053D81451305DF
:1006F400B0046533BD447D59593393F77400CE97E4
:1007040003C70700FD14398D2380A700E39624FF57
:10071400B240A24412498249410199BB411106C623
:10072400ED3B130560061D3BA133130590093D33D2
:08073400B240410135BB000099
:10073C00971100209381C189173100201301C18BBF
:10074C0013054000970500209385058B17060020A4
:10075C00130606FE63FAC5008322050023A055008C
:10076C0011059105E3EAC5FE172500001305C546E2
:10077C00970500209385C5FB1386018163FAC5009C
:10078C008322050023A0550011059105E3EAC5FE5F
:10079C0013850181938581A96377B500232005001A
:1007AC001105E36DB5FE93025002739002BC8D42AD
:1007BC00739042808542739012BC930280087390B0
:1007CC000230970200209382228393E232007390CE
:1007DC005230970200009382220A739012347300F5
:1007EC0020302A8309CA83830500230073007D16F9
:1007FC00050385056DFA82802A8311C62300B30098
:10080C007D16050365FE8280411106C693858181A4
:10081C002380A50003A54183114613050504D13798
:10082C00B240114541016F005046411106C69385F7
:10083C0001812381A50003A58183214613050504AD
:10084C004D37B240214541016F00D042411106C6DF
:10085C00B7170040214723ACE70A8D452145EF002F
:10086C00F01C014681450545EF00F035B2404101D1
:10087C006F0050324111194506C6EF0030161305B2
:10088C00600497000020E780E080C937172500003E
:10089C001305C507EF00F06A9387819D23AEF182A3
:1008AC009387819523ACF1829387818D23AAF18262
:1008BC00B716004097070020938707F723A8F1820B
:1008CC0083D7860171777D17F98F239CF600EF0093
:1008DC009032B7E700E03707400023A0E71013057C
:1008EC00803E97000020E78020B10545313F13057D
:1008FC00400697000020E78020B0014531371305F2
:10090C00800C97000020E78020AF1305803E9700F5
:10091C000020E78060AE6945093F1305400697004B
:10092C000020E78060AD014509371305800C970066
:10093C000020E78060AC1945CD3D130540069700BB
:10094C000020E78060AB0145CD351305800C970086
:10095C000020E78060AA2D45C93D1305400697008D
:10096C000020E78060A90145C93595BF81471386F2
:10097C00818313F7F70F6364A7006F00B02F184241
:10098C003E9783460700850793C6F6FF2300D704DE
:10099C00CDB781471386418313F7F70F6364A70024
:1009AC006F00B02E18423E9783460700850793C60A
:1009BC00F6FF2300D704CDB781471386018313F7C5
:1009CC00F70F6364A7006F00B02D18423E97834663
:1009DC000700850793C6F6FF2300D704CDB793070E
:1009EC0000041386C183138707FC1377F70F636426
:1009FC00A7006F00502C18423E97834607008507CE
:100A0C0093C6F6FF2300D704F9BF011122CC06CE02
:100A1C0026CA4AC84EC652C456C2378400408347C1
:100A2C00640013F7F70F898B638E07768347740086
:100A3C001307000393F707036385E70683477400E6
:100A4C00914693F7F70363E3F604FD1793F7F70F5B
:100A5C000D476360F71417270000130727EFB3C780
:100A6C00E7209C43BA9782879387F7FD93F7F70F9C
:100A7C000D476363F70A17270000130727EEB3C768
:100A8C00E7209C43BA97378700408287138707FE7D
:100A9C001377F70FE3FAE6FCB78700400947238387
:100AAC00E70037870040834777009397476063DB05
:100ABC000736930720FC2301F7029386C1838042FB
:100ACC0013894182834A740083476400A20AB3EA03
:100ADC00FA0023105901834714002383F1828349C0
:100AEC00040013FA090663050A2813F70904631DA9
:100AFC00072213F7090263090722F91793F7F70F77
:100B0C0025476366F73017270000130727E6B3C79E
:100B1C00E7209C43BA97828783C761829546638F8F
:100B2C00D70499466387D700E388E7F623000402CD
:100B3C00B9A8938941821389018283D40900832542
:100B4C00090093070004B3D4F40A03A5C1832686D5
:100B5C00493983D7090013FAF40F858F2390F900D4
:100B6C0083270900A6972320F90023004403834719
:100B7C00240293C707042301F40239BF83473400CE
:100B8C0003C7418293F70708D98FA301F400894763
:100B9C00DDB78347840003C76182A547E31EF7EEE8
:100BAC001384C1831C40972500009385A5F983C746
:100BBC000700858B89C7972500009385A5D5172538
:100BCC000000130565D5EF0010231C40972500008D
:100BDC00938545F783C70700898B89C79725000044
:100BEC00938545D317250000130505D4EF00B020DD
:100BFC001C40972500009385E5F483C70700918B73
:100C0C0089C7972500009385E5D0172500001305AB
:100C1C00A5D2EF00501E49B5B787004003C7770037
:100C2C0013770704E30A07E603C7670213470708AD
:100C3C002383E70203C58700153BB9BD83476702D1
:100C4C0093C707042303F7028347670293F7C70F81
:100C5C0093E727002303F70281B5B787004003C74A
:100C6C00770013770704E30907E203C7A7021347CA
:100C7C0007082385E70203C58700213B31BD834765
:100C8C00A70293C707042305F7028347A70293F72C
:100C9C00C70F93E727002305F702FDBBB78700407A
:100CAC0003C7770013770704E30807DE03C7E702DF
:100CBC00134707082387E70203C58700F539E9BB0B
:100CCC008347E70293C707042307F7028347E7022A
:100CDC0093F7C70F93E727002307F70275BBB78776
:100CEC00004003C7770013770704E30707DA03C74D
:100CFC002703134707082389E70203C58700C5317B
:100D0C0061BB8347270393C707042309F702834773
:100D1C00270393F7C70F93E727002309F702ADBB0F
:100D2C0083C7B19DA38EF18081469399496063DDA1
:100D3C000900835709001307000433D7E70A998F7A
:100D4C009376F70F2310F900B78700402380D70262
:100D5C00130700FCC9A083C7A19D238FF180E9B7BD
:100D6C0083C7D181238CF19CC1B783C7E181DDBFDF
:100D7C002D47636EF708172700001307A7C1B3C7E9
:100D8C00E7209C43BA9782878347340003472400AB
:100D9C009D46A2075D8FA1839384018263E2F602D4
:100DAC0085CBFD179946B3C7070863E3F602972670
:100DBC000000938626C1B3C7D7209C43B697828781
:100DCC00130710026389E706130720026387E708FD
:100DDC008147130AF00F39A0972700009387C7CDDE
:100DEC009CC0C94763F457012310F900835A0900CA
:100DFC008C4093070004B3DAFA0A22855686D53262
:100E0C009C40D6979CC09307F00FE31FFAF0B7876E
:100E1C0000401307F0FC2381E702B7870040094725
:100E2C002383E700F2406244D2444249B249224A49
:100E3C00924A056182808347440099CB0547E39928
:100E4C00E7F897270000938717C69CC0A54759BFA2
:100E5C00972700009387A7C3CDBF0347440009EB36
:100E6C0097270000938707BB9CC09307E0039DBFA7
:100E7C0085469307F00FE317D7F697270000938763
:100E8C0027B69CC0A383E18293074003A1BF93774D
:100E9C00F70F0547638BE7000947638FE7008DFB6E
:100EAC00938781809CC0914735BF9727000093871B
:100EBC0027BB9CC0B9473DB797270000938787B9DC
:100ECC009CC0B14705B797270000938767BA9CC0B1
:100EDC00A94709BF1306900397250000938525BAEF
:100EEC00170500201305E584EFF0BF8F970700204E
:100EFC00938707849CC09307B003EDB59727000038
:100F0C009387C7B7C5BF834724002310F90029BDB9
:100F1C0083C781822300F400035709008547E3F55A
:100F2C00E7E08547DDB7834724002384F182EDBBDE
:100F3C0013F7F90189476310F70A834744009306B6
:100F4C001008638FD70663E1F6026384E7060D474A
:100F5C00638FE7020547E39CE7EA37870040834746
:100F6C00670293F73707ADA0130720086388E702E1
:100F7C0013073008E39DE7E8378700408347E70213
:100F8C0093F7C70B93E727002307F70271BB37874B
:100F9C0000408347E70293F73707FDB737870040D8
:100FAC008347A70293F7C70B93E727002305F702A4
:100FBC00A5BB378700408347A70293F73707FDB7D8
:100FCC00378700408347670293F7C70B93E72700E7
:100FDC002303F70291BBE31C07E28347340003476A
:100FEC002400A207D98F0547E390E7D41387C1816A
:100FFC0083470700F99B2300F7003DB313F7F90172
:10100C0089476314F70A8347540083464400A207B8
:10101C00D58F930610086381D70863E3F6026384C7
:10102C00E7060D47638FE7020547E392E7DE378754
:10103C0000408347670293F7370793E7C70049BF20
:10104C00130720086388E70213073008E391E7DCF5
:10105C00378700408347E70293F7C70B93E73700C6
:10106C0025B7378700408347E70293F7370793E7A5
:10107C00C70019BF378700408347A70293F7C70BF8
:10108C0093E7370025B7378700408347A70293F7CC
:10109C00370793E7C70019BF3787004083476702BC
:1010AC0093F7C70B93E7370025B7E31207D68347AF
:1010BC00340003472400A207D98F0547E396E7C6FF
:1010CC001387C1818347070093E717002DB72300CF
:1010DC00040099B513F6F90189476319F60A230040
:1010EC00040098428347570083454700A207CD8FE1
:1010FC0093051008638DB70663E4F5026384C70695
:10110C000D46638FC70205466388C7069C42A380C1
:10111C000700035709008547E3F8E7C08947F5B393
:10112C0013062008638BC70213063008E390C7FE32
:10113C00B787004083C7E70293F737040D4601A831
:10114C00B787004083C7E70293F7C7083146E39F90
:10115C00C7FA85472300F70055BFB787004083C700
:10116C00A702D9BFB787004083C7A702F1BFB787D3
:10117C00004083C76702C9B7378600400346660242
:10118C00B1451376C608E313B6F8E9B741F223006C
:10119C00040003C7C18119C398426DBF9C422380D0
:1011AC000700ADB79377170085C38947A3010400E7
:1011BC002301F4022303F4022305F4022307F402AF
:1011CC0085472303F400B9B99377470089C7834750
:1011DC0054009147FDB72303E400A9B13717004031
:1011EC008347E70412054111BD8BC98F93F7F70FA5
:1011FC0093068008F3B6068093F6860836C60F1061
:10120C000000930670052300D704930680FA230090
:10121C00D7040F1000002307F70423000704B2477C
:10122C00F3A707800F10000041018280914763EC07
:10123C00B7049727000093876789B3C5F5209841B9
:10124C003E97B71700409387470B02879443371795
:10125C000040B3F6A64094C39306070B9C42B3F729
:10126C00A74019A8944337170040B3F6A64094C37F
:10127C009306070B9C42C98F9CC29307070A98439D
:10128C003377A74098C38280944337170040C98EA8
:10129C00D9B798433377A74098C3B71700409387C3
:1012AC00070A9843498FF9BF9843498FF5B7B71789
:1012BC00004003C787009306000C1377070C6315D7
:1012CC00D70003A5C182828003C787009306000460
:1012DC001377070C6312D70283C68700130700022B
:1012EC00FD8A81C603C787007D8B3745C323130551
:1012FC0005603345E502828083C687001307000230
:10130C00FD8A81C603C787007D8B3755E80113051D
:10131C000580C5B73285814737370040A14663C386
:10132C00A70082800346B740E30ED6FE3386F50055
:10133C000346060085072304C740D5B797F6FF1F61
:10134C0093860649AA878842138781A9AA9763E9DD
:10135C00E7000A87130707FC6364F7009CC28280CE
:10136C007D558280411122C406C62A8489372947BB
:10137C00B307E502B2408D83B3D7870222449507A9
:10138C00B3D7E70237370040B3C707082316F74037
:10139C0041018280716541111305052006C6D937BC
:1013AC00B7370040130710F82381E7400D47A3819E
:1013BC00E74013070004A380E74005472387E74075
:1013CC00B24041018280371700408357A701B3C751
:1013DC00070893F707FCB3C70708231DF70019C9C3
:1013EC008357A7018E055D8ED18DB3C50508231DCE
:1013FC00B70082808280B7870040238007001307E4
:10140C00C0FC2386E700A386E70003D7C18323989B
:10141C00E70003D78183239AE70003D74183239CFA
:10142C00E70003D70183239EE70089462381D70277
:10143C0049472383E7022385E7022387E7022389B1
:10144C00D702A3810700130790022380E700B71689
:10145C00004003D786010D66518F239CE6007D5713
:10146C002383E700130710F8A380E7001D472381AF
:10147C00E7008280B78700402382A70203C7670278
:10148C001377C70F2383E7028280B787004023843A
:10149C00A70203C7A7021377C70F2385E702828031
:1014AC00B78700402386A70203C7E7021377C70F4D
:1014BC002387E7028280B78700402388A70203C7EF
:1014CC0027031377C70F2389E702828001112A872C
:1014DC0006CE2E8526CCB2854ACA368622C637243D
:1014EC000040B7E700E0FD5603A90700C44323A062
:1014FC00D71823A2D7189307F7FF93F7F70F0948CC
:10150C00636AF808B717004083C75704B7C80300CD
:10151C00F95763741505B306C50063E0D80463146A
:10152C000705098297F0FF1FE7800002AA8737178B
:10153C000040930670052300D704930680FA23001D
:10154C00D70483464704C18A2302D70437E700E057
:10155C0023202711232297103244F240E2445249AF
:10156C003E85056182808547631FF7008567FD17FF
:10157C003E96E98F3E96FD777D8E7D8D97F0FF1F11
:10158C00E780800265B797F0FF1FE780000993079B
:10159C00150071BFB547631AF7001305900B97F050
:1015AC00FF1FE780800C814759B7B1476315F700DF
:1015BC001305B00AEDB799476317F70097F0FF1FB3
:1015CC00E780C00BCDB79D47631BF70023A0050038
:1015DC0023A2050097F0FF1FE780E00FE9B79147C2
:1015EC006317F70097F0FF1FE780C0126DBF8147AC
:1015FC001DDFF1572DBF5D7122D406D62A842EDA59
:10160C0032DC36DEBAC0BEC2C2C4C6C617F5FF1F76
:10161C000325451C11C51C4D81E72AC649233245BB
:10162C000C455418228636CEEF003025B250225489
:10163C0061618280011126CA06CE22CC4AC84EC6F0
:10164C0052C4AA8419E11C4502901C4D2E89A5E7B1
:10165C00B9239C4C8044B5C3971700009387474C23
:10166C006310F406C0407C50858B81EB8357C4001B
:10167C0093F7072099E3284C45258357C400A18B89
:10168C0099C31C48C5E7A2852685512245C1FD5446
:10169C007C50858B81EB8357C40093F7072099E32B
:1016AC00284CA52DF24062444249B249224A268573
:1016BC00D24405618280004545B72685CD2169BF9E
:1016CC00971700009387C7436314F400804461BFED
:1016DC00971700009387C740E317F4F8C04461B72D
:1016EC001CC4050963C907021C401387170018C0E6
:1016FC002380B7001C4483450900FD17F5F11CC479
:10170C0063D907022286A94526859120FD57E3005F
:10171C00F5F8A944B5BF184C63C4E700E39645FD42
:10172C00228626852D20E31735FD95B7FD59294ACC
:10173C00D1B71C401387170018C029472380E70036
:10174C00C9BFAA8517F5FF1F0325C508E5B501110B
:10175C0022CC26CA4AC806CE4EC6AA842E8932840A
:10176C0001C51C4D91E32529971700009387473B32
:10177C006318F402C0401C4C1CC48357C400A18BDA
:10178C0099C31C4895EFA2852685512015C97D5912
:10179C00F2406244D244B2494A8542490561828092
:1017AC00971700009387C7356314F4008044E1B7A2
:1017BC00971700009387C732E31FF4FAC04465BF44
:1017CC001C4808409379F90F1379F90F1D8D5C486B
:1017DC006346F500A2852685B52455F91C440505FC
:1017EC00FD171CC41C401387170018C02380370139
:1017FC005C486389A7008357C400858BD1DBA9475C
:10180C00E318F9F8A2852685352C59D149B7411131
:10181C0022C426C24AC006C697F4FF1F83A484FBC9
:10182C002A892E8489C49C4C99E326858D2E971782
:10183C0000009387E72E6314F402C0408317C400A2
:10184C0013F787002DEB13F7070115EB2547232022
:10185C00E90093E707042316F4007D5559A8971760
:10186C0000009387E7296314F4008044C1BF9717E5
:10187C0000009387E726E313F4FCC044C1B7918BB7
:10188C008DC74C5889C9930744046384F5004A8575
:10189C006923232A04028357C4002322040093F7EC
:1018AC00B7FD2316F4001C481CC08357C40093E7F3
:1018BC0087002316F4001C4881EF8357C4001307DC
:1018CC00002093F707286385E700A2854A856D21E0
:1018DC008317C40013F717001DC3584823240400B2
:1018EC003307E04018CC1848014501E713F7070807
:1018FC002DF3B2402244924402494101828013F7F5
:10190C002700814611E3544814C4F1BF8397C500E6
:10191C00011122CC26CA06CE4AC84EC613F7870040
:10192C00AA842E8469E7D8416345E000B841635826
:10193C00E008585449C703A9040023A004000C5024
:10194C0093D7C748B9CB70488357C400918B99C7BC
:10195C005C401D8E5C5899C33C401D8E5C540C50F1
:10196C00814626858297FD57630DF5041C48056753
:10197C00232204001CC08357C400F98F91C368C88C
:10198C004C5823A0240185CD930744046384F500AF
:10199C0026856121232A04021DA001468546268541
:1019AC000297FD572A86E311F5FA9C40D1DF754763
:1019BC006385E70059476395E70623A02401014599
:1019CC00BDA098408317C40001CFF5466305D7002E
:1019DC00D9466319D7041C48232204001CC04DB7F8
:1019EC0018482322040093D7C74818C041BF83A9C5
:1019FC000501E38609FC03A905008D8B23A03501A5
:101A0C0033093941014791E3D84918C4E35920FB04
:101A1C001C540C50CA864E86268582976340A002C1
:101A2C008317C40093E707042316F4007D55F24096
:101A3C006244D2444249B24905618280AA99330971
:101A4C00A940E9B79C49411106C622C426C281EBC4
:101A5C008144B24022442685924441018280AA846A
:101A6C002E8401C51C4D91E31D2A97170000938706
:101A7C00270B631DF402C0408317C400F1DB7850C0
:101A8C00058B11E793F7072099E3284C71242685E1
:101A9C00A285AD3D7C50AA84858BC5FF8357C400BD
:101AAC0093F70720DDF7284C8D2C65B797170000AE
:101ABC00938707056314F40080447DBF97170000DB
:101ACC0093870702E31AF4FAC0447DB7411122C48C
:101ADC0006C62A842316B5002317C500232005004B
:101AEC0023220500232405002322050623280500B4
:101AFC00232A0500232C0500214681451305C50525
:101B0C00EFE09FCF97170000938787865CD09717DD
:101B1C0000009387C7881CD4971700009387E78C25
:101B2C005CD4971700009387878FB24000D01CD8E5
:101B3C00224441018280970500009385E5F0BDA207
:101B4C00411126C2930780069384F5FFB384F402F7
:101B5C004AC02E8922C406C693854407452E2A8482
:101B6C0001CD2320050023222501310508C413864D
:101B7C0084068145EFE05FC8B2402285224492443E
:101B8C000249410182801385418479A213854184E5
:101B9C0069A21385818449A213858184BDAA411150
:101BAC0022C406C62A84F5371C4C89C72244B2408D
:101BBC004101DDB797070000938727F81CD4232435
:101BCC000404232604042328040483A7C1806394FB
:101BDC00870085471CCC22853D2048C022852520C6
:101BEC0008C422850D2048C4484001469145F93D62
:101BFC0008440546A545D93D48440946C945F9352B
:101C0C0085471CCC65B7411126C24AC006C622C402
:101C1C002A89953F83A4C1809C4C99E32685413742
:101C2C00938484048044DC40FD1763D607009C40F9
:101C3C00BDC38440C5BF0317C40039EBC17785070A
:101C4C005CC41305840523220406F1208137214648
:101C5C00232004002324040023220400232804004E
:101C6C00232A0400232C040081451305C405EFE04E
:101C7C00BFB8232A0402232C0402232404042326A1
:101C8C000404B240228522449244024941018280DC
:101C9C001304840651BF91454A855D3588C02A845A
:101CAC0049F9ED35B1472320F900E1BF797122D410
:101CBC004AD04ECE52CC5AC85EC606D626D256CA8A
:101CCC002A892E8A130485048149054BFD5B044443
:101CDC00832A4400FD1A63D00A0200406DF8B2500A
:101CEC00225492540259624AD24A424BB24B4E850C
:101CFC00F2494561828083D7C400637BFB008397E4
:101D0C00E40063877701A6854A85029AB3E9A900A6
:101D1C0093848406C1B78280828082805971A2D458
:101D2C002E848395E500A6D2CAD086D6B284368995
:101D3C0063D305028357C40093F7070895EB130789
:101D4C000040B65026542320F90098C006599654EA
:101D5C000145656182803000EF00A071E34C05FC09
:101D6C003247BD67F98F7977BA9793B71700C1BF20
:101D7C00814713070004F1B783D7C500797122D4CA
:101D8C0006D626D24AD04ECE898B2E8491CF93077D
:101D9C0074041CC01CC885475CC8B25022549254B1
:101DAC000259F2494561828074003000AA84BD3723
:101DBC00A2492A892685CE85912A01ED8317C40074
:101DCC0013F7072079FBF19B93E727002316F40008
:101DDC007DBF97070000938747D69CD48357C400D8
:101DEC0008C008C893E707082316F400B247232A53
:101DFC00340189CF8315E4002685452501C9835715
:101E0C00C400F19B93E717002316F4008357C4001A
:101E1C0033E527012316A40049B7D1CD83A7C5FF0D
:101E2C00011122CC06CE1384C5FF63D307003E9468
:101E3C002AC6C92D138701851C43324581EB232209
:101E4C00040000C36244F2400561C9A5637DF4003F
:101E5C001040B306C4006396D7009443DC43B2969B
:101E6C0014C05CC0F9BF3E87DC4399C3E37DF4FE2C
:101E7C0014433306D700631F86001040B29614C378
:101E8C003306D700E390C7FC9043DC43B29614C3EF
:101E9C005CC34DBF6375C400B1471CC165B710402E
:101EAC00B306C4006396D7009443DC43B29614C0C7
:101EBC005CC040C341BF828041114AC01389C184B8
:101ECC008327090022C426C206C6AA842E8489E769
:101EDC0081458D292320A900A2852685A5217D5920
:101EEC00631A25017D54B240228522449244024952
:101EFC0041018280130435007198E30685FEB30519
:101F0C00A44026858121E31025FFE9BF011126CAD3
:101F1C0093843500F1984AC8A104B14706CE22CC6F
:101F2C004EC62A89B3F4F40A63C4040063FDB400FA
:101F3C00B1472320F9000145F2406244D2444249A2
:101F4C00B249056182807D2B9389018583A70900A5
:101F5C003E8431E4A6854A858537FD572A8463166D
:101F6C00F50A03A40900A287C1EB8329040081456B
:101F7C004A85A299C12E6394A9081C408D044A85F8
:101F8C009D8CF198B147A104B3F4F40AA6852D37C2
:101F9C00FD576306F5061C40A6971CC015A01440FF
:101FAC00858E63C806042D47637DD70204C03307B2
:101FBC0094006396870223A0E9005C4014C35CC3C1
:101FCC004A85A9231305B40093074400619933078C
:101FDC00F540E303F5F63A94898F1CC0B1BFD8C322
:101FEC00E9BF58406395870023A0E900D1BFD8C34F
:101FFC00C1BFA2874040B1BF3E84DC43B5B7B147F7
:10200C002320F9004A8519233DB704C155BF1C464E
:10201C00FD171CC663DA0700184E63C5E700A94715
:10202C006394F5006FF0AFF21C422E8513871700F6
:10203C0018C22380B7008280011122CC26CA4AC85C
:10204C004EC652C406CE2A89AE893284B304D60059
:10205C007D5A63149400014509A8834504004E86FB
:10206C004A8575370504E31645FFF2406244D244B5
:10207C004249B249224A05618280357122CD26CB74
:10208C004AC94EC706CF52C556C35AC1DEDEE2DC82
:10209C00AA892E843289B68401C51C4D91E3013680
:1020AC00971700009387C7A76319F40403A449008A
:1020BC007C50858B81EB8357C40093F7072099E301
:1020CC00284C99398357C400A18B99C31C48A5E3AC
:1020DC00A2854E85EFF0AFF339C97C50858BA1C337
:1020EC007D55FA406A44DA444A49BA492A4A9A4A1E
:1020FC000A4BF65B665C0D61828097170000938734
:10210C0027A06315F40003A489005DB7971700009E
:10211C009387079DE31EF4F803A4C90051BF8357AE
:10212C00C40093F70720CDFF284CC53E55BF93073D
:10213C000002A304F1029307000302D22305F1026B
:10214C0026C6930B5002971A0000938A6A9F294B5C
:10215C00CA8483C7040099C3639B7709338C2441D9
:10216C00638D2401E2864A86A2854E85F135FD57A2
:10217C00630DF5189257E2973ED283C7040063862D
:10218C000718FD571389140002C802CE3ECA02CCB0
:10219C00A309010482D48345090015465685B1264E
:1021AC00C2479304190031E513F7070109C7130758
:1021BC000002A309E10413F7870009C71307B00253
:1021CC00A309E104834609001307A002638AE6020F
:1021DC00F247CA848146254603C704009385140040
:1021EC00130707FD6374E60685C63ECE15A085046D
:1021FC008DB733055541B397A72826893EC861BFD3
:10220C00324793064700184336C6634A07023ACE54
:10221C0003C704009307E002631EF70403C714000E
:10222C009307A002631AF702B24789041387470089
:10223C009C433AC67D57B3E7E70A3ECA25A8330745
:10224C00E04093E727003ACE3EC8D9B7B38767037F
:10225C00AE848546BA9749B7850402CA8146814740
:10226C00254603C7040093851400130707FD637408
:10227C00E606E1F683C504000D46171500001305AC
:10228C00A58CA52411CD971700009387E78B1D8D86
:10229C00C247130700043317A700D98F85043EC823
:1022AC0083C504001946171500001305258A1389E8
:1022BC0014002304B102152C25CD9307000095E7DB
:1022CC004247B2471377071009CF91073EC6925782
:1022DC00D2973ED2B5BDB3876703AE848546BA9715
:1022EC0049B79D07E19BA107D5B778009706000079
:1022FC009386C6D422860C084E8597000000E70012
:10230C000000FD572A8AE314F5FC7C50858B89EB81
:10231C008357C40093F7072081E7284CEFF0FF9F09
:10232C008357C40093F70704E39C07DA125555BB97
:10233C00780097060000938666D022860C084E859E
:10234C00F92CC1B7411122C42A842E8523AA0184F9
:10235C0006C6EFE0BFFEFD576316F50083A7418567
:10236C0091C31CC0B240224441018280411122C45D
:10237C002E848395E50006C62523634905007C4819
:10238C00AA977CC8B2402244410182808357C40082
:10239C009397C7482316F400F5B783D7C5000111EE
:1023AC0022CC26CA4AC84EC606CE93F70710AA847A
:1023BC002E843289B68991C78395E50089460146FA
:1023CC0001228357C4008315E400F2409397C74859
:1023DC002316F4006244CE864A86B24942492685C9
:1023EC00D244056135A8411122C42E848395E500A1
:1023FC0006C6F9207D578357C400631AE5009397EE
:10240C00C7482316F400B2402244410182809397BE
:10241C00C72868C82316F400FDB78395E5003DA0D6
:10242C00411122C42A842E85B285368623AA0184C2
:10243C0006C6EFE03FEEFD576316F50083A7418516
:10244C0091C31CC0B240224441018280411122C47C
:10245C002A842E8523AA018406C68529FD57631676
:10246C00F50083A7418591C31CC0B24022444101B1
:10247C008280411122C42A842E85B28523AA01842C
:10248C0006C69129FD576316F50083A7418591C3B4
:10249C001CC0B240224441018280411122C42A84D2
:1024AC002E8523AA018406C62D29FD576316F50037
:1024BC0083A7418591C31CC0B24022444101828054
:1024CC00411122C42A842E85B285368623AA018422
:1024DC0006C63129FD576316F50083A7418591C3C4
:1024EC001CC0B24022444101828093F5F50F2A961C
:1024FC006314C5000145828083470500E38DB7FE58
:10250C000505FDB7138501846FF01F8113850184C8
:10251C006FF0BF80797156CA9C49BA8A984522D40B
:10252C004AD04ECE52CC06D626D25AC85EC6B3E797
:10253C00E70A1CC203C73504AA892E843289368A5D
:10254C0019C385071CC21C4093F7070291C7832748
:10255C00090089072320F9000440998891E8130B9E
:10256C009401FD5B5C4403270900998F63CCF40450
:10257C0083473404B336F0001C4093F70702A5EBF5
:10258C0013063404D2854E85829AFD576303F504F5
:10259C001C4011478144998B6399E70083270900FC
:1025AC0044449D8C8147B3E4F40A1C44184863549A
:1025BC00F700998FBE94014969047D5B63982405EB
:1025CC00014509A885465A86D2854E85829A631E96
:1025DC0075017D55B250225492540259F249624A07
:1025EC00D24A424BB24B456182808504A5BF33076A
:1025FC00D40013060003A301C704034754049387B4
:10260C001600A2978906A381E7049DBF8546228602
:10261C00D2854E85829AE30E65FB050945B7797123
:10262C0022D44AD04ECE52CC06D626D256CA5AC83E
:10263C0003C88501930780072A892E84B289368ABC
:10264C0063E20703930720069386350463E10703CF
:10265C006300081E93078005170600001306864FBB
:10266C00630AF814930424042301040515A89307A2
:10267C00D8F993F7F70F5546E366F6FE17060000F8
:10268C001306C64FB3C7C7209C43B29782871C431F
:10269C0093842504938647009C4314C32381F5043B
:1026AC0085474DAA90411C43137506089385470036
:1026BC0039C19C430CC3584063D207149305D00214
:1026CC00A301B40418C463500704B307F040170601
:1026DC000000130626482948B68433F70703FD1477
:1026EC003297034707002380E4003E87B3D70703E4
:1026FC00E37507FF8DA09C43137506040CC345DDE1
:10270C00939757604DBF6D9A10C0C1B790411C4351
:10271C00137506089385470001C50CC39C4339A06B
:10272C00137606040CC37DDA83D707001307F00673
:10273C0017060000130606426310E80C2148A3019B
:10274C000404584018C4E34907F80C40ED990CC038
:10275C00C1F7B68451F3A147631EF8001C40858B6A
:10276C0091CB58401C4863C7E70093070003A38F25
:10277C00F4FEFD14858E14C85287CE867000A28597
:10278C004A85493BFD5A631B550D7D55B250225469
:10279C0092540259F249624AD24A424B45618280B4
:1027AC009C4193E707029CC11308800717060000A1
:1027BC001306863BA30204050C401C4313F80508C2
:1027CC00138547006305080008C39C4301A813F850
:1027DC00050408C3E30B08FE83D7070013F71500A5
:1027EC0001C793E505020CC099C3414889BF184045
:1027FC001377F7FD18C0D5BF294891B7170600000D
:10280C0013064635294835BF90411C43CC491378F3
:10281C000608138547006306080008C39C438CC355
:10282C0001A808C3137606049C4375DA2390B700FD
:10283C0023280400B68489B71C43D0418145938674
:10284C00470014C3844326854D3101C5B307954019
:10285C005CC05C401CC8A301040439BF1448268624
:10286C00CE854A85029AE30255F31C40898B85E795
:10287C004844B2473365F50A11BF85465686CE8566
:10288C004A85029AE30365F185045C443247998FCB
:10289C00E3C5F4FEF1BF8144930A94017D5BF5B767
:1028AC00411122C42A842E85B285368623AA01843E
:1028BC0006C6A120FD576316F50083A7418591C379
:1028CC001CC0B2402244410182809307800523AA98
:1028DC00F1847D5582809307800523AAF1847D5570
:1028EC0082809307800523AAF18401458280930797
:1028FC00800523AAF1847D5582809307800523AA45
:10290C00F1847D5582800000737461727400000044
:10291C002A0000005B25735D204E756D204C6F63A3
:10292C006B0900005B25735D2043617073204C6F55
:10293C00636B09005B25735D205363726F6C6C20B5
:10294C004C6F636B0A000000D0E2FFFF12E3FFFF45
:10295C0054E3FFFF96E3FFFFE4E2FFFF26E3FFFFF4
:10296C0068E3FFFFAAE3FFFFF8E3FFFF02E4FFFFCA
:10297C00A6E4FFFFA6E4FFFFA6E4FFFFA6E4FFFF2B
:10298C00A6E4FFFFC0E3FFFFB8E3FFFFEEE3FFFFAA
:10299C0044E7FFFFA0E5FFFF7EE4FFFF6CE6FFFFCF
:1029AC007EE4FFFF76E5FFFFF8E3FFFF7EE4FFFF29
:1029BC0080E5FFFF96E5FFFF3EE7FFFF98E3FFFF93
:1029CC0018E4FFFF3CE5FFFFCEE4FFFF10E4FFFF40
:1029DC0010E4FFFF06E5FFFF14E5FFFF0501090208
:1029EC00A1010901A10005091901290315002501FF
:1029FC007501950381027505950181010501093069
:102A0C00093109381581257F750895038106C0C0E9
:102A1C0005010906A101050719E029E715002501A3
:102A2C007501950881029501750881019503750161
:102A3C000508190129039102950575019101950667
:102A4C00750826FF000507190029918100C00000B8
:102A5C000C03430048003500390078000E03770062
:102A6C00630068002E0063006E0000000A0600027E
:102A7C00FF00FF400100000009023B00020100A022
:102A8C0032090400000103010100092111010001B8
:102A9C00223E000705810308000A09040100010316
:102AAC0001020009211001000122340007058203F4
:102ABC0004000A0012011001000000403D410721F2
:102ACC00000000000001000084E7FFFF9CE7FFFF0F
:102ADC00C0E7FFFFCAE7FFFFE0E7FFFF00000000D1
:102AEC0000000000000000000000000000000000DA
:102AFC0000000000000000000000000000000000CA
:102B0C0000000000000000000000000000000000B9
:102B1C0000000000000000000000000000000000A9
:102B2C000000000000000000000000000000000099
:102B3C00000000000000000000000000232D302BDE
:102B4C0020000000686C4C00656667454647000035
:102B5C0030313233343536373839414243444546C7
:102B6C000000000030313233343536373839616289
:102B7C00636465660000000016FBFFFF2CFBFFFF83
:102B8C00ECFAFFFFECFAFFFFECFAFFFFECFAFFFFA9
:102B9C002CFBFFFFECFAFFFFECFAFFFFECFAFFFF58
:102BAC00ECFAFFFF90FCFFFF94FBFFFF28FCFFFFFC
:102BBC00ECFAFFFFECFAFFFFC0FCFFFFECFAFFFFA3
:102BCC0094FBFFFFECFAFFFFECFAFFFF30FCFFFF7A
:022BDC0001A056
:102BE00009070000000000000000000000000000D5
:102BF00000000000000000000000000000000000D5
:102C000000000000000000000000000000000000C4
:102C100000000000000000000000000000000000B4
:102C2000282B0000082B0000E82A0000000000000C
:102C30000000000000000000000000000000000094
:102C40000000000000000000000000000000000084
:102C50000000000000000000000000000000000074
:102C60000000000000000000000000000000000064
:102C70000000000000000000000000000000000054
:102C8000700A002074070020040309047407002060
:00000001FF
