:040000006F10401726
:100004000000000000000000B40D0020300D0020AE
:10001400A9BDF9F344300000000000000000000016
:1000240044300000443000000000000000000000E4
:1000340044300000000000004430000000000000D4
:1000440000000000443000000000000044300000C4
:10005400220E00201A0E0020443000000000000090
:100064002A0E0020000000000000000044300000C0
:1000740044300000443000004430000044300000AC
:100084000000000044300000000000004430000084
:10009400411122C406C6937725002A8495C7938705
:1000A400C19D9C433707020023A2070698C78177A6
:1000B400FD171387819C3374F5005C43C18B89C79A
:1000C4001C43814541458297937714009DCF9387C4
:1000D400C19D9C433707020023A2070698C7492104
:1000E4009387819CD84319E9058B1DCF03A307008F
:1000F400814505452244B24041010283218B0DC74D
:1001040003A3070081452145F5B79317E40063DD98
:1001140007001387819C5C43918B99C703230700D5
:1001240083C5819D1145F9B7B240224441018280C3
:1001340093F7150085E39387019D9843B7B724008F
:100144009387F7E963ECA7061C4393F707F893E753
:1001540057021CC38547631DF60093F70503130775
:1001640000036395E70CE5818D89E1E513050583BB
:100174009387819E9C434166130606A0D857B70512
:1001840010FEFD1513672700D8D73357C502337502
:10019400C5027D8B93164701F8436D8F558FF8C3C5
:1001A4001307A00FB706FCFF2A053355E502F843F1
:1001B400758F3A053981598DE8C38280B7072500C8
:1001C4009386F74863E3A602B767DBFF9387079339
:1001D400AA979306007DB3D7D702FD17144393F76C
:1001E400F70793F606F8D58FADB7938707496318D9
:1001F400F5001C4393F707F893E7670299BFB7D755
:1002040025009387F77763EDA700B767DBFF938734
:100214000793AA979306007DB3D7D702F9177DBF3A
:100224001C4393F707F893E7770225B74147E38F19
:10023400E7F2130585C12DBF630805145C4909471E
:1002440063850714411126C29384C19D9840914748
:1002540006C622C44AC02313F7001C438D8B89C7EA
:100264001C4393E787001CC31389019D832709005E
:10027400B706FDFF1386F6FF8C432A84B3F6C50048
:1002840094C39443B7053300F18E37060200D18E30
:1002940094C39386819E9442484590464D8E90C661
:1002A40037060F001306861D30CB372723001307AC
:1002B40007866370A70C0C4805469D3D1C48918B2E
:1002C40085C383260900034784019C4293F70704EE
:1002D400D98F984293F7F707137707F8D98F9CC201
:1002E4000848832709001377150019CB984313771F
:1002F400F703936607049843137707F8558F98C359
:100304001840370600FF37090200B8D303474400FA
:10031400F8D31844B8CF185093168700F84FA18229
:10032400718F558FF8CF58489C400146F8DF23A2BF
:10033400070623A4270183459401652B9440854730
:100344004C4C9CC223ACF19C014789CDD0468177AB
:10035400FD17F18FDCC60F1000009C4023A4270179
:10036400ECD3D0C7B2402244924402493A854101B9
:100374008280D856759BD8D61377F50788431375B2
:1003840005F8598D88C3A9BF05473A8582800111B4
:100394004AC81389C19D0326090022CC26CA4EC629
:1003A40006CE1C429384019D9389819E93E7870026
:1003B4001CC20347B5019C402A84136707049316A3
:1003C4009701D85B1E071D83558FD8DB0347A50112
:1003D4002313E600D85B719B13671700D8DB8C43AB
:1003E4003707FDFF9306F7FF33F7D50098C398430B
:1003F400B7053300758FB7060200558F98C303A75E
:10040400090048451447CD8E14C7B7060F009386DC
:10041400862D34CAB72623009386068663FDA60C70
:100424000C48094631331C48918B99CF94400347BB
:1004340084019C4293F70704D98F984293F7F707F6
:10044400137707F8D98F9CC21C48858B81CF9440C1
:100454009C4293F7F70313E707049C4293F707F8CA
:10046400D98F9CC2832709001307800283D76700B2
:100474006372F70203A709005C4393F7F7EF5CC3C9
:10048400010001000100010003A709005C4393E798
:1004940007105CC39C401840544CB7090001D8C7EE
:1004A40003474400370600FF228598CB1844D8C37D
:1004B4001387F9FFF98E9847718F558F98C7832753
:1004C40009005848B8DF452C9C40014598433367E0
:1004D400370198C3D85B719BD8DB83270900094790
:1004E400F240624498C3C14723ACF19CD2444249D0
:1004F400B249056182805457F59A54D71377F507AA
:100504008843137505F8598D88C33DBF9387C19DF2
:100514009C439847D447F98E99CA9386C18103A313
:10052400060098C763050300C847798D028382805B
:100534009387019D98433C439983858B8DC393078F
:1005440000063CC39387C19D9C433707020098C7AC
:100554001387419D1843F8D3894723ACF19C8280CB
:100564009387019D9C43A8431581058982809387C5
:10057400019D98431365050466055C5B9E079D8396
:10058400C98F5CDB82809387819E37272300944345
:10059400130707869387019D9C436376A70E37B79D
:1005A40024001307F7E96365A7069843137707F850
:1005B4001367570298C393F7150081CB93F505038E
:1005C400C147639FF50A13050583DC56B70510FE82
:1005D400FD1593E72700DCD6C167938707A033573F
:1005E400F5023375F5029307A00F7D8B13164701AF
:1005F400F8426D8F518FF8C23707FCFF2A05335537
:10060400F502FC42F98F3A0539815D8DE8C282809A
:10061400370725001306F7486363A6023767DBFF35
:10062400130707932A971306007D3357C7027D17D4
:1006340090431377F707137606F8518FA5BF130776
:1006440007496318E5009843137707F813676702AF
:1006540095B737D725001307F777636DA70037677A
:10066400DBFF130707932A971306007D3357C7024E
:1006740079177DBF9843137707F8136777021DBF77
:10068400130585C199B7D8561375F507759BD8D648
:100694009843137707F8598D88C382809387819E86
:1006A4009C43984B9316E70063DE0600371701144A
:1006B4001307F78F98CBF84F6D9BF8CF0967130793
:1006C400879F98C782801387C19D1843AA871843C0
:1006D4000D8B45E349C92D476367A7069307F5FFCB
:1006E40093F7F70F1387819E184393F7F703E207F5
:1006F400545771761306F60FF59A54D7084BB7067C
:1007040000C1FD16758DC98F1CCB9387019D9C4339
:100714000145DC5B144BE58393F7F703F18EA207E5
:10072400D58F1CCB7C4FB706F9FFFD1693E7470026
:100734007CCF1C4BF58FB7060200D58F1CCB93865C
:10074400864F14C7828031476302E50213076002B3
:100754006365A7009307E5FF61B713077002494576
:10076400E382E7F8828093075002ADBF93076002EB
:1007740095BF054582809387819E944318491388C9
:10078400C19DDC5A937507701376070393F7F78FAF
:10079400CD8FDCDAC1459387019D9C4383260800F5
:1007A400C288631BB60490435849B70500FA137610
:1007B400F6CF184390C3D053FD1521836D8ED0D34B
:1007C40003D66600CC468177FD17ED8F4206418241
:1007D400DCC60F10000083260800B70702009CC681
:1007E4009377F70FAD07135716008A071307C7024D
:1007F400BA978607FCD28DA8930500036312B60A44
:10080400904341831366063090C30966518F239346
:10081400E702D85313167700634A0604F04B0347E4
:10082400950113660610F0CB238AE704DC530546D2
:10083400E5838D8B6390C70483D76600CC4601762D
:100844007D166D8EC207C183D0C60F10000083A62B
:100854000800370602008583290790C69387C702DC
:100864000E073E970607F8D2CCC682805849034744
:1008740007006DBF83D76600CC4601767D166D8E6A
:10088400C207C183D0C60F10000083A60800370634
:10089400020085832D0790C69387C7020A07D1B744
:1008A40090435849B70500FA1376F6CF136606103D
:1008B400184390C3D053FD1521836D8EB7050002F4
:1008C4004D8ED0D303D66600CC468177FD17ED8FCD
:1008D40042064182DCC60F10000083260800B707D9
:1008E40002009CC69377F70FA9078E071307C60269
:1008F40001B71387819E9387019D137605034148B1
:1009040014439C4313873500631A060590430E076E
:100914001376F6CF90C303C6419E9375F601B04A91
:10092400019A4D8EB0CAD453370600FA7D16F18E63
:10093400D4D3D44B93F606FC93E6D600D4CB9306DB
:10094400F007238FD700D44F93F606C093E6060A28
:10095400D4CF1307C70323AAE19C828013080003A2
:100964006316060D904341811366063090C30966F1
:10097400518D2393A702D0531315760063480500C5
:10098400F04B13660610F0CB238AB704D053854589
:1009940065820D8A631AB60412071307C70323AAD4
:1009A400E19CD84B137707FC1367B700D8CB130728
:1009B4008007238FE700D85351830D8B05E3D84F6D
:1009C400137707C01367C707D8CF83C7519E13F7A0
:1009D400F701BC4A819BD98FBCCA8280D84F137758
:1009E40007C01367C709CDB70E071307C70323AAA8
:1009F400E19CD84B137707FC1367D700D8CB1307B8
:100A0400F007238FE700D85351830D8B11EBD84F98
:100A1400137707C013670708D8CF83C7419E45BF24
:100A2400D84F137707C01367070AFDB7904312071F
:100A34001376F6CF1366061090C303C6519E9375C2
:100A4400F601B04A019A4D8EB0CAD453370600FA63
:100A54007D16F18E37060002D18ED4D3D44B93F693
:100A640006FC93E6B600D4CB93068007238FD70009
:100A7400D44F93F606C093E6C609D4CFD9BD938765
:100A8400C19D98435C4393E7E7015CC3B707020049
:100A9400232A07049386370054C71387019D1843FC
:100AA400C166FD1634C39306000454DFE1071CDF5E
:100AB40082809386C19D9C42B84B3D9BB8CB9843A2
:100AC4000D8B11CF98431367870098C30100010071
:100AD40098423C4B93F7F78F93E707503CCB8280C7
:100AE4009307000C01116318F50493078008F3B70A
:100AF400078093F787083EC00F100000B717004027
:100B0400130770052380E704130780FA2380E704A2
:100B14000F100000F83713670704F8B79827136716
:100B2400070C98A7238007048247F3A707800F10B8
:100B3400000005618280B7170040B827118B69EB6C
:100B440083C6E7041307800893F6F60F733607800D
:100B54001376860832C20F10000013087005238034
:100B64000705930580FA2380B7040F10000003C61D
:100B7400E704136636002387C704B02713664600CC
:100B8400B0A7238007041246732606800F100000C6
:100B940090271376F60F73370780137787083AC4C4
:100BA4000F100000238007052380B7040F100000F6
:100BB40098271367070C98A723800704A247F3A775
:100BC40007800F100000A5470100FD1793F7F70FEA
:100BD400E5FF93078008F3B7078093F787083EC6BD
:100BE4000F100000B7170040130770052380E704B7
:100BF400130780FA2380E7040F10000090A72387CF
:100C0400D70423800704B247F3A707800F1000001E
:100C14009377050C13070004639DE7089307800886
:100C2400F3B7078093F787083EC80F100000B71783
:100C34000040130770052380E704130780FA23801C
:100C4400E7040F100000B827854613670701B8A70B
:100C540037270040A303D7808346578093E60601D5
:100C6400A302D78023800704C247F3A707800F108D
:100C7400000093078008F3B7078093F787083ECEF8
:100C84000F100000B7170040130770052380E70416
:100C9400130780FA2380E7040F100000F837137558
:100CA400F50F13670704F8B788A723800704F247F2
:100CB400ADBD9377F5019DCF93078008F3B7078007
:100CC40093F787083ECA0F100000B71700401307B8
:100CD40070052380E704130780FA2380E7040F10CC
:100CE4000000372700408946A303D78023800704E8
:100CF400D247A5BF93078008F3B7078093F7870807
:100D04003ECC0F100000B717004013077005238076
:100D1400E704130780FA2380E7040F100000372745
:100D240000409D46A303D78023800704E24735BFD4
:100D340041118146014681451145971000E0E78045
:100D4400A08813078008F337078093F787083EC409
:100D54000F100000B7170040130670052380C70466
:100D6400930680FA2380D7040F100000FD55CEB7F8
:100D740023800704A245F3A505800F1000007337F4
:100D84000780137787083AC60F1000002380C70432
:100D94002380D7040F10000003C7670413671700EC
:100DA4002383E70423800704B247F3A707800F10C7
:100DB400000001A001A09387819A4147D8C7C8CBFE
:100DC400130700053E85B8AF6FF06FDC13874181D0
:100DD4001C4385071CC38280411122C406C6937735
:100DE40015002A8491C3DD379377040191C71387D3
:100DF40081811C4385071CC3118801CC2244B24065
:100E0400172500E01305450E4101171300E06700A4
:100E140043F6B240224441018280EFF02FEF730089
:100E24002030EFF0EFF07300203037270040834785
:100E34006740858B85C785472303F7401385419415
:100E4400930750451EA13C2185073CA18D473CB129
:100E540091475CA183C701815CB1B13F730020302D
:100E6400230304801547A2872303E48001000100C3
:100E74002302A48003C7678062076187E34C07FEEF
:100E84002382A780228783476780E207E187E3CC38
:100E940007FE82802303048015472303E4800100B6
:100EA40001002302A480828083076480E3CE07FECE
:100EB40023030480828083076480E3CE07FE034516
:100EC4004480828083076480E3CE07FE2302A480EB
:100ED4008280411126C44AC24EC006C61377F50B60
:100EE400AD47AA892E8995446306F70019455D37F5
:100EF400653F8D444E85793FFD59FD146398340157
:100F0400B240A24412498249410182801355090129
:100F14001375F50F453F2209CDB7011126CC06CE36
:100F2400B704080051371545B537713769372AC6F4
:100F3400A53F32459377150089EB136515001375AA
:100F4400F50FF240E24405618280FD14E9FC01459D
:100F5400CDBF411106C6B7170040130770052380A3
:100F6400E704130780FA2380E70403C74704130543
:100F7400F00F1367070E2382E70491472303F480DD
:100F8400C535B24041010DB7011126CC4ACA4EC83D
:100F940052C606CE2A89AE89B284554A5D3F91E88D
:100FA4002137F24026855249E244C249324A05615A
:100FB4008280CA850945313F910903A7C9FF91473A
:100FC4002320E48003076480E34E07FE2303448167
:100FD400FD17EDFBFD14110981C49377F90FE9FFA7
:100FE4002D3F55FDFD5475BF011126CC4ACA4EC88C
:100FF40052C656C45AC206CE2A89328A8D49913FB6
:10100400C164C16A056B9387F4FFB3F7270199E3C1
:1010140063719A02FD199180E39709FE71350145C8
:10102400F240E2445249C249324AA24A124B056193
:1010340082801305800D63885401130500026384C4
:10104400640113051008CA856935C13D09C526998F
:10105400330A9A4075BF7D55E1B7011106CE26CCFF
:101064004ACAB2844EC82AC62E89E5353245FD14D3
:10107400FD59AA852D45B13D639A34013535F240B9
:1010840026855249E244C249056182802D3593F791
:10109400340091EB83260480032709009307490059
:1010A400E39EE6FC3E89FD14C1BF011106CE2AC6AB
:1010B4004D353245C533F2400561FDB3011106CE0D
:1010C40026CC4ACA4EC852C6AA8956C42E8951355E
:1010D400CE852D45FD3B81448D4A214AE93B6396EB
:1010E4005401832704802320F9008504E39844FFF6
:1010F4008327048013972901635C07002312F900F6
:10110400F240E2445249C249324AA24A056169BBEB
:101114002322F900F5B7411106C626C44AC24EC0BF
:10112400AE89053D81451305B0046533BD447D5941
:10113400593393F77400CE9703C70700FD14398D14
:101144002380A700E39624FFB240A24412498249B7
:10115400410199BB411106C6ED3B130560061D3BD9
:10116400A133130590093D33B240410135BB000062
:10117400971100209381C18517210020130141E8B4
:101184001305400097F5FF1F938585E71706002098
:10119400130606FE63FAC5008322050023A055004A
:1011A40011059105E3EAC5FE172500001305C5E9FD
:1011B400970500209385C5FB1386C18063FAC5009B
:1011C4008322050023A0550011059105E3EAC5FE1D
:1011D4001385C1809385019F6377B50023200500A3
:1011E4001105E36DB5FE93025002739002BC8D426B
:1011F400739042808542739012BC9302800873906E
:10120400023097F2FF1F9382A2DF93E232007390C1
:101214005230970200009382C223739012347300F9
:1012240020302A8311C62300B3007D16050365FE12
:101234008280371700408347E70412054111BD8BB4
:10124400C98F93F7F70F93068008F3B6068093F6D9
:10125400860836C60F100000930670052300D704D5
:10126400930680FA2300D7040F1000002307F70425
:1012740023000704B247F3A707800F1000004101C1
:101284008280914763ECB704972700009387C7C314
:10129400B3C5F52098413E97B71700409387470B95
:1012A4000287944337170040B3F6A64094C39306CD
:1012B400070B9C42B3F7A74019A894433717004083
:1012C400B3F6A64094C39306070B9C42C98F9CC2F5
:1012D4009307070A98433377A74098C382809443BF
:1012E40037170040C98ED9B798433377A74098C3BE
:1012F400B71700409387070A9843498FF9BF98436B
:10130400498FF5B7B717004098279306000C137759
:10131400070C6315D70003A5C18082809827930624
:1013240000041377070C6310D702942713070002F5
:10133400FD8A99C298277D8B3745C3231305056021
:101344003345E5028280942713070002FD8A99C27F
:1013540098277D8B3755E80113050580D5B732856D
:10136400814737370040A14663C3A7008280034604
:10137400B740E30ED6FE3386F5001022850723041A
:10138400C740DDB797060020938686E4AA87884283
:101394001387019FAA9763E9E7000A87130707FCED
:1013A4006364F7009CC282807D558280B727004029
:1013B4001387C74008C309472380E74011472380A8
:1013C400E7408280411122C406C62A84253F29476A
:1013D400B307E502B2408D83B3D787022244950751
:1013E400B3D7E70237370040B3C707082316F740DF
:1013F40041018280716541111305052006C6D93764
:10140400B7370040130710F82381E7400D47A38145
:10141400E74013070004A380E74005472387E7401C
:10142400B24041018280371700403E2FB3C70708FE
:1014340093F707FCB3C707083EAF09C93E2F8E05D3
:101444005D8ED18DB3C505082EAF82808280411197
:1014540022C4371400401E2C71777D17F98F06C6FD
:101464001EAC1945F9331305600497F0FF1FE7809C
:101474002067A1471304840B1CC08D4521451135F9
:101484000146814505454537B53717250000130545
:10149400E5A4EF00900D172500001305A5A9EF00A2
:1014A400D00C112001A0011106CE22CC9307800894
:1014B400F3B7078093F787083EC20F100000B717F1
:1014C4000040130770052380E704130780FA238084
:1014D400E7040F100000B847B70600C1FD16758F6A
:1014E400B706000E558FB8C7238007049247F3A7A9
:1014F40007800F100000970700209387E78D3EC4F4
:101504002800F5473EC6D522C1451725000013051E
:10151400E59DEF00607193874198970500209385BE
:10152400E5CE37267671B756550037078000130786
:10153400D73213065634CCCB938656559145414544
:1015440090C398D38CBF94C788CB9387819A94C750
:101554008D66938606DAD8CF90C38CBFB6AF88CB9E
:1015640037E400E0B70710002320F410B707200089
:101574002320F4101725000013050598EF00E07EE2
:10158400172500001305C59923AC018023AA018007
:10159400EF00A07D853B9307803E3355F502393536
:1015A400372700408347274093E717002301F7407C
:1015B400B7070001F2402320F410624405618280E1
:1015C40001112A8706CE2E8526CCB2854ACA3686D4
:1015D40022C637240040B7E700E0FD5603A9070000
:1015E400C44323A0D71823A2D7189307F7FF93F770
:1015F400F70F0948636AF808B717004083C7570410
:10160400B7C80300F95763741505B306C50063E052
:10161400D80463140705098297000020E780C09668
:10162400AA8737170040930670052300D704930652
:1016340080FA2300D70483464704C18A2302D704CF
:1016440037E700E023202711232297103244F24089
:10165400E24452493E85056182808547631FF70055
:101664008567FD173E96E98F3E96FD777D8E7D8DCD
:1016740097000020E780409765B797000020E78037
:10168400C09D9307150071BFB547631AF700130592
:10169400900B97000020E78040A1814759B7B147DC
:1016A4006315F7001305B00AEDB799476317F70000
:1016B40097000020E78080A0CDB79D47631BF7000B
:1016C40023A0050023A2050097000020E780A0A422
:1016D400E9B791476317F70097000020E78080A7D8
:1016E4006DBF81471DDFF1572DBF1841411106C65B
:1016F4009387819C98C3584117F5FF1F130545999B
:10170400D8C36D20B24001454101828001114EC60B
:101714009389019D03A7090006CE22CC26CA4AC894
:1017240052C456C21443B707FDFF1384F7FFB3F73F
:1017340086001CC31C43370A02001389819EE18F73
:10174400B3E747011CC303270900B7063300938A94
:10175400C19D1C47B7040F00D58F1CC783A70A007F
:101764001387845D93840408B8CBAD2C7521812A3A
:10177400E52283A60A0003A70900416623A44601C3
:101784001C43E18FD18F1CC3032609003707CEFF0A
:101794007D171C46F2406244F98F1CC6A4CA424914
:1017A400D244B249224A924A05618280B7C70040B6
:1017B4001387072001119387071023AEE19C37D7C5
:1017C400004006CE2AC623A4E19E23A8F19C8D28BE
:1017D40097F0FF1FE780A02A153F3245F24023AE61
:1017E400A18001450561828083C7C19E03C7018230
:1017F4001D8F93070002898FB387E702A146014535
:10180400930570021205FD1633C6B702BA97518DBF
:10181400F5FA828003C7D19E83C7C19EB306F74001
:101824001D05998FB387A7022147014593057002CF
:1018340012057D1733C6B702B697518D75FB8280AA
:101844009387819E9C4313070048B70600F998D7F5
:10185400D85FFD16B7050040758FB7060002558F97
:10186400D8DFD85F3706FAFF7D160E070D834D8F3C
:10187400D8DF945BF18E94DB985BB7060090FD167D
:10188400758F4D8F98DBB847B706F9FFFD16758F36
:10189400B8C7B84BB70607001377F78F136707303D
:1018A400B8CBF84F558FF8CFF84FB7060007558FD0
:1018B400F8CF930740060100FD17F5FF82801387D8
:1018C400819E1C4341767D16B44BF18EB4CB944774
:1018D40037062000D18E94C7D44793E60601D4C7B7
:1018E400D447BD9AD4C7010001000100010014438C
:1018F4000566DC4693E70701DCC6DC42D18FDCC217
:101904009387C19D9043930740067CD27C5291C734
:1019140083A7C609A183858BF5DB010001000100C3
:101924000100184341668327C709FD8BA382F19EFA
:10193400344BD18E34CB344B3706E0FF7D16819A7D
:10194400DD8E34CB1447F18E14C70D476375F70051
:10195400F5172382F19E82809387819E9C43417771
:101964007D17B44F4166F98EB4CF9447D18E94C796
:10197400D44793F6F6EFD4C7D443758FD8C3D4476E
:1019840093E60610D4C7D843518FD8C38280938777
:10199400819E9C431375F51F8176D8439386F60F79
:1019A400799BD8C313178500885F758D598D88DF9F
:1019B400D84313671700D8C31387C19D144309671D
:1019C400130707F4F8D203A707091316570063583F
:1019D400060003A707091316670063440600F852BC
:1019E4007DF38280411122C41384819E1C4006C66B
:1019F400FD76D843FD161377F7EFD8C39857758F44
:101A040098D7D857B70602003D9BD8D79847558F2B
:101A140098C7D84313670701D8C3856703D7219EA6
:101A2400938747236307F71E1305F00B8D37184080
:101A34001305700E8327070993F7F7032380F182B8
:101A440083274709A98393F7F707A380F182813796
:101A540018401305300D8327070993F7F703A3866E
:101A6400F19E83274709A98393F7F7072383F19E00
:101A7400393F18408327070993F7F7032386F19E1C
:101A840083274709A98393F7F7072380F19E004032
:101A94000145993B2320A40A2145B9332322A40AF2
:101AA400414599332324A40A61453D3B2326A40AD6
:101AB40013050002153B2328A40A0545A13B232A4C
:101AC400A40A2545813B232CA40A4545A133232E92
:101AD400A40A654581332320A40C130510021D3B81
:101AE4002322A40C83C5D19E03C5C19EB305B54072
:101AF4009307A002B387F5021307900293068002AE
:101B040003C8619EA148130300023387E502B3C7EB
:101B1400D7023347D7029207A946D98F2324F40C5E
:101B240083C7019E33860741B306D6023308F840C3
:101B3400032E840C33C7B602C2961367870033178B
:101B440017013367C7012324E40C9108E39268FE6C
:101B54002326040C0A060147C148B346B6020323F0
:101B6400C40C429693E68600B396E600B3E666009C
:101B74002326D40C1107E31217FF83C6118283C5F1
:101B840001829D8E898D0148930800023346B80274
:101B94000323C40C36983316E60033666600232606
:101BA400C40C1107E31417FF139826000146F148EB
:101BB4003347B8020323040D36983317C70033673D
:101BC40067002328E40C1106E31416FF58408566C9
:101BD4001375F5033D9B58C0584093F7F707E20788
:101BE400799B58C01854558F18D45854B70600819F
:101BF400FD161367070158D4185C137707FC498F47
:101C040018DC185C758FD98F1CDCB240224441016A
:101C140082802391019EA5BD9387819E98435C4356
:101C240093E707105CC382805D7122D406D62A84B0
:101C34002EDA32DC36DEBAC0BEC2C2C4C6C617F55E
:101C4400FF1F0325255911C51C4D81E72AC6B12B59
:101C540032450C455418228636CEEF003021B2505E
:101C6400225461618280011126CA06CE22CC4AC860
:101C74004EC652C4AA8419E11C4502901C4D2E89FB
:101C8400ADE325239C4C8044B9CF9717000093877C
:101C94002730631DF404C0407C50858B99E75E2493
:101CA40093F7072099E3284CAD2D5E24A18B99C3AB
:101CB4001C48D5E3A2852685AD2A51CDFD547C5020
:101CC400858B99E75E2493F7072099E3284C992D97
:101CD400F24062444249B249224A2685D24405610F
:101CE400828000455DB72685C92145B79717000056
:101CF400938707286314F400804479BF9717000082
:101D040093870725E31AF4F8C04479B71CC405097E
:101D140063C807021C401387170018C08CA31C4417
:101D240083450900FD17FDF11CC463D9070222860F
:101D3400A94526858920FD57E302F5F8A94441B752
:101D4400184C63C4E700E39745FD228626852520C9
:101D5400E31735FDA5B7FD59294AD1B71C401387B0
:101D6400170018C0294798A3D1BFAA8517F5FF1FEC
:101D740003254546CDBD011122CC26CA4AC806CE4C
:101D84004EC6AA842E89328401C51C4D91E33129A3
:101D9400971700009387C71F6317F402C0401C4CB9
:101DA4001CC45E24A18B99C31C4895EFA28526858B
:101DB400492015C97D59F2406244D244B2494A854A
:101DC400424905618280971700009387671A63145C
:101DD400F4008044E9B79717000093876717E3106E
:101DE400F4FCC0446DBF1C4808409379F90F137983
:101DF400F90F1D8D5C486346F500A2852685A12C4C
:101E040055F91C440505FD171CC41C401387170015
:101E140018C0238037015C486388A7005E24858B43
:101E2400D9DBA947E319F9F8A28526852D2441D5E4
:101E340051B7411122C426C24AC006C697F4FF1FF7
:101E440083A444392A892E8489C49C4C99E3268529
:101E5400A92E971700009387A7136313F402C040B9
:101E64008317C40013F7870025E713F707010DEB69
:101E740025472320E90093E707045EA47D5571A05C
:101E8400971700009387C70E6314F4008044C9BFFA
:101E9400971700009387C70BE314F4FCC044C9B739
:101EA400918B9DC34C5889C9930744046384F500FE
:101EB4004A85B92B232A04025E242322040093F7C3
:101EC400B7FD5EA41C481CC05E2493E787005EA493
:101ED4001C4899EB5E241307002093F707286385B9
:101EE400E700A2854A8561298317C40013F7170008
:101EF4001DC35848232404003307E04018CC184875
:101F0400014501E713F707083DF7B2402244924424
:101F140002494101828013F72700814611E35448A6
:101F240014C4F1BF8397C500011122CC26CA06CE82
:101F34004AC84EC613F78700AA842E8479E3D84191
:101F44006345E000B8416356E008585459C303A9F7
:101F5400040023A004000C5093D7C748A9CB7048B1
:101F64005E24918B99C75C401D8E5C5899C33C409C
:101F74001D8E5C540C50814626858297FD57630C58
:101F8400F5041C480567232204001CC05E24F98F55
:101F940091C368C84C5823A0240185CD93074404F9
:101FA4006384F5002685AD21232A04021DA0014681
:101FB400854626850297FD572A86E313F5FA9C4049
:101FC400C5D375476385E70059476395E70623A0A2
:101FD40024010145B5A098408317C40001CFF546FC
:101FE4006305D700D9466319D7041C48232204008B
:101FF4001CC04DB718482322040093D7C74818C003
:1020040041BF83A90501E38609FC03A905008D8B63
:1020140023A0350133093941014791E3D84918C454
:10202400E35920FB1C540C50CA864E8626858297A1
:10203400634FA0008317C40093E707045EA47D5593
:10204400F2406244D2444249B24905618280AA996D
:102054003309A940F1B79C49411106C622C426C2DE
:1020640081EB8144B240224426859244410182801E
:10207400AA842E8401C51C4D91E3052A97170000FC
:10208400938707F1631CF402C0408317C400F1DB9B
:102094007850058B11E793F7072099E3284C5124D6
:1020A4002685A28541357C50AA84858BC5FF5E2494
:1020B40093F70720C5FB284CB5246DB7971700008C
:1020C400938707EB6314F4008044C1B797170000AB
:1020D400938707E8E31BF4FAC04445BF411122C4C7
:1020E40006C62A844EA572A52320050023220500D6
:1020F400232405002322050623280500232A05009E
:10210400232C0500214681451305C505EFF06F9189
:1021140097170000938747835CD097170000938735
:1021240047851CD497170000938707895CD49717B9
:1021340000009387478BB24000D01CD82244410151
:10214400828097050000938545F1BDA2411126C206
:10215400930780069384F5FFB384F4024AC02E8962
:1021640022C406C693854407692E2A8401CD232000
:10217400050023222501310508C413868406814500
:10218400EFF02F8AB2402285224492440249410151
:1021940082801385818271A21385818261A2138555
:1021A400C18241A21385C182B5AA411122C406C6C7
:1021B4002A84F5371C4C89C72244B2404101DDB75B
:1021C40097070000938727F81CD4232404042326AC
:1021D40004042328040483A781806394870085472B
:1021E4001CCC22853D2048C02285252008C4228598
:1021F4000D2048C4484001469145CD350844054664
:10220400A545E93D48440946C945C93D85471CCC17
:1022140065B7411126C24AC006C622C42A89953F21
:1022240083A481809C4C99E326854137938484045C
:102234008044DC40FD1763D607009C40BDC3844046
:10224400C5BF0317C40039EBC17785075CC4130508
:10225400840523220406E920813721462320040033
:10226400232404002322040023280400232A040036
:10227400232C040081451305C405EFE09FFA232AAB
:102284000402232C04022324040423260404B2405D
:102294002285224492440249410182801304840627
:1022A40051BF91454A855D3588C02A8449F9ED3589
:1022B400B1472320F900E1BF797122D44AD04ECE30
:1022C40052CC5AC85EC606D626D256CA2A892E8A47
:1022D400130485048149054BFD5B0444832A4400AF
:1022E400FD1A63D00A0200406DF8B2502254925491
:1022F4000259624AD24A424BB24B4E85F249456179
:102304008280DE24637BFB008397E400638777018C
:10231400A6854A85029AB3E9A90093848406C9B7BD
:102324008280828082805971A2D42E848395E500B4
:10233400A6D2CAD086D6B284368963D205025E2478
:1023440093F707088DEB13070040B650265423205B
:10235400F90098C0065996540145656182803000A1
:10236400E92DE34E05FC3247BD67F98F7977BA97BB
:1023740093B71700C9BF814713070004F9B7DE25D7
:10238400797122D406D626D24AD04ECE898B2E8499
:1023940091CF930774041CC01CC885475CC8B25015
:1023A400225492540259F2494561828074003000EB
:1023B400AA84953FA2492A892685CE85992219E9BE
:1023C4008317C40013F7072079FBF19B93E72700D9
:1023D4005EA4C1B7970700009387E7D69CD45E2418
:1023E40008C008C893E707085EA4B247232A34014B
:1023F40099CB8315E4002685AD2511C55E24F19B98
:1024040093E717005EA45E2433E527014AA441BF85
:10241400D1CD83A7C5FF011122CC06CE1384C5FFFD
:1024240063D307003E942AC64D25138741831C437A
:10243400324581EB2322040000C36244F24005616B
:1024440049AD637DF4001040B306C4006396D70021
:102454009443DC43B29614C05CC0F9BF3E87DC43AE
:1024640099C3E37DF4FE14433306D700631F86004B
:102474001040B29614C33306D700E390C7FC9043D0
:10248400DC43B29614C35CC34DBF6375C400B1474B
:102494001CC165B71040B306C4006396D7009443CB
:1024A400DC43B29614C05CC040C341BF828041117A
:1024B4004AC0138901838327090022C426C206C6A1
:1024C400AA842E8489E7814591292320A900A28525
:1024D4002685A9217D59631A25017D54B2402285A0
:1024E40022449244024941018280130435007198C8
:1024F400E30685FEB305A44026850D21E31025FFE0
:10250400E9BF011126CA93843500F1984AC8A10491
:10251400B14706CE22CC4EC62A89B3F4F40A63C46A
:10252400040063FDB400B1472320F9000145F240E3
:102534006244D2444249B249056182807923938935
:10254400418383A709003E8431E4A6854A85853703
:10255400FD572A846316F50A03A40900A287C1EB78
:102564008329040081454A85A2994D2E6394A908C4
:102574001C408D044A859D8CF198B147A104B3F4A5
:10258400F40AA6852D37FD576306F5061C40A69769
:102594001CC015A01440858E63C806042D47637DB6
:1025A400D70204C0330794006396870223A0E9008E
:1025B4005C4014C35CC34A85292B1305B4009307FC
:1025C400440061993307F540E303F5F63A94898FA3
:1025D4001CC0B1BFD8C3E9BF58406395870023A08E
:1025E400E900D1BFD8C3C1BFA2874040B1BF3E8478
:1025F400DC43B5B7B1472320F9004A85D9293DB753
:1026040004C155BF1C46FD171CC663DA0700184EEB
:1026140063C5E700A9476394F5006FF0CFF51C424A
:102624002E851387170018C28CA38280011122CC37
:1026340026CA4AC84EC652C406CE2A89AE893284F6
:10264400B304D6007D5A63149400014501A80C20FC
:102654004E864A85453F0504E31745FFF240624430
:10266400D2444249B249224A05618280357122CD61
:1026740026CB4AC94EC706CF52C556C35AC1DEDE61
:10268400E2DCAA892E843289B68401C51C4D91E30B
:10269400293E971700009387A78F6317F40403A4B8
:1026A40049007C50858B99E75E2493F7072099E3D2
:1026B400284C85395E24A18B99C31C48B9EFA285A7
:1026C4004E85EFF00FF731C97C50858BA1C37D5542
:1026D400FA406A44DA444A49BA492A4A9A4A0A4BAD
:1026E400F65B665C0D6182809717000093874788CC
:1026F4006315F40003A489006DB79717000093874E
:102704002785E310F4FA03A4C90061BF5E2493F79C
:102714000720D5FF284C39315DBF93070002A3047D
:10272400F1029307000302D22305F10226C6930B9C
:102734005002971A0000938AAA87294BCA849C20C6
:1027440099C363997709338C2441638D2401E2860C
:102754004A86A2854E85D93DFD576306F5189257E2
:10276400E2973ED29C2063800718FD57138914001A
:1027740002C802CE3ECA02CCA309010482D4834516
:102784000900154656853526C2479304190029E5E4
:1027940013F7070109C713070002A309E10413F79C
:1027A400870009C71307B002A309E104834609009F
:1027B4001307A0026389E602F247CA8481462546CC
:1027C400982093851400130707FD6372E60685C6F7
:1027D4003ECE15A08504A5B733055541B397A72868
:1027E40026893EC869BF324793064700184336C658
:1027F400634807023ACE98209307E002631CF7046B
:1028040098309307A002631AF702B247890413872A
:1028140047009C433AC67D57B3E7E70A3ECA1DA862
:102824003307E04093E727003ACE3EC8E9B7B387C1
:102834006703AE848546BA9761B7850402CA8146A8
:1028440081472546982093851400130707FD63727A
:10285400E606E9F68C200D46170500001305C5753C
:10286400892C11CD97070000938707751D8DC247EA
:10287400130700043317A700D98F85043EC88C20A2
:102884001946170500001305657313891400230402
:10289400B102052435C99307000095E74247B247C2
:1028A4001377071009CF91073EC69257D2973ED2AD
:1028B40071B5B3876703AE848546BA9761B79D0740
:1028C400E19BA107D5B7780097060000938646D60A
:1028D40022860C084E8597000000E7000000FD5793
:1028E4002A8AE314F5FC7C50858B81EB5E2493F7F4
:1028F400072081E7284CEFF0FFA25E2493F707043A
:10290400E39707DC1255E9B3780097060000938635
:1029140026D222860C084E85F124D1B7411122C457
:102924002A842E8523AC018206C6EFE0BFA5FD579D
:102934006316F50083A7818391C31CC0B24022446F
:1029440041018280411122C42E848395E50006C68C
:102954003123634905007C48AA977CC8B2402244CD
:10296400410182805E249397C7485EA4C5BFDE25DB
:10297400011122CC26CA4AC84EC606CE93F70710C8
:10298400AA842E843289B68991C78395E500894645
:102994000146DD285E248315E400F2409397C7487E
:1029A4005EA46244CE864A86B24942492685D24410
:1029B40005611DA8411122C42E848395E50006C635
:1029C400E1207D575E246319E5009397C7485EA410
:1029D400B2402244410182809397C72868C85EA40C
:1029E400C5BF8395E5003DA0411122C42A842E85EC
:1029F400B285368623AC018206C6EFE05F96FD57AA
:102A04006316F50083A7818391C31CC0B24022449E
:102A140041018280411122C42A842E8523AC018283
:102A240006C69521FD576316F50083A7818391C3DC
:102A34001CC0B240224441018280411122C42A8434
:102A44002E85B28523AC018206C6A121FD576316EB
:102A5400F50083A7818391C31CC0B2402244410185
:102A64008280411122C42A842E8523AC018206C6A9
:102A74003D21FD576316F50083A7818391C31CC0D4
:102A8400B240224441018280411122C42A842E850D
:102A9400B285368623AC018206C60129FD5763162A
:102AA400F50083A7818391C31CC0B2402244410135
:102AB400828093F5F50F2A966314C5000145828040
:102AC4001C21E38EB7FE0505C5BF138541826FF057
:102AD4005F85138541826FF0FF84797156CA9C49E2
:102AE400BA8A984522D44AD04ECE52CC06D626D2A3
:102AF4005AC85EC6B3E7E70A1CC203C73504AA89ED
:102B04002E843289368A19C385071CC21C4093F768
:102B1400070291C78327090089072320F90004408D
:102B2400998891E8130B9401FD5B5C440327090029
:102B3400998F63CCF40483473404B336F0001C400B
:102B440093F70702A5EB13063404D2854E85829AC7
:102B5400FD576303F5041C4011478144998B639925
:102B6400E7008327090044449D8C8147B3E4F40AB9
:102B74001C4418486354F700998FBE9401496904B2
:102B84007D5B63982405014509A885465A86D2854C
:102B94004E85829A631E75017D55B250225492541B
:102BA4000259F249624AD24A424BB24B4561828091
:102BB4008504A5BF3307D40013060003A301C7048B
:102BC4000347540493871600A2978906A381E70458
:102BD4009DBF85462286D2854E85829AE30E65FB8B
:102BE400050945B7797122D44AD04ECE52CC06D6C7
:102BF40026D256CA5AC803C88501930780072A8972
:102C04002E84B289368A63E20703930720069386EB
:102C1400350463E10703630B081C9307800517065B
:102C240000001306263A6307F814930424042301CE
:102C3400040515A89307D8F993F7F70F5546E366EB
:102C4400F6FE170600001306663AB3C7C7209C4376
:102C5400B29782871C4393842504938647009C4340
:102C640014C32381F504854765A290411C43137561
:102C740006089385470029C19C430CC3584063DE72
:102C840007129305D002A301B40418C4635E0702BB
:102C9400B307F040170600001306C6322948B6846D
:102CA40033F70703FD143297182398A03E87B3D750
:102CB4000703E37707FF85A09C43137506040CC341
:102CC40055DD939757605DBF6D9A10C0D1B79041A1
:102CD4001C43137506089385470001C50CC39C4328
:102CE40031A0137606040CC37DDA9E231307F00685
:102CF400170600001306062D631FE80A2148A301E6
:102D04000404584018C4E34C07F80C40ED990CC077
:102D1400D9F7B68449F7A147631EF8001C40858B98
:102D240091CB58401C4863C7E70093070003A38F67
:102D3400F4FEFD14858E14C85287CE867000A285D9
:102D44004A85613BFD5A6319550D7D55B250225495
:102D540092540259F249624AD24A424B45618280F6
:102D64009C4193E707029CC11308800717060000E3
:102D740013068626A30204050C401C4313F8050819
:102D8400138547006305080008C39C4339A013F862
:102D9400050408C3E30B08FE9E2313F7150001C7BF
:102DA40093E505020CC099C3414891BF18401377BD
:102DB400F7FD18C0D5BF294899B7170600001306B8
:102DC400662029483DBF90411C43CC49137806082E
:102DD400138547006306080008C39C438CC339A0CD
:102DE40008C3137606049C4375DA8EA323280400D3
:102DF400B68499B71C43D04181459386470014C3D8
:102E0400844326857D3101C5B30795405CC05C4091
:102E14001CC8A30104040DB714482686CE854A8530
:102E2400029AE30455F31C40898B85E74844B24772
:102E34003365F50A21BF85465686CE854A85029AB2
:102E4400E30565F185045C443247998FE3C5F4FEDC
:102E5400F1BF8144930A94017D5BF5B7411122C40B
:102E64002A842E85B285368623AC018206C6A1202B
:102E7400FD576316F50083A7818391C31CC0B2403C
:102E84002244410182809307800523ACF1827D5561
:102E940082809307800523ACF1827D55828093075D
:102EA400800523ACF182014582809307800523AC21
:102EB400F1827D5582809307800523ACF1827D5594
:102EC40082800000DEE3FFFFF6E3FFFF1AE4FFFF6A
:102ED40024E4FFFF3AE4FFFF73746172742E000070
:102EE4006572726F722E000063666756616C3D25D1
:102EF400780A00002D2D2D2D2D2D2D2D2D2D2D2D30
:102F04002D2D2D2D2D207478202D2D2D2D2D2D2D75
:102F14002D2D2D2D2D2D2D2D2D2D00007374617231
:102F2400742074782074696D65722E2E2E00000052
:102F340043483537785F52465F42415349435F4CBB
:102F440049425F56312E312E360000000000000049
:102F5400000000000000000000000000000000006D
:102F6400000000000000000000000000000000005D
:102F7400000000000000000000000000000000004D
:102F8400000000000000000000000000000000003D
:102F9400000000000000000000000000000000002D
:102FA400000000000000000000000000232D302B72
:102FB40020000000686C4C006566674546470000C9
:102FC400303132333435363738394142434445465B
:102FD400000000003031323334353637383961621D
:102FE40063646566000000006CFCFFFF82FCFFFF69
:102FF40042FCFFFF42FCFFFF42FCFFFF42FCFFFFDD
:1030040082FCFFFF42FCFFFF42FCFFFF42FCFFFF8C
:1030140042FCFFFFDEFDFFFFE6FCFFFF78FDFFFF44
:1030240042FCFFFF42FCFFFF0CFEFFFF42FCFFFFE0
:10303400E6FCFFFF42FCFFFF42FCFFFF80FDFFFFB9
:0230440001A0E9
:1030480000000000902F0000702F0000502F00009B
:103058000000000000000000000000000000000068
:103068000000000000000000000000000000000058
:103078000000000000000000000000000000000048
:103088000000000000000000000000000000000038
:103098000000000000000000000000000000000028
:0C30A800C01300207011002070110020E7
:00000001FF
