:040000006F105036F7
:100004000000000000000000640E0020E00D00204D
:10001400A9BDF9F3D0260000000000000000000094
:10002400D0260000D02600000000000000000000E0
:10003400D026000000000000D026000000000000D0
:1000440000000000D026000000000000D0260000C0
:100054003C10002034100020D026000000000000D6
:10006400E4150020000000000000000048170020F4
:10007400D0260000D0260000D0260000D0260000A4
:1000840000000000D026000000000000D026000080
:10009400411122C406C6937725002A8495CB97374D
:1000A40000009387A7BA9C433707020023A20706E0
:1000B40098C78177FD17173700001307E7B7337424
:1000C400F5005C43C18B89C71C4381454145829738
:1000D40093771400B9C397370000938727B79C43DD
:1000E4003707020023A2070698C7E92197370000C3
:1000F400938787B4D84319E9058B39C303A3070051
:10010400814505452244B24041010283218B0DCB38
:1001140003A3070081452145F5B79317E40063D194
:10012400070217370000130727B15C43918B89CB73
:10013400032307009735000083C505B11145D9B7DE
:10014400B24022444101828093F7150095E397372A
:1001540000009387E7AE9843B7B724009387F7E985
:1001640063EEA7061C4393F707F893E757021CC3F3
:100174008547631DF60093F7050313070003639790
:10018400E70CE5818D89F1E51305058397370000B8
:10019400938787AC9C434166130606A0D857B705DE
:1001A40010FEFD1513672700D8D73357C5023375E2
:1001B400C5027D8B93164701F8436D8F558FF8C3A5
:1001C4001307A00FB706FCFF2A053355E502F843D1
:1001D400758F3A053981598DE8C38280B7072500A8
:1001E4009386F74863E3A602B767DBFF9387079319
:1001F400AA979306007DB3D7D702FD17144393F74C
:10020400F70793F606F8D58F9DB7938707496318C8
:10021400F5001C4393F707F893E7670289BFB7D744
:1002240025009387F77763EDA700B767DBFF938714
:100234000793AA979306007DB3D7D702F9177DBF1A
:100244001C4393F707F893E7770215B74147E38D0B
:10025400E7F2130585C11DBF630005165C49094714
:10026400638D0714411126C2973400009384049EC1
:100274009840914706C622C44AC02313F7001C4382
:100284008D8B89C71C4393E787001CC31739000073
:100294001309099B83270900B706FDFF1386F6FFA0
:1002A4008C432A84B3F6C50094C39443B705330042
:1002B400F18E37060200D18E94C3973600009386E0
:1002C400A6999442484590464D8E90C637060F0035
:1002D4001306861D30CB3727230013070786637266
:1002E400A70C0C4805468D351C48918B85C3832685
:1002F4000900034784019C4293F70704D98F98426D
:1003040093F7F707137707F8D98F9CC20848832718
:1003140009001377150019CB98431377F7039366F5
:1003240007049843137707F8558F98C31840370686
:1003340000FF37090200B8D303474400F8D3184438
:10034400B8CF185093168700F84FA182718F558F3C
:10035400F8CF58489C400146F8DF23A2070623A49F
:100364002701834594013125944085474C4C9CC218
:1003740017370000232AF78C014789CDD0468177AF
:10038400FD17F18FDCC60F1000009C4023A4270149
:10039400ECD3D0C7B2402244924402493A85410189
:1003A4008280D856759BD8D61377F5078843137582
:1003B40005F8598D88C399BF05473A858280011194
:1003C4004AC817390000130969880326090022CC9A
:1003D40026CA4EC606CE1C42973400009384448637
:1003E400973900009389498793E787001CC2034724
:1003F400B5019C402A841367070493169701D85BC0
:100404001E071D83558FD8DB0347A5012313E60080
:10041400D85B719B13671700D8DB8C433707FDFF4C
:100424009306F7FF33F7D50098C39843B705330015
:10043400758FB7060200558F98C303A70900484576
:100444001447CD8E14C7B7060F009386862D34CA81
:10045400B72623009386068663FFA60C0C4809463C
:10046400E5311C48918B99CF9440034784019C4209
:1004740093F70704D98F984293F7F707137707F890
:10048400D98F9CC21C48858B81CF94409C4293F7A2
:10049400F70313E707049C4293F707F8D98F9CC22C
:1004A400832709001307800283D767006372F7026A
:1004B40003A709005C4393F7F7EF5CC30100010055
:1004C4000100010003A709005C4393E707105CC324
:1004D4009C401840544CB7090001D8C70347440056
:1004E400370600FF228598CB1844D8C31387F9FF39
:1004F400F98E9847718F558F98C7832709005848FC
:10050400B8DFE5249C40014598433367370198C31D
:10051400D85B719BD8DB832709000947F24062440A
:1005240098C3C147172700002320F772D2444249D9
:10053400B249056182805457F59A54D71377F50769
:100544008843137505F8598D88C32DBF972700007C
:100554009387C76F9C439847D447F98E99CA93866B
:10056400018403A3060098C763050300C847798D77
:1005740002838280972700009387876C98433C43CB
:100584009983858B9DC7930700063CC3972700007A
:100594009387C76B9C433707020098C7172700004F
:1005A4001307476A1843F8D3894717270000232DF8
:1005B400F768828097270000938787689C43A84345
:1005C4001581058982809727000093876767984380
:1005D4001365050466055C5B9E079D83C98F5CDB20
:1005E4008280972700009387276737272300944347
:1005F4001307078697270000938787649C436376D5
:10060400A70E37B724001307F7E96365A7069843D5
:10061400137707F81367570298C393F7150081CB34
:1006240093F50503C147639FF50A13050583DC565B
:10063400B70510FEFD1593E72700DCD6C167938745
:1006440007A03357F5023375F5029307A00F7D8B8E
:1006540013164701F8426D8F518FF8C23707FCFF1C
:100664002A053355F502FC42F98F3A0539815D8D2F
:10067400E8C28280370725001306F7486363A602A1
:100684003767DBFF130707932A971306007D335759
:10069400C7027D1790431377F707137606F8518F37
:1006A400A5BF130707496318E5009843137707F8B4
:1006B4001367670295B737D725001307F777636D7C
:1006C400A7003767DBFF130707932A971306007DFC
:1006D4003357C70279177DBF9843137707F8136719
:1006E40077021DBF130585C199B7D8561375F50751
:1006F400759BD8D69843137707F8598D88C38280A1
:1007040097270000938747559C43984B9316E7001F
:1007140063DE0600371701141307F78F98CBF84FE1
:100724006D9BF8CF09671307879F98C782801727A7
:1007340000001307A7511843AA8718430D8B45E7F8
:1007440049CD2D47636BA7069307F5FF93F7F70F82
:100754001727000013074750184393F7F703E207DE
:10076400545771761306F60FF59A54D7084BB7060B
:1007740000C1FD16758DC98F1CCB97270000938788
:10078400274C9C430145DC5B144BE58393F7F7034B
:10079400F18EA207D58F1CCB7C4FB706F9FFFD164F
:1007A40093E747007CCF1C4BF58FB7060200D58F2B
:1007B4001CCB9386864F14C7828031476302E502BF
:1007C400130760026365A7009307E5FF41B71307AA
:1007D40070024945E38EE7F68280930750028DBF8D
:1007E40093076002B5B70545828097270000938779
:1007F400A746944318491728000013082845DC5AD3
:10080400937507701376070393F7F78FCD8FDCDAB0
:10081400C145972700009387A7429C43832608007D
:10082400C288631BB60490435849B70500FA13768F
:10083400F6CF184390C3D053FD1521836D8ED0D3CA
:1008440003D66600CC468177FD17ED8F42064182C0
:10085400DCC60F10000083260800B70702009CC600
:100864009377F70FAD07135716008A071307C702CC
:10087400BA978607FCD28DA8930500036312B60AC3
:10088400904341831366063090C30966518F2393C6
:10089400E702D85313167700634A0604F04B034764
:1008A400950113660610F0CB238AE704DC53054652
:1008B400E5838D8B6390C70483D76600CC460176AD
:1008C4007D166D8EC207C183D0C60F10000083A6AB
:1008D4000800370602008583290790C69387C7025C
:1008E4000E073E970607F8D2CCC6828058490347C4
:1008F40007006DBF83D76600CC4601767D166D8EEA
:10090400C207C183D0C60F10000083A608003706B3
:10091400020085832D0790C69387C7020A07D1B7C3
:1009240090435849B70500FA1376F6CF13660610BC
:10093400184390C3D053FD1521836D8EB705000273
:100944004D8ED0D303D66600CC468177FD17ED8F4C
:1009540042064182DCC60F10000083260800B70758
:1009640002009CC69377F70FA9078E071307C602E8
:1009740001B7172700001307272E97270000938736
:10098400272C13760503414814439C4313873500F1
:10099400631E060590430E071376F6CF90C3172601
:1009A40000000346262B9375F601B04A019A4D8E3A
:1009B400B0CAD453370600FA7D16F18ED4D3D44B83
:1009C40093F606FC93E6D600D4CB9306F007238F68
:1009D400D700D44F93F606C093E6060AD4CF130784
:1009E400C7039727000023AFE7248280130800037E
:1009F400631E060D904341811366063090C3096659
:100A0400518D2393A702D053131576006348050034
:100A1400F04B13660610F0CB238AB704D0538545F8
:100A240065820D8A631EB60412071307C7031726CF
:100A340000002329E620D84B137707FC1367B7007F
:100A4400D8CB13078007238FE700D85351830D8B2E
:100A540015E3D84F137707C01367C707D8CF972775
:100A6400000083C7371F13F7F701BC4A819BD98F56
:100A7400BCCA8280D84F137707C01367C709F9BF70
:100A84000E071307C70317260000232DE61AD84BB9
:100A9400137707FC1367D700D8CB1307F007238F0E
:100AA400E700D85351830D8B01EFD84F137707C05C
:100AB40013670708D8CF9727000083C7A71965B71E
:100AC400D84F137707C01367070AEDB7904312078F
:100AD4001376F6CF1366061090C31726000003465C
:100AE40076179375F601B04A019A4D8EB0CAD45365
:100AF400370600FA7D16F18E37060002D18ED4D364
:100B0400D44B93F606FC93E6B600D4CB9306800749
:100B1400238FD700D44F93F606C093E6C609D4CFEB
:100B24007DBD972700009387671298435C4393E742
:100B3400E7015CC3B7070200232A07049386370042
:100B440054C7172700001307A70F1843C166FD16E3
:100B540034C39306000454DFE1071CDF8280972628
:100B640000009386A60E9C42B84B3D9BB8CB98439D
:100B74000D8B11CF98431367870098C301000100C0
:100B840098423C4B93F7F78F93E707503CCB828016
:100B94009307000C01116318F50493078008F3B759
:100BA400078093F787083EC00F100000B717004076
:100BB400130770052380E704130780FA2380E704F2
:100BC4000F100000F83713670704F8B79827136766
:100BD400070C98A7238007048247F3A707800F1008
:100BE400000005618280B7170040B827118B69EBBC
:100BF40083C6E7041307800893F6F60F733607805D
:100C04001376860832C20F10000013087005238083
:100C14000705930580FA2380B7040F10000003C66C
:100C2400E704136636002387C704B027136646001B
:100C3400B0A7238007041246732606800F10000015
:100C440090271376F60F73370780137787083AC413
:100C54000F100000238007052380B7040F10000045
:100C640098271367070C98A723800704A247F3A7C4
:100C740007800F100000A5470100FD1793F7F70F39
:100C8400E5FF93078008F3B7078093F787083EC60C
:100C94000F100000B7170040130770052380E70406
:100CA400130780FA2380E7040F10000090A723871E
:100CB400D70423800704B247F3A707800F1000006E
:100CC4009377050C13070004639DE70893078008D6
:100CD400F3B7078093F787083EC80F100000B717D3
:100CE4000040130770052380E704130780FA23806C
:100CF400E7040F100000B827854613670701B8A75B
:100D040037270040A303D7808346578093E6060124
:100D1400A302D78023800704C247F3A707800F10DC
:100D2400000093078008F3B7078093F787083ECE47
:100D34000F100000B7170040130770052380E70465
:100D4400130780FA2380E7040F100000F8371375A7
:100D5400F50F13670704F8B788A723800704F24741
:100D6400ADBD9377F5019DCF93078008F3B7078056
:100D740093F787083ECA0F100000B7170040130707
:100D840070052380E704130780FA2380E7040F101B
:100D94000000372700408946A303D7802380070437
:100DA400D247A5BF93078008F3B7078093F7870856
:100DB4003ECC0F100000B7170040130770052380C6
:100DC400E704130780FA2380E7040F100000372795
:100DD40000409D46A303D78023800704E24735BF24
:100DE40041118146014681451145971000E0E78095
:100DF400001F13078008F337078093F787083EC462
:100E04000F100000B7170040130670052380C704B5
:100E1400930680FA2380D7040F100000FD55CEB747
:100E240023800704A245F3A505800F100000733743
:100E34000780137787083AC60F1000002380C70481
:100E44002380D7040F10000003C76704136717003B
:100E54002383E70423800704B247F3A707800F1016
:100E6400000001A001A099473305F50201007D159A
:100E740075FD8280411122C406C62A841305803E72
:100E84007D14D5373344040875F8B2402244410137
:100E94008280AA8713070008731007800F100000D0
:100EA4002A291307800833450508731007809A2BF5
:100EB4001442098F6378D700AA2B232006003345F8
:100EC40005088280D84703A847003308E840636ACE
:100ED400D802AE960FF0B670D84714423697D8C7EA
:100EE40013070008731007800F100000AA2B184284
:100EF4003A9533470508BAAB930780087390078087
:100F04008280B38605012E850FF0A670884383285E
:100F140006003687C8C7C695AA860FF0E568D84785
:100F2400B3880841469765BF2A87930700087390E2
:100F340007800F1000000328C5002A2993078008A2
:100F4400334505087390078001E52320060082805D
:100F54001C426373F50008C21C47144263FA07037A
:100F6400BE960FF0F6581C471442B6971CC7930759
:100F74000008739007800F1000001C422A2B1D8D5F
:100F8400B34705083EAB93078008739007808280BF
:100F9400032847003305F840E374D5FCAE860F7090
:100FA400F86814421C43AA95898E1CC73388D7005D
:100FB4000F70F8581C4755BF411106C6B929FDBF2B
:100FC400411122C406C6937715002A8489CF971746
:100FD400000083A767BA81CB9C4391C71715000013
:100FE400130505C282979377840089CB9717000075
:100FF40083A787B881C79C4791C3829793770401DD
:1010040089CB9717000083A727B781C7DC4391C317
:101014008297118801CC9717000083A7E7B599C779
:10102400DC4789C72244B24041018287B24022444E
:1010340041018280EFF08FD173002030EFF08FD325
:101044007300203023ACA186828023A6A1868280EF
:101054001387C1861C4B120593F7F7FCC98F1CCB71
:1010640082809387C186C8CB86053E85ACAF6FF07E
:101074000FB523A4A184828023AAA184828013872C
:1010840081841C4B120593F7F7FCC98F1CCB82801B
:10109400AA878607138581845CCD6FF0EF9B41118D
:1010A400514506C622C4A38E018037042557512317
:1010B40013055442593F4545713713055442553F72
:1010C40045455D3FB2402244238601804101828030
:1010D400138781BA89472302F71003C6E181994631
:1010E4006317D60093078002A302F7108280411190
:1010F40006C603C7D1810546631FC7001387218233
:101104001E238507B3C707081EA363F3F600413FF8
:10111400238601CA31A8631DF700138721821E2389
:101124008507B3C707081EA303D74182E361F7FE0F
:10113400B240410182809387E1819023A5461947FB
:101144006313D60029471305600998A391B70111C9
:1011540026CA854406CE22CC4AC8A38E9180239108
:10116400018218351C251389018222075D8F239380
:10117400E1823C3534252A84A207D58FA946B3875A
:10118400D702B3C7E7022392F1827C317821A20708
:10119400D98F18312310F9001C2122075D8F3C21BF
:1011A4002831C207D98F62055D8D45354820593DE8
:1011B4004830793D18301C20283022075D8F3C20B0
:1011C4006205C207D98F5D8D6D354820753548306D
:1011D4007D3595679387A75A7C8683570900856672
:1011E4000146B7B5030005457C87971000E0E7800A
:1011F40000DF70009146B7B503000945971000E081
:10120400E780E0DDF2406244238691804249D24483
:1012140005618280011126CA06CE22CC4AC8938475
:10122400F18138219C20631CF7061C211307E00F71
:101234002A84639CE7061C310D476376F704130484
:10124400550013894181F5172320A9007000A28558
:1012540003A501813EC6353923ACA180B24789EB91
:101264008327090022858C33F515B3C505085D294C
:10127400B737004083C7B74099E7B7E700E03707BF
:10128400000823A0E7209947238EF180238F018053
:10129400238601CA9C2085079CA023910182F240E9
:1012A4006244D24442490561828013071008639561
:1012B400E7001105693DD9BF13072008E398E7FC4F
:1012C4009387D181942305476397E600094703D5A3
:1012D400618298A3B92E1C300947E389E7FA5820A4
:1012E4008546631BD70C78205C30082422075D8F69
:1012F4007C306205C207D98F5D8DB92E1C34373717
:101304000040C9C78347374093E74700A301F7402C
:101314003C2437370040C1C38347374093F7F70C69
:10132400A301F7403C2483463740FD17920793F707
:101334000703D58FA301F7408347374093E787001E
:10134400A301F740373700408347374093F7C70F6F
:10135400A301F740343483473740ED16D58F93F714
:10136400F70FA301F7405C2493F7070295CBB71757
:101374000040114723ACE70A5C2493F707049DC798
:10138400B7170040214723ACE70A09B78347374022
:1013940093F7B70FA5BF8347374093F7770F4DB740
:1013A400B7170040114723A6E70AF9B7B71700405B
:1013B400214723A6E70AD9BDE31A07EC1389418123
:1013C400232089001504F51719477000A28503A589
:1013D40001813EC6238EE1806D3C23ACA180B247DF
:1013E40089EB8327090022858C33F515B3C50508DD
:1013F400152EB737004083C7B74099E7B7E700E039
:101404003707000823A0E720B71700409387870A0F
:1014140098431347070898C395BD411106C622C4D3
:1014240083C7C180C1CB17070000130727751C436E
:1014340085071CC331671307F734637CF700B717BC
:1014440000401307000823A6E70A9707000023A714
:101454000772138481BA834744106399070C930776
:10146400B00F938581CA1385C1BA2320F4100D2CC3
:1014740029E9B71700409387870A98431347070859
:1014840098C39547238FF1809307E0071CA0832717
:10149400041089071CB085472302F41083C7F18127
:1014A4003CA09305C003A38501BA22852244B2401F
:1014B400410145BEB71700401307000823ACE70AF3
:1014C40049BF930700086316F50403C7D1819387C6
:1014D400E1811DC3094798A3930720201EA08547D7
:1014E4002302F41083C7F1813CA0A38501BA9305BC
:1014F400C003138581BA5DBF054798A393071060A5
:101504001EA0D1475EA083D701827EA0A38F018055
:10151400F9B71387C1811C23A1C3FD171CA38947F5
:10152400238FF180930720201EA0B5B70947639548
:10153400E7028347541099CF2547238FE18013078F
:10154400F00F6385E700FD17A302F410854723021B
:10155400F41071BF238601CAB24022444101828043
:10156400411113060020970500009385257B138500
:101574004199A38F018023AC0180A38E018023862F
:1015840001CA06C6971000E0E780A089B7B6030039
:1015940023A8A180922295679387A75A01476313D2
:1015A400F600BA22B2402390E18217050000130529
:1015B400655B4101171300E06700438BB7370040B8
:1015C40003D7C740930700323307F702B727004019
:1015D4009386C74098C209472380E7401147238078
:1015E400E7408280B727004003C76740058B15C7D3
:1015F40005462383C74083A6C1821387C74014C30B
:1016040089462380D74011472380E74083C58183DF
:10161400938781836395C50098A37300203090233A
:101624006314D6000D47CDBF9423E398E6FE154717
:10163400E5B783A701831307007DB3D7E702B38718
:10164400A70223A6F1820947B72700402380E74079
:1016540011472380E7408280411126C2938441834D
:101664009C4006C622C46388A7022A840545EFF07D
:101674007F80294783A70183B307F70280C08D8346
:10168400B3D787029507B3D7E70237370040B3C70C
:1016940007082316F740B240224492444101828055
:1016A400411122C426C206C603C781838D472E84F6
:1016B400938481836311F7042E86AA8503A5C183CD
:1016C400EFF09F8609EDB7E700E03707000823A095
:1016D400E7180F100000854694A023A0E7100840E7
:1016E400133515003305A0401375F50FB24022449D
:1016F4009244410182809820954723A00500130558
:10170400F00FE315F7FEB7E700E03707000823A062
:10171400E7180F100000854694A023A0E7101305D6
:101724000008E9B7814737370040A14663C3B700D3
:1017340082800346B740E30ED6FE3306F50010223E
:1017440085072304C740DDB7B737004003C74740C8
:1017540099463D8B6305D706011122CEB146630835
:10176400D70691466319D70A83C7A740B735004007
:1017740093F7F70F3E863EC23307F64083C6854093
:1017840041070A97FD17230CD7FE93F7F70FEDF7E0
:1017940050002C0003A5C183EFF0AFEF7D47938782
:1017A40081836372A7020D4798A3138781821C4328
:1017B4009246B6971CC3724405617300203083C7F8
:1017C400574073002030094798A3CD3BF9BF83C726
:1017D400A740B735004093F7F70F3E863EC2330764
:1017E400F64083C6854041070A97FD17230CD7FEB0
:1017F40093F7F70FEDF750002C0003A5C183EFF02A
:101804004FE9138781821C439246B6971CC38D47C8
:10181400238CF1824DB713848181184049DF03C7BB
:10182400B740A1475000998F2C0003A501813EC207
:10183400EFF08FEF08C08147B73600401247E3FC52
:10184400E7F638003E97182385072384E640FDB762
:10185400230304801547A2872303E48001000100C9
:101864002302A48003C7678062076187E34C07FEF5
:101874002382A780228783476780E207E187E3CC3E
:1018840007FE82802303048015472303E4800100BC
:1018940001002302A480828083076480E3CE07FED4
:1018A40023030480828083076480E3CE07FE03451C
:1018B4004480828083076480E3CE07FE2302A480F1
:1018C4008280411126C44AC24EC006C61377F50B66
:1018D400AD47AA892E8995446306F70019455D37FB
:1018E400653F8D444E85793FFD59FD14639834015D
:1018F400B240A24412498249410182801355090130
:101904001375F50F453F2209CDB7011126CC06CE3C
:10191400B704080051371545B537713769372AC6FA
:10192400A53F32459377150089EB136515001375B0
:10193400F50FF240E24405618280FD14E9FC0145A3
:10194400CDBF411106C6B7170040130770052380A9
:10195400E704130780FA2380E70403C74704130549
:10196400F00F1367070E2382E70491472303F480E3
:10197400C535B24041010DB7011126CC4ACA4EC843
:1019840052C606CE2A89AE89B284554A5D3F91E893
:101994002137F24026855249E244C249324A056160
:1019A4008280CA850945313F910903A7C9FF914740
:1019B4002320E48003076480E34E07FE230344816D
:1019C400FD17EDFBFD14110981C49377F90FE9FFAD
:1019D4002D3F55FDFD5475BF011126CC4ACA4EC892
:1019E40052C656C45AC206CE2A89328A8D49913FBC
:1019F400C164C16A056B9387F4FFB3F7270199E3C8
:101A040063719A02FD199180E39709FE71350145CE
:101A1400F240E2445249C249324AA24A124B056199
:101A240082801305800D63885401130500026384CA
:101A3400640113051008CA856935C13D09C5269995
:101A4400330A9A4075BF7D55E1B7011106CE26CC05
:101A54004ACAB2844EC82AC62E89E5353245FD14D9
:101A6400FD59AA852D45B13D639A34013535F240BF
:101A740026855249E244C249056182802D3593F797
:101A8400340091EB8326048003270900930749005F
:101A9400E39EE6FC3E89FD14C1BF011106CE2AC6B1
:101AA4004D353245C533F2400561FDB3011106CE13
:101AB40026CC4ACA4EC852C6AA8956C42E89513564
:101AC400CE852D45FD3B81448D4A214AE93B6396F1
:101AD4005401832704802320F9008504E39844FFFC
:101AE4008327048013972901635C07002312F900FC
:101AF400F240E2445249C249324AA24A056169BBF2
:101B04002322F900F5B7411106C626C44AC24EC0C5
:101B1400AE89053D81451305B0046533BD447D5947
:101B2400593393F77400CE9703C70700FD14398D1A
:101B34002380A700E39624FFB240A24412498249BD
:101B4400410199BB411106C6ED3B130560061D3BDF
:101B5400A133130590093D33B240410135BB000068
:101B6400971100209381C18017110020130141496E
:101B74001305400097E5FF1F93858548170600204D
:101B8400130606FE63FAC5008322050023A0550050
:101B940011059105E3EAC5FE17150000130585B389
:101BA400970500209385C5FB17060020130646FC05
:101BB40063FAC5008322050023A055001105910591
:101BC400E3EAC5FE17050020130585FA97150020E2
:101BD4009385C5086377B500232005001105E36DDF
:101BE400B5FE93025002739002BC8D427390428002
:101BF4008542739012BC930280087390023097E27E
:101C0400FF1F9382E23F93E23200739052309702B7
:101C1400000093820222739012347300203037172D
:101C240000408347E70412054111BD8BC98F93F728
:101C3400F70F93068008F3B6068093F6860836C637
:101C44000F100000930670052300D704930680FA52
:101C54002300D7040F1000002307F7042300070410
:101C6400B247F3A707800F1000004101828091471B
:101C740063ECB70497170000938747A4B3C5F52016
:101C840098413E97B71700409387470B02879443C8
:101C940037170040B3F6A64094C39306070B9C4243
:101CA400B3F7A74019A8944337170040B3F6A640EA
:101CB40094C39306070B9C42C98F9CC29307070ADF
:101CC40098433377A74098C38280944337170040E2
:101CD400C98ED9B798433377A74098C3B717004044
:101CE4009387070A9843498FF9BF9843498FF5B7FB
:101CF400B717004098279306000C1377070C631757
:101D0400D700170500200325A5E6828098279306AF
:101D140000041377070C6310D702942713070002FB
:101D2400FD8A99C298277D8B3745C3231305056027
:101D34003345E5028280942713070002FD8A99C285
:101D440098277D8B3755E80113050580D5B74111D8
:101D540022C406C62A84693F2947B307E502B24074
:101D64008D83B3D7870222449507B3D7E702373769
:101D74000040B3C707082316F7404101828071650C
:101D840041111305052006C6D937B737004013079C
:101D940010F82381E7400D47A381E74013070004AF
:101DA400A380E74005472387E740B2404101828092
:101DB40037370040834727401A0593F7F703C98F45
:101DC40093F7F70F2301F7408280B737004003C72A
:101DD400174019C94D8FA380E74003C70740136715
:101DE40087002380E7408280B375B740A380B74063
:101DF4008280371700403E2FB3C7070893F707FCCC
:101E0400B3C707083EAF09C93E2F8E055D8ED18D3D
:101E1400B3C505082EAF828082803387C5000CC10C
:101E240058C112A9231905000CC54CC58280B716E8
:101E340000409E2E717741117D1706C6F98F9EAE24
:101E44001945F13B1305900597F0FF1FE78040D437
:101E54003922312897F0FF1FE780807097F0FF1F29
:101E6400E78080159707002023A6A7D08280011160
:101E740097F7FF1F9387C7143EC42800F54706CE83
:101E84003EC6BD2C05679387C1861307072ABAAFE0
:101E940037062557B7565500370780001307D73242
:101EA40013065642454593865655C145238207007D
:101EB40090C3C8C794C78CCBD8CF9387818498D359
:101EC40017070020130787D3D8CB7D5798BF2382E9
:101ED400070090C3C8C794C78CCB9707002023ABD7
:101EE40007C8F240B7E700E03707100023A0E71067
:101EF4003707200023A0E7100561828005664111A1
:101F04008547130606C0970500209385A5121385FF
:101F140001CB06C622C4238CF182013723AEA182F1
:101F240037E400E0B70700082320F410514597F088
:101F3400FF1FE7800070B727004011472380E74068
:101F440003C727400145136717002381E740B707FC
:101F54000001B2402320F410224441018280411147
:101F640006C622C426C2693323A8A182B71400403E
:101F74001384840B930700081CC08D4513050008C7
:101F8400FD31B1471CC08D453145D5319E2C71774B
:101F94007D17F98F9EAC85471CC08D450545C13919
:101FA40085450945E9310D468D4505459935C13BC2
:101FB40071651305052097F0FF1FE780E069094567
:101FC400C53B9D45054511352244B2409244238CBE
:101FD4000182410125B701112A8706CE2E8526CC20
:101FE400B2854ACA368622C637240040B7E700E0E5
:101FF400FD5603A90700C44323A0D71823A2D7186A
:102004009307F7FF93F7F70F0948636AF808B717C0
:10201400004083C75704B7C80300F9576374150514
:10202400B306C50063E0D80463140705098297006A
:102034000020E7806094AA87371700409306700554
:102044002300D704930680FA2300D7048346470469
:10205400C18A2302D70437E700E023202711232273
:1020640097103244F240E24452493E850561828031
:102074008547631FF7008567FD173E96E98F3E96F7
:10208400FD777D8E7D8D97000020E780E09465B715
:1020940097000020E780609B9307150071BFB54748
:1020A400631AF7001305900B97000020E780E09E69
:1020B400814759B7B1476315F7001305B00AEDB767
:1020C40099476317F70097000020E780209ECDB75B
:1020D4009D47631BF70023A0050023A2050097007A
:1020E4000020E78040A2E9B791476317F700970003
:1020F4000020E78020A56DBF81471DDFF1572DBF6C
:102104001841411106C6971700209387A7B298C3B8
:10211400584117E5FF1F1305A5F7D8C35D28B24042
:1021240001454101828001114EC69719002093890F
:10213400E9B003A7090006CE22CC26CA4AC852C475
:1021440056C21443B707FDFF1384F7FFB3F78600A5
:102154001CC31C43370A020017190020130989AF56
:10216400E18FB3E747011CC303270900B706330017
:10217400971A0020938A4AAD1C47B7040F00D58FE5
:102184001CC783A70A001387845D93840408B8CB13
:102194004D2C012BB522112C83A60A0003A709009C
:1021A400416623A446011C43E18FD18F1CC303263F
:1021B40009003707CEFF7D171C46F2406244F98FB1
:1021C4001CC6A4CA4249D244B249224A924A056171
:1021D4008280B7C700401387072001119387071037
:1021E4009716002023A2E6A637D7004006CE2AC6BB
:1021F4009716002023A0E6A6171700202320F7A493
:10220400BD2897F0FF1FE780C091313F3245F2406F
:1022140023A0A1840145056182809717002083C70C
:10222400A7A303C741841D8F93070002898FB38737
:10223400E702A1460145930570021205FD1633C657
:10224400B702BA97518DF5FA828017170020034719
:10225400B7A09717002083C727A0B306F7401D0532
:10226400998FB387A7022147014593057002120590
:102274007D1733C6B702B697518D75FB82809717C9
:1022840000209387279D9C4313070048B70600F955
:1022940098D7D85FFD16B7050040758FB7060002C2
:1022A400558FD8DFD85F3706FAFF7D160E070D83EA
:1022B4004D8FD8DF945BF18E94DB985BB70600906A
:1022C400FD16758F4D8F98DBB847B706F9FFFD16DD
:1022D400758FB8C7B84BB70607001377F78F136726
:1022E4000730B8CBF84F558FF8CFF84FB706000733
:1022F400558FF8CF930740060100FD17F5FF828044
:1023040017170020130707951C4341767D16B44B1D
:10231400F18EB4CB944737062000D18E94C7D447AE
:1023240093E60601D4C7D447BD9AD4C7010001007F
:102334000100010014430566DC4693E70701DCC68F
:10234400DC42D18FDCC2971700209387E78F90433C
:10235400930740067CD27C5291C783A7C609A18308
:10236400858BF5DB01000100010001001843416683
:102374008327C709FD8B97160020A38BF68C344B5B
:10238400D18E34CB344B3706E0FF7D16819ADD8E37
:1023940034CB1447F18E14C70D476377F700F51754
:1023A400171700202306F78A828097170020938747
:1023B400678A9C4341777D17B44F4166F98EB4CF49
:1023C4009447D18E94C7D44793F6F6EFD4C7D44339
:1023D400758FD8C3D44793E60610D4C7D843518F1A
:1023E400D8C38280971700209387C7869C431375B0
:1023F400F51F8176D8439386F60F799BD8C31317BC
:102404008500885F758D598D88DFD8431367170061
:10241400D8C317170020130727831443096713072A
:1024240007F4F8D203A707091316570063580600E8
:1024340003A707091316670063440600F8527DF3E7
:102444008280411122C4171400201304A4801C406C
:1024540006C6FD76D843FD161377F7EFD8C3985711
:10246400758F98D7D857B70602003D9BD8D79847A1
:10247400558F98C7D84313670701D8C385671707D3
:1024840000200357C77C938747236307F72013056E
:10249400F00B893F18401305700E8327070993F743
:1024A400F7032382F18483274709A98393F7F70766
:1024B400A382F184053F18401305300D83270709D3
:1024C40093F7F70397060020A388F6788327470934
:1024D400A98393F7F70717070020230CF77619371A
:1024E40018408327070993F7F703970600202385ED
:1024F400F67683274709A98393F7F7071707002080
:102504002306F77400400145093B2320A40A214512
:1025140029332322A40A414509332324A40A61450B
:10252400ED392326A40A13050002C5392328A40A79
:102534000545213B232AA40A2545013B232CA40A53
:1025440045452133232EA40A654501332320A40CD9
:1025540013051002DD392322A40C9705002083C53E
:10256400B56F170500200345256FB305B5409307E4
:10257400A002B387F502130790029306800217089E
:1025840000200348086DA148130300023387E502C5
:10259400B3C7D7023347D7029207A946D98F23245A
:1025A400F40C9707002083C7676A33860741B30694
:1025B400D6023308F840032E840C33C7B602C29601
:1025C40013678700331717013367C7012324E40C0B
:1025D4009108E39268FE2326040C0A060147C148C9
:1025E400B346B6020323C40C429693E68600B39620
:1025F400E600B3E666002326D40C1107E31217FFA6
:1026040083C6518483C541849D8E898D0148930876
:1026140000023346B8020323C40C36983316E6008E
:10262400336666002326C40C1107E31417FF1398BE
:1026340026000146F1483347B8020323040D3698B7
:102644003317C700336767002328E40C1106E3142B
:1026540016FF584085661375F5033D9B58C05840D6
:1026640093F7F707E207799B58C01854558F18D48D
:102674005854B7060081FD161367070158D4185C37
:10268400137707FC498F18DC185C758FD98F1CDC15
:10269400B240224441018280970700202399075ABF
:1026A40095B5970700209387E75A98435C4393E7CF
:1026B40007105CC382800000D6F5FFFFEEF5FFFF34
:0C26C40012F6FFFF1CF6FFFF32F6FFFFCE
:0226D00001A067
:1026D4001412002036110020D0100020D010002049
:00000001FF
