:040000006F00C0735A
:100004000000000000000000F00300206A0300204C
:10001400A9BDF9F3AC2700000000000000000000B7
:10002400AC270000AC270000000000000000000026
:10003400AC27000000000000AC2700000000000016
:1000440000000000AC27000000000000AC27000006
:10005400AC270000AC270000900000200000000046
:10006400AC2700000000000000000000AC270000E6
:10007400AC270000AC270000AC270000AC27000030
:1000840000000000AC27000000000000AC270000C6
:10009400971000E0E780E08F730020309307000C96
:1000A4000111631CF50493078008F3B7078093F7E5
:1000B40087083EC00F100000B717004013077005F3
:1000C4002380E704130780FA2380E7040F1000005D
:1000D40003C7F70013670704A387E70003C7870074
:1000E4001367070C2384E700238007048247F3A7E0
:1000F40007800F10000005618280B717004003C716
:10010400A700118B79EF83C6E7041307800893F6E1
:10011400F60F733607801376860832C20F1000007C
:100124001308700523800705930580FA2380B7041C
:100134000F10000003C6E704136636002387C704C4
:1001440003C6A700136646002385C700238007045F
:100154001246732606800F10000003C6870013762C
:10016400F60F73370780137787083AC40F1000001F
:10017400238007052380B7040F10000003C78700FE
:100184001367070C2384E70023800704A247F3A71F
:1001940007800F100000A5470100FD1793F7F70F24
:1001A400E5FF93078008F3B7078093F787083EC6F7
:1001B4000F100000B7170040130770052380E704F1
:1001C400130780FA2380E7040F1000002384C7007C
:1001D4002387D70423800704B247F3A707800F10AF
:1001E40000009377050C130700046392E70A930752
:1001F4008008F3B7078093F787083EC80F10000004
:10020400B7170040130770052380E704130780FA2B
:100214002380E7040F10000003C7A7008546136777
:1002240007012385E70037270040A303D7808346CF
:10023400578093E60601A302D78023800704C247B0
:10024400F3A707800F10000093078008F3B7078017
:1002540093F787083ECE0F100000B717004013072E
:1002640070052380E704130780FA2380E7040F1046
:10027400000003C7F7001375F50F13670704A3877E
:10028400E7002384A70023800704F2478DB5937702
:10029400F5019DCF93078008F3B7078093F787088C
:1002A4003ECA0F100000B7170040130770052380E3
:1002B400E704130780FA2380E7040F1000003727B0
:1002C40000408946A303D78023800704D2478DBF0B
:1002D40093078008F3B7078093F787083ECC0F1085
:1002E4000000B7170040130770052380E7041307C5
:1002F40080FA2380E7040F100000372700409D4652
:10030400A303D78023800704E2471DBF0111814660
:1003140001468145114506CE971000E0E780C0E212
:1003240093078008F3B7078093F787083EC60F103A
:100334000000B7170040130770052380E704130774
:1003440080FA2380E7040F10000003C767041367D3
:1003540017002383E70423800704B247F3A7078029
:100364000F100000F2400561828041118146014670
:1003740081451145971000E0E78000DD13078008F0
:10038400F337078093F787083EC40F100000B717B0
:100394000040130670052380C704930680FA238067
:1003A400D7040F100000FD552396B70223800704DD
:1003B400A245F3A505800F1000007337078013775B
:1003C40087083AC60F1000002380C7042380D7048F
:1003D4000F10000003C76704136717002383E704A3
:1003E40023800704B247F3A707800F10000001A081
:1003F40001A0E5473305F50201007D1575FD8280F6
:10040400411122C406C62A841305803E7D14D537C3
:100414003344040875F8B2402244410182802E9688
:10042400AA870F70B6788280230304801547A287B9
:100434002303E480010001002302A48003C7678032
:1004440062076187E34C07FE2382A78022878347E4
:100454006780E207E187E3CC07FE82802303048000
:1004640015472303E480010001002302A480828055
:1004740083076480E3CE07FE23030480828083071E
:100484006480E3CE07FE0345448082808307648052
:10049400E3CE07FE2302A4808280411126C44AC20F
:1004A4004EC006C61377F50BAD47AA892E8995442D
:1004B4006306F70019455D37653F8D444E85793FE6
:1004C400FD59FD1463983401B240A2441249824993
:1004D40041018280135509011375F50F453F220927
:1004E400CDB7011126CC06CEB70408005137154507
:1004F400B537713769372AC6A53F3245937715005A
:1005040089EB136515001375F50FF240E24405619C
:100514008280FD14E9FC0145CDBF411106C6B71721
:100524000040130770052380E704130780FA238033
:10053400E70403C747041305F00F1367070E23826C
:10054400E70491472303F480C535B24041010DB758
:10055400011126CC4ACA4EC852C606CE2A89AE8993
:10056400B284554A5D3F91E82137F24026855249CD
:10057400E244C249324A05618280CA850945313F55
:10058400910903A7C9FF91472320E48003076480EE
:10059400E34E07FE23034481FD17EDFBFD1411090F
:1005A40081C49377F90FE9FF2D3F55FDFD5475BFC5
:1005B400011126CC4ACA4EC852C656C45AC206CEE7
:1005C4002A89328A8D49913FC164C16A056B938738
:1005D400F4FFB3F7270199E363719A02FD1991803F
:1005E400E39709FE71350145F240E2445249C2499C
:1005F400324AA24A124B056182801305800D63883A
:100604005401130500026384640113051008CA85AC
:100614006935C13D09C52699330A9A4075BF7D5590
:10062400E1B7011106CE26CC4ACAB2844EC82AC606
:100634002E89E5353245FD14FD59AA852D45B13D78
:10064400639A34013535F24026855249E244C24961
:10065400056182802D3593F7340091EB8326048065
:100664000327090093074900E39EE6FC3E89FD1435
:10067400C1BF011106CE2AC64D353245C533F240FD
:100684000561FDB3011106CE26CC4ACA4EC852C636
:10069400AA8956C42E895135CE852D45FD3B81440A
:1006A4008D4A214AE93B6396540183270480232021
:1006B400F9008504E39844FF8327048013972901F4
:1006C400635C07002312F900F240E2445249C24934
:1006D400324AA24A056169BB2322F900F5B74111E8
:1006E40006C626C44AC24EC0AE89053D81451305DF
:1006F400B0046533BD447D59593393F77400CE97E4
:1007040003C70700FD14398D2380A700E39624FF57
:10071400B240A24412498249410199BB411106C623
:10072400ED3B130560061D3BA133130590093D33D2
:08073400B240410135BB000099
:10073C00971100209381C185173100201301C18BC3
:10074C0013054000970500209385058B17060020A4
:10075C00130606FE63FAC5008322050023A055008C
:10076C0011059105E3EAC5FE172500001305C50325
:10077C00970500209385C5FB1386C18063FAC500DD
:10078C008322050023A0550011059105E3EAC5FE5F
:10079C001385C1809385819C6377B5002320050068
:1007AC001105E36DB5FE93025002739002BC8D42AD
:1007BC00739042808542739012BC930280087390B0
:1007CC000230970200209382228393E232007390CE
:1007DC005230970200009382020973901234730016
:1007EC0020302A8309CA83830500230073007D16F9
:1007FC00050385056DFA82802A8311C62300B30098
:10080C007D16050365FE8280411106C6938781988B
:10081C002380A70003A58182A380B7002381C70092
:10082C00BE851306000413050504A381D700553FAC
:10083C00B2401305000441016F00B00E411106C611
:10084C00B7170040214723ACE70A8D452145712598
:10085C00014681450545EF00F001B24041016F00B2
:10086C00407E4111194506C622C4052513056004B6
:10087C0097000020E7800082D13717250000130570
:10088C0065CFEF00D0329387818C23A6F182B71607
:10089C00004097070020938727F423A4F18283D785
:1008AC00860171777D17F98F239CF600EF00807F0E
:1008BC00B7E700E03707400023A0E7101305400618
:1008CC0097000020E78040B31384718183470400B4
:1008DC0089CBC54613060002C1451545A38B018083
:1008EC0025371305400697000020E780E0B08347CA
:1008FC00040091CB9306200213065002D5452945DE
:10090C00A38B018011371305400697000020E78068
:10091C00A0AE8347040091CB930640041306A002BB
:10092C00E9453945A38B0180C53513054006970071
:10093C000020E78060AC8347040091CB93068008CD
:10094C001306E002F9454145A38B0180753D130563
:10095C00400697000020E78020AA8DBF81471386B0
:10096C00818213F7F70F6364A7006F00807B184236
:10097C003E9783460700850793C6F6FF2300D704EE
:10098C00CDB7011122CC06CE26CA4AC84EC652C4D7
:10099C00378400408347640013F7F70F898B638E0D
:1009AC000746834774001307000393F70703638616
:1009BC00E702834774001307000293F7F70363837E
:1009CC00E70C6366F708638A07140547638AE71424
:1009DC00B787004009472383E700378700408347E8
:1009EC0077009397476063DB0744930720FC230150
:1009FC00F7021386C1820842138441818346750035
:100A0C0083476500A206DD8E2310D40083471500B2
:100A1C00238BF1808344050013F70406630C07163F
:100A2C0013F704046312071213F70402630E071082
:100A3C00F91793F7F70F25476363F71C1727000087
:100A4C00130707BAB3C7E7209C43BA9782871307EB
:100A5C001002E39FE7F683476402854517250000E3
:100A6C00130505B393C707042303F40283476402F9
:100A7C0093F7C70F93E727002303F4028547A38B53
:100A8C00F1800DA883C761811547638DE70619476F
:100A9C006385E7020D47E38DE7F2230004028947E3
:100AAC002301F4028547A38BF180854517250000AF
:100ABC001305C5ACEF00E07A21BF938941811389FE
:100ACC00018183D409008325090093070004B3D462
:100ADC00F40A03A5C1822686293383D7090013FAA9
:100AEC00F40F858F2390F90083270900A697232004
:100AFC00F900230044038347240293C7070423010E
:100B0C00F402F9B58347340003C7418193F7070812
:100B1C00D98FA301F4008947DDB7834784004DBD0D
:100B2C008347740093F70704E38407EA834764025E
:100B3C0093C707082303F40203458400053549BD18
:100B4C0083C7B18CA386F18081469394446063DDA6
:100B5C000400835704001307000433D7E70A998F66
:100B6C009376F70F2310F400B78700402380D70249
:100B7C00130700FC2381E70255A083C7A18C2387B0
:100B8C00F180D9B783C7D1802384F18C75BF83C71B
:100B9C00E180DDBFAD4563E4F50697250000938544
:100BAC00A5A6B3C7B7209C43AE9782878347350071
:100BBC001306100293890181638CC70A6366F606DB
:100BCC0005466384C7080946638AC7081309F00FF2
:100BDC006374D7002310E400035A040083A50900B2
:100BEC0093070004335AFA0A5286E53E83A709009C
:100BFC00D29723A0F9009307F00FE317F9F4B78706
:100C0C0000401307F0FC2381E70285458547172533
:100C1C00000013052599A38BF180A125B78700400F
:100C2C0009472383E70019AC13062002E390C7FAA7
:100C3C0083474500A1EF972700009387E79F23A0E8
:100C4C00F90001491307200261B797270000938729
:100C5C00A7A323A0F900014949479DBF972700008E
:100C6C009387C79F23A0F9000149130790028DB702
:100C7C00834745001309F00FA1FF972700009387C6
:100C8C00079F23A0F9000149254799B7014913078C
:100C9C00F00F3DBF834725002310F40075B583C7C3
:100CAC0081812300F500035704008547E3FEE7E844
:100CBC008547DDB783472500238CF18071B593F709
:100CCC00F4010947639DE7028347450005476381AB
:100CDC00E70213071008E394E7F2378700408347D5
:100CEC00670293F7C70B93E727002303F702A9BD0D
:100CFC00378700408347670293F73707FDB7E390C8
:100D0C0007F08347350003472500A207D98F054715
:100D1C00E39CE7E21387C18083470700F99B23001C
:100D2C00F7001DB593F7F40109476391E704834776
:100D3C00550003474500A207D98F0547638FE7008D
:100D4C0013071008E39DE7EA3787004083476702E3
:100D5C0093F7C70B93E7370049BF378700408347AA
:100D6C00670293F7370793E7C70041B7E39907E8A2
:100D7C008347350003472500A207D98F0547E39524
:100D8C00E7DC1387C1808347070093E7170041BF57
:100D9C002300050009BF13F7F40189476313F70615
:100DAC002300050018428347570083464700A207DB
:100DBC00D58F8546638BD70293051008639DB700CA
:100DCC00B787004083C767028D4593F73704639458
:100DDC00B7002300D7001C42A38007000357040070
:100DEC008547E3F3E7D6894745BDB786004083C600
:100DFC006602B14593F6C608E39FB6FC2300F700E4
:100E0C00D9BF71FB2300050003C7C18019C3184269
:100E1C00F5B71C42238007007DBF937717009DC751
:100E2C00A301040089472301F4022303F4022305E0
:100E3C00F4022307F40285472303F400F2406244D2
:100E4C00D2444249B249224A0561828093774700D5
:100E5C0095CB83475400918B89CFA38B018081451F
:100E6C001715000013054575ED2EB7870040114787
:100E7C004DBB8547A38BF1808545171500001305E5
:100E8C00E574DDB72303E40055BF371700408347F3
:100E9C00E70412054111BD8BC98F93F7F70F930629
:100EAC008008F3B6068093F6860836C60F1000004D
:100EBC00930670052300D704930680FA2300D70409
:100ECC000F1000002307F70423000704B247F3A711
:100EDC0007800F10000041018280914763ECB7043A
:100EEC00971700009387877BB3C5F52098413E97F1
:100EFC00B71700409387470B02879443371700407E
:100F0C00B3F6A64094C39306070B9C42B3F7A740D5
:100F1C0019A8944337170040B3F6A64094C3930620
:100F2C00070B9C42C98F9CC29307070A98433377DF
:100F3C00A74098C38280944337170040C98ED9B715
:100F4C0098433377A74098C3B71700409387070A95
:100F5C009843498FF9BF9843498FF5B7B7170040AD
:100F6C0003C787009306000C1377070C6315D70093
:100F7C0003A5C181828003C7870093060004137701
:100F8C00070C6312D70283C6870013070002FD8A81
:100F9C0081C603C787007D8B3745C32313050560C6
:100FAC003345E502828083C6870013070002FD8A61
:100FBC0081C603C787007D8B3755E8011305058073
:100FCC00C5B73285814737370040A14663C3A700B8
:100FDC0082800346B740E30ED6FE3386F500034607
:100FEC00060085072304C740D5B797F6FF1F9386E5
:100FFC00267AAA8788421387819CAA9763E9E7001F
:10100C000A87130707FC6364F7009CC282807D5536
:10101C008280411122C406C62A8489372947B30726
:10102C00E502B2408D83B3D7870222449507B3D72C
:10103C00E70237370040B3C707082316F7404101D2
:10104C008280716541111305052006C6D937B73763
:10105C000040130710F82381E7400D47A381E740B8
:10106C0013070004A380E74005472387E740B240FD
:10107C0041018280371700408357A701B3C7070887
:10108C0093F707FCB3C70708231DF70019C983574B
:10109C00A7018E055D8ED18DB3C50508231DB70044
:1010AC0082808280B7870040238007001307C0FC32
:1010BC002386E700A386E70003D7C1822398E700C5
:1010CC0003D78182239AE70003D74182239CE70050
:1010DC0003D70182239EE70089462381D702494723
:1010EC002383E7022385E7022387E7022389D702BC
:1010FC00A3810700130790022380E700B716004076
:10110C0003D786010D66518F239CE6007D57238300
:10111C00E700130710F8A380E7001D472381E700C1
:10112C008280B78700402382A70203C76702137728
:10113C00C70F2383E702828001112A8706CE2E85F2
:10114C0026CCB2854ACA368622C637240040B7E779
:10115C0000E0FD5603A90700C44323A0D71823A21F
:10116C00D7189307F7FF93F7F70F0948636AF80846
:10117C00B717004083C75704B7C80300F957637407
:10118C001505B306C50063E0D8046314070509828E
:10119C0097F0FF1FE780403BAA8737170040930664
:1011AC0070052300D704930680FA2300D7048346E6
:1011BC004704C18A2302D70437E700E02320271114
:1011CC00232297103244F240E24452493E85056195
:1011DC0082808547631FF7008567FD173E96E98F70
:1011EC003E96FD777D8E7D8D97F0FF1FE780C03B8F
:1011FC0065B797F0FF1FE78040429307150071BF5A
:10120C00B547631AF7001305900B97F0FF1FE780A3
:10121C00C045814759B7B1476315F7001305B00AAC
:10122C00EDB799476317F70097F0FF1FE78000456C
:10123C00CDB79D47631BF70023A0050023A2050033
:10124C0097F0FF1FE7802049E9B791476317F70034
:10125C0097F0FF1FE780004C6DBF81471DDFF157F2
:10126C002DBF5D7122D406D62A842EDA32DC36DE0E
:10127C00BAC0BEC2C2C4C6C617F5FF1F032585512E
:10128C0011C51C4D81E72AC6492332450C4554181B
:10129C00228636CEEF003025B25022546161828016
:1012AC00011126CA06CE22CC4AC84EC652C4AA8404
:1012BC0019E11C4502901C4D2E89A5E7B9239C4CC5
:1012CC008044B5C397170000938787426310F406D8
:1012DC00C0407C50858B81EB8357C40093F707206B
:1012EC0099E3284C45258357C400A18B99C31C480E
:1012FC00C5E7A2852685512245C1FD547C50858BBE
:10130C0081EB8357C40093F7072099E3284CA52D54
:10131C00F24062444249B249224A2685D2440561D0
:10132C008280004545B72685CD2169BF97170000FF
:10133C009387073A6314F400804461BF9717000049
:10134C0093870737E317F4F8C04461B71CC4050949
:10135C0063C907021C401387170018C02380B7000D
:10136C001C4483450900FD17F5F11CC463D9070221
:10137C002286A94526859120FD57E300F5F8A9445E
:10138C00B5BF184C63C4E700E39645FD228626855D
:10139C002D20E31735FD95B7FD59294AD1B71C40CF
:1013AC001387170018C029472380E700C9BFAA85F7
:1013BC0017F5FF1F0325053EE5B5011122CC26CA02
:1013CC004AC806CE4EC6AA842E89328401C51C4D4D
:1013DC0091E3252997170000938787316318F4024E
:1013EC00C0401C4C1CC48357C400A18B99C31C481F
:1013FC0095EFA2852685512015C97D59F24062448E
:10140C00D244B2494A85424905618280971700004F
:10141C009387072C6314F4008044E1B797170000FE
:10142C0093870729E31FF4FAC04465BF1C480840A2
:10143C009379F90F1379F90F1D8D5C486346F5000C
:10144C00A2852685B52455F91C440505FD171CC439
:10145C001C401387170018C0238037015C48638930
:10146C00A7008357C400858BD1DBA947E318F9F893
:10147C00A2852685352C59D149B7411122C426C2E3
:10148C004AC006C697F4FF1F83A4C4302A892E8451
:10149C0089C49C4C99E326858D2E97170000938761
:1014AC0027256314F402C0408317C40013F7870088
:1014BC002DEB13F7070115EB25472320E90093E7E4
:1014CC0007042316F4007D5559A89717000093873D
:1014DC0027206314F4008044C1BF97170000938742
:1014EC00271DE313F4FCC044C1B7918B8DC74C5836
:1014FC0089C9930744046384F5004A856923232A28
:10150C0004028357C4002322040093F7B7FD23166B
:10151C00F4001C481CC08357C40093E787002316B3
:10152C00F4001C4881EF8357C4001307002093F785
:10153C0007286385E700A2854A856D218317C400BF
:10154C0013F717001DC35848232404003307E04049
:10155C0018CC1848014501E713F707082DF3B240E2
:10156C002244924402494101828013F727008146AC
:10157C0011E3544814C4F1BF8397C500011122CC68
:10158C0026CA06CE4AC84EC613F78700AA842E84F4
:10159C0069E7D8416345E000B8416358E008585406
:1015AC0049C703A9040023A004000C5093D7C748D3
:1015BC00B9CB70488357C400918B99C75C401D8E82
:1015CC005C5899C33C401D8E5C540C50814626855A
:1015DC008297FD57630DF5041C4805672322040010
:1015EC001CC08357C400F98F91C368C84C5823A002
:1015FC00240185CD930744046384F500268561217D
:10160C00232A04021DA00146854626850297FD5714
:10161C002A86E311F5FA9C40D1DF75476385E70014
:10162C0059476395E70623A024010145BDA09840C6
:10163C008317C40001CFF5466305D700D94663195B
:10164C00D7041C48232204001CC04DB71848232281
:10165C00040093D7C74818C041BF83A90501E3868E
:10166C0009FC03A905008D8B23A0350133093941F1
:10167C00014791E3D84918C4E35920FB1C540C5082
:10168C00CA864E86268582976340A0028317C400C3
:10169C0093E707042316F4007D55F2406244D244CC
:1016AC004249B24905618280AA993309A940E9B738
:1016BC009C49411106C622C426C281EB8144B2402A
:1016CC0022442685924441018280AA842E8401C53D
:1016DC001C4D91E31D2A9717000093876701631D2A
:1016EC00F402C0408317C400F1DB7850058B11E77E
:1016FC0093F7072099E3284C71242685A285AD3DEC
:10170C007C50AA84858BC5FF8357C40093F70720B0
:10171C00DDF7284C8D2C65B797170000938747FB96
:10172C006314F40080447DBF97170000938747F83B
:10173C00E31AF4FAC0447DB7411122C406C62A84C8
:10174C002316B5002317C50023200500232205000E
:10175C00232405002322050623280500232A05003F
:10176C00232C0500214681451305C505EFF0CF88D4
:10177C0097170000938767865CD0971700009387B4
:10178C00A7881CD4971700009387C78C5CD4971735
:10179C0000009387678FB24000D01CD822444101CF
:1017AC008280970500009385E5F0BDA2411126C209
:1017BC00930780069384F5FFB384F4024AC02E8904
:1017CC0022C406C693854407452E2A8401CD2320C6
:1017DC00050023222501310508C4138684068145A2
:1017EC00EFF08F81B240228522449244024941019C
:1017FC0082801385418379A21385418369A2138565
:10180C00818349A213858183BDAA411122C406C6D6
:10181C002A84F5371C4C89C72244B2404101DDB7FC
:10182C0097070000938727F81CD42324040423264D
:10183C0004042328040483A78180639487008547CC
:10184C001CCC22853D2048C02285252008C4228539
:10185C000D2048C4484001469145F93D08440546D1
:10186C00A545D93D48440946C945F93585471CCCA1
:10187C0065B7411126C24AC006C622C42A89953FC3
:10188C0083A481809C4C99E32685413793848404FE
:10189C008044DC40FD1763D607009C40BDC38440E8
:1018AC00C5BF0317C40039EBC17785075CC41305AA
:1018BC00840523220406F1208137214623200400CD
:1018CC00232404002322040023280400232A0400D8
:1018DC00232C040081451305C405EFE0FFF1232AF6
:1018EC000402232C04022324040423260404B240FF
:1018FC0022852244924402494101828013048406C9
:10190C0051BF91454A855D3588C02A8449F9ED352A
:10191C00B1472320F900E1BF797122D44AD04ECED1
:10192C0052CC5AC85EC606D626D256CA2A892E8AE8
:10193C00130485048149054BFD5B0444832A440050
:10194C00FD1A63D00A0200406DF8B2502254925432
:10195C000259624AD24A424BB24B4E85F24945611A
:10196C00828083D7C400637BFB008397E40063878A
:10197C007701A6854A85029AB3E9A9009384840667
:10198C00C1B78280828082805971A2D42E848395C3
:10199C00E500A6D2CAD086D6B284368963D30502B6
:1019AC008357C40093F7070895EB13070040B65014
:1019BC0026542320F90098C00659965401456561B8
:1019CC0082803000EF008071E34C05FC3247BD672C
:1019DC00F98F7977BA9793B71700C1BF814713076F
:1019EC000004F1B783D7C500797122D406D626D26C
:1019FC004AD04ECE898B2E8491CF930774041CC091
:101A0C001CC885475CC8B250225492540259F24902
:101A1C004561828074003000AA84BD37A2492A89AE
:101A2C002685CE85912A01ED8317C40013F7072074
:101A3C0079FBF19B93E727002316F4007DBF9707F2
:101A4C000000938747D69CD48357C40008C008C8AD
:101A5C0093E707082316F400B247232A340189CFF1
:101A6C008315E4002685792D01C98357C400F19BA9
:101A7C0093E717002316F4008357C40033E52701BE
:101A8C002316A40049B7D1CD83A7C5FF011122CCE1
:101A9C0006CE1384C5FF63D307003E942AC6C12D1E
:101AAC00138701841C43324581EB2322040000C3BD
:101ABC006244F2400561C1A5637DF4001040B30699
:101ACC00C4006396D7009443DC43B29614C05CC048
:101ADC00F9BF3E87DC4399C3E37DF4FE1443330620
:101AEC00D700631F86001040B29614C33306D7008C
:101AFC00E390C7FC9043DC43B29614C35CC34DBF68
:101B0C006375C400B1471CC165B71040B306C4006F
:101B1C006396D7009443DC43B29614C05CC040C3B8
:101B2C0041BF828041114AC01389C18383270900B8
:101B3C0022C426C206C6AA842E8489E7814585293B
:101B4C002320A900A28526859D217D59631A250194
:101B5C007D54B24022852244924402494101828044
:101B6C00130435007198E30685FEB305A440268561
:101B7C003D29E31025FFE9BF011126CA93843500E6
:101B8C00F1984AC8A104B14706CE22CC4EC62A8988
:101B9C00B3F4F40A63C4040063FDB400B14723201A
:101BAC00F9000145F2406244D2444249B249056110
:101BBC008280752B9389018483A709003E8431E4CC
:101BCC00A6854A858537FD572A846316F50A03A432
:101BDC000900A287C1EB8329040081454A85A2999B
:101BEC00F9266394A9081C408D044A859D8CF198B4
:101BFC00B147A104B3F4F40AA6852D37FD5763064B
:101C0C00F5061C40A6971CC015A01440858E63C811
:101C1C0006042D47637DD70204C0330794006396F6
:101C2C00870223A0E9005C4014C35CC34A85A1234E
:101C3C001305B4009307440061993307F540E3039F
:101C4C00F5F63A94898F1CC0B1BFD8C3E9BF584090
:101C5C006395870023A0E900D1BFD8C3C1BFA28779
:101C6C004040B1BF3E84DC43B5B7B1472320F900F7
:101C7C004A8511233DB704C155BF1C46FD171CC630
:101C8C0063DA0700184E63C5E700A9476394F500B3
:101C9C006FF0AFF21C422E851387170018C22380F9
:101CAC00B7008280011122CC26CA4AC84EC652C443
:101CBC0006CE2A89AE893284B304D6007D5A6314C9
:101CCC009400014509A8834504004E864A85753762
:101CDC000504E31645FFF2406244D2444249B2493E
:101CEC00224A05618280357122CD26CB4AC94EC766
:101CFC0006CF52C556C35AC1DEDEE2DCAA892E8459
:101D0C003289B68401C51C4D91E30136971700004A
:101D1C009387079E6319F40403A449007C50858BB8
:101D2C0081EB8357C40093F7072099E3284C99392A
:101D3C008357C400A18B99C31C48A5E3A2854E858B
:101D4C00EFF0AFF339C97C50858BA1C37D55FA40B8
:101D5C006A44DA444A49BA492A4A9A4A0A4BF65B17
:101D6C00665C0D61828097170000938767966315F8
:101D7C00F40003A489005DB797170000938747937D
:101D8C00E31EF4F803A4C90051BF8357C40093F7B2
:101D9C000720CDFF284CC53E55BF93070002A30476
:101DAC00F1029307000302D22305F10226C6930B1E
:101DBC005002971A0000938AAA95294BCA8483C7AC
:101DCC00040099C3639B7709338C2441638D2401F0
:101DDC00E2864A86A2854E85F135FD57630DF518CE
:101DEC009257E2973ED283C7040063860718FD57CB
:101DFC001389140002C802CE3ECA02CCA309010406
:101E0C0082D48345090015465685A926C2479304FA
:101E1C00190031E513F7070109C713070002A309DD
:101E2C00E10413F7870009C71307B002A309E10403
:101E3C00834609001307A002638AE602F247CA84AC
:101E4C008146254603C7040093851400130707FD3C
:101E5C006374E60685C63ECE15A085048DB73305A2
:101E6C005541B397A72826893EC861BF32479306D0
:101E7C004700184336C6634A07023ACE03C704002C
:101E8C009307E002631EF70403C714009307A00234
:101E9C00631AF702B2478904138747009C433AC67A
:101EAC007D57B3E7E70A3ECA25A83307E04093E71E
:101EBC0027003ACE3EC8D9B7B3876703AE848546B0
:101ECC00BA9749B7850402CA81468147254603C79C
:101EDC00040093851400130707FD6374E606E1F60E
:101EEC0083C504000D46171500001305E5829D24DB
:101EFC0011CD97170000938727821D8DC2471307BA
:101F0C0000043317A700D98F85043EC883C504008D
:101F1C001946171500001305658013891400230456
:101F2C00B1020D2C3DC99307000095E74247B2471B
:101F3C001377071009CF91073EC69257D2973ED21E
:101F4C00B5BDB3876703AE848546BA9749B79D077D
:101F5C00E19BA107D5B77800970600009386C6D4FD
:101F6C0022860C084E8597000000E7000000FD5704
:101F7C002A8AE314F5FC7C50858B81EB8357C400D3
:101F8C0093F7072099E3284CFD3A8357C40093F745
:101F9C000704E39D07DA12555DBB78009706000035
:101FAC00938686D022860C084E85F92CC9B7411130
:101FBC0022C42A842E8523A2018406C6EFF0EF8268
:101FCC00FD576316F50083A7418491C31CC0B24032
:101FDC00224441018280411122C42E848395E50064
:101FEC0006C62523634905007C48AA977CC8B240E5
:101FFC002244410182808357C4009397C74823161B
:10200C00F400F5B783D7C500011122CC26CA4AC803
:10201C004EC606CE93F70710AA842E843289B68951
:10202C0091C78395E5008946014601228357C40078
:10203C008315E400F2409397C7482316F4006244DA
:10204C00CE864A86B24942492685D244056135A8D6
:10205C00411122C42E848395E50006C6F9207D57D4
:10206C008357C400631AE5009397C7482316F400FE
:10207C00B2402244410182809397C72868C8231636
:10208C00F400FDB78395E5003DA0411122C42A84DC
:10209C002E85B285368623A2018406C6EFE07FF238
:1020AC00FD576316F50083A7418491C31CC0B24051
:1020BC00224441018280411122C42A842E8523A20C
:1020CC00018406C68529FD576316F50083A7418454
:1020DC0091C31CC0B240224441018280411122C4F0
:1020EC002A842E85B28523A2018406C69129FD5728
:1020FC006316F50083A7418491C31CC0B2402244EF
:10210C0041018280411122C42A842E8523A201849C
:10211C0006C62D29FD576316F50083A7418491C38C
:10212C001CC0B240224441018280411122C42A8445
:10213C002E85B285368623A2018406C63129FD5729
:10214C006316F50083A7418491C31CC0B24022449E
:10215C004101828093F5F50F2A966314C500014561
:10216C00828083470500E38DB7FE0505FDB7138517
:10217C0001836FF03F81138501836FF0DF807971EC
:10218C0056CA9C49BA8A984522D44AD04ECE52CCD3
:10219C0006D626D25AC85EC6B3E7E70A1CC203C7E6
:1021AC003504AA892E843289368A19C385071CC244
:1021BC001C4093F7070291C7832709008907232046
:1021CC00F9000440998891E8130B9401FD5B5C4481
:1021DC0003270900998F63CCF40483473404B33686
:1021EC00F0001C4093F70702A5EB13063404D285CC
:1021FC004E85829AFD576303F5041C4011478144B8
:10220C00998B6399E7008327090044449D8C81478F
:10221C00B3E4F40A1C4418486354F700998FBE9435
:10222C00014969047D5B63982405014509A885462D
:10223C005A86D2854E85829A631E75017D55B250A1
:10224C00225492540259F249624AD24A424BB24B3E
:10225C00456182808504A5BF3307D40013060003B3
:10226C00A301C7040347540493871600A297890659
:10227C00A381E7049DBF85462286D2854E85829A2E
:10228C00E30E65FB050945B7797122D44AD04ECED1
:10229C0052CC06D626D256CA5AC803C88501930713
:1022AC0080072A892E84B289368A63E20703930752
:1022BC0020069386350463E107036300081E930729
:1022CC008005170600001306E645630AF81493040C
:1022DC0024042301040515A89307D8F993F7F70FE5
:1022EC005546E366F6FE1706000013062646B3C7EE
:1022FC00C7209C43B29782871C4393842504938602
:10230C0047009C4314C32381F50485474DAA904193
:10231C001C43137506089385470039C19C430CC3B5
:10232C00584063D207149305D002A301B40418C417
:10233C0063500704B307F040170600001306863EEF
:10234C002948B68433F70703FD1432970347070077
:10235C002380E4003E87B3D70703E37507FF8DA006
:10236C009C43137506040CC345DD939757604DBF12
:10237C006D9A10C0C1B790411C4313750608938524
:10238C00470001C50CC39C4339A0137606040CC34B
:10239C007DDA83D707001307F00617060000130633
:1023AC0066386310E80C2148A3010404584018C493
:1023BC00E34907F80C40ED990CC0C1F7B68451F312
:1023CC00A147631EF8001C40858B91CB58401C48DC
:1023DC0063C7E70093070003A38FF4FEFD14858EFB
:1023EC0014C85287CE867000A2854A85493BFD5A97
:1023FC00631B550D7D55B250225492540259F2492B
:10240C00624AD24A424B456182809C4193E7070263
:10241C009CC113088007170600001306E631A302BF
:10242C0004050C401C4313F805081385470063058D
:10243C00080008C39C4301A813F8050408C3E30B68
:10244C0008FE83D7070013F7150001C793E50502B3
:10245C000CC099C3414889BF18401377F7FD18C0C9
:10246C00D5BF294891B7170600001306A62B29489B
:10247C0035BF90411C43CC4913780608138547009F
:10248C006306080008C39C438CC301A808C31376D9
:10249C0006049C4375DA2390B70023280400B68405
:1024AC0089B71C43D04181459386470014C38443AC
:1024BC0026854D3101C5B30795405CC05C401CC8F6
:1024CC00A301040439BF14482686CE854A85029A96
:1024DC00E30255F31C40898B85E74844B2473365CA
:1024EC00F50A11BF85465686CE854A85029AE303C6
:1024FC0065F185045C443247998FE3C5F4FEF1BF66
:10250C008144930A94017D5BF5B7411122C42A845E
:10251C002E85B285368623A2018406C6A120FD57DE
:10252C006316F50083A7418491C31CC0B2402244BA
:10253C00410182809307800523A2F1847D5582801E
:10254C009307800523A2F1847D5582809307800533
:10255C0023A2F184014582809307800523A2F18494
:10256C007D5582809307800523A2F1847D5582805E
:10257C00737461727400000052656164795F535426
:10258C0041545553203D2025640A00005265616476
:10259C00795F494E5F455031203D2025640A00008B
:1025AC0052656164795F5374616C6C203D202564C5
:1025BC000A00000052656164795F536C6565702098
:1025CC003D2025640A00000052656164795F5765FF
:1025DC00616B5570203D2025640A0000A8E5FFFFC3
:1025EC00B2E5FFFF22E6FFFF22E6FFFF22E6FFFF38
:1025FC0022E6FFFF22E6FFFF6CE5FFFF64E5FFFF2D
:10260C009EE5FFFF92E7FFFFBAE6FFFFFAE5FFFF4B
:10261C0020E7FFFFFAE5FFFF90E6FFFFA8E5FFFFCD
:10262C00FAE5FFFF9AE6FFFFB0E6FFFF8CE7FFFF3E
:10263C0044E5FFFF0600FF0901A101090215002670
:10264C0000FF750895408106090215002600FF75EC
:10265C000895409106C0000009022900010104A060
:10266C0023090400000203000005092100010001F8
:10267C0022220007058103400001070501034000E9
:10268C00010000001201100100000040861A072111
:10269C00000000000001000062E8FFFF7AE8FFFF85
:1026AC009EE8FFFFA8E8FFFFBEE8FFFF0000000068
:1026BC00000000000000000000000000000000000E
:1026CC0000000000000000000000000000000000FE
:1026DC0000000000000000000000000000000000EE
:1026EC0000000000000000000000000000000000DE
:1026FC0000000000000000000000000000000000CE
:10270C00000000000000000000000000232D302B12
:10271C0020000000686C4C00656667454647000069
:10272C0030313233343536373839414243444546FB
:10273C0000000000303132333435363738396162BD
:10274C006364656600000000B0FBFFFFC6FBFFFF83
:10275C0086FBFFFF86FBFFFF86FBFFFF86FBFFFF71
:10276C00C6FBFFFF86FBFFFF86FBFFFF86FBFFFF21
:10277C0086FBFFFF2AFDFFFF2EFCFFFFC2FCFFFFC5
:10278C0086FBFFFF86FBFFFF5AFDFFFF86FBFFFF6B
:10279C002EFCFFFF86FBFFFF86FBFFFFCAFCFFFF43
:0227AC0001A08A
:1027B00000000000F8260000D8260000B82600001F
:1027C0000000000000000000000000000000000009
:1027D00000000000000000000000000000000000F9
:1027E00000000000000000000000000000000000E9
:1027F00000000000000000000000000000000000D9
:1028000000000000000000000000000000000000C8
:0C28100060090020380700203807002075
:00000001FF
