:040000006F005063DA
:10000400000000000000000064030020E002002063
:10001400A9BDF9F3885501000000000000000000AC
:100024008855010088550100000000000000000010
:100034008855010000000000885501000000000000
:1000440000000000AA030020000000008855010001
:100054008855010088550100885501000000000002
:1000640088550100000000000000000088550100D0
:100074008C03002088550100885501008855010033
:1000840000000000885501000000000088550100B0
:100094009307000C01116318F50493078008F3B764
:1000A400078093F787083EC00F100000B717004081
:1000B400130770052380E704130780FA2380E704FD
:1000C4000F100000F83713670704F8B79827136771
:1000D400070C98A7238007048247F3A707800F1013
:1000E400000005618280B7170040B827118B69EBC7
:1000F40083C6E7041307800893F6F60F7336078068
:100104001376860832C20F1000001308700523808E
:100114000705930580FA2380B7040F10000003C677
:10012400E704136636002387C704B0271366460026
:10013400B0A7238007041246732606800F10000020
:1001440090271376F60F73370780137787083AC41E
:100154000F100000238007052380B7040F10000050
:1001640098271367070C98A723800704A247F3A7CF
:1001740007800F100000A5470100FD1793F7F70F44
:10018400E5FF93078008F3B7078093F787083EC617
:100194000F100000B7170040130770052380E70411
:1001A400130780FA2380E7040F10000090A7238729
:1001B400D70423800704B247F3A707800F10000079
:1001C4009377050C13070004639DE70893078008E1
:1001D400F3B7078093F787083EC80F100000B717DE
:1001E4000040130770052380E704130780FA238077
:1001F400E7040F100000B827854613670701B8A766
:1002040037270040A303D7808346578093E606012F
:10021400A302D78023800704C247F3A707800F10E7
:10022400000093078008F3B7078093F787083ECE52
:100234000F100000B7170040130770052380E70470
:10024400130780FA2380E7040F100000F8371375B2
:10025400F50F13670704F8B788A723800704F2474C
:10026400ADBD9377F5019DCF93078008F3B7078061
:1002740093F787083ECA0F100000B7170040130712
:1002840070052380E704130780FA2380E7040F1026
:100294000000372700408946A303D7802380070442
:1002A400D247A5BF93078008F3B7078093F7870861
:1002B4003ECC0F100000B7170040130770052380D1
:1002C400E704130780FA2380E7040F1000003727A0
:1002D40000409D46A303D78023800704E24735BF2F
:1002E40041118146014681451145972000E0E78090
:1002F400E03213078008F337078093F787083EC47A
:100304000F100000B7170040130670052380C704C0
:10031400930680FA2380D7040F100000FD55CEB752
:1003240023800704A245F3A505800F10000073374E
:100334000780137787083AC60F1000002380C7048C
:100344002380D7040F10000003C767041367170046
:100354002383E70423800704B247F3A707800F1021
:10036400000001A001A04111B7170040985F3AC6F0
:10037400945F3247E39CE6FE324541018280B7E751
:1003840000E03707001023A0E7208280B717004061
:10039400130700032388E702854723AAF19073001B
:1003A4002030411106C6B121FDBF411122C63714C8
:1003B40000408357C409898B9DC383C7419493B775
:1003C400170009469305000803C5C1822382F194EE
:1003D400972000E0E78040768947231EF4083244E2
:1003E400410173002030230304801547A2872303AF
:1003F400E480010001002302A48003C76780620730
:100404006187E34C07FE2382A780228783476780A6
:10041400E207E187E3CC07FE8280230304801547CB
:100424002303E480010001002302A4808280830767
:100434006480E3CE07FE2303048082808307648004
:10044400E3CE07FE03454480828083076480E3CEC5
:1004540007FE2302A4808280411126C44AC24EC0F2
:1004640006C61377F50BAD47AA892E899544630612
:10047400F70019455D37653F8D444E85793FFD5939
:10048400FD1463983401B240A244124982494101E7
:100494008280135509011375F50F453F2209CDB725
:1004A400011126CC06CEB704080051371545B537DF
:1004B400713769372AC6A53F32459377150089EB12
:1004C400136515001375F50FF240E244056182804F
:1004D400FD14E9FC0145CDBF411106C6B717004024
:1004E400130770052380E704130780FA2380E704C9
:1004F40003C747041305F00F1367070E2382E704AD
:1005040091472303F480C535B24041010DB7011171
:1005140026CC4ACA4EC852C606CE2A89AE89B284AF
:10052400554A5D3F91E82137F24026855249E2441D
:10053400C249324A05618280CA850945313F910921
:1005440003A7C9FF91472320E48003076480E34E97
:1005540007FE23034481FD17EDFBFD14110981C43B
:100564009377F90FE9FF2D3F55FDFD5475BF011138
:1005740026CC4ACA4EC852C656C45AC206CE2A8986
:10058400328A8D49913FC164C16A056B9387F4FF38
:10059400B3F7270199E363719A02FD199180E397F8
:1005A40009FE71350145F240E2445249C249324ADA
:1005B400A24A124B056182801305800D63885401A1
:1005C400130500026384640113051008CA856935A4
:1005D400C13D09C52699330A9A4075BF7D55E1B7D7
:1005E400011106CE26CC4ACAB2844EC82AC62E8928
:1005F400E5353245FD14FD59AA852D45B13D639A73
:1006040034013535F24026855249E244C249056138
:1006140082802D3593F7340091EB832604800327E1
:10062400090093074900E39EE6FC3E89FD14C1BF1F
:10063400011106CE2AC64D353245C533F240056157
:10064400FDB3011106CE26CC4ACA4EC852C6AA89A9
:1006540056C42E895135CE852D45FD3B81448D4AA6
:10066400214AE93B63965401832704802320F9003F
:100674008504E39844FF8327048013972901635C6E
:1006840007002312F900F240E2445249C249324AB7
:10069400A24A056169BB2322F900F5B7411106C6D8
:1006A40026C44AC24EC0AE89053D81451305B00437
:1006B4006533BD447D59593393F77400CE9703C70E
:1006C4000700FD14398D2380A700E39624FFB24070
:1006D400A24412498249410199BB411106C6ED3B2E
:1006E400130560061D3BA133130590093D33B24049
:1006F400410135BB411122C406C69727000083A7D8
:10070400A70C1384018391C782971C40AA971CC02D
:1007140021A083A78195EDFB0840B7470300938789
:10072400D73F3305F502B7A72600938737ECB240CD
:100734003E9508C022444101828037E700E01C4313
:10074400B70620002320D718F58F0F10000019C119
:1007540091C111E637E700E02320F71082802E963E
:100764000F70B650D5BF411126C2B7E400E022C4D1
:100774008040B706200006C6758C23A0D4180F103D
:10078400000011C111EAB7E700E023A08710B240CE
:100794002244924441018280970000E0E780807601
:1007A40023A08410EDB737E700E01C43B706200010
:1007B4002320D718F58F0F10000001C599C10147F8
:1007C40011EA37E700E02320F7100545828005078A
:1007D400E309E6FE3308E500B386E50003480800B4
:1007E4009422E306D8FE37E700E02320F710014502
:1007F4008280797122D406D626D24AD04ECE52CCEB
:1008040056CA5AC85EC662C4138401951C40D5E713
:1008140097240000938444F7138901960327090061
:100824009C2094300146B3A5E7208E21C9C911C28A
:100834009CA08820636CD50897270000238607F4C2
:100844001C40F1E79389819583A70900E9C3138AC2
:10085400C19403240A0045CC972B0000938B0BF81A
:1008640083A74B0037C9C901014B9CC41309F9374D
:10087400972A0000938A4AF33E20CDEB5C4463142C
:100884000B0A2320FA00032CC40022854129628428
:1008940065F49727000083A767F3B5CB2254B250C1
:1008A40092540259F249624AD24A424BB24B224C08
:1008B4004561176301E0670023B2829781BF850712
:1008C40093F7F70F0546E3E0D7F69DB73327E52006
:1008D4000E232310070097270000239A07EA83A713
:1008E400C195B347F5209C4382979C208326090039
:1008F400FA20B3A6D72092223377E540518F9AA2EB
:1009040099C385079CA098209C30E377F7F2B250F6
:10091400225492540259F249624AD24A424BB24B8F
:10092400224C456182802326FB00B1BF83A70900C6
:1009340082971C443307F5406376F50003A74B0008
:100944001D8F2A976369E9022E200820975001E041
:10095400E780C0E85C409DD3104483A64B00B29767
:100964003E8763E4C70063E4D7003387D74018C4E5
:10097400228B404431BF03A74A027DDB63E9A7020F
:100984003385A7401C2099EF03C76A0183A64B0057
:100994005117B307A7003E8563E4E70063E4D7007B
:1009A4003385D7409C44E375F5FC88C4D1B703A7CD
:1009B4004B00BA97F1B7B7C700401387C720144359
:1009C4001396264910C30F10000093878726172516
:1009D40000000325A5DC9C436A0514C393C7F7FFF5
:1009E40099835D8D8280411126C29384C19E984073
:1009F40006C622C43C4393D76748B1C39307000695
:100A04003CC39727000083C767EE93F707041724B6
:100A140000001304A4ED99CB9727000083A707DCFB
:100A2400829748C41C2093F7F70B1CA01E2481CB8B
:100A340003A741A07CD397270000239D07EA984091
:100A44003C4393D7474899C7C1473CC383A741A0B8
:100A540023A2070603A7819E5C4393D7174899C333
:100A640023220700B2402244924441018280A53FE0
:100A74007300203083A641A017270000130707E75F
:100A84001C23858B91E71C33858B99E3FC52EDFB8A
:100A9400828097260000938626D1DC5285C7B7E76B
:100AA40000E03707200023A0E728B7F700E093878A
:100AB40007D0984B6D9B98CB984B1367870398CBC3
:100AC4007300501097270000A38207E2138741A008
:100AD4001C43054690C3DC5299CBB7F600E083A7CC
:100AE40006D193E7870023A8F6D07300501018436B
:100AF40097260000938686DF9C22858B99E37C539E
:100B0400E5FF8280011197270000238207DE4AC88F
:100B140097270000A38D07DC172900001309C9C813
:100B24008327490222CC06CE26CA4EC62A842E85A5
:100B3400B28585C7B7E700E03707200023A0E72880
:100B4400B7F700E0938707D0984B6D9B98CB984BF1
:100B54001367870398CB7300501085479389C19E10
:100B6400938441A06315F4060146975001E0E780A1
:100B740040D983A7090098409C43A1838D8BA9E7A2
:100B8400930760197CD38327490299CB37F700E098
:100B9400832707D193E787002328F7D073005010E9
:100BA400944017270000130767D43C23858B91E7F3
:100BB4003C33858B99E3FC52EDFBF2406244D24412
:100BC4004249B249056182809307E01B65BF975093
:100BD40001E0E78060CC83A70900984313178729B5
:100BE40098C3D85B719BD8DB59FC97270000A38F6F
:100BF40007CE9C40094798C379B703A741A01C4777
:100C04005447F58FB70604001CC7FD8E91CAFD56E4
:100C140034D717260000130626B7544A850654CA4B
:100C240093F6870095C29726000083C646CC93E6C8
:100C3400160017260000230CD6CA03A6C19E545AD8
:100C4400F19A93E6160054DA93F6170095C29726A4
:100C5400000083C6B6C993E6160017260000A30752
:100C6400D6C803A6C19E545AF19A93E6160054DAE4
:100C740093F667009DCE918B83A5C19E97260000B5
:100C84009386C6C6ADCF9C41A1838D8BB5E7DC4A64
:100C94009C43A18313F6F70F21E2930730055CCF41
:100CA4009C2293E717009CA2DC59F19B93E7170061
:100CB400DCD983C701A0B9CF238001A083A7C19F3A
:100CC400A1C7411106C6829783C701A099E323AE49
:100CD400019EB24041018280304B13F5C70F137659
:100CE4000602498E01C69307100655BF93F7F70F06
:100CF4008A079387370565B7930720064DB7BC323B
:100D040093E71700BCB24DB783C701A081E723AEB8
:100D1400019E82808280D53573002030B7E700E0E1
:100D240003A807003707200023A0E7183378E8005A
:100D34000F10000003AEC1A803A341A8F2878146A7
:100D440063F6670883A807006367F50863E5A808E6
:100D540013878700636CE506F22321670507631791
:100D6400E6001386319D1822050718A29725000076
:100D7400938585A1D223DA21239307003297334741
:100D84000708DAA16381C70303A581A8630DF500F1
:100D9400EA2211E9DE2223A0160121073E9621064C
:100DA400D2A2DAA1B68798436302670283A681A818
:100DB400630ED700762399EAD62352231843A1065B
:100DC400B296D6A398C3DE21A107DEA1B7E700E05F
:100DD40023A007118280BE86C6879DB703A741A0C2
:100DE4003C5BFDFF010001008280011122CC26CA78
:100DF40006CE2AC42EC617240000032424C3854427
:100E040019E0014505A09C841830858B6304F70024
:100E14000044FDB719469305A1001305240061326F
:100E2400E31895FEF2406244D244056182800000DA
:100E340097110020938141A5172100201301411C23
:100E44001305400097F5FF1F9385851B17060020A7
:100E5400130606FE63FAC5008322050023A055008D
:100E640011059105E3EAC5FE176501001305C5C424
:100E7400970500209385C5FB1386C18F63FAC500CF
:100E84008322050023A0550011059105E3EAC5FE60
:100E94001385C18F972500209385C5BA6377B50064
:100EA400232005001105E36DB5FE930250027390F3
:100EB40002BC8D42739042808542739012BC9302AF
:100EC40080087390023097F2FF1F9382621393E2BB
:100ED400320073905230971200009382A26A73908A
:100EE4001234730020302A8309CA83830500230047
:100EF40073007D16050385056DFA82802A8311C669
:100F04002300B3007D16050365FE82803717004079
:100F14008347E70412054111BD8BC98F93F7F70F7F
:100F240093068008F3B6068093F6860836C60F103B
:100F34000000930670052300D704930680FA23006B
:100F4400D7040F1000002307F70423000704B24757
:100F5400F3A707800F10000041018280011126CA07
:100F640006CE22CC8947B314A02863F9A70095477D
:100F740063EAA70A93042500B3149028B717004026
:100F840003D70705B166558F2398E7041307800834
:100F940073370780137787083AC60F1000001307CA
:100FA40070052380E704130780FA2380E7040F10F9
:100FB400000003C737051375F50F13670708A389E6
:100FC400E704A389A70403C7370513670702A389A6
:100FD400E70423800704B247F3A707800F1000003B
:100FE40081470146B716004003D70605131757601B
:100FF4006352070403D7060583C6260513948700A6
:10100400931727013694C9833A043E9491263354A6
:101014009402F240D24433558502624423AEA18E39
:1010240005618280994793040040E309F5F4930431
:10103400F07FA9B703C726059375F70F6373C7003D
:1010440085072E8655B741113A8E2A838148930E1F
:10105400407E130F0019930F400663EF6E141307BD
:1010640000193377E502854E0D4F994FFD4263E138
:10107400BE1861477D1603A5C18F4696AA85B3F6AF
:10108400E602130780703387E602F946330EDE0268
:1010940093D61700858B7297369791E38145B307F2
:1010A400A602A166FD161306302A13D8F700F58FA1
:1010B400B387C7021166B385A5023307A702B295A9
:1010C40013F6F71F1E06BD81A583F98EB3A6C620AD
:1010D4003D83AE96BA9713D70601BA972D671307C7
:1010E400078C33D6E702B3C6060833F7E702429605
:1010F4004207558FB716004083C7F60293F70708D7
:10110400DC838C8383C7F60293F70708E396F5FE26
:101114009C83B71600406381071293078008F3B7D6
:10112400078093F787083EC40F100000B7170040EC
:10113400930670052380D704930680FA2380D7048E
:101144000F100000D0DB83C6170393E60608A388BC
:10115400D70223800704A247F3A707800F100000DB
:101164001166B71700407D16D45BCC5FAD8EF18E4F
:10117400E5FE93068008F3B6068093F6860836C625
:101184000F100000930670052380D704930680FA9D
:101194002380D7040F100000D8DB03C7170313679D
:1011A4000704A388E70223800704B247F3A7078054
:1011B4000F100000410182807D133377E30313088D
:1011C400E01601CF3377F3031308D01619C7137849
:1011D4003300133818001308D816C298BDBD13F88D
:1011E4001500F91563FBBF029305E801AE989A85D3
:1011F4001383F5FFE395E5FF854501CF130840060A
:10120400337805038145630608009375350093B56B
:101214001500F105AE989A8599BDB3850241DDBFED
:1012240083C7F60293F70708DC838C8383C7F6022F
:1012340093F70708E396F5FE9C83FDD3F9BD0D06ED
:10124400719A81473307F5006393C7008280144382
:101254003387F500910714C3F5B7914763ECB704DE
:10126400974701009387878CB3C5F52098413E9733
:10127400B71700409387470B028794433717004002
:10128400B3F6A64094C39306070B9C42B3F7A7405A
:1012940019A8944337170040B3F6A64094C39306A5
:1012A400070B9C42C98F9CC29307070A9843337764
:1012B400A74098C38280944337170040C98ED9B79A
:1012C40098433377A74098C3B71700409387070A1A
:1012D4009843498FF9BF9843498FF5B789473347F6
:1012E4000508638BF50463E2B7021346F7FF9DE933
:1012F400B717004083D64709F18E239AD7089387FE
:10130400C70A9443C98E94C321A08D47638CF50208
:10131400B7170040239EE70883D60709558F239803
:10132400E7088280B717004083D64709F18E239AD5
:10133400D7089387870AF1B7B717004083D64709C0
:10134400D98E65BFB717004083D64709D98EC5B774
:10135400B717004098279306000C1377070C631502
:10136400D70003A5C18F82809827930600041377C2
:10137400070C6310D702942713070002FD8A99C251
:1013840098277D8B3745C323130505603345E50254
:101394008280942713070002FD8A99C298277D8BC7
:1013A4003755E80113050580D5B7B7F700E088473E
:1013B40082803285814737370040A14663C3A70046
:1013C40082800346B740E30ED6FE3386F500102232
:1013D40085072304C740DDB7970600209386C6CA55
:1013E400AA878842171700201307C765AA9763E9DD
:1013F400E7000A87130707FC6364F7009CC2828036
:101404007D558280411122C406C62A84913729471A
:10141400B307E502B2408D83B3D787022244950710
:10142400B3D7E70237370040B3C707082316F7409E
:1014340041018280716541111305052006C6D93723
:10144400B7370040130710F82381E7400D47A38105
:10145400E74013070004A380E74005472387E740DC
:10146400B24041018280371700403E2FB3C70708BE
:1014740093F707FCB3C707083EAF09C93E2F8E0593
:101484005D8ED18DB3C505082EAF828082803285F2
:10149400D041411106C60C32034806000D66A20570
:1014A400B3E505019308A6A21398556063C8080321
:1014B400130626A26358060375761306C65DB29515
:1014C4001946B3C505086363B6021738010013084B
:1014D4002867B3C50521904142960286130606A5E6
:1014E400630DC80E23900600A94515A01D469D4511
:1014F400636FE6002146198E3356F60A93850190F0
:1015040092A2BA9597F0FF1FE78020238145B2404D
:101514002E85410182802D469D45E36AE6FE3146D3
:10152400198E3356F60A973501009385256A92A2DF
:10153400C9BF31469D45E36CE6FC3546198E3356EA
:10154400F60A973501009385656792A25DBF41460F
:101554009D45E36EE6FA4546198E3356F60A9735ED
:1015640001009385656492A269BF41469D45E3608D
:10157400E6FA4546198E3356F60A973501009385E7
:10158400656192A2BDBF41469D45E362E6F84546CA
:10159400198E3356F60A973501009385655E92A23B
:1015A4008DB741469D45E364E6F64546198E3356AC
:1015B400F60A973501009385655B92A299B7354683
:1015C4009D45E366E6F43946198E3356F60A973597
:1015D40001009385A55892A22DB719469D45E3684D
:1015E400E6F2998D33D6F50A97050020938505AA6E
:1015F40092A201BF97060020938686834146CD457B
:1016040017050020130585836F50706DB287411153
:1016140013962500BE8506C61D31B2400145410121
:101624008280011122CC26CA939625002A84B28492
:10163400AA850146054506CE36C6EF00B07DB24602
:101644002686A2850945EF00F07CF2406244D2442C
:101654000145056182805D71A2C486C62E8493977C
:10166400556063DD0700EF10A01A19C1EF10000FD9
:101674001315F468B64026446161828093F715001F
:1016840013C51500E5FB8967ED8FA1C3EF907000CA
:101694001945E930AA8523A8A1900A85C92A51468B
:1016A4008A85681089306810EF10F02EED2437F623
:1016B4000200239CA190130606E0896503C5C1902E
:1016C400EF1000471315D46875B711656D8D5DD1A2
:1016D4001735010013058550EF20212B13060064F4
:1016E400916503C5C190EF10A0441315E46859B780
:1016F4005D715D46973501009385854E1745010060
:101704001305459186C6A2C497F0FF1FE780A00980
:1017140001E9173501001305254EEF20012701A02B
:10172400B7F700E023A40700795798CB3D4798C347
:1017340093078008F3B7078093F787083EC00F101C
:101744000000B7170040130770052380E704130750
:1017540080FA2380E7040F100000B847B70600C1E1
:10176400FD16758FB706000E558FB8C72380070482
:101774008247F3A707800F10000097F7FF1F938796
:10178400C74723A4F190130700F8B7E700E0A38A42
:10179400E740130640038145680097F0FF1FE78088
:1017A40080FC970700209387E71D05643EC69307D6
:1017B40004E0FC80E17793C727812310F102B7B7D7
:1017C40003003ECAB7070103938707103ECCED47D9
:1017D400FC868547230FF10097070000938747E3B2
:1017E4003EDCB7F50300970700009387C7E33EDEAE
:1017F400814697070000938787BB5000E105194590
:101804003ED6EF00306119464C0013053102EFF06B
:101814008FEDB24791C7BC801304F4BF6363F40037
:1018240001A06800EF10A071AA8501C91735010055
:101834001305C53DEF10D17301A0B6402644616184
:101844008280411117050000130525E106C622C454
:10185400EF10406C1384C19008A02D280820224466
:10186400B24013060032896541016F10602C17F7EE
:10187400FF1F130747AF18C13707C0A858C1056732
:101884001307479C3AA517F7FF1F130747AF0EA589
:1018940018C98280397126DA06DE22DC4AD84ED68F
:1018A40052D493048008F3B7048093F787083EC2A8
:1018B4000F1000003714004093097005230034050D
:1018C400130980FA230024050F1000008347F40253
:1018D40093E71700A307F402230004049247F3A735
:1018E40007800F1000001945EFF04FE7138A0191AC
:1018F400AA852320AA001735010013052533EF100C
:101904003167814671468545814701471305507EFD
:10191400EFF06FF383570A0017F7FF1F1307A7A40D
:101924003AC6FC8285679387479C3707C0A8FC8327
:10193400680097F7FF1F938787A43AC83ECEEF103D
:10194400B008F3B4048093F4840826C40F10000094
:1019540023003405230024050F10000001000100BA
:101964008347140393E70702A308F4022300040443
:10197400A247F3A707800F100000F2506254B7E7A4
:1019840000E03707001023A0E710D2544259B2599F
:10199400225A21618280411103A5C18F06C622C447
:1019A40026C24AC0EF10B15717F9FF1F1309497334
:1019B4002A86AE86032509008325490017F4FF1FF4
:1019C40013048472EF10E12110405440EF10417869
:1019D40010405440EF10C1772A86AE8603250900D3
:1019E40083254900EF10E11FAA842E842A86AE863F
:1019F400032509008325490017F9FF1F1309C96F3F
:101A0400EF10211E97F7FF1F9387876E9043D443EF
:101A1400EF1001740326090083264900EF00112CFE
:101A2400EF1091439307850CB3C7070813050064AF
:101A340033F5A70AEF10B1472686A286EF1041714D
:101A44000326090083264900EF005129EF10D140F5
:101A5400B240224433450508924402494101828040
:101A6400797122D406D626D24AD04ECE52CC9C25A9
:101A740013F4070259E483C805000948AE84639946
:101A84000807DC41AA89328903C807009C33368AD7
:101A9400A207B3E707010D681308289063970703AB
:101AA4008547EF40C00D2A8415E103A7019211CFA9
:101AB40083471900834609004C00A207D58FB3372A
:101AC400F00085073EC24E8502970144BA2497F779
:101AD400FF1F83D70750631DF70083A7019289CBAB
:101AE4000D473AC2231641014AC44C004E858297E1
:101AF400B2502285225492540259F249624A4561F5
:101B040082802144F5B7C167F917630CF5024111CE
:101B140022C406C685472A84639AF5002285224496
:101B2400B240938541AB41016F503025894763969C
:101B3400F5008545EF60103575D1B240224441016E
:101B4400828082804111173501001305250F22C4BC
:101B540026C24AC02E84368906C6B284EF10F162CA
:101B6400142089476395F6025C4098239C33A207AE
:101B7400D98F0D6713072790639BE7004C440946F0
:101B84002310D900268597F0FF1FE78000BBB240E1
:101B9400224492440249014541018280411126C2F6
:101BA400AA844165938541AB7D1506C622C4EF50D6
:101BB400D01C17050000130545F5EF60D02497F6F7
:101BC400FF1F9386A63A4146994517F5FF1F130553
:101BD400A53AEF50D0102A8419C517350100130512
:101BE400A506EF10915AB2402285224423A0919277
:101BF4009244410182804111938541AB06C6EF3086
:101C04003073B2407D1513351500410182804111B6
:101C140022C42E84938541AB26C206C6AA84EF3023
:101C24003071058919CD97F7FF1F83D787371EA019
:101C3400A2852244B24026859244014641016F4068
:101C44001036B240224492444945410182803E21EB
:101C54001A213385E740334505088280AA8711CECF
:101C64001307F6FFB376C700054589EA23A00700EA
:101C7400CCC392A7BAA701458280054582801A2168
:101C840032255441AA87798EB296050788229AA3F1
:101C94008280232005008280AA871145B1CB29CAFE
:101CA40096239A270D453697B623158F3347070891
:101CB40021C399E101458280162233D7E60A814681
:101CC40033C506086364E5001AA2EDB73385D50071
:101CD4008348050003D82700AA2785063378A8007F
:101CE400C843429523001501AA230505AAA3C9BF29
:101CF4008280AA871145A1C739C29623BA23094510
:101D0400158F162233470708B3D6E60A0DCB0147D1
:101D14006365D70016A20145828003D80700AA276D
:101D24003378A800C8434295034805003385E5008D
:101D34000507230005018A2305058AA3D1BF8280F4
:101D44002A86B305B040173501001305E5F16F107D
:101D540031229C41011106CE22CC09476388E70257
:101D64000D476387E7040547639BE706AA85173594
:101D740001001305E5F0EF10B11F6244F24003C502
:101D8400C1829305000405616F00F079AA851735B7
:101D94000100130565F1EF10B11D6244F24003C563
:101DA400C182130600649305000405616F00505856
:101DB4002E848E2517350100130585F1EF10511B74
:101DC4001E244C401306E100138501CD7C87E935C0
:101DD40009469305000203C5C182EF007055F24025
:101DE40062440561828013878193AE870E23639CCE
:101DF400A50052A317350100130505EF3E863EA347
:101E040076A36F10F11617350100130565EF6F10F7
:101E1400D1371387819356211E236395F60201114E
:101E2400C16706CEF9171CC323AE0192854713067A
:101E3400F100854513055030DC87EFC07016F24081
:101E44000561828017350100130585EB6F10F133AE
:101E54003D897D15954763E2A712173701001307E3
:101E640027F63345E5201C41411122C4BA9706C622
:101E74002E84828717350100130505E92244B240F8
:101E840041016F109130BC2119476390E7022E8500
:101E940049376C2017350100130505E8EF10510D83
:101EA40017350100130505E9D1BF0D47E38AE7FEA5
:101EB400B240224441018280B8219547E31AF7FEDB
:101EC40093878193962341677917AA25638FE60048
:101ED400EFC03029173501001305C5E6EF10F12ACC
:101EE40017350100130585E851BFFA2509668AA351
:101EF400BAA39A291306069003C5C182DAA3BA29A4
:101F0400A145FAA3EF00D04272242E241735010014
:101F1400130585E4EF10D105E1B7B8218D471735D6
:101F24000100130565E5E315F7F889BFAC21914776
:101F34006397F50017350100130585E581B79947C7
:101F4400639EF5002285F1356C20173501001305D9
:101F5400A5DC2244B24041016F1091019547639979
:101F6400F5001C30E1FB17350100130525E439B7F2
:101F740017350100130505E4E9BF8280011113063A
:101F84000020938581EE1385C1CD06CE22CC26CACE
:101F9400F13113060020938581CE138501CD7D395F
:101FA4001705000013050524EF00D0769384C18241
:101FB400A147054488A07C8513069100D147854537
:101FC400130550307C86C084EFC0807D17F6FF1F58
:101FD4001306C602ED4513057030EFC0607C13860E
:101FE40001829D4513056030EFC0807B1306A1007C
:101FF400894513051031EFC0A07A70008945130597
:102004002031EFC0E0799305000A0945EF207016EE
:102014009305000A0D45EF20D01585452945EF208D
:1020240050157000914513057040C0834084C084EE
:1020340002C623050100EFB0A02A130671008545EE
:1020440013050040EFB0C02930008545130510404A
:10205400EFB000291306A100854513052040EFB019
:10206400202813069100854513055040EFB0402702
:102074007D55EFC0201A7D55EF50004DEFF08FD7FE
:1020840017050000130525CD113ED54517F6FF1F92
:10209400130646F50145EFC06007C16713878193B6
:1020A400F917138501931CC323220700EFC0100BFB
:1020B40062448820F240D244854505616F308171C5
:1020C400AA86014701456343B7008280B387E600CF
:1020D4009C230507AA9713F5F70FF5B779C679710D
:1020E40052CC2A8A1385760006D622D426D24AD028
:1020F400AE8436894ECEB289EF00606B930730030D
:102104001CA124B19307C0FC930465002A841CB16C
:102114004A86A30225012301450123020500CE8539
:10212400268597E0FF1FE7804061CA94B385844009
:1021340093F5F50F2285693788A08504818C93F483
:10214400F40F1306E100A2851385C1CD6487A93677
:102154002C8717350100130525C88144EF10416110
:10216400173901001309C9C83C8763E6F4022945FD
:10217400EF10A1630946C14503C5C182EF00501B9E
:102184002285E92BB250225492540259F249624AF0
:10219400014545618280B30794008C234A858504F8
:1021A400EF10015D93F4F40FC1B70545828009C9AE
:1021B4001C2185C3B71700401307002023A6E70A94
:1021C400B717004003A5470A134505201355954842
:1021D4008280B71700401307002023ACE70ACDB76D
:1021E400397122DC06DE26DA4AD84ED652D456D2CB
:1021F4005AD05ECE62CC66CA2E849397556063D65D
:10220400070203C5C182292511C1892B1315F4685E
:10221400F2506254D2544259B259225A925A025B31
:10222400F24B624CD24C2161828093F7150091CF1E
:1022340017F6FF1F130646DA938541CC03C5C18206
:10224400EFC0803113451400E1B793F7850099CFAF
:1022540083C7C1821307400681465146A14503D571
:102264008193EFC0C02A134584005DB793F705013D
:102274006384071A938481829C40054A638D4703D3
:10228400F917636BFA04938A819303D50A0003D682
:10229400C1921389419201478146ED452311C9003A
:1022A400EF3000462322A9009389C18263100512EE
:1022B40089479CC081AA9389819303D50900EFF0D3
:1022C4009F9303D7090001EDC167F9176316F7005F
:1022D4001385C1CDEFF0FF9B1345040115BF3A856B
:1022E400EF10006C1389C19275152310A900138592
:1022F400C1CDEFF0DF9583570900636EF5081385B0
:10230400C1CDEFF0DF94AA85173501001305C5AEE2
:10231400EF1001464A869385810E1385C1CDEFF0F7
:102324005F9D1375F50F23A001945DF50356090015
:1023340003D509001389419201478146ED452311D4
:10234400C900EF30E03B2322A900138AC18225CDC6
:10235400035629009385810E97E0FF1FE780E03D37
:1023640003D50900CA850146EFF07F8AAA8539C5DD
:1023740017350100130545A9EF10813F8D47ED4541
:102384004A859CC0EF30004F03450A000946C14509
:10239400EF00007A91B7138A019403270A00A94732
:1023A400E3EAE7F61146C14503C5C182EF00407870
:1023B40083270A0085072320FA0039BF85479CC07C
:1023C40023960192D1B789479CC07DBF035629004B
:1023D4009385810E97E0FF1FE780203603D50A001E
:1023E400CA850146EFF0BF82AA8515C117350100E1
:1023F400130545A2EF10C1378D47ED454A859CC0B2
:10240400EF30404703C509000946C14551B723A031
:10241400440123960192FDB793F7050263820710E6
:10242400138A01CD93898181930AF01F194B930B71
:10243400B00B5285EFF0BF8111E5239E0180134557
:102444000402F9B383D7490063E8FA0C83A40900B2
:102454005285BE94EFF0BF8283D7490088A08507D8
:10246400B3C707082392F900E375FBFC03A909002D
:1024740003470900E31F77FB834619001307400451
:10248400E399E6FA93F4F70F9385F4FF93F5F50FC8
:102494004A853D31B307990083C7F7FFE39BA7F84B
:1024A400034C29008344590083474900834C390075
:1024B400E285A2041735010013058596DD8CEF1023
:1024C400212BE6851735010013058596EF10412A67
:1024D40093958400A180C58D173501001305859659
:1024E400B3C50508EF10C12885476314FC02834572
:1024F4006900173501001305E595EF1061271305F1
:1025040069007531C88785461306F1008545054580
:10251400F136239E018031BF5285EFF08FF7D5BF8E
:1025240093F70504A9C3B717004083A7470A854654
:102534001306F10093C7072093D7974885450545AF
:10254400DC87693E8546138641948545094579367D
:1025540005661306062C9305000403C5C182C92B26
:102564001345040475B113F50508E30305CA85464C
:10257400138641948545094595361345040849B9A0
:10258400411122C4371400401E2C71777D1706C6F2
:10259400F98F1EAC1945EFE07F971305600497E0AF
:1025A400FF1FE780E0AEA1471304840B1CC08D45D8
:1025B4002145EFE09FCA014681450545EFE0BFEAAA
:1025C400EFE05FE7173501001305C5A4EF10E13B09
:1025D400EFF00F92EFF0EFA68D4513050020EFE02A
:1025E400DFC7930700201CC085450945EFE0FFC6FF
:1025F40089450945EFE09FCEB7E700E037070200C1
:1026040023A0E710EFC00038EFF05F9797E0FF1FBB
:10261400E78020D901112A8706CE2E8526CCB285E3
:102624004ACA368622C637240040B7E700E0FD5682
:1026340003A90700C44323A0D71823A2D7189307DC
:10264400F7FF93F7F70F0948636AF808B7170040D4
:1026540083C75704B7C80300F95763741505B30655
:10266400C50063E0D80463140705098297E0FF1FDF
:10267400E780E0E9AA873717004093067005230036
:10268400D704930680FA2300D70483464704C18AFB
:102694002302D70437E700E02320271123229710D1
:1026A4003244F240E24452493E85056182808547C6
:1026B400631FF7008567FD173E96E98F3E96FD7709
:1026C4007D8E7D8D97E0FF1FE78060EA65B797E018
:1026D400FF1FE780E0F09307150071BFB547631A49
:1026E400F7001305900B97E0FF1FE78060F4814724
:1026F40059B7B1476315F7001305B00AEDB7994709
:102704006317F70097E0FF1FE780A0F3CDB79D475D
:10271400631BF70023A0050023A2050097E0FF1F19
:10272400E780C0F7E9B791476317F70097E0FF1F09
:10273400E780A0FA6DBF81471DDFF1572DBF23ACA1
:1027440005FE1C4189E7010001000CC182803E871F
:1027540083A787FFEDFF232CB7FE8280411122C49B
:1027640037E400E026C204403707200006C6F98C8F
:102774002320E4180F10000009E9232094101545C4
:10278400B24022449244410182800347E5FF93070B
:10279400F00F6306F700232094101145D5B797E096
:1027A400FF1FE780A057014523209410D1BF41119A
:1027B40026C2B7E400E04AC003A90400B70720001A
:1027C40006C622C43379F90023A0F4180F100000C0
:1027D40009E523A02411014535A09565938505D00D
:1027E400C98D2A842105B3C5050833450508EF3092
:1027F400E12865D1FD572320050042A17CA123A037
:1028040024112105B24022449244024941018280AC
:102814004111B7E700E026C284433707200006C60B
:1028240022C4F98C23A0E7180F100000938681942A
:10283400904201440147B28799EF19C8832784FF66
:102844006311C4069CC2FD57232C04FE230FF4FE1F
:10285400A165D1291DA083C5E7FF639DA50221C001
:10286400832784FF6315C4029CC2FD57232C04FEF6
:10287400230FF4FEA165EF20F175B24022852244B6
:10288400B7E700E023A09710924441018280232CF3
:10289400F7FEE1BF11E03E8783A787FF71BF3E8447
:1028A400E5BF232CF7FE45B741114AC037E900E0E4
:1028B40022C403240900B707200006C626C27D8C63
:1028C4002320F9180F10000089E5232089101545ED
:1028D40015A0AA849707002083C7D7EA2E8563F53D
:1028E400F400854763EE9700953DB7E700E023A029
:1028F40087100D45B240224492440249410182802E
:1029040083A785FF99E703C7E5FF9307F00F6308E3
:10291400F700A935B7E700E023A087104DBF238F48
:1029240095FE13858194213DA1652685EF20916A4A
:102934000145232089107DBF23A4019482802A8726
:1029440013F5F50F2DC1411122C426C206C64AC093
:1029540013F41500AE8419C0814709A88147A14624
:102964008507638AD70233D6F4487DDAB1463367E4
:10297400F7203307D70203A94196B317F02833C4CD
:1029840007083A99832709000325490082972320E1
:1029940009002322090033459400B24022449244A2
:1029A40002494101828082800111B7E700E026CA12
:1029B40084434AC83707200006CE22CC2A892E86B3
:1029C400F98C23A0E7180F1000009305F00432C619
:1029D40033450608EF30810A2A8419C53246CA8570
:1029E40097E0FF1FE78060D5F24022856244B7E795
:1029F40000E023A097104249D2440561828041112E
:102A040093757500014506C6B315B028B3C505080E
:102A1400EF20713709C50845B24041018280014564
:102A2400E5BFB7E700E09843B706200023A0D71816
:102A3400758F0F1000009706002083C6B6D4637EFE
:102A4400D50083A601963325D5201621B3F5B640CB
:102A54000EA123A0E7100145828023A0E7100D45B5
:102A640082807971B7E700E026D2844337072000DB
:102A740006D622D44AD04ECE52CCF98C23A0E718E5
:102A84000F100000930785FF93F7F70F1D47636B43
:102A9400F70831473307E50283A74196BA979C4369
:102AA400D1C31D893315A028AE89B3450508054552
:102AB4002EC6EF20512D2A8929C9B2450545170A8A
:102AC4000020130A6AD1B13F83A781958297835767
:102AD4008A002A8481463387370313060064B3B718
:102AE400370313050732B335E500BE95EFF0606593
:102AF400B307850083264A003E8763E4A70063E4A6
:102B0400D7003387D7402324E900B7E700E023A0A8
:102B140097100145B250225492540259F249624A24
:102B240045618280B7E700E023A097100945DDB72F
:102B3400797122D437E400E04AD003290400B707AE
:102B4400200006D626D24ECE52CC56CA5AC85EC6ED
:102B54003379F9002320F4180F10000097070020A0
:102B640083C757C26376F50083AB819563970B00E7
:102B7400B7E700E023A0271199A0970A0020938AC1
:102B8400AAC503AB4A00B74736FE938707C83E9BE6
:102B940083D78A002E8AAA84B385C702B289814664
:102BA400B3B7C70213850532B335B5001306006405
:102BB400BE95EFF000596370AB0223202411014548
:102BC400B250225492540259F249624AD24A424BB8
:102BD400B24B45618280829B83D78A002A84130684
:102BE4000064B38537038146B3B7370313850532D1
:102BF400B335B500BE95EFF0C054B307850003A705
:102C04004A003E8463E4A70063E4E7003384E740BA
:102C1400D2852685EF20311701C900C5B7E700E04A
:102C240023A02711054569BF93E504F04145B3C5C9
:102C34000508EF20B16411E99707002083A707B9BD
:102C440085DBA6851145829725B71387C1941C435C
:102C540099EB08C32326050000C52311450104A1EF
:102C64002322050065BF3E87DC47F5FF48C7DDB773
:102C74007971B7E700E026D284433707200006D6EF
:102C840022D44AD04ECE52CC56CA5AC85EC662C46A
:102C940066C2F98C23A0E7180F10000021CD2A8901
:102CA4002E8AB28AB6892144B14C138B4196414C89
:102CB400B30B940383270B00DE979C43A1EF93751A
:102CC400740056860545B315B028B3C505088D357F
:102CD40031C183270B00DE9723A0270123A24701DC
:102CE4006384090023808900B7E700E023A09710DC
:102CF400014521A023A097100945B25022549254B3
:102D04000259F249624AD24A424BB24B224C924C8B
:102D1400456182800504E31D84F9B7E700E023A040
:102D240097102145D9BF011126CAB7E400E04EC669
:102D340083A9040022CC52C4B707200006CE4AC897
:102D44002A8A2E84B3F9F90023A0F4180F10000086
:102D5400EF207103170900201309C9A21DE1A28500
:102D64005285C131834709006380470523A034118C
:102D74001945F2406244D2444249B249224A0561AB
:102D8400828023110500A285528561398347090099
:102D94006386470123A034110145E1BF83576900CD
:102DA400C18F2313F900FDB7835769005D8C23138A
:102DB40089006DBF01114AC837E900E022CC032421
:102DC4000900B707200006CE26CA4EC67D8C2320F4
:102DD400F9180F100000BD4763E5A704B144B3041C
:102DE40095029389419683A70900A6979C4395CBA6
:102DF400937575000D81B315B028B3C50508253743
:102E040083A709000145A69723A0070023A2070072
:102E140023208910F2406244D2444249B2490561F8
:102E24008280B7E700E023A087100945E5B7411188
:102E340006C623AAA1940295B2409707002023ABAB
:102E4400A79401454101828023ACA194014582806D
:102E54004111114681451385019506C622C426C237
:102E640023A6019423AA019423AC019497E0FF1FA5
:102E7400E780608F130600028145170500201305C3
:102E8400659097E0FF1FE780008EEFB07038C14770
:102E9400170400201304048F8545130500123CA079
:102EA40093844196EF20913D88C025C130209947F5
:102EB40081453306F6021306060C97E0FF1FE780F0
:102EC400808A9C4038209384C1959387070C9CC0CA
:102ED400B347F72023A0F196EFF01FA6552E1C3020
:102EE4009840172601001306E66BB3C6E72090C28C
:102EF40093862700850793F7F70FB3C7E72014B02D
:102F0400170700001307E7A398C3B2402244924472
:102F140041018280970600209386C6862A87BC22B8
:102F24008832637BF5001306150083A7C19590B220
:102F3400B347F52098C382801305F00F82801C41AB
:102F4400F1C7370700F07D8FB7060020894763106B
:102F5400D70C5A21411122C406C62A845DC31946DE
:102F64009305F00F5D05EF20017305478D47630A54
:102F7400E5081C4491C75854994741C7185851C390
:102F8400130640038145170500201305A58197D03A
:102F9400FF1FE780407D13064003A285170500202C
:102FA4001305458097D0FF1FE780207997F7FF1F0F
:102FB4009387477FDA2701E713070010DAA7F8277A
:102FC40019E30547F8A79A2B19E36D479AABF8372D
:102FD40019E30D47F8B7B82B19E30547B8ABB83B6D
:102FE40019E3F837B8BBD82B19E34947D8AB58389D
:102FF40001E713074006D8BBFD572380F1A8893D9C
:103004008147B24022443E854101828089473E8502
:10301400828079714ECE97F9FF1F9389E97B83A74C
:10302400090006D622D426D24AD052CC829713095C
:103034000064B335250303D68900814617FAFF1FC0
:10304400130A4A7432C633052503EFF0800F832434
:103054000A012A840145638684023246330594407A
:1030640063EF840003A549008146B335A902330503
:10307400A902EFF0000DB30795403385870023289C
:103084008A00B250225492540259F249624A45616C
:103094008280011122CC0A852E84414697250100A5
:1030A4009385C5A706CEEFD01FE418083324E42087
:1030B400035704FFF240624497F7FF1F83D76772F8
:1030C40037450F00BA97130505243355F5020561FA
:1030D400828097F7FF1F83D7C77051471D45637CD4
:1030E400F702794719456378F7021307200315455A
:1030F4006373F7021307B0041145637EF7001307E7
:1031040040060D456379F7001307600909456374A8
:10311400F70013B5B70F8280411122C426C22E8452
:10312400AA8406C6058C97D0FF1FE780A05CB3274E
:10313400A402B2402244338597001375F50F9244DC
:1031440041018280411122C426C22E84AA8406C66B
:10315400058C97D0FF1FE780E059B327A402B24043
:103164002244338597003345050892444101828007
:10317400411122C426C22E84AA8406C6058C97D087
:10318400FF1FE78020573335A402B240224426951E
:10319400924441018280AA8517F5FF1F1305C56378
:1031A400184197E7FF1F93870781630DF7004111CB
:1031B400514606C697D0FF1FE7802058B24001450C
:1031C4004101828005458280411106C622C426C27F
:1031D40059C11C41AA850545B5CBDC41A5CB9E252B
:1031E400B5C7BE25A5C7514617F5FF1F1305C55E14
:1031F40097D0FF1FE780605497F7FF1F2384075E73
:1032040097F4FF1F9384445D884017F4FF1F130451
:1032140064591D397C2899EF8A24930780703746B6
:103224000F003305F5021306062481468145EFE0BD
:10323400507168A87828AD4763E4E700B1477CA8DB
:1032440017050000130525DDDD360145B240224493
:1032540092444101828097F7FF1F23AF075297F7EB
:10326400FF1F9387675717D7FF1F1307C77498C3A8
:1032740037873200FD56130727A1D4C398C797F7A1
:10328400FF1F23810756B7C7004023A4D7268DBF4D
:10329400011122CC17F4FF1F1304C450084406CEB6
:1032A40026CA4AC801E90545F2406244D24442496B
:1032B400056182805C54E5DB185875D7700085453C
:1032C40082971844B247E300F7FE4A249305E004CA
:1032D40017F9FF1F1309094BEF20417A232CA9008A
:1032E40079D152249305F00F814497D0FF1FE780D2
:1032F40080477C240326890163C1F402328597E068
:10330400FF1FE780A0A1014597F7FF1F23A80748E7
:1033140097F7FF1F23A6074841BF4E241844B387DD
:103324009502898185043385E7001C5808C2829779
:10333400C9B701114EC697F9FF1F9389A94683A700
:10334400890022CC4AC852C406CE26CA56C25AC0E4
:103354002A8A2E843289638F071C03A7C902630E4D
:1033640007101307F01F636CA71097F4FF1F9384D3
:10337400644183AA840163970A0803D5C90095654B
:10338400938515E0EF20816F88CC2A867DC583D58F
:10339400C90083A7C90203A589008981829783A7ED
:1033A400890083AA8401DCCC89476313FA08C147E6
:1033B4006315F40C83D7C9001147938707FCB3C77F
:1033C400E702B3C75721B4231307A0056393E60AA2
:1033D4009A236310470B938547004A85228697D02A
:1033E400FF1FE78080359C4C5685639D571101452E
:1033F400F2406244D2444249B249224A924A024BC0
:1034040005618280D84CE381E7FA03D5C90095654C
:10341400938525E0EF208166AA8A25C183D5C9005A
:103424002A8683A7C90203A5890089818297ADBF33
:103434008D47631CFA00C1476311F40483D7C900A4
:10344400938747FDF19BD697BDBF91476318FA0058
:103454006315440383D7C900A117EDB79307001080
:10346400631DFA00A14763EA870083D7C900C11727
:10347400D1BF9C4C5685639A570B294595BF1D6750
:103484006377E508130705E099463347D70283D6E7
:10349400C90017FBFF1F130BEB2E3307D702B30A28
:1034A400F7008327CB016395570183248B018DE0BB
:1034B40003D5C9009305E004EF20415CAA8455DDDF
:1034C40083D5C90083A7C9022A8689815685829734
:1034D40091451307A00593F5C50FB387B400B42332
:1034E4006390E6049623639B460391052286A69582
:1034F4004A8597D0FF1FE780402483278B01E38808
:1035040097EE268597E0FF1FE7804081CDB5A16641
:10351400F916E3E4A6F63307E54095BFAC3365BF7F
:1035240083278B01E38B97F4268597D0FF1FE780D1
:10353400E07EA1B797F5FF1F83A545269DDD914742
:103544009306A00593F7C70F3387F5003023E316DE
:10355400D6F21223631B460191072286BE954A8543
:1035640097D0FF1FE780601D59B53C33E1BF97F743
:10357400FF1F93872723984721C7985B31C385464C
:103584006310D504411122C417F4FF1F1304841FD0
:10359400104C06C615C2CE27484C89810297084CA8
:1035A40097D0FF1FE780807797F7FF1F23A8071E98
:1035B40097F7FF1F23A6071EB240224441018280D1
:1035C4008280011122CC17F4FF1F1304A41D4EC6E0
:1035D4008329840026CA4AC852C406CE56C22A8900
:1035E400AE84328A6385091A1C5899EB2945F24046
:1035F4006244D2444249B249224A924A05618280D5
:103604005C54EDD79307F01F63E0A70C97F9FF1FF5
:103614009389491783A78901A9C7084483A7C901C6
:10362400639AA70489476311F906C147E390F4FC40
:103634005E241147938707FCB3C7E70203A78901F8
:10364400B3C7E7201307A005B8A323902701268654
:10365400D2851385470097D0FF1FE780000E0145F0
:1036640079B74A249305E004EF20414123ACA90033
:103674004DF5ADBF4E245C5403A689018981829720
:103684001C4423AEF90079BF8D47631DF900C1477F
:10369400E39EF4F45A24130747FD83A78901719B21
:1036A400BA974DB791476317F900E39124F55A246B
:1036B4002117E5B793070010E31AF9F2A147E3E7EE
:1036C40097F25A244117D1BF9D676372F506930799
:1036D40005E01947B3C7E7025A2497FAFF1F938AF4
:1036E4006A0AB387E702BE9983A78A01A1CB83A79D
:1036F400CA01639E370503A58A0191471308A005F3
:103704009305F00F13F7C70FB306E500B022631D4E
:10371400060583D80600B03263962805B307F64041
:1037240063C1970411072686D2853A952DB7216780
:103734007917E36DA7EAB307F54079BF4A249305E7
:10374400E004EF20A13323ACAA0055F145B54E2483
:103754005C5403A68A0189814E85829723AE3A017F
:1037640059BF8EA2B28779BF5224B38597009105C1
:10377400130606FCE36CB6E613863400719A110650
:10378400B2972381060123902601BCB261BF97F949
:10379400FF1F938929FF83A789019DCB03A5890175
:1037A40091471308A0059305F00F13F7C70FB3064D
:1037B400E500B022631C060383D80600B032639789
:1037C4002801B307F640E3DF97F48EA2B287F1BF76
:1037D4007C244A249305E0043305F50233450508A7
:1037E400EF20C12923ACA90055F909B552246C2452
:1037F400B385C502338697001106E3E9C5DEADBF84
:10380400014582809C211CA1BE211CB1BE21A18343
:103814003CA1DC213CB11145828023A6019623A45E
:10382400019682800DCD411122C426C206C6AA8407
:103834002E84014585C12285414697150100938553
:10384400656297D0FF1FE78040EF9C2005455CA48C
:103854009C305CB4B24022449244410182800145D0
:103864008280011122CC26CA06CE8947AA843284DA
:10387400639EF5006383B602414781476395E6047E
:103884008A854D3741468A8522850DA84147639232
:10389400E504638FF600639EB6022E86A285624419
:1038A400F2402685D244056117D3FF1F6700A3EFBA
:1038B4008A853285853F41468A85268597D0FF1FB4
:1038C400E78060EEAA87F2406244D2443E850561F7
:1038D40082808147CDBF23A6A1968280011122CC8C
:1038E400622106CE26CA4AC84EC63DC88329850031
:1038F4002A88AE8403C909008147131749606355B8
:103904000702B147054563F687040355280051149F
:10391400334404084E8633878900A2868545EF50D8
:103924005018B337A0008507135569487D141379DF
:10393400F903334404089CA088B023812401C2A065
:10394400014719C01387190098C409476383E70026
:103954000145F2406244D2444249B2490561828041
:103964000545C5BFC167F917630AF502D94763F76F
:10397400B702011122CC2EC606CE2A84EF40E018ED
:10398400B2456368B50022856244F24005616F4028
:103994005052F240624405450561828005458280AB
:1039A400C167F9176314F5006F402016411106C66C
:1039B400EF40104111E15D45B2404101828039710F
:1039C4004ED652D45AD05ECE06DE22DC26DA4AD84F
:1039D40056D22A8A2E8BB289B68B0DE7D137914500
:1039E400EF4040172A844D49854A19EDF25062543C
:1039F400D254B259225A925A025BF24B4A85425926
:103A0400216182803A84814A230034018544630A17
:103A14000B00DE8513051400029B93041500B3C448
:103A240004089399496063D30902C1455285EF4064
:103A34007045654915E533069400A6852285EF5047
:103A4400C05B2A8911EDB104B3C4040891472C006A
:103A540052857C8422C66485EF4060742A8959D5D6
:103A6400E3860AF8228597D0FF1FE780202BBDBF8D
:103A7400011122CC26CA4AC84EC606CE2A893284EF
:103A8400B689353FAA8419ED83A7C19681CF05472E
:103A94006317E40003C4090005041374F40FA2853A
:103AA4004A858297F24062444249B2492685D2440B
:103AB40005618280AE86014705469705000093851F
:103AC400A5D47DB7011106CE2EC6EF40102C19C522
:103AD400B245F2402A2105616F802023F240494516
:103AE40005618280A38801982388019823A6019800
:103AF40023A4019823AA019623A8019697F7FF1FF0
:103B04009387C7CE3707B40098C33707A0001307BD
:103B1400070AD8C337C70700130707B898C7416710
:103B24004107D8C737077F0098CB370781FFD8CB29
:103B34007D579AAF8280011152C42A8A214522CC32
:103B440026CA4AC84EC606CE2E84B2893689BA849D
:103B5400EFE0FFC505C9930700FD1CA19947A30029
:103B640045013CA12303250164B123123501AA8533
:103B740022856244F240D2444249B249224A056154
:103B84006FE09FD2F2406244D2444249B249224A91
:103B94000561828023A6A198828023A4A1988280B3
:103BA400011122CC26CA4AC806CE4EC62A89AE8442
:103BB4000144B309890063699400F2406244D24429
:103BC4004249B2490561828097D0FF1FE78080B2E5
:103BD400B3470508A1832380F9009307140093F7E2
:103BE400F70F850963F89700CA97090488A313742B
:103BF400F40FC1B73E84C1B7411122C417F4FF1FAB
:103C0400130444C00A28C16706C6FD17630AF500F9
:103C140003C6019E93858197EF40407AFD571EA805
:103C2400B24022444101828023900500B1CE8147F5
:103C3400130E000C63FAC7043387F6000348070029
:103C4400138717003347070863000804B308E80024
:103C5400634C1603B388E60083C808006386080231
:103C6400138328FC1373F30F63706E021303F8FFBE
:103C7400239065006396A80005073385E6008280DB
:103C8400C297B3C707087DB701458280011122CCD2
:103C940026CA4AC84EC606CE97F4FF1F938484B63C
:103CA4002E8990C4CCC088C02A8441469305F00F65
:103CB4004A85EF10511E854963173503C840C14535
:103CC400C53541469305F00F2285EF10D11C0549F7
:103CD4006313250362448840F240D2444249B24906
:103CE400C145056175BD414681454A85EF10B11A4C
:103CF400E31935FDE1B7414681452285EF10B1193D
:103D0400E30A25FDF2406244D2444249B2490561C6
:103D14008280411122C426C22E84AA847146814520
:103D240017F5FF1F130505AE06C64AC097D0FF1F3F
:103D3400E78060A317F9FF1F1309C9AC2382819E92
:103D4400A3079900EF70F07D854719C18147494564
:103D54002306F900B2402244924402494101828080
:103D64009DC11DC185476317F500DC3193E707FC4E
:103D7400DCB121A089476304F50005458280DC316C
:103D840093F7F703F5B7014582808DC10DC1DC318E
:103D94001307000C054593F7070C638AE700130724
:103DA400000409456395E7000D4582800145828042
:103DB400411122C4005D06C626C21DC8AA8408504B
:103DC40009C597D0FF1FE78060F5485009C597D013
:103DD400FF1FE780A0F4085409C597D0FF1FE780B0
:103DE400E0F3228597D0FF1FE78040F323AC040261
:103DF400B240224492444101828009ED97F7FF1FAB
:103E040083C727A117F5FF1F130505A181CB1385D0
:103E14000198828017F5FF1F130505A0828017F50E
:103E2400FF1F0345059F828017F5FF1F0325859D0E
:103E3400828017F5FF1F0325259D828097F7FF1FBA
:103E440083A7C79C8843828017F7FF1F1307879BAC
:103E540014479C4285079CC268379307F00F63059B
:103E6400F50091656F1011178280011122CC06CEE6
:103E74002E8432C6EF40A07F9147B245631CF50003
:103E840083A7819881CB9C4391C722856244F240E9
:103E940005618287F240624405450561828079713B
:103EA40022D42A844A214ECE06D626D24AD0EF40C6
:103EB400405D9389019931E583C409009307F00FAC
:103EC400639AF40083C511992685EFF0BFBF19E109
:103ED400238801984A20EF4080799147631CF500BC
:103EE40097F7FF1F9387079256209A2B6394E60057
:103EF4007D579AABB250225492540259F24945610B
:103F04008280582504212A893AC65D354A85EF40C6
:103F140030234A20EF40207183C70900324799C3F8
:103F2400E38297FA9307F00F5220E385F4FA7420A2
:103F34002820A685093179BF411126C206C622C4AC
:103F44004AC097F4FF1F9384E48BF8349307F00F6F
:103F54006303F7042A892945EFE07F852A8405CD88
:103F6400930700FD1CA1A147A30025013CA1FC244B
:103F7400938501981105A30FF5FE194697C0FF1FFD
:103F8400E780A07BA2852244E834B24092440249EF
:103F940041016FE07F91B2402244924402494101C1
:103FA400828079715AC82A8B2E854ECE52CC56CA3D
:103FB40006D622D426D24AD05EC62E8AB28AB689C2
:103FC400EF40204C65C5045D2A89EDC09C50130563
:103FD400400391E361459C5489C79307450133C568
:103FE4000708638609009307C50133C50708DC5039
:103FF40089C79307750133C50708EFE04FFB2A848F
:1040040055C56146814597C0FF1FE780C07597EB92
:10401400FF1F83CBAB7E63940B00834B0900930794
:1040240000FD1CA0A947A30064013CA02303540184
:104034008C50231244011305840191C908C47146AC
:10404400130A440397C0FF1FE780206F52858C54E6
:1040540091C948C45146130A450197C0FF1FE78020
:10406400C06D5285638C090008C87146CE85130A59
:10407400C50197C0FF1FE780406C5285CC5099C59D
:1040840048C85D4697C0FF1FE780206BA2855E8508
:10409400EFE09F812254B2509254F249624AD24ACC
:1040A400424BB24B4A850259456119B3B25022546E
:1040B40092540259F249624AD24A424BB24B456188
:1040C400828001114EC6AA892E8526CA06CE22CC2C
:1040D4004AC8AE84EF40E03A31C517E9FF1F0349EF
:1040E400E97163140900034905001945EFE02FEC59
:1040F4002A840DC98145194697C0FF1FE780A06631
:10410400930700FD1CA0B947A30034013CA046A0BE
:10411400A2856244F240D244B2494A8542490561CB
:104124006FE08FF8F2406244D2444249B2490561DB
:104134008280797162C42A8C2E8526D24ECE52CCCE
:1041440056CA5AC85EC606D622D44AD0AE84B28BAA
:10415400368BBA8A3E8AC289EF40A03225C52A89A5
:104164004145EFE0CFE42A8431CD4146814597C0F3
:10417400FF1FE780405F17E5FF1F0345256819E12E
:1041840003450900930700FD1CA0BD47A30084015B
:104194003CA023047401A304640123055401A30572
:1041A400440146A023263401A2852254B2509254DD
:1041B4000259F249624AD24A424BB24B224C4561FF
:1041C4006FE08FEEB250225492540259F249624A7F
:1041D400D24A424BB24B224C45618280411126C2E5
:1041E40006C622C44AC097E4FF1F9384A461F8342E
:1041F4009307F00F6306F7042A893945EFE02FDBB4
:104204002A841DCD930700FD1CA1A30025012301D1
:10421400050097E5FF1F938525600D05194697C096
:10422400FF1FE7808051BE28A2853EA4DC345CA435
:104234002244E834B2409244024941016FE0CFE69F
:10424400B24022449244024941018280011156C283
:10425400AA8A314526CA4AC84EC652C406CE22CCC2
:104264005AC0AE84328AB6893A89EFE04FD43DC150
:104274002A842685EF40E02029C903CB519E639B05
:104284000A0083A741A59C4791C7CA864E86D2855A
:1042940026858297930700FD1CA09D47A300540127
:1042A4003CA046A023134401231434012315240104
:1042B400A2856244F240D2444249B249224A924A17
:1042C4005A85024B05616FE02FDE17EBFF1F034B8E
:1042D4005B54C9B7F2406244D2444249B249224ACB
:1042E400924A024B05618280411126C2AA8421456B
:1042F40022C406C62E84EFE08FCB15C5930700FDBC
:104304001CA1C5473CA13C30AA853CB15E205EA1FE
:104314007C207CA17C307CB12244B240268592442E
:1043240041016FE06FD8B24022449244410182803F
:10433400797162C42A8C594526D24AD04ECE52CCC9
:1043440056CA5AC85EC666C26AC006D622D4035D7F
:104354000103834C41032E89B28BB6843A8BBE8A07
:10436400428AC689EFE0AFC435C5930700FD1CA19E
:104374009547A30085013CA1A30175012A84194630
:104384001105B9C0A68597C0FF1FE780003B23062F
:104394005401230A940123156401231744012318AB
:1043A40034012319A401A2852254B2509254F24933
:1043B400624AD24A424BB24B224C924C024D4A853D
:1043C400025945616FE04FCE814597C0FF1FE780DA
:1043D400803975BFB250225492540259F249624A4C
:1043E400D24A424BB24B224C924C024D45618280E0
:1043F400797122D406D626D24AD04ECE52CC094464
:1044040059C12A890A212E8A5144EF408007AA847F
:104414003DC91C5D4544A5EB916593854571130524
:10442400C002EF10A16588DCAA894D4429CD13068A
:10443400C002814597C0FF1FE780E032835709001F
:104444009386490036852391F90071469305490006
:1044540036C697C0FF1FE780402E89472380F900A6
:10446400B2460356090083C5019E0145EF407059C9
:104474002A8463060A00D2852685EF40407201C46F
:104484002685EFF0FF92B2502285225492540259AD
:10449400F249624A4561828031CA411122C426C26E
:1044A4004AC006C62E89B284EF30B07D2A845145B5
:1044B40005C8485409C597D0FF1FE7802086F145F9
:1044C4002685EFE06FCEAA8748D44D4591CB58207E
:1044D4009367470063040900936767005CA0014584
:1044E400B2402244924402494101828009458280BB
:1044F400AD4763EAA70097E7FF1F9387272F33256C
:10450400F5200A21828041657D158280011122CC2B
:104514002A842E8526CA06CEAE84EF3090760DCD41
:10452400B7470F009387F723094563E28702814564
:104534000A85414697C0FF1FE780E022A685608078
:104544000A8541804081A3010100EF403038F240E8
:104554006244D244056182804945D5BF2381A19E2E
:1045640082806F40D041797152CC2A8A328526D21A
:104574004AD04ECE56CA5AC85EC662C406D622D4A3
:104584002E8CB28A368BBA8B3E89C289C684EF30B0
:10459400506F05C92A8463100A1893774B000343AC
:1045A400450085CF13632301639A0B146318091222
:1045B400639B090885E81C5C1373B3FF2302640042
:1045C400C5E7B250225492540259F249624AD24A7F
:1045D400424BB24B224C456182801373D3FF136369
:1045E4000301D9B713634300230264009C48414686
:1045F400A6851CD41305840197C0FF1FE780E01330
:1046040063190C1063860B0A485409C597C0FF1F31
:10461400E780C070F1455E85EFE00FB948D4005CD7
:104624004DD01C5081EB9165938535717145EF1028
:10463400E14408D008500DC17146DE8597C0FF1FC4
:10464400E780A00F11A81363430023026400D9FC80
:10465400005C630C0C0235D4639A0902B1EC29A006
:10466400005C25D0639409022254B2509254F2495A
:10467400B24B224CCA865A860259424BD685528581
:10468400D24A624A45616FF0DF9105DC5C5081EBF0
:104694009165938525715D45EF10413E48D04850A2
:1046A40055DD5D46CE8597C0FF1FE78000097DB7C5
:1046B400005C01D8E39C09FC1C5481EB9165938553
:1046C40015715145EF10813B08D4085451DD514612
:1046D400A68597C0FF1FE780400679B713634300A0
:1046E40023026400E39404F0E30C0CF6485415E947
:1046F400F1454A85EFE04FAB48D431A8136343003A
:1047040023026400E39404EEE3000CF0E31009FEDA
:1047140039B7E31D09FC005CE30504EAE3930BF0FD
:1047240025BF97C0FF1FE780605FD9B7011126CA74
:1047340052C406CE22CC4AC84EC62A8AAE84EF3072
:10474400505425C12A893945EFE06F862A8431C93E
:1047540097E9FF1F83C9890A639409008349090003
:104764009307000D1EA0AD473CA0930569001305F7
:104774003400194697C0FF1FE78020FC93F714000C
:104784005CA493D4144844B423154401A285624420
:10479400F240D2444249224A4E85B24905616FE053
:1047A400AF90F2406244D2444249B249224A056180
:1047B400828003A5019701CD411106C697C0FF1F52
:1047C400E780C055B24023A80196410182808280CF
:1047D400411122C406C626C24AC02E84EF30704A54
:1047E40039C900D517E9FF1F03494901AA84631495
:1047F4000900034905004145EFD07FFB2A8405CD1C
:104804009307000D1EA1A5473CA1DC3093856400ED
:104814001105A30FF5FE194697C0FF1FE780E0F1CD
:104824009C54A285B2405CC4224492444A85024905
:1048340041016FE06F87B240224492440249410132
:104844008280938781978EA3B2A3BE8503C6019EFF
:10485400D6A3FAA36F309036011122CC26CA06CE15
:10486400AA842E84EF30F0410DC954251147AA873C
:104874004945639FE6009C5F91C3E02B9756000077
:10488400938666E30A86894526854080EF40202882
:10489400F2406244D244056182805145D5BF21C6AD
:1048A400411122C426C24AC006C62E89B284EF3002
:1048B400503D2A84514515C0630609005C2093E7E6
:1048C40027005CA0130584014146A68597C0FF1FFD
:1048D400E780A0E69C4801451CD4B240224492449F
:1048E40002494101828009458280011122CC26CAF5
:1048F40006CE2A84AE84EF30D03819C96C002285E4
:104904004486EF406026F2406244D24405618280CE
:104914005145D5BF6F30304C4111C16726C24AC0E2
:1049240006C622C4FD172A89B2846390F502B285B3
:10493400EFF04F9909E523882199A3889198B24013
:10494400224492440249410182802E852E84EF3014
:10495400503311CD1C210D45E39327FF22852244BA
:10496400B2400249A685924441016F70003A49451C
:10497400F9B72D47AA876360A70241677D170945E8
:10498400638CE50017E7FF1F130747E6B3A7E7208B
:1049940001458EA3828009458280011122CC3E8686
:1049A40006CE26CA4AC8914709446392F50232C624
:1049B400B6843A89EFF0EFB532462A8409E9CA850C
:1049C4002685EFF0AFACEF007033EF007013F240C8
:1049D40022856244D244424905618280411106C65F
:1049E40022C42A84EFF00F90EF003014EF90504B64
:1049F400814517E5FF1F1305E5E0714697C0FF1FCA
:104A0400E78060D6930700F017E7FF1F2313F7E052
:104A14007D579387019EB8A380A322852244B24088
:104A2400954541016F30E00E1D71A6CA86CEA2CC19
:104A3400CAC8CEC6D2C4D6C2DAC05EDE62DC66DACA
:104A44006AD86ED6AE849397556063DA07341389B7
:104A5400019E03450900C169930A200AEFD05FDB78
:104A64002A84130BF00F930B1009154CB94C17ED56
:104A7400FF1F130D2DD9FD1915E01395F468F640A9
:104A84006644D6444649B649264A964A064BF25BE2
:104A9400625CD25C425DB25D256182801C20639AB7
:104AA4005701034AFD002A202286CE85EFF0EFBB92
:104AB400F1A8034A2900639A77091C30639E870191
:104AC4002285EFF0CFBD2285EFD05FC903450900F1
:104AD400EFD01FD42A844DB7639B97115E200567DE
:104AE4002507639AE7040C4497EDFF1F938D8DD13E
:104AF400882115E51946850517E5FF1F1305C5D15E
:104B040097C0FF1FE78060C303C7CD008547631EBE
:104B1400F70289472386FD00EF70A0226DB703C713
:104B2400CD0085476313F70297E7FF1F238207CE63
:104B3400EFF0CFEA49BF0967930657006384D70AA9
:104B440063ECF60009076385E704E30E6AF7A285C0
:104B54005285EFD07FD59DBF29076372F70279771D
:104B64001307A7FCBA977147B3C70708E36FF7FCAD
:104B7400370700181307F770B357F748F9D783A717
:104B8400C198B1D39C43A1D3228582970DFD75BFF3
:104B9400832D8400E38B0DFA03C70D0097E7FF1FF5
:104BA400938747C619EB03C72D0083C61D00220750
:104BB400558FBAAB03C73D00D8B7D4270947E3964E
:104BC400E6F803C70D0001CB97E7FF1F238207C454
:104BD40003C50D00B1BFCC37AA2B0D47D8A7EF20D2
:104BE400F075FDB71C448823EFF00FB5E9BD3D47D0
:104BF4006393E7045A2089679386D700E305D7ECCB
:104C040093869701E301D7ECCD07E310F7F4C1676E
:104C140017E7FF1F035707C0FD17E306F7EA83A74B
:104C24008198E38207EA9C43E38F07E80965A2853C
:104C34004D058297A1BF1307E003E398E7F03C20FA
:104C440005476399E70A83A7C19897EDFF1F83CDB2
:104C54005DBC91C7DC4381C78145014582976830BB
:104C6400130A8400D285EFF04F925C2868B0835811
:104C740004010358E4005A202A8628303EC23E2804
:104C8400D286EE853EC09147EFF08FEA3C3095E343
:104C9400DD47835804010358E40074304E203EC2BB
:104CA4003E28528705463EC06E859147EF30F0306E
:104CB40028B083A7019781C71145EFF09FAF138AEE
:104CC400019903450A00E30005E083C51199EFE06B
:104CD4007FDFE30A05DE3430930710036389F600AF
:104CE400522083450A0011473685EFE0DFE423882C
:104CF4000198D1BB31476386E7086361F7040D4728
:104D0400638EE7041947E392E7E46C081305103156
:104D1400EF90301D9305E10113052031EF90701CD5
:104D24007220BC874A2063E6C7001624B88663FB5A
:104D3400E60293050002EF70201071B349476385C2
:104D4400E7044D47E393E7E083A7C198E38F07DEC9
:104D5400DC43E38C07DEA285094581A022868D45CC
:104D64004A20A9B36373E6007AA063F3D7001EA4B4
:104D74005A24362412246E2001488147EF702009FA
:104D840099B32286B145E9BF83A7C198E38F07DAB7
:104D9400DC43E38C07DA8145054582977DB313F53F
:104DA4002500E30E05CC83A7C19891C7DC4381C7D6
:104DB40081450545829713C52400D1B11D71A6CA4A
:104DC400938441979840A2CC86CECAC8CEC60544E7
:104DD40035CF283397E7FF1F83C7A7A3B337F00066
:104DE400930547003EDEEFE0BFF798402ADC094513
:104DF4002C232EDAEFF0CFEF2AD80D45EFF04FEF4A
:104E040003A904002AD625450347A9008349B9000C
:104E14003AD4EFF0EFEDAA842945EFF06FED625834
:104E2400F2572257B2564256D2551375F50F2ACC73
:104E340022C402CA02C802C64EC0930849000545EE
:104E44009394446026C2EF70C0032A84F6402285FE
:104E54006644D6444649B6492561828003A54197F4
:104E640001CD411106C697C0FF1FE78020EBB24079
:104E740023AA0196410182808280011122CC06CEB0
:104E840026CA8D472E846313F504B831E947CA2135
:104E940097E4FF1F938404976315F7009E286382A9
:104EA400A704EF30005E722016243A2401C572A5CF
:104EB40016A93AA94E202830EFF04FB95A209E285F
:104EC4006314F700FD579EA8054525A88967CD07FB
:104ED400631CF500BC2131476385E7004547E39532
:104EE400E7FEEFE07FD1CDB7B1476317F50003C507
:104EF400519EEFF06FBFC9BFC167FD176308F5008E
:104F04000145F2406244D24405618280D831C947E8
:104F1400E318F7FECC212A20300023140100EF30DF
:104F2400C0485DB7411122C44AC006C626C21389CF
:104F3400119A834709001307E00F2E846380E70466
:104F44001307F00F6383E7021145EFD05F86AA854C
:104F540009CD930700FD1CA189473CA1854700B1F9
:104F64003CB103450900EFD03F94F9572300F90001
:104F7400B24022449244024941018280AA841145EC
:104F8400EFD0FF82AA856DD5930700FD1CA1894748
:104F940000B13CA124B12244B2409244024903C569
:104FA400019A41016FD05F90011126CA9384419701
:104FB4009C4006CE22CC4AC8B5EB2E89916523804D
:104FC400A19A2A84938575713145EF00312BAA8704
:104FD40088C04D45B1C780A3A3800700138527006F
:104FE4002946CA8597B0FF1FE780207594409147F2
:104FF400B82263E2E702CD4711CF0546F547630BBC
:10500400C7000946C9476307C7000D46C147630384
:10501400C700D547BCA25D3301C52AC681353245D8
:10502400F2406244D2444249056182804545CDBF85
:10503400011126CA938441979C4022CC06CE4AC8CB
:10504400494495CF9C230D44639BA7021389019E79
:10505400034509008945EFD01FCD0345090091455B
:10506400EFD07FCC9C400147814680B31306F1000A
:10507400854785450145DC87EF60D0692A84F24085
:1050840022856244D24442490561828041114AC06A
:1050940006C61389419722C426C2054783270900FF
:1050A400631AE500C1C72244B240924402498823EE
:1050B4004101BDBFA5CF8947631EF5042D45AE84CC
:1050C400EFD0EFEE2A843DC1930700FD1CA1E54714
:1050D400A30005003CA1BC3015051946230FF5FEBD
:1050E400DC2093855400A30FF5FE97B0FF1FE780E3
:1050F400C06403C5519E9307F00F6315F500832721
:1051040009008823A2852244B24092440249410105
:105114006FD08FF9894503C5019EEFD0DFC02244CB
:10512400B2409244024941016FF05FD3B24022443D
:105134009244024941018280FD4763FCA70009456E
:1051440082800945F2406244D2444249B249056131
:105154008280011122CC06CE26CA4AC84EC62A84B1
:1051640021CDAE8991652105938565713345050887
:10517400EF00D110AA8471D51389C19903250900C0
:1051840009C597C0FF1FE78060B91385840088C0F4
:10519400228681452320990097B0FF1FE780A05CF9
:1051A400832709002286CE85884397B0FF1FE780B6
:1051B400C05883270900C2A383A7419785CB83C71F
:1051C400419E918B95C783A7C19991CF9843D623CC
:1051D4006244F240D2444249B24905468D450545F0
:1051E40005616F60304F01478146DDB7014599BFC6
:1051F400494589BFFD4763FCA700094582800945ED
:10520400F2406244D2444249B249056182800111AC
:1052140022CC06CE26CA4AC84EC62A8421CDAE89DF
:10522400916521059385557133450508EF001105F6
:10523400AA8471D5138981990325090009C597C0EA
:10524400FF1FE780A0AD1385840088C022868145B6
:105254002320990097B0FF1FE780E05083270900BF
:105264002286CE85884397B0FF1FE780004D8327B1
:105274000900C2A383A7419785CB83C7419E918B25
:1052840095C783A7819991CF9843D6236244F2406E
:10529400D2444249B24905468D45054505616F60D2
:1052A400704501478146DDB7014599BF494589BF2E
:1052B40083A7C19989CFD2238C43411106C697B0E5
:1052C400FF1FE7808047B2400145410182800945C4
:1052D400828083A7C19995C303A78199894719CF70
:1052E40052230C43411106C697B0FF1FE780E044E8
:1052F400B24081473E854101828089473E85828054
:1053040083C7419E918B99CF41111385419906C65C
:10531400EFE0BF88B240FD5717D7FF1F231CF74E9D
:105324004101828001456FE05F87FD572380F19A38
:10533400F957A380F19A23AE019823AC019897D72B
:10534400FF1F9387E74D170700001307470798C30C
:10535400170700001307C7D3D8C3170700001307A4
:1053640027A698C797070000938767B123AAF198E7
:105374008280411126C2938441979C4006C622C470
:1053840085CB2A840D45EFD08FC2AA8519C993070E
:1053940000FD1CA18D4700B13CA19C408823EFD0A7
:1053A400AFD019C42244B240924441016FF01FAB04
:1053B400B24022449244410182805621011109677E
:1053C40006CE22CC26CA13066703AA87639DC600AD
:1053D4001C4501458C23EFF0FFB40545F2406244BF
:1053E400D24405618280130677036396C6001C4588
:1053F40005458C23CDB713068703639BC6061C455E
:105404009384119A1307E00F80239C206389E70299
:105414001307F00F6382E7021145EFD04FB9AA8555
:1054240001CD930700FD1CA1894700B13CA1A30154
:1054340005008820EFD04FC7F9579CA079BF83A7F8
:1054440041970145C1DF15E0054723170100588640
:1054540098B39306E1001307D10070008545054514
:10546400A3060100EF60102B8DBF22851937B5B755
:10547400130797030145E393E6F613844197184015
:1054840031DF9C471833842385476304F7020D45B5
:10549400EFD0EFB1AA8519C9930700FD1CA191476C
:1054A40004B13CA11C408823EFD00FC0EFF01F9B38
:1054B4002DB783A7C19989CB9443D2239305E100E7
:1054C4000545EFE06FF605E10145EFF06F822A86AE
:1054D40011C6894503C5019EEFD08FE51C400947DD
:1054E400268598B361B71C21858BF9DF0545EFF05C
:1054F4002F80930700643306F502D9BF411122C4FB
:1055040003C4419E06C6118809CC17D5FF1F130595
:105514002531EFE02FE84D44B24022852244410179
:1055240082800145EFE00FE7C5BF7547AA87636531
:10553400B702114701456378B702ED1593F5F50FEE
:1055440061476361B702970601009386A692B3C5CB
:10555400D52098413697028793F5F5071307200560
:10556400638AE50001458280C8478280884382803F
:1055740088478280C84382809307F00F630DF50645
:10558400011126CAAA841305000222CC4AC84EC6B9
:1055940052C456C206CE2E8AB28AB6893A89EFD050
:1055A4000FA12A844D450DC8930700FB1CA0A3003E
:1055B400540123114401230234011305840061467C
:1055C40063050902CA8597B0FF1FE7800017A2850B
:1055D4002685EFD06FAD0145F2406244D244424982
:1055E400B249224A924A05618280814597B0FF1FE1
:1055F400E7806017E9BF09458280011122CC06CEFD
:105604002A844C86D086EF20D06709C97800930697
:10561400E0070146A28503C5519EB93FF2406244AA
:1056240005618280930700643306F6026FD04FE46D
:1056340015C1411122C406C62A8408219307D00F3C
:1056440063E6A700EFD00FF7FD571CA0B240224439
:105654004101828082801A219307000B6310F702B4
:105664005C214947639AE700183985476398E70046
:105674002A2185456F20C0496D47CDBF8280011125
:1056840022CC26CA4AC806CE2A84AE84328936C6BB
:10569400EF20305F324701CDA2856244F240CA86D2
:1056A40026864249D24403C5519E0561F1B5F240B4
:1056B4006244D244424905450561828023A2A19AED
:1056C4008280011122CC26CA06CE2A84AE84EF2021
:1056D400505BA6852285EFE0EFA811ED2285648654
:1056E400EF20305A09C978009306F0070146A285D5
:1056F40003C5519E5135F2406244D2440561828013
:10570400797122D44AD0AE8706D6BA8526D24ECE37
:105714007547328436896364F7042147636CF70064
:1057240015476388E7021947638BE708C167FD17CC
:1057340085441DA037061400DD1713060620B31791
:10574400F0287D8E59EA19677D8F35E793F7171096
:10575400F1DFC167FD1789446316F40221A813F72A
:10576400F70793062005E313D7FC41677D17631CF5
:10577400E6048D442EC6EFE0AFA2B2453304954053
:10578400334404083385840033450508EF20803C06
:10579400AA87B3C9040831C563040900231089002A
:1057A4002254B25092540259B3053041F2493E8515
:1057B40045616F90002CC167FD17954471BFC167A7
:1057C400FD179D4451BF1307200D8D44E39CE7FA58
:1057D4001304C6003344040875B7C167FD178D442C
:1057E400A5BFB250225492540259F24945618280B5
:1057F40079714ECEAE89C16526D20147AA84894605
:105804001386C18BFD15054522D406D64AD0EF0078
:10581400304F054421C92A891307300281461146B5
:10582400F5452685F13D2AC655440DCD0357A900FB
:10583400CE860146788411477885054718A1B2477A
:105844002C002685A38007003247FD573CA332472E
:105854003CB3EF00B0402A8411C5324597B0FF1F16
:10586400E780C04BB2502285225492540259F24927
:1058740045618280411106C6EFF03FCB19C5B240A5
:10588400410117B3FF1F67006349B24041018280A1
:10589400011106CE2AC6EFD05FF83245914523A404
:1058A400019A23A2019AA380A19EEF208026F240B0
:1058B40005616F10D0559397556063D507147971BE
:1058C40003C5119E22D426D206D64AD0AE84EFC098
:1058D4003FF42A8459C918219307000A6314F7086E
:1058E40085474C08DC85EFD07FFF11CD9C8599C797
:1058F400084409C597B0FF1FE78040422A20854528
:10590400EF20002185A08347610191CF7147636631
:10591400F7064D47637BF7069386C7FE13073014DB
:105924003357D7483DC303A7419A01C703475101E1
:105934002DCF9C8599C7084409C597B0FF1FE78000
:10594400E03D5247B7070001938707F07D8FB70703
:105954001200938707106307F70003476101ED47BF
:10596400E30EF7F82285EFC07FDFB25022540259CC
:105974001395F468925445618280138717FE137758
:10598400F70F93060002E3F0E6FA858B95CB83A725
:10599400819AA9DF2A201306B1004C0882979C85BE
:1059A4002A89B1EBE30F09F891BF5C869947230874
:1059B400F1002A206C0023170100EFE0AF8F95BFA0
:1059C40083A7419A9DC72A201306B1004C088297E9
:1059D4002DD183475101E39B07F02308A10083479E
:1059E40061012A206C005C8623170100EFE08F8C94
:1059F400F5BD1945F9BF084455D597B0FF1FE78099
:105A0400E0314DB7014582800145828003C7719E14
:105A1400814763E4E7000145828092219386450033
:105A24006314A6002E8582808507B685DDB71DC563
:105A3400411122C406C638219307D00F2A8463EB90
:105A4400E7000E2128310147F9465D46EFF0DFB249
:105A5400F9573EA0B240224441018280828003C7AC
:105A6400719E8147FD5663C3E700828016A123011E
:105A7400050085071105C5BF014582809385918383
:105A84009307000285469CA1FD57238CF182A38BCA
:105A9400F182238BF182239AD1822398019A23A63F
:105AA400019A23A2019C23A0019C1386C18393879E
:105AB400018E5CC22384019C97D7FF1F938707D76D
:105AC400094718A298A398AB2380E7022388E7022A
:105AD4001387018D94A7D0C794AFD8DB1385C18DEC
