:040000006F10503AF3
:100004000000000000000000080E0020840D002005
:10001400A9BDF9F3484B00000000000000000000F7
:10002400484B0000484B00000000000000000000A6
:10003400484B000000000000484B00000000000096
:1000440000000000484B000000000000484B000086
:10005400C00F0020B80F0020181500200000000079
:10006400484B00000000000000000000484B000066
:10007400484B0000484B0000484B0000484B000030
:1000840000000000484B000000000000484B000046
:10009400411122C406C6937725002A8495C7938705
:1000A40001199C433707020023A2070698C78177EA
:1000B400FD171387C1173374F5005C43C18B89C7DF
:1000C4001C43814541458297937714009DCF9387C4
:1000D40001199C433707020023A2070698C7492148
:1000E4009387C117D84319E9058B1DCF03A30700D4
:1000F400814505452244B24041010283218B0DC74D
:1001040003A3070081452145F5B79317E40063DD98
:1001140007001387C1175C43918B99C7032307001A
:1001240083C5C1181145F9B7B24022444101828008
:1001340093F7150085E3938741189843B7B72400D4
:100144009387F7E963ECA7061C4393F707F893E753
:1001540057021CC38547631DF60093F70503130775
:1001640000036395E70CE5818D89E1E513050583BB
:100174009387C1199C434166130606A0D857B70557
:1001840010FEFD1513672700D8D73357C502337502
:10019400C5027D8B93164701F8436D8F558FF8C3C5
:1001A4001307A00FB706FCFF2A053355E502F843F1
:1001B400758F3A053981598DE8C38280B7072500C8
:1001C4009386F74863E3A602B767DBFF9387079339
:1001D400AA979306007DB3D7D702FD17144393F76C
:1001E400F70793F606F8D58FADB7938707496318D9
:1001F400F5001C4393F707F893E7670299BFB7D755
:1002040025009387F77763EDA700B767DBFF938734
:100214000793AA979306007DB3D7D702F9177DBF3A
:100224001C4393F707F893E7770225B74147E38F19
:10023400E7F2130585C12DBF630805145C4909471E
:1002440063850714411126C293840119984091478C
:1002540006C622C44AC02313F7001C438D8B89C7EA
:100264001C4393E787001CC31389411883270900A3
:10027400B706FDFF1386F6FF8C432A84B3F6C50048
:1002840094C39443B7053300F18E37060200D18E30
:1002940094C39386C1199442484590464D8E90C6A6
:1002A40037060F001306861D30CB372723001307AC
:1002B40007866370A70C0C4805469D3D1C48918B2E
:1002C40085C383260900034784019C4293F70704EE
:1002D400D98F984293F7F707137707F8D98F9CC201
:1002E4000848832709001377150019CB984313771F
:1002F400F703936607049843137707F8558F98C359
:100304001840370600FF37090200B8D303474400FA
:10031400F8D31844B8CF185093168700F84FA18229
:10032400718F558FF8CF58489C400146F8DF23A2BF
:10033400070623A4270183459401652B9440854730
:100344004C4C9CC223A6F118014789CDD046817735
:10035400FD17F18FDCC60F1000009C4023A4270179
:10036400ECD3D0C7B2402244924402493A854101B9
:100374008280D856759BD8D61377F50788431375B2
:1003840005F8598D88C3A9BF05473A8582800111B4
:100394004AC8138901190326090022CC26CA4EC66D
:1003A40006CE1C42938441189389C11993E78700B0
:1003B4001CC20347B5019C402A84136707049316A3
:1003C4009701D85B1E071D83558FD8DB0347A50112
:1003D4002313E600D85B719B13671700D8DB8C43AB
:1003E4003707FDFF9306F7FF33F7D50098C398430B
:1003F400B7053300758FB7060200558F98C303A75E
:10040400090048451447CD8E14C7B7060F009386DC
:10041400862D34CAB72623009386068663FDA60C70
:100424000C48094631331C48918B99CF94400347BB
:1004340084019C4293F70704D98F984293F7F707F6
:10044400137707F8D98F9CC21C48858B81CF9440C1
:100454009C4293F7F70313E707049C4293F707F8CA
:10046400D98F9CC2832709001307800283D76700B2
:100474006372F70203A709005C4393F7F7EF5CC3C9
:10048400010001000100010003A709005C4393E798
:1004940007105CC39C401840544CB7090001D8C7EE
:1004A40003474400370600FF228598CB1844D8C37D
:1004B4001387F9FFF98E9847718F558F98C7832753
:1004C40009005848B8DF452C9C40014598433367E0
:1004D400370198C3D85B719BD8DB83270900094790
:1004E400F240624498C3C14723A6F118D24442495A
:1004F400B249056182805457F59A54D71377F507AA
:100504008843137505F8598D88C33DBF9387011936
:100514009C439847D447F98E99CA9386818803A34C
:10052400060098C763050300C847798D028382805B
:100534009387411898433C439983858B8DC39307D4
:1005440000063CC3938701199C433707020098C7F0
:10055400138781181843F8D3894723A6F11882809A
:10056400938741189C43A84315810589828093870A
:10057400411898431365050466055C5B9E079D83DB
:10058400C98F5CDB82809387C1193727230094438A
:1005940013070786938741189C436376A70E37B7E2
:1005A40024001307F7E96365A7069843137707F850
:1005B4001367570298C393F7150081CB93F505038E
:1005C400C147639FF50A13050583DC56B70510FE82
:1005D400FD1593E72700DCD6C167938707A033573F
:1005E400F5023375F5029307A00F7D8B13164701AF
:1005F400F8426D8F518FF8C23707FCFF2A05335537
:10060400F502FC42F98F3A0539815D8DE8C282809A
:10061400370725001306F7486363A6023767DBFF35
:10062400130707932A971306007D3357C7027D17D4
:1006340090431377F707137606F8518FA5BF130776
:1006440007496318E5009843137707F813676702AF
:1006540095B737D725001307F777636DA70037677A
:10066400DBFF130707932A971306007D3357C7024E
:1006740079177DBF9843137707F8136777021DBF77
:10068400130585C199B7D8561375F507759BD8D648
:100694009843137707F8598D88C382809387C119CB
:1006A4009C43984B9316E70063DE0600371701144A
:1006B4001307F78F98CBF84F6D9BF8CF0967130793
:1006C400879F98C78280138701191843AA87184304
:1006D4000D8B45E349C92D476367A7069307F5FFCB
:1006E40093F7F70F1387C119184393F7F703E2073A
:1006F400545771761306F60FF59A54D7084BB7067C
:1007040000C1FD16758DC98F1CCB938741189C437E
:100714000145DC5B144BE58393F7F703F18EA207E5
:10072400D58F1CCB7C4FB706F9FFFD1693E7470026
:100734007CCF1C4BF58FB7060200D58F1CCB93865C
:10074400864F14C7828031476302E50213076002B3
:100754006365A7009307E5FF61B713077002494576
:10076400E382E7F8828093075002ADBF93076002EB
:1007740095BF054582809387C1199443184913880E
:100784000119DC5A937507701376070393F7F78FF3
:10079400CD8FDCDAC145938741189C43832608003A
:1007A400C288631BB60490435849B70500FA137610
:1007B400F6CF184390C3D053FD1521836D8ED0D34B
:1007C40003D66600CC468177FD17ED8F4206418241
:1007D400DCC60F10000083260800B70702009CC681
:1007E4009377F70FAD07135716008A071307C7024D
:1007F400BA978607FCD28DA8930500036312B60A44
:10080400904341831366063090C30966518F239346
:10081400E702D85313167700634A0604F04B0347E4
:10082400950113660610F0CB238AE704DC530546D2
:10083400E5838D8B6390C70483D76600CC4601762D
:100844007D166D8EC207C183D0C60F10000083A62B
:100854000800370602008583290790C69387C702DC
:100864000E073E970607F8D2CCC682805849034744
:1008740007006DBF83D76600CC4601767D166D8E6A
:10088400C207C183D0C60F10000083A60800370634
:10089400020085832D0790C69387C7020A07D1B744
:1008A40090435849B70500FA1376F6CF136606103D
:1008B400184390C3D053FD1521836D8EB7050002F4
:1008C4004D8ED0D303D66600CC468177FD17ED8FCD
:1008D40042064182DCC60F10000083260800B707D9
:1008E40002009CC69377F70FA9078E071307C60269
:1008F40001B71387C119938741181376050341483B
:1009040014439C4313873500631A060590430E076E
:100914001376F6CF90C303C681199375F601B04AD6
:10092400019A4D8EB0CAD453370600FA7D16F18E63
:10093400D4D3D44B93F606FC93E6D600D4CB9306DB
:10094400F007238FD700D44F93F606C093E6060A28
:10095400D4CF1307C70323A4E1188280130800032C
:100964006316060D904341811366063090C30966F1
:10097400518D2393A702D0531315760063480500C5
:10098400F04B13660610F0CB238AB704D053854589
:1009940065820D8A631AB60412071307C70323A4DA
:1009A400E118D84B137707FC1367B700D8CB1307AC
:1009B4008007238FE700D85351830D8B05E3D84F6D
:1009C400137707C01367C707D8CF83C7911913F7E5
:1009D400F701BC4A819BD98FBCCA8280D84F137758
:1009E40007C01367C709CDB70E071307C70323A4AE
:1009F400E118D84B137707FC1367D700D8CB13073C
:100A0400F007238FE700D85351830D8B11EBD84F98
:100A1400137707C013670708D8CF83C7811945BF69
:100A2400D84F137707C01367070AFDB7904312071F
:100A34001376F6CF1366061090C303C69119937507
:100A4400F601B04A019A4D8EB0CAD453370600FA63
:100A54007D16F18E37060002D18ED4D3D44B93F693
:100A640006FC93E6B600D4CB93068007238FD70009
:100A7400D44F93F606C093E6C609D4CFD9BD938765
:100A8400011998435C4393E7E7015CC3B70702008D
:100A9400232A07049386370054C713874118184341
:100AA400C166FD1634C39306000454DFE1071CDF5E
:100AB4008280938601199C42B84B3D9BB8CB9843E6
:100AC4000D8B11CF98431367870098C30100010071
:100AD40098423C4B93F7F78F93E707503CCB8280C7
:100AE400411106C6F937B2400145410182804111E6
:100AF40006C6FD379387411894433707FDFF7D17DA
:100B04009C420145F98F4167D98F9CC29387C119D3
:100B140094433707CEFF7D179C46B240F98F9CC69D
:100B2400938701199843B7070F00938707083CCBB5
:100B3400410182809307000C01116318F5049307A7
:100B44008008F3B7078093F787083EC00F100000B2
:100B5400B7170040130770052380E704130780FAD2
:100B64002380E7040F100000F83713670704F8B771
:100B740098271367070C98A7238007048247F3A7D5
:100B840007800F10000005618280B7170040B82766
:100B9400118B69EB83C6E7041307800893F6F60FFD
:100BA400733607801376860832C20F1000001308CC
:100BB400700523800705930580FA2380B7040F107E
:100BC400000003C6E704136636002387C704B02772
:100BD40013664600B0A723800704124673260680D6
:100BE4000F10000090271376F60F733707801377E2
:100BF40087083AC40F100000238007052380B70438
:100C04000F10000098271367070C98A72380070488
:100C1400A247F3A707800F100000A5470100FD17A6
:100C240093F7F70FE5FF93078008F3B7078093F76F
:100C340087083EC60F100000B71700401307700561
:100C44002380E704130780FA2380E7040F100000D1
:100C540090A72387D70423800704B247F3A707800C
:100C64000F1000009377050C13070004639DE70839
:100C740093078008F3B7078093F787083EC80F10DF
:100C84000000B7170040130770052380E70413071B
:100C940080FA2380E7040F100000B8278546136705
:100CA4000701B8A737270040A303D780834657809E
:100CB40093E60601A302D78023800704C247F3A763
:100CC40007800F10000093078008F3B7078093F79D
:100CD40087083ECE0F100000B717004013077005B9
:100CE4002380E704130780FA2380E7040F10000031
:100CF400F8371375F50F13670704F8B788A723802F
:100D04000704F247ADBD9377F5019DCF93078008A3
:100D1400F3B7078093F787083ECA0F100000B71790
:100D24000040130770052380E704130780FA23802B
:100D3400E7040F100000372700408946A303D7803B
:100D440023800704D247A5BF93078008F3B7078021
:100D540093F787083ECC0F100000B7170040130725
:100D640070052380E704130780FA2380E7040F103B
:100D74000000372700409D46A303D7802380070443
:100D8400E24735BF4111814601468145114597200F
:100D940000E0E78000FB13078008F337078093F730
:100DA40087083EC40F100000B717004013067005F3
:100DB4002380C704930680FA2380D7040F10000011
:100DC400FD55CEB723800704A245F3A505800F1077
:100DD400000073370780137787083AC60F100000A6
:100DE4002380C7042380D7040F10000003C76704BF
:100DF400136717002383E70423800704B247F3A78C
:100E040007800F10000001A001A0411122C426C2D6
:100E140006C62A84B28493070008739007800F10D3
:100E24000000362993078008B3C60608739007802C
:100E34001E291842958F63F4E702174500E0130555
:100E4400A590972000E0E78060782A2823A004007A
:100E540033450508B24022449244410182805C45F6
:100E640050411D8E636AE6022E970F70B7785C4579
:100E74009840BA975CC493070008739007800F10DA
:100E840000009C402A283E95B34705083EA89307D6
:100E94008008739007807DBF3387C500AE860F70CE
:100EA400D7781441BA8754C588403687AA950FF07D
:100EB400F5705C44118DAA9775BF2A8793070008C3
:100EC400739007800F1000000328C5002A29930798
:100ED4008008334505087390078001E52320060048
:100EE40082801C426373F50008C21C47144263FAF3
:100EF4000703BE960FF0F6581C471442B6971CC75A
:100F040093070008739007800F1000001C422A2BDF
:100F14001D8DB34705083EAB930780087390078087
:100F24008280032847003305F840E374D5FCAE867D
:100F34000F70F86814421C43AA95898E1CC7338825
:100F4400D7000F70F8581C4755BF411106C6EF0073
:100F54003003F5BF411122C406C6937715002A84D5
:100F640099CB83A7C18181CB9C4391C717150000FE
:100F7400130505D982979377840099C783A7C18104
:100F840081C79C4791C382979377040199C783A72C
:100F9400C18181C7DC4391C38297118811C883A79B
:100FA400C18199C7DC4789C72244B2404101828785
:100FB400B240224441018280EFF04FD573002030CB
:100FC400EFF00FD77300203023ACA18C828023A6CE
:100FD400A18C82801387C18C1C4B120593F7F7FCFC
:100FE400C98F1CCB82809387C18CC8CB86053E8574
:100FF400ACAF6FF0CFB923A4A18A828023AAA18ABF
:1010040082801387818A1C4B120593F7F7FCC98FE2
:101014001CCB8280AA8786071385818A5CCD6FF0FA
:10102400AFA18D472383F182828083C751829DC7FC
:10103400138781821E238507B3C707081EA303D71E
:10104400A182637DF7008D472382F182173500E08A
:1010540013054571172300E0670043578D47238329
:10106400F1828280411126C206C622C49384618221
:1010740098209D47631FF7021384419F484023949F
:1010840001828547A382F18299370824353F0834C9
:10109400913748408D370824953708349D371024FC
:1010A4004C40173500E01305256D972000E0E780DC
:1010B400C02F91479CA02244B240924403A50183CF
:1010C400410189BF138701821C433E95B76719000C
:1010D4009387D7603305F502B7F76E3C9387F735EE
:1010E4003E95C167FD1708C33335F5028280B70703
:1010F400006E9387670B22055D8D8280397122DC37
:1011040026DA06DE4AD84ED652D4938451829C20E5
:10111400834905002A846394070E8547639DF90C6F
:10112400183199476319F70C7C3178218305A500A0
:10113400A207D98FD9CB03D7C18219C3639BE70810
:101144009D472E852383F182A3830182A53F334AE1
:1011540005082396418385679384419F938971820F
:10116400938717E89EA083C709002A895285BCA0EB
:10117400A38B019EAD3F85479CB4B7076400A907C4
:10118400C8C01379F903D1452685DCC4238424011E
:1011940023954401893D83C709005820850723808E
:1011A400F9005C30A207D98F1307803EB387E702AA
:1011B40023A8F18299472395F182F2506254D254C4
:1011C4004259B259225A216182809307E0FDE3D942
:1011D400F5F6173500E01305A55B2EC6972000E051
:1011E400E780C03EB245173500E01305255B972024
:1011F40000E0E780801B8D472383F1827DBF094A8D
:10120400639549111547138971822383E182302143
:10121400034709001384419F6319E6081307B00FBD
:101224003ACE130720F818A0054A639647052D47C0
:1012340018B05CA0138741871C331423A207D58FF1
:101244003423C206DD8E3C3354B0E207D58F93D6E7
:10125400870074A093D60701E1831CA45C2374B0B7
:101264001CB45C333CA47C233CB47C335CA430A02D
:10127400A38B019E35A06C081385919F692B0346AF
:10128400090035E5F2461387418330A09387360081
:101294001CB0238C019EA38B019E1C43B6971CC3D8
:1012A4008347090085072300F900D1451385419F31
:1012B4001D3B58208547631AF700173500E01305D6
:1012C400A54E972000E0E780603098208547631D95
:1012D400F70089479CA089679387077123A8F18247
:1012E400930740062395F18223940182F9B593076D
:1012F40000086317F500AD471CB0230244011DBF6D
:10130400C157A30034015CA09DB79307E00763981D
:10131400F90895472383F182138971823821834721
:1013240009006311F7061C31930545007008F9178D
:1013340003A5C1833ECED13C238241839307B00FE2
:101344003ECE1384419FF9571CA09C20639147050E
:101354006C081385919FC1211DE9F24613874183CF
:10136400938736001CB0238C019E834709003CA060
:10137400A38B019E1C43B6971CC3834709008507B2
:101384002300F900D1451385419FB1393DBF8947F9
:101394001CB0834709003CA0A38B019EF9BF1735FD
:1013A40000E013052541972000E0E7802022138701
:1013B40081821E238507B3C707081EA303D7A18212
:1013C400E37BF7E26254F250D2544259B259225AA2
:1013D4008D472382F182173500E01305A53821617A
:1013E400172300E06700831E011122CC4EC606CEEF
:1013F40026CA4AC89389418203C9090089472E84B1
:10140400631DF9022E86AA8503A5C1837D3411EDDF
:10141400B7E700E03707200023A0E7180F1000000B
:1014240085462380D90023A0E7100820F2406244B7
:10143400D2444249B249056182808D4723A0050008
:10144400938461826318F904173500E01305453766
:10145400972000E0E7808017EFF06FE9A382018214
:101464008547372700402380F90083472740B70981
:1014740025571385594293F7E70F2301F740813E1F
:101484004545993613855942BD364545853E2380E9
:10149400240161BF9820E31AF7F8914703A501835B
:1014A4009CA08D3E59B74111173500E01305053254
:1014B40006C6972000E0E78060111306002093859C
:1014C40001B11385C1AF23820182971000E0E78048
:1014D400609B23AEA182A383018223960182A3820F
:1014E4000182238C01AE89679387077123A8F18257
:1014F400971000E0E780E08523ACA1821705000087
:101504001305456A971000E0E780A09FB2408D471D
:101514002383F18241018280B7870040F823098B3D
:1015240063020720011122CE26CC4ACAF83393065F
:101534000003137707036309D706138491851820E2
:101544009384C1840548B386E40023800601F03304
:1015540093850185BA951376F60F90A18827138693
:10156400418532971375F50F08A39821930500025E
:101574001377F703630EB71863E4E508630E0711E6
:1015840089456306B70A630507161C20BE94982094
:1015940001CB850793F7F70F0D476362F7181CA07B
:1015A400B78700400947F8A3B7870040FC339397F7
:1015B400476063D10704938691859C221387C18475
:1015C40005463E9710A3138701853E971306000333
:1015D40010A3138741853E972146850710A393F7EF
:1015E400F70F0D476373F70081479CA20947B7873C
:1015F4000040F8A37244E24452490561730020306C
:10160400930610026307D70C93062002E31FD7F654
:1016140003C7A702134707042385E70203C7A702EA
:101624001377C70F136727002385E702B9BFF82391
:101634001377070479CB03C7A7029385C1071389DE
:10164400C185134707082385E7021C2003A54184AD
:101654003E961C2270003EC6EFF02FFBB2472320BB
:10166400A900AA8589EB173500E01305E51B97202F
:1016740000E0E78080D3032709009307001CE3F60A
:10168400E7F0378700408347A70293F7370F93E7C4
:1016940087002305F702D5BDF8231377070435C760
:1016A40003C76702130600049385C10F1347070895
:1016B4002383E70203C76702138541021377370FB9
:1016C400136787002383E702970000E0E780E05870
:1016D4006DBD03C76702134707042383E70203C7EB
:1016E40067021377C70F136727002383E70271BDCF
:1016F400F8231377070411CB03C727021377370F97
:10170400136787002381E70249B523800600B5BD2E
:1017140003C727021377C70F13672700E5B7A38C06
:101724000184BDBDF823058B0DC729472381E7023A
:1017340009472383E7022385E702A38401842384E2
:101744000184A3810700A38001880547F8A37300DF
:101754002030F423918A9DC2DC33918B91CF85474D
:101764002389F1862381E186A3840184238401846F
:10177400B78700401147D9BF0547EDB77300203044
:10178400011122CC83C781851384C18406CE26CA65
:101794003E941C2099C7971000E0E78080922300B4
:1017A400040083C71188BDC3378400408347A40263
:1017B40009478D8B639CE704930400026C00138536
:1017C400C10B26C6153139C1B24563FCB4000346CA
:1017D400A402173500E013052506972000E0E780F2
:1017E400C0BC1886B7870040B7E600E02384E70250
:1017F4003706400023A0C6180F10000003C7A70235
:101804001377C70F2385E70223A0C610F240624472
:10181400D2440561828083C711882E8699CB83C701
:10182400E18681CB2387018623A0050013050008E8
:101834008280411122C41384C1851C4006C6A9C7F5
:101844009307B00F1CC2AA8503A54184EFF0EFE60D
:1018540008C09307F01B63E4A70237E700E0B7066C
:1018640040002320D7180F1000003786004083471C
:10187400A60293F7370F2305F6022320D71001455C
:10188400B240224441018280232006001305F00F58
:10189400C5BF230304801547A2872303E480010006
:1018A40001002302A48003C7678062076187E34CB9
:1018B40007FE2382A780228783476780E207E187A8
:1018C400E3CC07FE82802303048015472303E480CE
:1018D400010001002302A480828083076480E3CE98
:1018E40007FE23030480828083076480E3CE07FE1F
:1018F40003454480828083076480E3CE07FE23028D
:10190400A4808280411126C44AC24EC006C6137701
:10191400F50BAD47AA892E8995446306F70019454E
:101924005D37653F8D444E85793FFD59FD146398BD
:101934003401B240A24412498249410182801355C4
:1019440009011375F50F453F2209CDB7011126CCC6
:1019540006CEB704080051371545B53771376937D6
:101964002AC6A53F32459377150089EB1365150008
:101974001375F50FF240E24405618280FD14E9FC21
:101984000145CDBF411106C6B717004013077005C6
:101994002380E704130780FA2380E70403C747047E
:1019A4001305F00F1367070E2382E70491472303FF
:1019B400F480C535B24041010DB7011126CC4ACAA5
:1019C4004EC852C606CE2A89AE89B284554A5D3FB6
:1019D40091E82137F24026855249E244C249324A0D
:1019E40005618280CA850945313F910903A7C9FF72
:1019F40091472320E48003076480E34E07FE23031A
:101A04004481FD17EDFBFD14110981C49377F90F8F
:101A1400E9FF2D3F55FDFD5475BF011126CC4ACA7F
:101A24004EC852C656C45AC206CE2A89328A8D4935
:101A3400913FC164C16A056B9387F4FFB3F7270133
:101A440099E363719A02FD199180E39709FE713558
:101A54000145F240E2445249C249324AA24A124B79
:101A6400056182801305800D63885401130500020B
:101A74006384640113051008CA856935C13D09C52D
:101A84002699330A9A4075BF7D55E1B7011106CEF8
:101A940026CC4ACAB2844EC82AC62E89E5353245B8
:101AA400FD14FD59AA852D45B13D639A34013535A0
:101AB400F24026855249E244C249056182802D35AF
:101AC40093F7340091EB83260480032709009307DE
:101AD4004900E39EE6FC3E89FD14C1BF011106CE18
:101AE4002AC64D353245C533F2400561FDB30111B7
:101AF40006CE26CC4ACA4EC852C6AA8956C42E89D6
:101B04005135CE852D45FD3B81448D4A214AE93B23
:101B140063965401832704802320F9008504E39805
:101B240044FF8327048013972901635C0700231271
:101B3400F900F240E2445249C249324AA24A0561DC
:101B440069BB2322F900F5B7411106C626C44AC26F
:101B54004EC0AE89053D81451305B0046533BD44CF
:101B64007D59593393F77400CE9703C70700FD14CA
:101B7400398D2380A700E39624FFB240A244124982
:101B84008249410199BB411106C6ED3B130560062C
:101B94001D3BA133130590093D33B240410135BBD0
:101BA400971100209381C18617110020130141452C
:101BB4001305400097E5FF1F938585441706002011
:101BC400130606FE63FAC5008322050023A0550010
:101BD40011059105E3EAC5FE17350000130505F765
:101BE400970500209385C5FB1386818163FAC500A0
:101BF4008322050023A0550011059105E3EAC5FEE3
:101C0400138581819385411A6377B50023200500EC
:101C14001105E36DB5FE93025002739002BC8D4230
:101C2400739042808542739012BC93028008739033
:101C3400023097E2FF1F9382A23C93E2320073903A
:101C44005230970200009382E2247390123473009E
:101C540020302A8309CA83830500230073007D167C
:101C6400050385056DFA82802A8311C62300B3001B
:101C74007D16050365FE8280371700408347E7041D
:101C840012054111BD8BC98F93F7F70F9306800896
:101C9400F3B6068093F6860836C60F100000930646
:101CA40070052300D704930680FA2300D7040F108D
:101CB40000002307F70423000704B247F3A70780B3
:101CC4000F10000041018280914763ECB7049737FD
:101CD40000009387E7A5B3C5F52098413E97B71751
:101CE40000409387470B0287944337170040B3F6AD
:101CF400A64094C39306070B9C42B3F7A74019A8C8
:101D0400944337170040B3F6A64094C39306070BD9
:101D14009C42C98F9CC29307070A98433377A74014
:101D240098C38280944337170040C98ED9B798432B
:101D34003377A74098C3B71700409387070A98439F
:101D4400498FF9BF9843498FF5B7B71700409827D3
:101D54009306000C1377070C6315D70003A5818144
:101D640082809827930600041377070C6310D70228
:101D7400942713070002FD8A99C298277D8B374563
:101D8400C323130505603345E502828094271307B6
:101D94000002FD8A99C298277D8B3755E801130507
:101DA4000580D5B73285814737370040A14663C3E4
:101DB400A70082800346B740E30ED6FE3386F500C3
:101DC400102285072304C740DDB7970600209386B9
:101DD40026E4AA8788421387411AAA9763E9E70091
:101DE4000A87130707FC6364F7009CC282807D5551
:101DF4008280411122C406C62A84813F2947B30741
:101E0400E502B2408D83B3D7870222449507B3D746
:101E1400E70237370040B3C707082316F7404101EC
:101E24008280716541111305052006C6D937B7377D
:101E34000040130710F82381E7400D47A381E740D2
:101E440013070004A380E74005472387E740B24017
:101E540041018280371700403E2FB3C7070893F72C
:101E640007FCB3C707083EAF09C93E2F8E055D8E38
:101E7400D18DB3C505082EAF828082803387C5001B
:101E84000CC158C112A9231905000CC54CC5828088
:101E9400411122C4371400401E2C71777D17F98F2D
:101EA40006C61EAC1945C93B1305600497F0FF1F15
:101EB400E78040C8A1471304840B1CC08D4521450D
:101EC40021350146814505457137A13F173500008D
:101ED4001305C587EF10006F173500001305C5B54E
:101EE400EF10406EEF00B061212897F0FF1FE780EC
:101EF400805B97F0FF1FE780400523AEA1808280BE
:101F0400011197F7FF1F9387E7043EC42800F547A4
:101F140006CE3EC6EF001075C14517350000130507
:101F24006583EF10004805679387C18C1307072A60
:101F3400BAAF37062557B756550037078000130741
:101F4400D73213065642454593865655C1452382DA
:101F5400070090C3C8C794C78CCBD8CF9387818A16
:101F640098D317070020130767D9D8CB7D5798BF9C
:101F74002382070090C3C8C794C78CCB23AE0180CB
:101F8400F240B7E700E03707100023A0E710370757
:101F9400200023A0E71005618280AE868147138765
:101FA40001079308F00F2948B385E7008C2113F645
:101FB400F70F638AA500638615018507E39607FF7B
:101FC4002946329708A393874106B29794A3E14721
:101FD4006311F508411113C7060406C693F73600CA
:101FE40095451357674891CB054699456387C700C4
:101FF40009469D456383C700A14513D6264893F639
:102004008603050685C2A147638FF602E147638E06
:10201400F60293078002638CF602930780036393AE
:10202400F600914693874187172500001305057D27
:10203400D0A3D4B3ECA3EF10C036B24085472389B4
:10204400F186410182808546F1BF8946E1BF8D4614
:10205400D1BF8280AA872380050001471385010729
:102064001308F00F2946B306A7009422639FF600D5
:102074009386410636971823054598A11D47636D3D
:10208400F7001547636EF700828063850601050734
:10209400E31BC7FC0145DDB761476386E700828027
:1020A4002380050082809821B737004083C73740DA
:1020B40013770704D98F9CA18280797106D622D424
:1020C40026D24AD04ECE52CC56CA5AC813878185DE
:1020D40000238D469307140093F7F70F63F3F6007C
:1020E40081471CA393870185A2979C2313070002B1
:1020F40093F7F703E380E7186364F7028544638F7B
:10210400970C89466382D70CE3850728B250225482
:1021140092540259F249624AD24A424B4561828042
:10212400130710026386E71213070003E390E7FE28
:1021340093874185A2979C2321479384D18793F960
:10214400F70F639AE7701389C11383476900138AF1
:10215400C1872300FA008347790081C7FD57230014
:10216400FA0083451900834709008CA013F407067D
:102174009397476063D2070E930700046305F41036
:10218400630B0444930700026317F46CE38B85022A
:10219400930710026392F50E83454900172500004A
:1021A4001305C57A13040008EF10A01F23A021858E
:1021B40093874187F8239443DE232303E9002320F4
:1021C400D9002312F900A5A993874185A297138703
:1021D400418694231C43B6971CC30DBF17250000EA
:1021E40013050567EF10003E93874185A29780236E
:1021F4008144138941021374F40F972900009389D1
:10220400E96563CF84022945EF10801D8547A380CB
:10221400F18623808186A388F18637E700E0B7063C
:1022240040002320D7180F10000037860040834752
:10223400660293F7370F2303F6022320D710F9B56C
:10224400B38724018C234E858504EF10801555BF78
:1022540085472381F1865DBD93070004630BF40475
:10226400630D0436930700026317F45E6387856E7B
:1022740093072002638CF572172500001305056C83
:10228400EF102012C9AB130400089307100A638EE1
:10229400F51863E2B70293075009638EF5149307A8
:1022A400A0096386F5029307F005638CF530814934
:1022B40079A60144D9BF9307400A6388F52E930792
:1022C400200BE396F5FE85472389F186CDB70345B8
:1022D4002900C94783493900834549000349590006
:1022E4006316F510CD476393F91093077008639252
:1022F400F5029307300FB7150E00630AF90293072E
:10230400900DB7B504006304F902F16593850520C7
:1023140039A8930780086398F50233092041B775FB
:1023240046001379F90F938585CDB3D5250323AAE8
:10233400B18685472387F18617250000130585524A
:10234400EF102006ADB793079008639AF5003309A0
:10235400204191651379F90F9385C566F9B7930701
:10236400A008639BF50033092041B7153D0013799C
:10237400F90F9385059055BF9307B008639AF5004C
:102384003309204191651379F90F938595D071BF75
:1023940093F5F5078D47639BF50033092041B79505
:1023A4005B001379F90F938505D841B78947639B7F
:1023B400F50033092041B7750B001379F90F9385A4
:1023C400051BA5B78547639AF50033092041DD65F0
:1023D4001379F90F938565E389BF85F933092041A2
:1023E4008D651379F90F938575DC81B77D36CA85C0
:1023F4004E8565366DBD0345290083493900930533
:1024040061008939930571004E85A9313C0023A0F0
:10241400F1841C835C849C83DC8489472300FA0058
:102424003C842310F900894919AC83072900E3D0BF
:1024340007E88347390013F7370009CB8546630063
:10244400D70889466315D7009D4911A0954993D6AD
:10245400274893F78703850685C321476383E706E7
:1024640061476382E706130780026380E706130768
:1024740080036393E70091471387418754A38346FE
:1024840049005CB32303370113F60604834759005C
:102494001DEE93F6760C13067008639AC60A93062B
:1024A400300FB7150E006386D7049306900DB7B5A9
:1024B40004006380D704F165938505201DA899491C
:1024C40079B7854755BF894745BF8D4775B713060B
:1024D4007008E386C6FC1306800C6395C602B30736
:1024E400F040B775460093F7F70F938585CDB3D5C4
:1024F400F50285470CC3172500001305E53723872C
:10250400F1863DBD1306900C639AC600B307F040F4
:10251400916593F7F70F9385C566D1BF1306A00C99
:10252400639BC600B307F040B7153D0093F7F70F60
:10253400938505906DBF1306B00C639AC600B3076C
:10254400F040916593F7F70F938595D04DB793F6C7
:10255400F6070D46639BC600B307F040B7955B00D2
:1025640093F7F70F938505D859B70946639BC600BF
:10257400B307F040B7750B0093F7F70F9385051B6E
:10258400BDB70546639AC600B307F040DD6593F70F
:10259400F70F938565E3A1BF99FEB307F0408D65FE
:1025A40093F7F70F938575DC99B7834529001725B1
:1025B40000001305652DA38DB18685472387F18619
:1025C40041B33C0023A0F1840947930700037C84B2
:1025D4002300EA00B9B513040008A94763EDB72640
:1025E400172700001307873BB3C5E5209C41BA9722
:1025F4008287834739000D476383E70C138901847D
:102604006360F70605476388E70609476389E708B7
:10261400138B0184834A0A0003290B0093090004E5
:10262400B3D93A0BCA854E861385C113B38A3A418E
:102634004E99EFF00FE223005A0123202B019C2036
:102644001547639FE738B7E700E03707400023A04A
:10265400E7180F100000B786004023803603F1A668
:102664001947E397E7FA972700009387273C23202D
:10267400F900A94731A8938741F23E854946972539
:10268400000093856539EFF0CFDC2320A900C9470A
:1026940003470A00E3FEE7F62300FA0095BF938799
:1026A40041F23E8513067002972500009385453458
:1026B400EFF02FDA2320A90093077002D1BF8345DE
:1026C4002900172500001305251DEF00904D8345B3
:1026D4002900172500001305251CEF00904C8347A3
:1026E4002900A5CB1387F7FF1377F70F8946E3E19A
:1026F400E6F2054717F9FF1F13090952638CE70037
:10270400172900001309C92D6396D7001729000063
:102714001309892B4A85EF00B06B1375F50F130766
:102724001500938741F2060798A30D4798B3BE8618
:1027340001473306E90010220507A3810700B0A36F
:102744001376F70F8907E366A6FE23A0D1849C22A3
:1027540081B79387018123A0F184914715BF8345F5
:102764002900172500001305E513EF009043938714
:102774000188D83313674700D8B30347290098B3B7
:102784003DB61725000013052513EF00B06383C77A
:1027940001882300F90083490A00B339300145B5A3
:1027A4001725000013058512EF00D0619387018877
:1027B400D83313670701D8B30347290098A3C5BCCE
:1027C400172500001305C511EF00D05F034709006A
:1027D4007D8B29EFB787004003C767021377C70BC8
:1027E400136727002383E70203C7A7021377C70BE6
:1027F400136727002385E70203C7E7021377C70B94
:10280400136727002387E70203C727031377C70B40
:10281400136727002389E70285472381F186A38074
:102824000186A38401842384018451B489476314F9
:10283400F70283474900930610086387D70C63EABD
:10284400F6048D466384D70A63EBF60285466388F3
:10285400D70C6384E70AFD579CA037074000B7E70D
:1028640000E023A0E7180F100000B786004013060D
:10287400F0FC2381C60223A0E7106FF03F891147C3
:10288400E39BE7FC378700408347270393F7370729
:1028940081A0130730086380E704130740086381AD
:1028A400E70213072008E398E7FA378700408347D5
:1028B400A70293F7C70B93E727002305F702C5BACE
:1028C400378700408347270393F7C70B93E7270015
:1028D4002309F702E9BA378700408347E70293F7F1
:1028E400C70B93E727002307F702D1B237870040CD
:1028F4008347E70293F73707FDB7378700408347DD
:10290400A70293F7370755BF37870040834767020D
:1029140093F7C70B93E727002303F70249BA3787D6
:1029240000408347670293F73707FDB71725000078
:10293400130505FCEF001049238E0112A9BD1725CC
:1029440000001305E5FBEF00F04783490A00239ECE
:1029540001128947B3D9F90ADDB11725000013051F
:10296400E5FAEF0030460144172A0000130A4AFB37
:10297400A149B30789008C2352850504EF00702216
:10298400E31934FF17250000130505FAEF009043FF
:102994008347490089E7A3840186014409BA0947AA
:1029A400E39BE7EA8547A384F186C5BF0346390064
:1029B4008345290017250000130545F7EF00701E15
:1029C400E9BF83454900172500001305A5F9130441
:1029D4000008EF00101DA3840186239E0112A1B4F8
:1029E4002547E382E7C619476391E702B7860040AB
:1029F40023803603B7E700E03707400023A0E71839
:102A04000F100000130600FCADB51307100A639104
:102A1400E702B786004023803603B7E700E03707B4
:102A2400400023A0E7180F100000130680FC91B5A6
:102A34001307A009E38FE7FC1307400AE38BE7FCC5
:102A440013072002E381E7C00547E38EE7BE93073F
:102A54000008E30AF4BEB7E700E03707400023A00C
:102A6400E7180F100000B7860040238036031306D2
:102A740020FC01B503C7D1876301F71863E7E702B8
:102A84009547630FF70C99476308F704B78600402E
:102A940023800602B7E700E03707400023A0E718C9
:102AA4000F1000001306A0FCE9B39307F005630AB6
:102AB400F700930750096306F70093071002E31722
:102AC400F7FCB7E700E03707400023A0E7180F1032
:102AD4000000B786004061BF138AC18793890184CF
:102AE40003490A0083A40900130400043354890A27
:102AF400A68522861385C113EFF0AF95B3078940ED
:102B0400A2942300FA0023A09900630E0902B78758
:102B1400004023808702B7E600E03706400023A088
:102B2400C6180F10000003C72702134707042381A8
:102B3400E70203C727021377C70F2381E70223A005
:102B4400C6106FF0AFDCB786004023800602B7E7FB
:102B540000E03707400023A0E7180F10000001BF72
:102B6400378700403C3383C6118893F70708D58F15
:102B74003CB3B7064000B7E700E023A0D7180F1016
:102B840000001306A0FC2301C70223A0D7106FF096
:102B9400EFD793874185A2979C23A5C383C7D18789
:102BA400639DE7049386C11303AA060083C9460004
:102BB40003C95600E0224E87CA87A286528683C57F
:102BC400918617250000130565DBEF00807D938552
:102BD40041872384918623A0450123823501A38262
:102BE4002501E0A1B7E700E03707400023A0E7187C
:102BF4000F100000B78600400DBDB7E700E03707AF
:102C0400400023A0E7180F100000B786004059BD0C
:102C140085472381F186A38001868280411106C6FF
:102C2400C53FB787004023800700130700FCD8A7DF
:102C34003147D8B71387C1139AAB1387C10FDAABE7
:102C44001387C1079AAF29472381E70209472383E2
:102C5400E7022385E702A3810700130700F898B36E
:102C64001307900298A37D57F8A31D47B8A3B7068E
:102C7400400037E700E02320D7109833136717008C
:102C840098B3B24023900188410182807167938791
:102C940041871307072098C3A1460547DAA3F4A385
:102CA4002387E18623890186A3880186A38401867C
:102CB40023840186938701077D5798C3D8C39AA7B5
:102CC4009387410623A0070023A20700239407004B
:102CD400A386018623860186A38501862385018632
:102CE40023880186A38701869387C18423800700F4
:102CF400A380070023810700A38107008280B71601
:102D040000409E2E717741117D1706C6F98F9EAE45
:102D1400B53F2937B7E700E03707400023A0E710A5
:102D240013060020938501D1138501F1EFF00F956F
:102D3400B24023A2A1844101828001112A8706CED8
:102D44002E8526CCB2854ACA368622C63724004050
:102D5400B7E700E0FD5603A90700C44323A0D71832
:102D640023A2D7189307F7FF93F7F70F0948636A6D
:102D7400F808B717004083C75704B7C80300F957CA
:102D840063741505B306C50063E0D804631407052E
:102D9400098297F0FF1FE78040C2AA8737170040D7
:102DA400930670052300D704930680FA2300D70402
:102DB40083464704C18A2302D70437E700E023206F
:102DC4002711232297103244F240E24452493E85AF
:102DD400056182808547631FF7008567FD173E966E
:102DE400E98F3E96FD777D8E7D8D97F0FF1FE780FE
:102DF400C0C265B797F0FF1FE78040C9930715006D
:102E040071BFB547631AF7001305900B97F0FF1FC6
:102E1400E780C0CC814759B7B1476315F700130564
:102E2400B00AEDB799476317F70097F0FF1FE780E3
:102E340000CCCDB79D47631BF70023A0050023A258
:102E4400050097F0FF1FE78020D0E9B7914763178B
:102E5400F70097F0FF1FE78000D36DBF81471DDFA8
:102E6400F1572DBF1841411106C69387C11798C366
:102E7400584117D5FF1F1305A521D8C36D20B240B3
:102E840001454101828001114EC69389411803A76F
:102E9400090006CE22CC26CA4AC852C456C21443DC
:102EA400B707FDFF1384F7FFB3F786001CC31C4369
:102EB400370A02001389C119E18FB3E747011CC324
:102EC40003270900B7063300938A01191C47B70486
:102ED4000F00D58F1CC783A70A001387845D9384D2
:102EE4000408B8CBAD2C7521812AE52283A60A00FB
:102EF40003A70900416623A446011C43E18FD18F37
:102F04001CC3032609003707CEFF7D171C46F24079
:102F14006244F98F1CC6A4CA4249D244B249224A27
:102F2400924A05618280B7C70040138707200111C8
:102F34009387071023A8E11837D7004006CE2AC686
:102F440023AEE11823A2F1188D2897E0FF1FE78034
:102F540000B3153F3245F24023A4A1880145056121
:102F6400828083C7011A03C7C1881D8F930700029B
:102F7400898FB387E702A1460145930570021205C4
:102F8400FD1633C6B702BA97518DF5FA828003C78E
:102F9400111A83C7011AB306F7401D05998FB38729
:102FA400A702214701459305700212057D1733C618
:102FB400B702B697518D75FB82809387C1199C43E4
:102FC40013070048B70600F998D7D85FFD16B70570
:102FD4000040758FB7060002558FD8DFD85F3706DB
:102FE400FAFF7D160E070D834D8FD8DF945BF18EAB
:102FF40094DB985BB7060090FD16758F4D8F98DBB8
:10300400B847B706F9FFFD16758FB8C7B84BB706B2
:1030140007001377F78F13670730B8CBF84F558F36
:10302400F8CFF84FB7060007558FF8CF930740063F
:103034000100FD17F5FF82801387C1191C434176F7
:103044007D16B44BF18EB4CB944737062000D18E55
:1030540094C7D44793E60601D4C7D447BD9AD4C7CE
:10306400010001000100010014430566DC4693E7FA
:103074000701DCC6DC42D18FDCC29387011990437F
:10308400930740067CD27C5291C783A7C609A183CB
:10309400858BF5DB01000100010001001843416646
:1030A4008327C709FD8BA38CF118344BD18E34CB05
:1030B400344B3706E0FF7D16819ADD8E34CB1447FE
:1030C400F18E14C70D476375F700F517238CF118BB
:1030D40082809387C1199C4341777D17B44F416621
:1030E400F98EB4CF9447D18E94C7D44793F6F6EFB4
:1030F400D4C7D443758FD8C3D44793E60610D4C736
:10310400D843518FD8C382809387C1199C431375C8
:10311400F51F8176D8439386F60F799BD8C313178E
:103124008500885F758D598D88DFD8431367170034
:10313400D8C31387011914430967130707F4F8D296
:1031440003A70709131657006358060003A70709C6
:103154001316670063440600F8527DF38280411120
:1031640022C41384C1191C4006C6FD76D843FD163B
:103174001377F7EFD8C39857758F98D7D857B706F2
:1031840002003D9BD8D79847558F98C7D8431367FB
:103194000701D8C3856703D761199387472363075A
:1031A400F71E1305F00B8D3718401305700E832797
:1031B400070993F7F7032386F18883274709A9832F
:1031C40093F7F707A386F188813718401305300D6C
:1031D4008327070993F7F703A380F11A8327470985
:1031E400A98393F7F707238DF118393F18408327F4
:1031F400070993F7F7032380F11A83274709A98363
:1032040093F7F707238AF11800400145993B2320DF
:10321400A40A2145B9332322A40A4145993323241E
:10322400A40A61453D3B2326A40A13050002153B6D
:103234002328A40A0545A13B232AA40A2545813B4A
:10324400232CA40A4545A133232EA40A65458133C2
:103254002320A40C130510021D3B2322A40C83C5B8
:10326400111A03C5011AB305B5409307A002B38729
:10327400F502130790029306800203C8A119A1481E
:10328400130300023387E502B3C7D7023347D702DB
:103294009207A946D98F2324F40C83C74119338696
:1032A4000741B306D6023308F840032E840C33C713
:1032B400B602C29613678700331717013367C70135
:1032C4002324E40C9108E39268FE2326040C0A06E6
:1032D4000147C148B346B6020323C40C429693E6A1
:1032E4008600B396E600B3E666002326D40C1107E5
:1032F400E31217FF83C6D18883C5C1889D8E898D4B
:103304000148930800023346B8020323C40C3698DC
:103314003316E600336666002326C40C1107E31453
:1033240017FF139826000146F1483347B8020323D8
:10333400040D36983317C700336767002328E40C5D
:103344001106E31416FF584085661375F5033D9B7B
:1033540058C0584093F7F707E207799B58C01854B0
:10336400558F18D45854B7060081FD16136707010A
:1033740058D4185C137707FC498F18DC185C758FD8
:10338400D98F1CDCB240224441018280239B011866
:10339400A5BD9387C11998435C4393E707105CC3A9
:1033A40082805D7122D406D62A842EDA32DC36DE9F
:1033B400BAC0BEC2C2C4C6C617F5FF1F03258585A1
:1033C40011C51C4D81E72AC6B12532450C45541858
:1033D400228636CEEF003030B250225461618280B2
:1033E400AA8517F5FF1F0325E58211CD1C4D81EF3A
:1033F400011106CE2EC62AC4312D2245B245F24013
:103404001045056119A01045F5BF411122C426C21B
:103414004AC006C62A89AE84328401C51C4D91E394
:10342400D52B971700009387E7666313F4060324EC
:1034340049007C50858B81EB5E2493F7072081E75C
:10344400284CEF00A0741C44FD171CC463DA070069
:10345400184C63C1E70693F7F40F2947638CE7041C
:103464001C401387170018C084A393F4F40F7C50F6
:10347400858B81EB5E2493F7072081E7284CEF00CE
:103484000071B2402244024926859244410182805F
:10349400971700009387075E6315F40003248900DF
:1034A40049BF971700009387E75AE314F4F80324FD
:1034B400C90041B7A68522864A851D22AA8445BF34
:1034C400011126CA06CE22CC4AC84EC652C4AA84CA
:1034D40019E11C4502901C4D2E89ADE3252B9C4C13
:1034E4008044B9CF971700009387C75A631DF4042B
:1034F400C0407C50858B99E75E2493F7072099E3BD
:10350400284C69255E24A18B99C31C48D5E3A28568
:103514002685692251CDFD547C50858B99E75E2424
:1035240093F7072099E3284C9D25F24062444249D1
:10353400B249224A2685D2440561828000455DB79E
:103544002685C92945B7971700009387A7526314A6
:10355400F400804479BF971700009387A74FE31ABC
:10356400F4F8C04479B71CC4050963C807021C40B9
:103574001387170018C08CA31C4483450900FD174A
:10358400FDF11CC463D907022286A9452685892832
:10359400FD57E302F5F8A94441B7184C63C4E700AA
:1035A400E39745FD228626852528E31735FDA5B733
:1035B400FD59294AD1B71C401387170018C0294761
:1035C40098A3D1BFAA8517E5FF1F0325A564CDBD28
:1035D400AA879823850775FF3385A7407D158280C8
:1035E400011122CC26CA4AC806CE4EC6AA842E8908
:1035F400328401C51C4D91E331299717000093874C
:1036040067496317F402C0401C4C1CC45E24A18BA0
:1036140099C31C4895EFA2852685492015C97D5973
:10362400F2406244D244B2494A85424905618280EB
:1036340097170000938707446314F4008044E9B7A4
:103644009717000093870741E310F4FCC0446DBF53
:103654001C4808409379F90F1379F90F1D8D5C48C4
:103664006346F500A2852685A12C55F91C44050561
:10367400FD171CC41C401387170018C02380370192
:103684005C486388A7005E24858BD9DBA947E319CE
:10369400F9F8A28526852D2441D551B7411122C4BC
:1036A40026C24AC006C697E4FF1F83A4A4562A89EB
:1036B4002E8489C49C4C99E32685A92E9717000073
:1036C4009387473D6313F402C0408317C40013F784
:1036D400870025E713F707010DEB25472320E900B1
:1036E40093E707045EA47D5571A0971700009387A4
:1036F40067386314F4008044C9BF971700009387A8
:103704006735E314F4FCC044C9B7918B9DC34C588E
:1037140089C9930744046384F5004A85B92B232A95
:1037240004025E242322040093F7B7FD5EA41C4820
:103734001CC05E2493E787005EA41C4899EB5E24BA
:103744001307002093F707286385E700A2854A85BD
:1037540061298317C40013F717001DC35848232495
:1037640004003307E04018CC1848014501E713F77B
:1037740007083DF7B2402244924402494101828045
:1037840013F72700814611E3544814C4F1BF83970B
:10379400C500011122CC26CA06CE4AC84EC613F76C
:1037A4008700AA842E8479E3D8416345E000B841B8
:1037B4006356E008585459C303A9040023A0040025
:1037C4000C5093D7C748A9CB70485E24918B99C7F6
:1037D4005C401D8E5C5899C33C401D8E5C540C505B
:1037E400814626858297FD57630CF5041C480567BE
:1037F400232204001CC05E24F98F91C368C84C586E
:1038040023A0240185CD930744046384F500268511
:10381400AD21232A04021DA0014685462685029770
:10382400FD572A86E313F5FA9C40C5D37547638593
:10383400E70059476395E70623A024010145B5A095
:1038440098408317C40001CFF5466305D700D946D5
:103854006319D7041C48232204001CC04DB7184820
:103864002322040093D7C74818C041BF83A9050188
:10387400E38609FC03A905008D8B23A035013309D8
:103884003941014791E3D84918C4E35920FB1C543A
:103894000C50CA864E8626858297634FA0008317F4
:1038A400C40093E707045EA47D55F2406244D24409
:1038B4004249B24905618280AA993309A940F1B706
:1038C4009C49411106C622C426C281EB8144B24000
:1038D40022442685924441018280AA842E8401C513
:1038E4001C4D91E3052A971700009387A71A631CC0
:1038F400F402C0408317C400F1DB7850058B11E754
:1039040093F7072099E3284C51242685A285413555
:103914007C50AA84858BC5FF5E2493F70720C5FBE2
:10392400284CB5246DB7971700009387A714631428
:10393400F4008044C1B7971700009387A711E31BD5
:10394400F4FAC04445BF411122C406C62A844EA5D8
:1039540072A5232005002322050023240500232229
:10396400050623280500232A0500232C05002146EB
:1039740081451305C505EFE02FAF97170000938726
:1039840047835CD097170000938747851CD497170B
:103994000000938707895CD4971700009387478BAF
:1039A400B24000D01CD82244410182809705000017
:1039B400938545F1BDA2411126C2930780069384E5
:1039C400F5FFB384F4024AC02E8922C406C6938547
:1039D4004407692E2A8401CD2320050023222501D2
:1039E400310508C4138684068145EFE0EFA7B24091
:1039F40022852244924402494101828013854189EF
:103A040071A21385418961A21385818941A213851D
:103A14008189B5AA411122C406C62A84F5371C4CF3
:103A240089C72244B2404101DDB79707000093875C
:103A340027F81CD423240404232604042328040480
:103A440083A741816394870085471CCC22853D2050
:103A540048C02285252008C422850D2048C448403A
:103A640001469145CD3508440546A545E93D484400
:103A74000946C945C93D85471CCC65B7411126C2D5
:103A84004AC006C622C42A89953F83A441819C4C1E
:103A940099E326854137938484048044DC40FD17F0
:103AA40063D607009C40BDC38440C5BF0317C40050
:103AB40039EBC17785075CC413058405232204060A
:103AC400E9208137214623200400232404002322F3
:103AD400040023280400232A0400232C0400814525
:103AE4001305C405EFE04F98232A0402232C040293
:103AF4002324040423260404B2402285224492444D
:103B04000249410182801304840651BF91454A85CC
:103B14005D3588C02A8449F9ED35B1472320F90081
:103B2400E1BF797122D44AD04ECE52CC5AC85EC677
:103B340006D626D256CA2A892E8A130485048149B8
:103B4400054BFD5B0444832A4400FD1A63D00A023A
:103B540000406DF8B250225492540259624AD24A3B
:103B6400424BB24B4E85F24945618280DE24637B31
:103B7400FB008397E40063877701A6854A85029A50
:103B8400B3E9A90093848406C9B7828082808280C5
:103B94005971A2D42E848395E500A6D2CAD086D6C4
:103BA400B284368963D205025E2493F707088DEB4D
:103BB40013070040B65026542320F90098C0065934
:103BC40096540145656182803000E92DE34E05FC81
:103BD4003247BD67F98F7977BA9793B71700C9BF92
:103BE400814713070004F9B7DE25797122D406D67C
:103BF40026D24AD04ECE898B2E8491CF930774045B
:103C04001CC01CC885475CC8B25022549254025947
:103C1400F2494561828074003000AA84953FA2492C
:103C24002A892685CE85992219E98317C40013F7BA
:103C3400072079FBF19B93E727005EA4C1B79707A0
:103C440000009387E7D69CD45E2408C008C893E795
:103C540007085EA4B247232A340199CB8315E400F4
:103C64002685AD2511C55E24F19B93E717005EA45C
:103C74005E2433E527014AA441BFD1CD83A7C5FF04
:103C8400011122CC06CE1384C5FF63D307003E94F2
:103C94002AC64D251387018A1C43324581EB232212
:103CA400040000C36244F240056149AD637DF40041
:103CB4001040B306C4006396D7009443DC43B29625
:103CC40014C05CC0F9BF3E87DC4399C3E37DF4FEB6
:103CD40014433306D700631F86001040B29614C302
:103CE4003306D700E390C7FC9043DC43B29614C379
:103CF4005CC34DBF6375C400B1471CC165B71040B8
:103D0400B306C4006396D7009443DC43B29614C050
:103D14005CC040C341BF828041114AC01389C1893C
:103D24008327090022C426C206C6AA842E8489E7F2
:103D3400814591292320A900A2852685A9217D59A1
:103D4400631A25017D54B2402285224492440249DB
:103D540041018280130435007198E30685FEB305A2
:103D6400A44026850D21E31025FFE9BF011126CAD1
:103D740093843500F1984AC8A104B14706CE22CCF9
:103D84004EC62A89B3F4F40A63C4040063FDB40084
:103D9400B1472320F9000145F2406244D24442492C
:103DA400B2490561828079239389018A83A7090036
:103DB4003E8431E4A6854A858537FD572A846316F7
:103DC400F50A03A40900A287C1EB832904008145F5
:103DD4004A85A2994D2E6394A9081C408D044A85F6
:103DE4009D8CF198B147A104B3F4F40AA6852D374C
:103DF400FD576306F5061C40A6971CC015A0144089
:103E0400858E63C806042D47637DD70204C033073B
:103E140094006396870223A0E9005C4014C35CC34A
:103E24004A85292B1305B40093074400619933078D
:103E3400F540E303F5F63A94898F1CC0B1BFD8C3AB
:103E4400E9BF58406395870023A0E900D1BFD8C3D8
:103E5400C1BFA2874040B1BF3E84DC43B5B7B14780
:103E64002320F9004A85D9293DB704C155BF1C4612
:103E7400FD171CC663DA0700184E63C5E700A9479F
:103E84006394F5006FF0CFF51C422E85138717005D
:103E940018C28CA38280011122CC26CA4AC84EC6FD
:103EA40052C406CE2A89AE893284B304D6007D5A20
:103EB40063149400014501A80C204E864A85453FB1
:103EC4000504E31745FFF2406244D2444249B24933
:103ED400224A05618280357122CD26CB4AC94EC75C
:103EE40006CF52C556C35AC1DEDEE2DCAA892E844F
:103EF4003289B68401C51C4D91E3293E9717000011
:103F0400938747B96317F40403A449007C50858B55
:103F140099E75E2493F7072099E3284C85395E24BA
:103F2400A18B99C31C48B9EFA2854E85EFF00FF71A
:103F340031C97C50858BA1C37D55FA406A44DA446B
:103F44004A49BA492A4A9A4A0A4BF65B665C0D61A9
:103F54008280971700009387E7B16315F40003A4E8
:103F640089006DB7971700009387C7AEE310F4FA82
:103F740003A4C90061BF5E2493F70720D5FF284C32
:103F840039315DBF93070002A304F10293070003D4
:103F940002D22305F10226C6930B5002971A0000A1
:103FA400938A4AB1294BCA849C2099C3639977099F
:103FB400338C2441638D2401E2864A86A2854E8592
:103FC400D93DFD576306F5189257E2973ED29C20DF
:103FD40063800718FD571389140002C802CE3ECA35
:103FE40002CCA309010482D48345090015465685F1
:103FF4003526C2479304190029E513F7070109C7B9
:1040040013070002A309E10413F7870009C7130784
:10401400B002A309E104834609001307A0026389DF
:10402400E602F247CA848146254698209385140007
:10403400130707FD6372E60685C63ECE15A0850408
:10404400A5B733055541B397A72826893EC869BF4C
:10405400324793064700184336C6634807023ACEF0
:1040640098209307E002631CF70498309307A0029A
:10407400631AF702B2478904138747009C433AC680
:104084007D57B3E7E70A3ECA1DA83307E04093E72C
:1040940027003ACE3EC8E9B7B3876703AE848546A6
:1040A400BA9761B7850402CA81468147254698209C
:1040B40093851400130707FD6372E606E9F68C2066
:1040C4000D46171500001305659F892C11CD971710
:1040D40000009387A79E1D8DC24713070004331762
:1040E400A700D98F85043EC88C20194617150000F7
:1040F4001305059D138914002304B102052435C951
:104104009307000095E74247B2471377071009CF9A
:1041140091073EC69257D2973ED271B5B3876703D3
:10412400AE848546BA9761B79D07E19BA107D5B7D1
:10413400780097060000938646D622860C084E85A2
:1041440097000000E7000000FD572A8AE314F5FCFD
:104154007C50858B81EB5E2493F7072081E7284C04
:10416400EFF0FFA25E2493F70704E39707DC1255F0
:10417400E9B3780097060000938626D222860C08BD
:104184004E85F124D1B7411122C42A842E8523A25D
:10419400018A06C6EFD07FC3FD576316F50083A7D7
:1041A400418A91C31CC0B240224441018280411122
:1041B40022C42E848395E50006C631236349050095
:1041C4007C48AA977CC8B2402244410182805E2484
:1041D4009397C7485EA4C5BFDE25011122CC26CA29
:1041E4004AC84EC606CE93F70710AA842E84328995
:1041F400B68991C78395E50089460146DD285E248A
:104204008315E400F2409397C7485EA46244CE86C7
:104214004A86B24942492685D24405611DA8411106
:1042240022C42E848395E50006C6E1207D575E24D2
:104234006319E5009397C7485EA4B2402244410144
:1042440082809397C72868C85EA4C5BF8395E5009C
:104254003DA0411122C42A842E85B285368623A22C
:10426400018A06C6EFD01FB4FD576316F50083A775
:10427400418A91C31CC0B240224441018280411151
:1042840022C42A842E8523A2018A06C69521FD57BD
:104294006316F50083A7418A91C31CC0B24022442F
:1042A40041018280411122C42A842E85B28523A231
:1042B400018A06C6A121FD576316F50083A7418A2A
:1042C40091C31CC0B240224441018280411122C4E6
:1042D4002A842E8523A2018A06C63D21FD57631632
:1042E400F50083A7418A91C31CC0B2402244410116
:1042F4008280411122C42A842E85B285368623A267
:10430400018A06C60129FD576316F50083A7418A71
:1043140091C31CC0B24022444101828093F5F50F41
:104324002A966314C500014582801C21E38EB7FEE2
:104334000505C5BF138501896FF05F851385018964
:104344006FF0FF84797156CA9C49BA8A984522D481
:104354004AD04ECE52CC06D626D25AC85EC6B3E751
:10436400E70A1CC203C73504AA892E843289368A17
:1043740019C385071CC21C4093F7070291C7832702
:10438400090089072320F9000440998891E8130B58
:104394009401FD5B5C4403270900998F63CCF4040A
:1043A40083473404B336F0001C4093F70702A5EBAF
:1043B40013063404D2854E85829AFD576303F504AF
:1043C4001C4011478144998B6399E70083270900B6
:1043D40044449D8C8147B3E4F40A1C441848635454
:1043E400F700998FBE94014969047D5B63982405A5
:1043F400014509A885465A86D2854E85829A631E50
:1044040075017D55B250225492540259F249624AC0
:10441400D24A424BB24B456182808504A5BF330723
:10442400D40013060003A301C7040347540493876D
:104434001600A2978906A381E7049DBF85462286BC
:10444400D2854E85829AE30E65FB050945B77971DD
:1044540022D44AD04ECE52CC06D626D256CA5AC8F8
:1044640003C88501930780072A892E84B289368A76
:1044740063E20703930720069386350463E1070389
:10448400630B081C93078005170600001306C66318
:104494006307F814930424042301040515A893075F
:1044A400D8F993F7F70F5546E366F6FE17060000B2
:1044B40013060664B3C7C7209C43B29782871C4384
:1044C40093842504938647009C4314C32381F504F5
:1044D400854765A290411C431375060893854700E0
:1044E40029C19C430CC3584063DE07129305D002D4
:1044F400A301B40418C4635E0702B307F0401706AF
:1045040000001306665C2948B68433F70703FD14DC
:104514003297182398A03E87B3D70703E37707FFA2
:1045240085A09C43137506040CC355DD939757600F
:104534005DBF6D9A10C0D1B790411C431375060836
:104544009385470001C50CC39C4331A01376060430
:104554000CC37DDA9E231307F0061706000013062A
:10456400A656631FE80A2148A3010404584018C44E
:10457400E34C07F80C40ED990CC0D9F7B68449F721
:10458400A147631EF8001C40858B91CB58401C4802
:1045940063C7E70093070003A38FF4FEFD14858E21
:1045A40014C85287CE867000A2854A85613BFD5AA5
:1045B4006319550D7D55B250225492540259F24953
:1045C400624AD24A424B456182809C4193E707028A
:1045D4009CC1130880071706000013062650A30287
:1045E40004050C401C4313F80508138547006305B4
:1045F400080008C39C4339A013F8050408C3E30B5F
:1046040008FE9E2313F7150001C793E505020CC0AD
:1046140099C3414891BF18401377F7FD18C0D5BF1F
:10462400294899B7170600001306064A29483DBFD2
:1046340090411C43CC491378060813854700630650
:10464400080008C39C438CC339A008C3137606042E
:104654009C4375DA8EA323280400B68499B71C43BF
:10466400D04181459386470014C3844326857D3118
:1046740001C5B30795405CC05C401CC8A301040499
:104684000DB714482686CE854A85029AE30455F36D
:104694001C40898B85E74844B2473365F50A21BF3E
:1046A40085465686CE854A85029AE30565F18504DA
:1046B4005C443247998FE3C5F4FEF1BF8144930A09
:1046C40094017D5BF5B7411122C42A842E85B285FD
:1046D400368623A2018A06C6A120FD576316F5007B
:1046E40083A7418A91C31CC0B24022444101828005
:1046F4009307800523A2F18A7D5582809307800564
:1047040023A2F18A7D5582809307800523A2F18A32
:10471400014582809307800523A2F18A7D5582801A
:104724009307800523A2F18A7D558280BCD5FFFFC3
:10473400D4D5FFFFF8D5FFFF02D6FFFF18D6FFFF41
:10474400234552520000000073746172742E0000FD
:1047540063666756616C3D25780A0000636F6E6E70
:104764006563742074696D656F75742E00000000B4
:10477400626F756E6420737563636573732E255859
:104784002025780A000000002072656A6563742E93
:104794002E000000727373693D2564200A00000036
:1047A4007561727420706172616D2E006572726F32
:1047B4007220646174612E00646973636F6E6E6548
:1047C40063742E002D2D2D2D2D2D2D2D2D2D2D2DC4
:1047D4002D2D2D2D2D207266207561727420727816
:1047E400206D6F6465202D2D2D2D2D2D2D2D2D2D1E
:1047F4002D2D2D2D2D2D2D0043483334312073655F
:104804007420706172613A25642025642025642037
:10481400627265616B3A253032780D0A000000003F
:104824007768793F3F3F206C3D25640A20000000F3
:10483400212121206572726F722075736220696E66
:10484400206C3D25642025780A0000007573625FA2
:104854006F7574310000000025303278202000008C
:10486400434833343120736574206270733A25648D
:104874000D0A0000736574206270733A25640D0A92
:1048840000000000736574206D6F64656E3A2578CE
:104894000D0A00007374722025640D0A00000000E4
:1048A4005345545F414444524553533A25640D0AD9
:1048B400000000004745545F434F4E464947555258
:1048C4004154494F4E0D00005345545F434F4E46EB
:1048D400494755524154494F4E0D0000434C454100
:1048E400525F464541545552450D00004745545FBB
:1048F400494E544552464143450D00004745545FD7
:104904005354415455530D005345545F4C494E453F
:104914005F434F44494E470D000000002530327874
:10492400200000000D00000063746C2025303278F4
:1049340020253032780D0A004344432052657143E8
:104944006F646525780D0A004745545F4C494E4510
:104954005F434F44494E473A25640D0A0000000066
:104964004745545F53455249414C5F535441544564
:104974003A25640D0A0000004C494E455F434F44FC
:10498400494E472025642025642025642025642081
:1049940025640D0A00000000A6DFFFFF28DEFFFFEC
:1049A400BEDEFFFFBEDEFFFFBEDEFFFFC6DDFFFF94
:1049B4005ADCFFFFBEDEFFFFEADDFFFF08DEFFFF7C
:1049C40094DFFFFF555342322E3020546F2053653D
:1049D4007269616C20506F72740000005743483450
:1049E40035343534355453320000000009022700B1
:1049F40001010080300904000003FF0102000705E3
:104A0400820220000007050202200000070581033E
:104A14000800010012011001FF000240861A2375EC
:104A240000310102030100000A060002FF00FF40FA
:104A34000100000043483537785F52465F424153D6
:104A440049435F4C49425F56312E312E36000000F7
:104A54000000000000000000000000000000000052
:104A64000000000000000000000000000000000042
:104A74000000000000000000000000000000000032
:104A84000000000000000000000000000000000022
:104A94000000000000000000000000000000000012
:104AA4000000000000000000000000000000000002
:104AB400232D302B20000000686C4C006566674590
:104AC40046470000303132333435363738394142C5
:104AD4004344454600000000303132333435363724
:104AE400383961626364656600000000D2F9FFFF33
:104AF400E8F9FFFFA8F9FFFFA8F9FFFFA8F9FFFFF6
:104B0400A8F9FFFFE8F9FFFFA8F9FFFFA8F9FFFFE5
:104B1400A8F9FFFFA8F9FFFF44FBFFFF4CFAFFFFD2
:104B2400DEFAFFFFA8F9FFFFA8F9FFFF72FBFFFF02
:104B3400A8F9FFFF4CFAFFFFA8F9FFFFA8F9FFFF50
:044B4400E6FAFFFF8F
:024B480001A0CA
:104B4C00FC10002064100020221000202A100020ED
:104B5C0000000000944A0000744A0000544A00000F
:104B6C000000000000000000000000000000000039
:104B7C000000000000000000000000000000000029
:104B8C000000000000000000000000000000000019
:104B9C000000000000000000000000000000000009
:104BAC0000000000000000000000000000000000F9
:104BBC00B4250020B01B00207763682E636E0000C4
:084BCC0004030904B01B0020E2
:00000001FF
