:040000006F0000731A
:100004000000000000000000E40300205E03002064
:10001400A9BDF9F3A42F00000000000000000000B7
:10002400A42F0000A42F0000000000000000000026
:10003400A42F000000000000A42F00000000000016
:1000440000000000A42F000000000000A42F000006
:10005400A42F0000A42F0000A42F00000000000023
:10006400A42F00000000000000000000A42F0000E6
:10007400A42F0000A42F0000A42F0000A42F000030
:1000840000000000A42F000000000000A42F0000C6
:100094009307000C0111631CF50493078008F3B760
:1000A400078093F787083EC00F100000B717004081
:1000B400130770052380E704130780FA2380E704FD
:1000C4000F10000003C7F70013670704A387E700B6
:1000D40003C787001367070C2384E7002380070402
:1000E4008247F3A707800F10000005618280B717CD
:1000F400004003C7A700118B79EF83C6E7041307F9
:10010400800893F6F60F733607801376860832C29A
:100114000F1000001308700523800705930580FA6B
:100124002380B7040F10000003C6E70413663600EB
:100134002387C70403C6A700136646002385C700A8
:10014400238007041246732606800F10000003C69E
:1001540087001376F60F73370780137787083AC43E
:100164000F100000238007052380B7040F10000040
:1001740003C787001367070C2384E7002380070461
:10018400A247F3A707800F100000A5470100FD1741
:1001940093F7F70FE5FF93078008F3B7078093F70A
:1001A40087083EC60F100000B717004013077005FC
:1001B4002380E704130780FA2380E7040F1000006C
:1001C4002384C7002387D70423800704B247F3A7F7
:1001D40007800F1000009377050C13070004639247
:1001E400E70A93078008F3B7078093F787083EC8A8
:1001F4000F100000B7170040130770052380E704B1
:10020400130780FA2380E7040F10000003C7A70038
:100214008546136707012385E70037270040A303BA
:10022400D7808346578093E60601A302D7802380B4
:100234000704C247F3A707800F1000009307800844
:10024400F3B7078093F787083ECE0F100000B71767
:100254000040130770052380E704130780FA238006
:10026400E7040F10000003C7F7001375F50F1367B9
:100274000704A387E7002384A70023800704F24729
:100284008DB59377F5019DCF93078008F3B7078069
:1002940093F787083ECA0F100000B71700401307F2
:1002A40070052380E704130780FA2380E7040F1006
:1002B4000000372700408946A303D7802380070422
:1002C400D2478DBF93078008F3B7078093F7870859
:1002D4003ECC0F100000B7170040130770052380B1
:1002E400E704130780FA2380E7040F100000372780
:1002F40000409D46A303D78023800704E2471DBF27
:100304000111814601468145114506CE971000E052
:10031400E780604993078008F3B7078093F787085D
:100324003EC60F100000B717004013077005238066
:10033400E704130780FA2380E7040F10000003C7C3
:100344006704136717002383E70423800704B24775
:10035400F3A707800F100000F2400561828041116D
:100364008146014681451145971000E0E780A0438E
:1003740013078008F337078093F787083EC40F10EC
:100384000000B7170040130670052380C7049306C6
:1003940080FA2380D7040F100000FD552396B7027E
:1003A40023800704A245F3A505800F1000007337CE
:1003B4000780137787083AC60F1000002380C7040C
:1003C4002380D7040F10000003C7670413671700C6
:1003D4002383E70423800704B247F3A707800F10A1
:1003E400000001A001A0E5473305F50201007D15D9
:1003F40075FD8280411122C406C62A841305803EFD
:100404007D14D5373344040875F8B24022444101C1
:1004140082802E96AA870F70B67882802303048088
:100424001547A2872303E480010001002302A4806E
:1004340003C7678062076187E34C07FE2382A780B6
:10044400228783476780E207E187E3CC07FE828047
:100454002303048015472303E480010001002302E1
:10046400A480828083076480E3CE07FE2303048094
:10047400828083076480E3CE07FE03454480828044
:1004840083076480E3CE07FE2302A48082804111A7
:1004940026C44AC24EC006C61377F50BAD47AA89D7
:1004A4002E8995446306F70019455D37653F8D44F1
:1004B4004E85793FFD59FD1463983401B240A2443E
:1004C4001249824941018280135509011375F50FC0
:1004D400453F2209CDB7011126CC06CEB70408004A
:1004E40051371545B537713769372AC6A53F3245A7
:1004F4009377150089EB136515001375F50FF2401A
:10050400E24405618280FD14E9FC0145CDBF41113F
:1005140006C6B7170040130770052380E7041307C6
:1005240080FA2380E70403C747041305F00F136719
:10053400070E2382E70491472303F480C535B240B4
:1005440041010DB7011126CC4ACA4EC852C606CE87
:100554002A89AE89B284554A5D3F91E82137F24039
:1005640026855249E244C249324A05618280CA85DD
:100574000945313F910903A7C9FF91472320E4802E
:1005840003076480E34E07FE23034481FD17EDFB5C
:10059400FD14110981C49377F90FE9FF2D3F55FD2F
:1005A400FD5475BF011126CC4ACA4EC852C656C462
:1005B4005AC206CE2A89328A8D49913FC164C16AE2
:1005C400056B9387F4FFB3F7270199E363719A02EC
:1005D400FD199180E39709FE71350145F240E2442B
:1005E4005249C249324AA24A124B0561828013051C
:1005F400800D6388540113050002638464011305AC
:100604001008CA856935C13D09C52699330A9A403F
:1006140075BF7D55E1B7011106CE26CC4ACAB28416
:100624004EC82AC62E89E5353245FD14FD59AA85E2
:100634002D45B13D639A34013535F2402685524942
:10064400E244C249056182802D3593F7340091EB71
:10065400832604800327090093074900E39EE6FCF0
:100664003E89FD14C1BF011106CE2AC64D3532455F
:10067400C533F2400561FDB3011106CE26CC4ACA4A
:100684004EC852C6AA8956C42E895135CE852D45E9
:10069400FD3B81448D4A214AE93B639654018327FB
:1006A40004802320F9008504E39844FF8327048011
:1006B40013972901635C07002312F900F240E24416
:1006C4005249C249324AA24A056169BB2322F90050
:1006D400F5B7411106C626C44AC24EC0AE89053DCF
:1006E40081451305B0046533BD447D59593393F7EF
:1006F4007400CE9703C70700FD14398D2380A7002B
:10070400E39624FFB240A24412498249410199BBB5
:10071400411106C6ED3B130560061D3BA1331305CD
:0C07240090093D33B240410135BB00009C
:10073000971100209381018A173100201301818CC9
:1007400013054000970500209385C58B17060020F0
:10075000130606FE63FAC5008322050023A0550098
:1007600011059105E3EAC5FE173500001305058460
:10077000970500209385C5FB1386C18563FAC500E4
:100780008322050023A0550011059105E3EAC5FE6B
:100790001385C1859385419C6377B50023200500AF
:1007A0001105E36DB5FE93025002739002BC8D42B9
:1007B000739042808542739012BC930280087390BC
:1007C0000230970200209382E28393E2320073901A
:1007D0005230970200009382A20B73901234730080
:1007E00020302A8311C62300B3007D16050365FE61
:1007F000828079711385818106D622D426D24AD08F
:100800004ECE52CC56CAEF00B01A9305F1001385B4
:100810004194EF00E07835E103C741948547130523
:10082000100463FCE704972400009384E44D014422
:1008300097090020938989FA170A0020130A4AEFC2
:100840001949B307340183CA07002685EF00501603
:100850009305F10033055A01EF00807419ED05048A
:10086000A104E31024FF13850181EF0070149305A8
:10087000F10013854194EF00A072B25022549254BB
:100880000259F249624AD24A45618280797119451A
:1008900006D622D426D24AD04ECE52CC56CA5AC8F8
:1008A0005EC635221305600497F0FF1FE780807E47
:1008B000154597000020E78020B485450545CD22E9
:1008C0003714004021479307840B98C38D45214579
:1008D000B922014681450545652E512683451404FC
:1008E000172500001305453E0969EF00307E938708
:1008F000418C23A2F1869387418823A0F1868357F8
:10090000840171777D17F98F231CF400EF00701CB0
:10091000172500001305853CEF10601E0144B789C0
:100920000040054AD54A938441931309198D094B18
:10093000938B818683C76900858BA9E783C70B00EA
:10094000F5DB1305800C2384018697000020E780E7
:10095000A0AAEF00B03783D74400639D270303D7D5
:1009600064008D67938707D0137707F06314F7024D
:100970001725000013058537EF106018C157A381B4
:10098000F4004DBF23834901B12EE30C55FB83C70F
:1009900081867DB703C52400C12EA13D41FD636F53
:1009A0008B00854705041305401F2384F1861374CB
:1009B000F40F97000020E78020A4ADBF17250000AA
:1009C00013058533EF10A0130545792E01A03717C5
:1009D00000408347E70412054111BD8BC98F93F78F
:1009E000F70F93068008F3B6068093F6860836C69E
:1009F0000F100000930670052300D704930680FAB9
:100A00002300D7040F1000002307F7042300070476
:100A1000B247F3A707800F10000041018280914781
:100A200063ECB7049727000093870731B3C5F5201F
:100A300098413E97B71700409387470B028794432E
:100A400037170040B3F6A64094C39306070B9C42A9
:100A5000B3F7A74019A8944337170040B3F6A64050
:100A600094C39306070B9C42C98F9CC29307070A45
:100A700098433377A74098C3828094433717004048
:100A8000C98ED9B798433377A74098C3B7170040AA
:100A90009387070A9843498FF9BF9843498FF5B761
:100AA000797122D406D626D24AD04ECE37140040D1
:100AB000834744028347540221E593078008F3B734
:100AC000078093F787083EC20F1000009307700558
:100AD0002300F404930780FA2300F4040F100000AD
:100AE00023020402230004049247F3A707800F1097
:100AF0000000B250225492540259F249456182805A
:100B00008D8993048008F3B7048093F787083EC467
:100B10000F1000009309700523003405130980FAB3
:100B2000230024050F10000089472302F402A302CA
:100B3000B40223000404A247F3A707800F100000AB
:100B4000054597000020E780408AF3B4048093F4C1
:100B5000840826C60F100000230034052300240556
:100B60000F1000008347440293E787002302F4023A
:100B700023000404B24795BFB717004003C787009E
:100B80009306000C1377070C6315D70003A5C185E6
:100B9000828003C78700930600041377070C631253
:100BA000D70283C6870013070002FD8A81C603C7E8
:100BB00087007D8B3745C323130505603345E50268
:100BC000828083C6870013070002FD8A81C603C79F
:100BD00087007D8B3755E80113050580C5B7328541
:100BE000814737370040A14663C3A7008280034690
:100BF000B740E30ED6FE3386F500034606008507B0
:100C00002304C740D5B7970600209386A6BCAA87C1
:100C100088421387419CAA9763E9E7000A87130774
:100C200007FC6364F7009CC282807D55828041117D
:100C300022C406C62A8489372947B307E502B24091
:100C40008D83B3D7870222449507B3D7E70237379E
:100C50000040B3C707082316F74041018280716541
:100C600041111305052006C6D937B73700401307D1
:100C700010F82381E7400D47A381E74013070004E4
:100C8000A380E74005472387E740B24041018280C7
:100C9000371700408357A701B3C7070893F707FC2E
:100CA000B3C70708231DF70019C98357A7018E058D
:100CB0005D8ED18DB3C50508231DB700828082806B
:100CC000B787004003C707001377F70B2380E700BF
:100CD00003C767021377F7072383E7028280239A0B
:100CE00001928280411122C406C6378700408347A3
:100CF00057001384419303450400858BA1C311C59C
:100D0000834717000145858B95E7D13FB7870040A2
:100D100083C75700172500001305450393C7270015
:100D200093D717482301F40085472300F400EF0010
:100D3000105D5545B24022444101828065DD453752
:100D40001725000013054501EF00705B5945DDB71D
:100D500037870040834737001375F50793F7070877
:100D6000C98FA301F700828011C199BF3787004066
:100D70008347070093E707042300F70082804111AF
:100D8000A147014506C622C4A384F18637840040EA
:100D9000C1378347140093F7E70FA300F4000D3722
:100DA000834714003D4593F7970F93E72700A3006F
:100DB000F40097F0FF1FE7802064834714001305B9
:100DC000A00F93F7D70FA300F40097F0FF1FE78061
:100DD000C06185472303F400B24022444101828070
:100DE0009386419383C7060081E785472380F600F9
:100DF000B787004003C757005945058B05CF03C788
:100E00001700058B19EF03C75700098B133617001E
:100E10002381C60019C703C7170013674700A380C3
:100E2000E7003787004083471700014593E7170025
:100E3000A300F70082805D71A2C4A6C2CAC04EDEC4
:100E400052DC56DA5AD85ED662D466D26AD06ECEFA
:100E500086C6B78700402387B702B78900402A8A31
:100E6000B2842385B702935A45000149138469006F
:100E7000894B554C938C41930D4B7D5DB94D23842B
:100E80004903230074019307803E03470400098B44
:100E900001EF05453EC697F0FF1FE7800055B247BA
:100EA000FD17B3C70708F5F323840902834704003D
:100EB000898B81E71305E00F51A083470400858BE0
:100EC00095C785472300F400313D854763148501AC
:100ED0002384F18683C70C00C5CB05476388E70AE6
:100EE0001305800C97F0FF1FE78020508347040014
:100EF000898BC1CB83C7790093F70704D1EB03C576
:100F000079003D896308B509A947631DF500D1C47F
:100F1000FD576383F400FD143D4597F0FF1FE78004
:100F2000C04CB1BFA547638AFA02B5476385FA0092
:100F30008547E391FAF80DC913650502B6402644CA
:100F400096440649F259625AD25A425BB25B225C1D
:100F5000925C025DF24D6161828085679387978024
:100F6000B3D7A700858BE9DB05093D451379F90F58
:100F700097F0FF1FE7806047E31369F11305000254
:100F800075BF2300A401CDB759454DBF55457DB769
:100F900001456DB71305E00255B71305A00279BFEF
:100FA000011126CA4AC8AE842A891305800C06CED0
:100FB00022CC4EC652C456C25AC097F0FF1FE780DB
:100FC000C04299C02380040037840040A147096AC9
:100FD0002306F40213060A7181451305000DA13D95
:100FE000631E0516930700FD2307F4022305F40290
:100FF00085472306F402938A018683A70A001725F2
:101000000000130525D603C4770003C76700220438
:10101000598CA285EF00900B63000410630E090E3B
:1010200083A70A00172500001305C5D483C5070050
:10103000EF00D00983A70A008387070063C907066A
:10104000138B9186B7890040130A0A711305800C2F
:1010500097F0FF1FE780603983470B006374F4004B
:101060009377F40F2386F902814703C7C90263957A
:10107000E71283C5E90252864145753B65E183C7A6
:10108000C902B307F44033C4070881C883C7C90243
:1010900003C70400BA972380F4004DF883C5040009
:1010A00017250000130545CEEF005002B5A0B78903
:1010B0000040130A0A71938A4186138B91861305A7
:1010C000800C97F0FF1FE780403283C5A90252864B
:1010D000130500098D3359E103C789009377F40F95
:1010E0006376870083C7890093F7F70F1D8C33441D
:1010F000040891C403C704003E972380E40001471D
:101100009376F70F6396D7063E9983C78900A5EFBC
:10111000B7870040238607021305800C97F0FF1F56
:10112000E780A02CB787004083C7C702414599C319
:10113000130500090966130606719305000CE539CD
:1011400011EDB787004003C7C7021375F70F19C722
:1011500083C7870013F5F70F91C35D45F2406244E2
:10116000D2444249B249224A924A024B05618280E6
:1011700083A60A00BA9603C60600B306E90005076F
:101180002380C600B5BF83470B0003C78900FD1746
:10119000F98FBDFF0DF4ADBF03A70A008346090018
:1011A00005093E9785072300D70093F7F70F75BD14
:1011B000814793850186A1463307F5000346070062
:1011C00098413E972300C7008507E397D7FE8280AA
:1011D000011122CC06CEA147138581831384918609
:1011E0002300F400F1379305F100138541944D3B42
:1011F00019E90347F10083C7B1942300F400C54700
:1012000063E3E7005D45F2406244056182800111BD
:101210001385018306CE22CC26CA593F9305F100DF
:1012200013854194B53B15ED0347F1008D475D45AE
:1012300063F9E7029384419403C4340083C7240014
:101240001385018322045D8CA3078100953783A752
:10125000018623838700A38307009305F100268579
:101260008133F2406244D24405618280411126C23A
:10127000AA841385818206C622C41D3F83A70186E6
:1012800023819700A381070081450145113B2A84F2
:1012900001E92685753C294597F0FF1FE780C015B9
:1012A000B24022852244924441018280411122C4ED
:1012B0002A841385018206C6E53D83A70186238122
:1012C00087002244B240A3810700814501454101C6
:1012D000C1B9411122C406C637840040930700F803
:1012E0002300F400A3000400A3010400930780047A
:1012F000A306F40083D74186231CF40083D701861C
:10130000231EF4002305040223070402930790F828
:101310002300F400930700042303F402FD57230382
:10132000F400753A8D472301F400B240224423842F
:10133000018641018280797126D24AD006D622D414
:101340004ECE52CC56CA5AC85EC62A89AE84A1C9AE
:1013500031479387F5FFB387E7021387C190BA97A8
:10136000239007002391070001448149954A0D4BC2
:10137000C14B8347390003472900A207D98F63E592
:10138000F90229455923B250228522549254025918
:10139000F249624AD24A424BB24B45618280239E57
:1013A0000192239F0192C9B7330A390183471A007A
:1013B000639C570583473A008D8B63976705834786
:1013C0002A00139747606351070493864193BD8BAE
:1013D0003387860091C831471386F4FF3306E6024F
:1013E00013874190329722972304F700A29683C572
:1013F0008600172500001305E5990504C12913741B
:10140000F40F8D47E3EF87F683470A00E3EBFBF623
:10141000CE9793F9F70FB1BF011122CC2A8413851F
:10142000018526CA4AC806CE13890186513383270F
:1014300009001374F40F814423828700A38297006C
:101440009305F10013854194A13E19ED1385818424
:101450008533832709009305F10013854194238286
:101460008700A38297002D3EF2406244D244424955
:101470000561828001111385018406CE153B930519
:10148000F10013854194293E19E50347F100A14776
:1014900063E3E7005D45F2400561828083A7018632
:1014A000130730022380E7000D472381B700238212
:1014B000A700A380E700A3810700A382070023837E
:1014C0000700A383070081450145D9BC01111725F9
:1014D00000001305A58C06CE22CC26CA4AC84EC6EB
:1014E00052C456C2292DEFF09F898144014413094B
:1014F0004006054597F0FF1FE78000F0EFF05F8E94
:1015000001E9850493F4F40F636F99240544D5B77A
:1015100005041374F40FE31E24FDEFF04FFC1725B0
:1015200000001305A595E12B594465A8B307890070
:1015300083C507005285592E130514001374F50F47
:10154000E36634FF2945D1268357890083C9A182E8
:101550004E852392F4008357A900034A4900239340
:10156000F40029332A846313051E17250000130590
:101570006584A3803401992E59392A846318051C87
:101580000144972900009389698211A8B307890053
:1015900083C507004E850504152E1374F40F835779
:1015A0002900E365F4FE29458D2683495900834AC5
:1015B000E90063120A10A147639FFA024E85FD31CC
:1015C0002A84631505188D472380F400A3815401F4
:1015D000171500001305057F1D230545EFF0CFF813
:1015E0000144F24022856244D2444249B249224A2F
:1015F000924A056182809D476396FA020347F9008B
:101600008547631AF7124E8555312A8463100514F5
:101610008D472380F400A3815401171500001305A2
:10162000657B5DBF8D476398FA100347F9008547D6
:1016300063E3E710814513854194F539AA851715B1
:1016400000001305257A59244E85034A0901B9394A
:101650002A84631D050EC93315E1971A0000938A89
:10166000EA7493090004B307890083C5070056850F
:101670000504A92CE31934FF2945412C8D4723800B
:10168000F4008547631BFA0093073002A381F4003E
:10169000171500001305857681B789471304B00F2D
:1016A0006316FA0A93073003A381F40017150000AC
:1016B0001305057615B7A547631FFA06653B2A840F
:1016C00051E5834529001715000013056575FD2AAE
:1016D0008347290011474E85B3D7E70A2386F400D4
:1016E000F1362A8425E58D47A38144012380F40047
:1016F000054413894190B149171A0000130A4A732F
:1017000083C7C40063F787001715000013058574AD
:10171000E1B59307F4FFB3873703A1452285CA9744
:1017200023800700A53B01C5A285528545220504FB
:101730001374F40FF1B74E85953E2A8401E98D4765
:101740002380F400FD57A381F40041BDA285171545
:101750000000130525719D2A894705452380F40063
:10176000EFF08FE0BDBD9384419303C52400EFF0FB
:10177000AFDF171500001305E572892A913C2A8412
:1017800071F59387818383C9770003C76700138945
:101790004194A209B3E9E900171A0000130A0A618B
:1017A00045B301112A8706CE2E8526CCB2854ACABA
:1017B000368622C637240040B7E700E0FD5603A96D
:1017C0000700C44323A0D71823A2D7189307F7FF15
:1017D00093F7F70F0948636AF808B717004083C703
:1017E0005704B7C80300F95763741505B306C5005D
:1017F00063E0D80463140705098297F0FF1FE780B0
:10180000A0D4AA8737170040930670052300D70499
:10181000930680FA2300D70483464704C18A230233
:10182000D70437E700E02320271123229710324402
:10183000F240E24452493E85056182808547631F3C
:10184000F7008567FD173E96E98F3E96FD777D8E02
:101850007D8D97F0FF1FE78020D565B797F0FF1FBC
:10186000E780A0DB9307150071BFB547631AF70047
:101870001305900B97F0FF1FE78020DF814759B7D2
:10188000B1476315F7001305B00AEDB79947631721
:10189000F70097F0FF1FE78060DECDB79D47631B21
:1018A000F70023A0050023A2050097F0FF1FE780A3
:1018B00080E2E9B791476317F70097F0FF1FE780D1
:1018C00060E56DBF81471DDFF1572DBF5D7122D4EB
:1018D00006D62A842EDA32DC36DEBAC0BEC2C2C4D4
:1018E000C6C617F5FF1F032525EF11C51C4D81E75F
:1018F0002AC6A52532450C455418228636CEEF005F
:101900009033B250225461618280AA8517F5FF1F7F
:10191000032585EC11CD1C4D81EF011106CE2EC69D
:101920002AC4252D2245B245F2401045056119A073
:101930001045F5BF411122C426C24AC006C62A89F5
:10194000AE84328401C51C4D91E3012D9717000030
:101950009387475A6316F406032449007C50858B0D
:1019600089EB8357C40093F7072081E7284CEF00E9
:1019700060761C44FD171CC463DA0700184C63C36F
:10198000E70693F7F40F2947638EE7041C4013879B
:10199000170018C02380970093F4F40F7C50858BB8
:1019A00089EB8357C40093F7072081E7284CEF00A9
:1019B0008072B240224402492685924441018280CD
:1019C00097170000938707516315F40003248900DB
:1019D00071B7971700009387E74DE311F4F80324DC
:1019E000C900ADBFA68522864A850522AA847DB797
:1019F000011126CA06CE22CC4AC84EC652C4AA84B9
:101A000019E11C4502901C4D2E89A5E7B9239C4C79
:101A10008044B5C3971700009387C74D6310F40641
:101A2000C0407C50858B81EB8357C40093F707201F
:101A300099E3284C45258357C400A18B99C31C48C2
:101A4000C5E7A2852685512245C1FD547C50858B72
:101A500081EB8357C40093F7072099E3284CA52D09
:101A6000F24062444249B249224A2685D244056185
:101A70008280004545B72685CD2169BF97170000B4
:101A8000938747456314F400804461BF97170000B3
:101A900093874742E317F4F8C04461B71CC40509B3
:101AA00063C907021C401387170018C02380B700C2
:101AB0001C4483450900FD17F5F11CC463D90702D6
:101AC0002286A94526859120FD57E300F5F8A94413
:101AD000B5BF184C63C4E700E39645FD2286268512
:101AE0002D20E31735FD95B7FD59294AD1B71C4084
:101AF0001387170018C029472380E700C9BFAA85AC
:101B000017F5FF1F032545CDE5B5011122CC26CAE7
:101B10004AC806CE4EC6AA842E89328401C51C4D01
:101B200091E32529971700009387C73C6318F402B7
:101B3000C0401C4C1CC48357C400A18B99C31C48D3
:101B400095EFA2852685512015C97D59F240624442
:101B5000D244B2494A854249056182809717000004
:101B6000938747376314F4008044E1B79717000068
:101B700093874734E31FF4FAC04465BF1C4808400C
:101B80009379F90F1379F90F1D8D5C486346F500C1
:101B9000A2852685B52455F91C440505FD171CC4EE
:101BA0001C401387170018C0238037015C486389E5
:101BB000A7008357C400858BD1DBA947E318F9F848
:101BC000A2852685352C59D149B7411122C426C298
:101BD0004AC006C697F4FF1F83A404C02A892E8436
:101BE00089C49C4C99E326858D2E97170000938716
:101BF00067306314F402C0408317C40013F78700F2
:101C00002DEB13F7070115EB25472320E90093E798
:101C100007042316F4007D5559A8971700009387F1
:101C2000672B6314F4008044C1BF971700009387AB
:101C30006728E313F4FCC044C1B7918B8DC74C589F
:101C400089C9930744046384F5004A856923232ADC
:101C500004028357C4002322040093F7B7FD231620
:101C6000F4001C481CC08357C40093E78700231668
:101C7000F4001C4881EF8357C4001307002093F73A
:101C800007286385E700A2854A856D218317C40074
:101C900013F717001DC35848232404003307E040FE
:101CA00018CC1848014501E713F707082DF3B24097
:101CB0002244924402494101828013F72700814661
:101CC00011E3544814C4F1BF8397C500011122CC1D
:101CD00026CA06CE4AC84EC613F78700AA842E84A9
:101CE00069E7D8416345E000B8416358E0085854BB
:101CF00049C703A9040023A004000C5093D7C74888
:101D0000B9CB70488357C400918B99C75C401D8E36
:101D10005C5899C33C401D8E5C540C50814626850E
:101D20008297FD57630DF5041C48056723220400C4
:101D30001CC08357C400F98F91C368C84C5823A0B6
:101D4000240185CD930744046384F5002685612131
:101D5000232A04021DA00146854626850297FD57C9
:101D60002A86E311F5FA9C40D1DF75476385E700C9
:101D700059476395E70623A024010145BDA098407B
:101D80008317C40001CFF5466305D700D946631910
:101D9000D7041C48232204001CC04DB71848232236
:101DA000040093D7C74818C041BF83A90501E38643
:101DB00009FC03A905008D8B23A0350133093941A6
:101DC000014791E3D84918C4E35920FB1C540C5037
:101DD000CA864E86268582976340A0028317C40078
:101DE00093E707042316F4007D55F2406244D24481
:101DF0004249B24905618280AA993309A940E9B7ED
:101E00009C49411106C622C426C281EB8144B240DE
:101E100022442685924441018280AA842E8401C5F1
:101E20001C4D91E31D2A971700009387A70C631D93
:101E3000F402C0408317C400F1DB7850058B11E732
:101E400093F7072099E3284C71242685A285AD3DA0
:101E50007C50AA84858BC5FF8357C40093F7072065
:101E6000DDF7284C8D2C65B7971700009387870600
:101E70006314F40080447DBF9717000093878703A5
:101E8000E31AF4FAC0447DB7411122C406C62A847D
:101E90002316B5002317C5002320050023220500C3
:101EA000232405002322050623280500232A0500F4
:101EB000232C0500214681451305C505EFE07F92DF
:101EC000971700009387A7865CD097170000938729
:101ED000E7881CD4971700009387078D5CD4971769
:101EE00000009387A78FB24000D01CD82244410144
:101EF0008280970500009385E5F0BDA2411126C2BE
:101F0000930780069384F5FFB384F4024AC02E89B8
:101F100022C406C693854407452E2A8401CD23207A
:101F2000050023222501310508C413868406814556
:101F3000EFE03F8BB24022852244924402494101A6
:101F400082801385018779A21385018769A2138591
:101F5000418749A213854187BDAA411122C406C603
:101F60002A84F5371C4C89C72244B2404101DDB7B1
:101F700097070000938727F81CD423240404232602
:101F800004042328040483A781856394870085477C
:101F90001CCC22853D2048C02285252008C42285EE
:101FA0000D2048C4484001469145F93D0844054686
:101FB000A545D93D48440946C945F93585471CCC56
:101FC00065B7411126C24AC006C622C42A89953F78
:101FD00083A481859C4C99E32685413793848404AE
:101FE0008044DC40FD1763D607009C40BDC384409D
:101FF000C5BF0317C40039EBC17785075CC413055F
:10200000840523220406F120813721462320040081
:10201000232404002322040023280400232A04008C
:10202000232C040081451305C405EFE08FFB232A10
:102030000402232C04022324040423260404B240B3
:10204000228522449244024941018280130484067D
:1020500051BF91454A855D3588C02A8449F9ED35DF
:10206000B1472320F900E1BF797122D44AD04ECE86
:1020700052CC5AC85EC606D626D256CA2A892E8A9D
:10208000130485048149054BFD5B0444832A440005
:10209000FD1A63D00A0200406DF8B25022549254E7
:1020A0000259624AD24A424BB24B4E85F2494561CF
:1020B000828083D7C400637BFB008397E40063873F
:1020C0007701A6854A85029AB3E9A900938484061C
:1020D000C1B78280828082805971A2D42E84839578
:1020E000E500A6D2CAD086D6B284368963D305026B
:1020F0008357C40093F7070895EB13070040B650C9
:1021000026542320F90098C006599654014565616C
:1021100082803000EF00C071E34C05FC3247BD67A0
:10212000F98F7977BA9793B71700C1BF8147130723
:102130000004F1B783D7C500797122D406D626D220
:102140004AD04ECE898B2E8491CF930774041CC045
:102150001CC885475CC8B250225492540259F249B7
:102160004561828074003000AA84BD37A2492A8963
:102170002685CE85912A01ED8317C40013F7072029
:1021800079FBF19B93E727002316F4007DBF9707A7
:102190000000938747D69CD48357C40008C008C862
:1021A00093E707082316F400B247232A340189CFA6
:1021B0008315E40026854D2501C98357C400F19B92
:1021C00093E717002316F4008357C40033E5270173
:1021D0002316A40049B7D1CD83A7C5FF011122CC96
:1021E00006CE1384C5FF63D307003E942AC6D12DC3
:1021F0001387C1871C43324581EB2322040000C3AF
:102200006244F2400561D1A5637DF4001040B3063D
:10221000C4006396D7009443DC43B29614C05CC0FC
:10222000F9BF3E87DC4399C3E37DF4FE14433306D4
:10223000D700631F86001040B29614C33306D70040
:10224000E390C7FC9043DC43B29614C35CC34DBF1C
:102250006375C400B1471CC165B71040B306C40024
:102260006396D7009443DC43B29614C05CC040C36D
:1022700041BF828041114AC01389818783270900A9
:1022800022C426C206C6AA842E8489E781459529E0
:102290002320A900A2852685AD217D59631A250139
:1022A0007D54B240228522449244024941018280F9
:1022B000130435007198E30685FEB305A440268516
:1022C0008921E31025FFE9BF011126CA9384350057
:1022D000F1984AC8A104B14706CE22CC4EC62A893D
:1022E000B3F4F40A63C4040063FDB400B1472320CF
:1022F000F9000145F2406244D2444249B2490561C5
:102300008280C1239389C18783A709003E8431E479
:10231000A6854A858537FD572A846316F50A03A4E6
:102320000900A287C1EB8329040081454A85A2994F
:10233000C92E6394A9081C408D044A859D8CF19890
:10234000B147A104B3F4F40AA6852D37FD576306FF
:10235000F5061C40A6971CC015A01440858E63C8C6
:1023600006042D47637DD70204C0330794006396AB
:10237000870223A0E9005C4014C35CC34A85B123F3
:102380001305B4009307440061993307F540E30354
:10239000F5F63A94898F1CC0B1BFD8C3E9BF584045
:1023A0006395870023A0E900D1BFD8C3C1BFA2872E
:1023B0004040B1BF3E84DC43B5B7B1472320F900AC
:1023C0004A8521233DB704C155BF1C46FD171CC6D5
:1023D00063DA0700184E63C5E700A9476394F50068
:1023E0006FF0AFF21C422E851387170018C22380AE
:1023F000B7008280011122CC26CA4AC84EC652C4F8
:1024000006CE2A89AE893284B304D6007D5A63147D
:102410009400014509A8834504004E864A85753716
:102420000504E31645FFF2406244D2444249B249F2
:10243000224A05618280357122CD26CB4AC94EC71A
:1024400006CF52C556C35AC1DEDEE2DCAA892E840D
:102450003289B68409C51C4D99E3EFF01FB0971778
:102460000000938727A96319F40403A449007C5052
:10247000858B81EB8357C40093F7072099E3284CA1
:1024800091398357C400A18B99C31C48A5E3A28549
:102490004E85EFF08FF339C97C50858BA1C37D55F4
:1024A000FA406A44DA444A49BA492A4A9A4A0A4BE3
:1024B000F65B665C0D61828097170000938787A1A9
:1024C0006315F40003A489005DB797170000938794
:1024D000679EE31EF4F803A4C90051BF8357C400EC
:1024E00093F70720CDFF284CFD3655BF9307000218
:1024F000A304F1029307000302D22305F10226C6CA
:10250000930B5002971A0000938ACAA0294BCA84E1
:1025100083C7040099C3639B7709338C2441638D7F
:102520002401E2864A86A2854E85E935FD57630D72
:10253000F5189257E2973ED283C7040063860718C6
:10254000FD571389140002C802CE3ECA02CCA3096B
:10255000010482D48345090015465685B126C24739
:102560009304190031E513F7070109C713070002A7
:10257000A309E10413F7870009C71307B002A309F1
:10258000E104834609001307A002638AE602F247CA
:10259000CA848146254603C70400938514001307A7
:1025A00007FD6374E60685C63ECE15A085048DB78B
:1025B00033055541B397A72826893EC861BF3247E6
:1025C00093064700184336C6634A07023ACE03C74C
:1025D00004009307E002631EF70403C71400930787
:1025E000A002631AF702B2478904138747009C438D
:1025F0003AC67D57B3E7E70A3ECA25A83307E0404D
:1026000093E727003ACE3EC8D9B7B3876703AE84B5
:102610008546BA9749B7850402CA8146814725464F
:1026200003C7040093851400130707FD6374E606CF
:10263000E1F683C504000D46171500001305058E4D
:10264000A52411CD971700009387478D1D8DC24794
:10265000130700043317A700D98F85043EC883C52C
:1026600004001946171500001305858B1389140003
:102670002304B102152C25CD9307000095E74247AE
:10268000B2471377071009CF91073EC69257D297EA
:102690003ED2B5BDB3876703AE848546BA9749B7C6
:1026A0009D07E19BA107D5B77800970600009386A8
:1026B000A6D422860C084E8597000000E700000093
:1026C000FD572A8AE314F5FC7C50858B89EB8357F0
:1026D000C40093F7072081E7284CEFF0DF9F835772
:1026E000C40093F70704E39C07DA125555BB780042
:1026F00097060000938646D022860C084E85F92C5A
:10270000C1B7411122C42A842E8523A0018806C6A0
:10271000EFE06FCFFD576316F50083A7018891C3E3
:102720001CC0B240224441018280411122C42E8447
:102730008395E50006C62523634905007C48AA97D2
:102740007CC8B2402244410182808357C4009397E1
:10275000C7482316F400F5B783D7C500011122CC72
:1027600026CA4AC84EC606CE93F70710AA842E84FE
:102770003289B68991C78395E500894601460122D1
:102780008357C4008315E400F2409397C74823168B
:10279000F4006244CE864A86B24942492685D24434
:1027A000056135A8411122C42E848395E50006C633
:1027B000F9207D578357C400631AE5009397C748F3
:1027C0002316F400B2402244410182809397C72827
:1027D00068C82316F400FDB78395E5003DA04111BC
:1027E00022C42A842E85B285368623A0018806C697
:1027F000EFE0EFBEFD576316F50083A7018891C394
:102800001CC0B240224441018280411122C42A846A
:102810002E8523A0018806C68529FD576316F5007D
:1028200083A7018891C31CC0B24022444101828029
:10283000411122C42A842E85B28523A0018806C6B0
:102840009129FD576316F50083A7018891C31CC029
:10285000B240224441018280411122C42A842E8543
:1028600023A0018806C62D29FD576316F50083A70E
:10287000018891C31CC0B2402244410182804111B1
:1028800022C42A842E85B285368623A0018806C6F6
:102890003129FD576316F50083A7018891C31CC039
:1028A000B24022444101828093F5F50F2A966314C9
:1028B000C5000145828083470500E38DB7FE05050D
:1028C000FDB71385C1866FF0FF801385C1866FF059
:1028D0009F80797156CA9C49BA8A984522D44AD0B9
:1028E0004ECE52CC06D626D25AC85EC6B3E7E70A09
:1028F0001CC203C73504AA892E843289368A19C3BB
:1029000085071CC21C4093F7070291C78327090063
:1029100089072320F9000440998891E8130B94015A
:10292000FD5B5C4403270900998F63CCF404834763
:102930003404B336F0001C4093F70702A5EB1306EE
:102940003404D2854E85829AFD576303F5041C40FA
:1029500011478144998B6399E70083270900444418
:102960009D8C8147B3E4F40A1C4418486354F70073
:10297000998FBE94014969047D5B639824050145E4
:1029800009A885465A86D2854E85829A631E7501AE
:102990007D55B250225492540259F249624AD24AA9
:1029A000424BB24B456182808504A5BF3307D400FA
:1029B00013060003A301C7040347540493871600BA
:1029C000A2978906A381E7049DBF85462286D2850A
:1029D0004E85829AE30E65FB050945B7797122D4CD
:1029E0004AD04ECE52CC06D626D256CA5AC803C8B2
:1029F0008501930780072A892E84B289368A63E28B
:102A00000703930720069386350463E107036300F9
:102A1000081E93078005170600001306E650630A98
:102A2000F814930424042301040515A89307D8F986
:102A300093F7F70F5546E366F6FE170600001306F8
:102A40002651B3C7C7209C43B29782871C43938407
:102A50002504938647009C4314C32381F5048547CE
:102A60004DAA90411C43137506089385470039C150
:102A70009C430CC3584063D207149305D002A301B2
:102A8000B40418C463500704B307F04017060000ED
:102A9000130686492948B68433F70703FD14329795
:102AA000034707002380E4003E87B3D70703E3759D
:102AB00007FF8DA09C43137506040CC345DD939757
:102AC00057604DBF6D9A10C0C1B790411C4313753C
:102AD00006089385470001C50CC39C4339A01376B3
:102AE00006040CC37DDA83D707001307F006170628
:102AF0000000130666436310E80C2148A301040498
:102B0000584018C4E34907F80C40ED990CC0C1F7D0
:102B1000B68451F3A147631EF8001C40858B91CB0E
:102B200058401C4863C7E70093070003A38FF4FED7
:102B3000FD14858E14C85287CE867000A2854A8502
:102B4000493BFD5A631B550D7D55B250225492549A
:102B50000259F249624AD24A424B456182809C4105
:102B600093E707029CC113088007170600001306AD
:102B7000E63CA30204050C401C4313F8050813852A
:102B800047006305080008C39C4301A813F8050427
:102B900008C3E30B08FE83D7070013F7150001C72E
:102BA00093E505020CC099C3414889BF18401377CB
:102BB000F7FD18C0D5BF294891B7170600001306C6
:102BC000A636294835BF90411C43CC4913780608E6
:102BD000138547006306080008C39C438CC301A803
:102BE00008C3137606049C4375DA2390B7002328A4
:102BF0000400B68489B71C43D041814593864700C1
:102C000014C3844326854D3101C5B30795405CC08C
:102C10005C401CC8A301040439BF14482686CE8535
:102C20004A85029AE30255F31C40898B85E74844A4
:102C3000B2473365F50A11BF85465686CE854A856B
:102C4000029AE30365F185045C443247998FE3C53A
:102C5000F4FEF1BF8144930A94017D5BF5B7411105
:102C600022C42A842E85B285368623A0018806C612
:102C7000A120FD576316F50083A7018891C31CC0EE
:102C8000B2402244410182809307800523A0F1884D
:102C90007D5582809307800523A0F1887D55828031
:102CA0009307800523A0F188014582809307800562
:102CB00023A0F1887D5582809307800523A0F188A9
:102CC0007D558280537461727420404368697049F5
:102CD000443D253032580A005761697420446576B6
:102CE00069636520496E0000414F41204D6F646566
:102CF00000000000554E4B4F574E204465766963E7
:102D00006500000040340000000004004034000072
:102D100001000C00403400000200130040340000A9
:102D2000030004004034000004000E0040340000A2
:102D300005000E000ADDFFFF22DDFFFF46DDFFFF7D
:102D400050DDFFFF66DDFFFF5553422064657620AE
:102D5000696E000055534220646576206F757400DB
:102D6000774C656E6774683A2025780A0000000089
:102D70006252657175657374547970653A2025786F
:102D80000A00000053656E643A2025640A000000C2
:102D90002530327820000000526573657420686F1A
:102DA000737420706F7274007825303258200000E0
:102DB00047657443666744657363723A2000000098
:102DC0005553422D4469736B20526561647900004C
:102DD0005553422D5072696E7420526561647900BA
:102DE000416E616C797A65486964496E74456E64B8
:102DF0007020253032780A005553422D4B65796298
:102E00006F61726420526561647900005553422DF0
:102E10004D6F757365205265616479004D6178204E
:102E2000506F72743A253032582000004578742D66
:102E300048554220506F72745F2531642320706FB3
:102E4000776572206F6E206572726F720A000000E3
:102E50005553422D48554220526561647900000067
:102E6000496E6974526F6F744465762045727220A2
:102E70003D20253032580A0044697361626C652038
:102E8000686F737420706F7274206265636175730C
:102E900065206F6620646973636F6E6E656374008E
:102EA00047657444657644657363723A2000000098
:102EB0000000000000000000000000000000000012
:102EC0000000000000000000000000000000000002
:102ED00000000000000000000000000000000000F2
:102EE00000000000000000000000000000000000E2
:102EF00000000000000000000000000000000000D2
:102F000000000000000000000000000000000000C1
:102F1000232D302B20000000686C4C00656667454F
:102F20004647000030313233343536373839414284
:102F300043444546000000003031323334353637E3
:102F400038396162636465660000000000FBFFFFC2
:102F500016FBFFFFD6FAFFFFD6FAFFFFD6FAFFFFF8
:102F6000D6FAFFFF16FBFFFFD6FAFFFFD6FAFFFFE8
:102F7000D6FAFFFFD6FAFFFF7AFCFFFF7EFBFFFFCA
:102F800012FCFFFFD6FAFFFFD6FAFFFFAAFCFFFFF5
:102F9000D6FAFFFF7EFBFFFFD6FAFFFFD6FAFFFF50
:042FA0001AFCFFFF19
:022FA40001A08A
:102FA800574348005743485541525444656D6F0094
:102FB800574348204163636573736F727920546582
:102FC800737400312E3000687474703A2F2F776351
:102FD800682E636E005743484163636573736F726D
:102FE8007931000000000000F02E0000D02E000013
:102FF800B02E0000000000000000000000000000EB
:1030080000000000000000000000000000000000B8
:1030180000000000000000000000000000000000A8
:103028000000000000000000000000000000000098
:103038000000000000000000000000000000000088
:1030480000000000940900207007002000041023ED
:10305800273543004035000000000000C033000061
:103068000000020000090000000000000005020046
:103078000000000080060002000004008006000135
:1030880000001200A00600290000090081060022A5
:1030980000004100210A0000000000007007002025
:00000001FF
