:081000006F1000574818002092
:101008000000000000000000C20300203E03002092
:10101800A9BDF9F3F0650100000000000000000020
:10102800F0650100F065010000000000000000000C
:10103800F065010000000000F065010000000000FC
:1010480000000000F065010000000000F0650100EC
:10105800F0650100F0650100F06501000000000086
:10106800F06501000000000000000000F0650100CC
:1010780016040020F0650100F0650100F06501002C
:1010880000000000F065010000000000F0650100AC
:101098009307000C01116318F50493078008F3B750
:1010A800078093F787083EC00F100000B71700406D
:1010B800130770052380E704130780FA2380E704E9
:1010C8000F100000F83713670704F8B7982713675D
:1010D800070C98A7238007048247F3A707800F10FF
:1010E800000005618280B7170040B827118B69EBB3
:1010F80083C6E7041307800893F6F60F7336078054
:101108001376860832C20F1000001308700523807A
:101118000705930580FA2380B7040F10000003C663
:10112800E704136636002387C704B0271366460012
:10113800B0A7238007041246732606800F1000000C
:1011480090271376F60F73370780137787083AC40A
:101158000F100000238007052380B7040F1000003C
:1011680098271367070C98A723800704A247F3A7BB
:1011780007800F100000A5470100FD1793F7F70F30
:10118800E5FF93078008F3B7078093F787083EC603
:101198000F100000B7170040130770052380E704FD
:1011A800130780FA2380E7040F10000090A7238715
:1011B800D70423800704B247F3A707800F10000065
:1011C8009377050C13070004639DE70893078008CD
:1011D800F3B7078093F787083EC80F100000B717CA
:1011E8000040130770052380E704130780FA238063
:1011F800E7040F100000B827854613670701B8A752
:1012080037270040A303D7808346578093E606011B
:10121800A302D78023800704C247F3A707800F10D3
:10122800000093078008F3B7078093F787083ECE3E
:101238000F100000B7170040130770052380E7045C
:10124800130780FA2380E7040F100000F83713759E
:10125800F50F13670704F8B788A723800704F24738
:10126800ADBD9377F5019DCF93078008F3B707804D
:1012780093F787083ECA0F100000B71700401307FE
:1012880070052380E704130780FA2380E7040F1012
:101298000000372700408946A303D780238007042E
:1012A800D247A5BF93078008F3B7078093F787084D
:1012B8003ECC0F100000B7170040130770052380BD
:1012C800E704130780FA2380E7040F10000037278C
:1012D80000409D46A303D78023800704E24735BF1B
:1012E8000111814601468145114506CE973000E03F
:1012F800E780A06593078008F3B7078093F787080E
:101308003EC60F100000B717004013077005238072
:10131800E704130780FA2380E7040F10000003C7CF
:101328006704136717002383E70423800704B24781
:10133800F3A707800F100000F24005618280411179
:101348008146014681451145973000E0E780E05F1E
:1013580013078008F337078093F787083EC40F10F8
:101368000000B7170040130670052380C7049306D2
:1013780080FA2380D7040F100000FD55CEB72380D4
:101388000704A245F3A505800F10000073370780F6
:10139800137787083AC60F1000002380C7042380FC
:1013A800D7040F10000003C76704136717002383CF
:1013B800E70423800704B247F3A707800F10000053
:1013C80001A001A0E5473305F50201007D1575FD73
:1013D8008280411122C406C62A841305803E7D14EA
:1013E800D5373344040875F8B2402244410182805D
:1013F8004111B7170040985F3AC6945F3247E39CA3
:10140800E6FE324541018280B7E700E03707001069
:1014180023A0E7208280B717004013070003238822
:10142800E702854723AAF19273002030411106C6CE
:101438000129FDBF230304801547A2872303E48005
:10144800010001002302A48003C767806207618747
:10145800E34C07FE2382A780228783476780E20741
:10146800E187E3CC07FE828023030480154723032A
:10147800E480010001002302A48082808307648045
:10148800E3CE07FE23030480828083076480E3CED3
:1014980007FE03454480828083076480E3CE07FE0D
:1014A8002302A4808280411126C44AC24EC006C6C7
:1014B8001377F50BAD47AA892E8995446306F70083
:1014C80019455D37653F8D444E85793FFD59FD14BB
:1014D80063983401B240A244124982494101828092
:1014E800135509011375F50F453F2209CDB70111B1
:1014F80026CC06CEB704080051371545B5377137E5
:1015080069372AC6A53F32459377150089EB1365DD
:1015180015001375F50FF240E24405618280FD1451
:10152800E9FC0145CDBF411106C6B71700401307B6
:1015380070052380E704130780FA2380E70403C7B4
:1015480047041305F00F1367070E2382E70491473A
:101558002303F480C535B24041010DB7011126CCF3
:101568004ACA4EC852C606CE2A89AE89B284554A9E
:101578005D3F91E82137F24026855249E244C2494D
:10158800324A05618280CA850945313F910903A71E
:10159800C9FF91472320E48003076480E34E07FED8
:1015A80023034481FD17EDFBFD14110981C49377D2
:1015B800F90FE9FF2D3F55FDFD5475BF011126CCEC
:1015C8004ACA4EC852C656C45AC206CE2A89328A58
:1015D8008D49913FC164C16A056B9387F4FFB3F7E6
:1015E800270199E363719A02FD199180E39709FE37
:1015F80071350145F240E2445249C249324AA24A91
:10160800124B056182801305800D63885401130510
:1016180000026384640113051008CA856935C13D59
:1016280009C52699330A9A4075BF7D55E1B701115E
:1016380006CE26CC4ACAB2844EC82AC62E89E535BB
:101648003245FD14FD59AA852D45B13D639A3401F3
:101658003535F24026855249E244C2490561828007
:101668002D3593F7340091EB832604800327090076
:1016780093074900E39EE6FC3E89FD14C1BF0111B2
:1016880006CE2AC64D353245C533F2400561FDB355
:10169800011106CE26CC4ACA4EC852C6AA8956C4DB
:1016A8002E895135CE852D45FD3B81448D4A214AF1
:1016B800E93B63965401832704802320F9008504BD
:1016C800E39844FF8327048013972901635C07008C
:1016D8002312F900F240E2445249C249324AA24A6E
:1016E800056169BB2322F900F5B7411106C626C476
:1016F8004AC24EC0AE89053D81451305B004653325
:10170800BD447D59593393F77400CE9703C707003A
:10171800FD14398D2380A700E39624FFB240A2442C
:1017280012498249410199BB411106C6ED3B130597
:1017380060061D3BA133130590093D33B2404101BA
:1017480035BB411122C406C69727000083A7471A54
:101758001384818491C782971C40AA971CC021A03A
:1017680083A70196EDFB0840B74703009387D73F4F
:101778003305F502B7A72600938737ECB2403E95AC
:1017880008C022444101828037E700E01C43B706C5
:1017980020002320D718F58F0F10000019C191C120
:1017A80011E637E700E02320F71082802E960F70AD
:1017B800B650D5BF411126C2B7E400E022C480402C
:1017C800B706200006C6758C23A0D4180F10000099
:1017D80011C111EAB7E700E023A08710B240224404
:1017E800924441018280972000E0E780C0E523A071
:1017F8008410EDB737E700E01C43B706200023202C
:10180800D718F58F0F10000001C599C1014711EADB
:1018180037E700E02320F710054582800507E30934
:10182800E6FE3308E500B386E50003480800942285
:10183800E306D8FE37E700E02320F7100145828051
:10184800797122D406D626D24AD04ECE52CC56CA68
:101858005AC85EC662C4138481951C40DDE3972490
:1018680000009384E40413898196032709009C20CF
:1018780094300146B3A5E7208E21D1C511C29CA0A2
:1018880088206369D50897270000238307021C4036
:10189800F9E39389019683A70900D5CF138A419567
:1018A80003240A004DC8972B0000938BAB0583A730
:1018B8004B0037C9C901014B9CC41309F937972A52
:1018C8000000938AEA003E20D5E75C4463110B0AC6
:1018D8002320FA00032CC40022856921628465F460
:1018E8009727000083A70701BDC72254B25092541E
:1018F8000259F249624AD24A424BB24B224C4561E4
:101908009DAB829799BF850793F7F70F0546E3E3E9
:10191800D7F6B5B73327E5200E23231007009727FE
:101928000000239A07F883A74196B347F5209C4304
:1019380082979C2083260900FA20B3A6D7209222FA
:101948003377E540518F9AA299C385079CA09820C8
:101958009C30E37AF7F2B250225492540259F24979
:10196800624AD24A424BB24B224C456182802326BE
:10197800FB008DB783A7090082971C443307F54005
:101988006376F50003A74B001D8F2A976369E90268
:101998002E200820976001E0E780C0EA5C4095D7D8
:1019A800104483A64B00B2973E8763E4C70063E404
:1019B800D7003387D74018C4228B40440DB703A7FC
:1019C8004A027DDB63E9A7023385A7401C2099EF13
:1019D80003C76A0183A64B005117B307A7003E85CA
:1019E80063E4E70063E4D7003385D7409C44E3759C
:1019F800F5FC88C4D1B703A74B00BA97F1B7B7C7AE
:101A080000401387C72014431396264910C30F10AC
:101A1800000093878726172500000325A5EA9C4325
:101A28006A0514C393C7F7FF99835D8D82804111BE
:101A380026C29384419E984006C622C43C4393D74D
:101A48006748B1C3930700063CC39727000083C7C4
:101A580067FC93F70704172400001304A4FB99CB31
:101A68009727000083A707EA829748C41C2093F7AA
:101A7800F70B1CA01E2481CB03A7C19F7CD39727FB
:101A88000000239D07F898403C4393D7474899C7DF
:101A9800C1473CC383A7C19F23A2070603A7019E92
:101AA8005C4393D7174899C323220700B2402244C6
:101AB800924441018280A53F7300203083A6C19FD4
:101AC80017270000130707F51C23858B91E71C33A4
:101AD800858B99E3FC52EDFB828097260000938664
:101AE80026DFDC5285C7B7E700E03707200023A0D0
:101AF800E728B7F700E0938707D0984B6D9B98CB02
:101B0800984B1367870398CB7300501097270000F2
:101B1800A38207F01387C19F1C43054690C3DC527C
:101B280099CBB7F600E083A706D193E7870023A8EF
:101B3800F6D073005010184397260000938686ED60
:101B48009C22858B99E37C53E5FF828001119727BE
:101B58000000238207EC4AC897270000A38D07EAF4
:101B6800172900001309C9D68327490222CC06CEBB
:101B780026CA4EC62A842E85B28585C7B7E700E0F7
:101B88003707200023A0E728B7F700E0938707D09E
:101B9800984B6D9B98CB984B1367870398CB730032
:101BA800501085479389419E9384C19F6315F4061D
:101BB8000146976001E0E78040DB83A70900984071
:101BC8009C43A1838D8BA9E7930760197CD3832756
:101BD800490299CB37F700E0832707D193E78700BD
:101BE8002328F7D0730050109440172700001307DC
:101BF80067E23C23858B91E73C33858B99E3FC5264
:101C0800EDFBF2406244D2444249B2490561828008
:101C18009307E01B65BF976001E0E78060CE83A76C
:101C2800090098431317872998C3D85B719BD8DBA1
:101C380059FC97270000A38F07DC9C40094798C3ED
:101C480079B703A7C19F1C475447F58FB70604000F
:101C58001CC7FD8E91CAFD5634D7172600001306FF
:101C680026C5544A850654CA93F6870095C2972616
:101C7800000083C646DA93E6160017260000230CF8
:101C8800D6D803A6419E545AF19A93E6160054DA20
:101C980093F6170095C29726000083C6B6D793E639
:101CA800160017260000A307D6D603A6419E545A4D
:101CB800F19A93E6160054DA93F667009DCE918B5D
:101CC80083A5419E972600009386C6D4ADCF9C413C
:101CD800A1838D8BB5E7DC4A9C43A18313F6F70FEC
:101CE80021E2930730055CCF9C2293E717009CA262
:101CF800DC59F19B93E71700DCD983C7819FB9CFE3
:101D0800238C019E83A7419FA1C7411106C68297D4
:101D180083C7819F99E323AA019EB2404101828033
:101D2800304B13F5C70F13760602498E01C6930789
:101D3800100655BF93F7F70F8A079387370565B7DE
:101D4800930720064DB7BC3293E71700BCB24DB7D6
:101D580083C7819F81E723AA019E82808280D5352F
:101D680073002030B7E700E003A80700370720001A
:101D780023A0E7183378E8000F10000003AE41A84D
:101D880003A3C1A7F287814663F6670883A8070003
:101D98006367F50863E5A80813878700636CE506A1
:101DA800F223216705076317E6001386B19C182202
:101DB800050718A297250000938585AFD223DA215D
:101DC80023930700329733470708DAA16381C703D3
:101DD80003A501A8630DF500EA2211E9DE2223A07C
:101DE800160121073E962106D2A2DAA1B6879843AA
:101DF8006302670283A601A8630ED700762399EAD7
:101E0800D62352231843A106B296D6A398C3DE213F
:101E1800A107DEA1B7E700E023A007118280BE86F4
:101E2800C6879DB703A7C19F3C5BFDFF010001006A
:101E38008280011122CC26CA06CE2AC42EC61724B7
:101E48000000032424D1854419E0014505A09C84A1
:101E58001830858B6304F7000044FDB719469305D5
:101E6800A100130524007932E31895FEF24062447C
:101E7800D2440561828041114AC017290000130924
:101E880029A30327890006C622C426C251CF834648
:101E9800190003A68196814763CED70897260000CC
:101EA80083C696B79547972400009384A4B663ED3C
:101EB800D70683C7819FADEB17240000130484A4C1
:101EC800544083A70196631DD7068297544037472D
:101ED80036FE130707C83697B307A7003E8563E4A5
:101EE800E70063E4D7003385D740DC4889CB83A675
:101EF800C1A09C463707CDFF7D17F98F9CC611E11D
:101F080048409727000083A7E79E829709E5DC48A9
:101F180081CFA9228128DC4881CB03A7C1A01C4717
:101F2800B7063300D58F1CC7B240224492440249F9
:101F380041018280B3A5C7208E21FDF58507A9BF81
:101F48008297832689005840B387A6003E8563E4BC
:101F5800D700E3ECE7F83385E74041BF99E123ACCC
:101F6800A1948280B707020003A7419EE1071CDF06
:101F7800930700055CDF9307F0031CD3B7E600E086
:101F8800D147A389F60497070000938707B393E71F
:101F98001700FCD65C5B9726000083C6A69493E6E0
:101FA80006049E07E6069D83D58F5CDB828014318C
:101FB800AA871387260089CA03A6C19F304A1356E9
:101FC800564819C21387660093063700BE969022BA
:101FD800054805451376F607631C060381C53E9739
:101FE800382398A188330DC583A7C19FBC4B0145F1
:101FF80093D7574891CF9C22054793F6F7066398E5
:10200800E6009397476063D50700394582801945F4
:10201800828083A7419E9843B706FDFFFD1603A65D
:10202800C1A0758F1DC198C39843758F13171729C1
:1020380098C31C4637073300D98F370703001CC6DF
:10204800598D83A7C19FA8CB82801317072998C3EE
:102058001C463707CEFF7D17F98FC5B7238C019E25
:1020680023AA019E83A7C19F1307C008D8CB930654
:102078002006D4CFD8D313068005D0D7D8DBD0DF3D
:10208800F8C3F4C713078007FAA323AA070417277E
:10209800000003276799F8DF7D5798C737071600B0
:1020A8003D07D8C737E700E0D5472309F704970766
:1020B8000000938707CB93E717003CD78280896796
:1020C80003A7C19F938707F47CD383A6C1A083A7E6
:1020D800060993D7A74991C783A7060993D79749B4
:1020E80099E37C53EDF78280411126C29384419E87
:1020F800984022C406C65C5B17240000032404A38E
:1021080013058025F19B93E717005CDB193703A7BC
:10211800C1A05C57F59B5CD7944038289C42137744
:10212800F70793F707F8D98F9CC25830854763079C
:10213800F700228597F000E0E780202103A6C19FE1
:102148005C42B70500FF014593E717005CC29C405D
:1021580083464405D85B93E60604E6061E071D83FE
:10216800558FD8DB37C7898E130767EDD8C7B8D323
:102178003757550013075755D8C3B8CF9847B706F0
:1021880080009386D6326D8F558F98C7F84F6D8F24
:10219800558FF8CF894717270000A30FF7863C40D3
:1021A8003CDE834524053034EFF05F9A2244B24088
:1021B80092448145170500001305451E410179BB6E
:1021C800011106CE22CC26CA4AC84EC652C4642182
:1021D800A30205008547639CF416172700000347F0
:1021E800B78395472A846313F70262440C39F24097
:1021F800D2444249B249224A01450561B315B02883
:10220800B3C50508175301E06700C36338398D4724
:102218006317F70AEFF0EFD20D89630C051063130B
:102228009512930760023CA8930750025CA8930795
:10223800700278305CB88547630EF7041719000000
:102248001309496C8327090083491401829783275E
:102258000900035A8401AA84829703578900937757
:10226800F500D297B387E702130700649387073214
:10227800B3D7E7020327490033859700AA8563642B
:10228800F5006364E500B305E5404E85975001E02D
:10229800E780A05F85472304F4029727000083A7FF
:1022A800278AD5E70945975001E0E780E07E624438
:1022B800F240D2444249B249224A056135B58946BD
:1022C8001C356315D70213F7170019CB898B130731
:1022D800500291EB9307700238A85CA8814791BF20
:1022E80013076002C5BF93076002FDB799CF93F645
:1022F80017001307500291E6898B13B717001307CD
:10230800670238A8230A0400D1BF5C2913074002DA
:102318006368F700930750025CA85C283CA87DBF5F
:10232800850793F7F70F5CA913077002E364F7FEBC
:10233800EDB713077002930750025CA838A89307FB
:102348006002C5BD1307500293077002FDB7F24043
:102358006244D2444249B249224A056182805839CE
:1023680001CB34296312D70217F300E06700A323D7
:102378005C29FDDB3829E309F7FE3CA981451705EF
:1023880000001305A5D6D9BE5C2989C7E397F6FED8
:1023980038A9EDB7F1FAEDBF41119717000083C7CF
:1023A800876722C406C6858B1714000003240478A7
:1023B80095CB382489476307F702130650028145F5
:1023C8000545EFF0AFF89717000083C7D764858BF2
:1023D80091CB2244B2408145170500001305E50161
:1023E8004101ADBE975001E0E78060662285224436
:1023F800B2404101ADB7411122C4171400000324B3
:10240800E472684001469305E40006C626C24AC045
:10241800793E631A05126C407D479C3193F7F703A8
:102428005CA4E91793F7F70F636FF7109C21BD8B36
:102438005CB4F51793F7D70F639707101309A40235
:102448001946A1054A85EFF0EFBA630E050E6C40F8
:102458008544230C94029C211305A403194693D7A1
:1024680067488905A30CF402EFF00FB2228597F0B4
:1024780000E0E780C00C61C9543415473C24639BD5
:10248800E60263E2F40C9717000083A7A747829738
:1024980048CC228597F000E0E780C0F56310950CE2
:1024A80022852244B24092440249410117F300E0D8
:1024B8006700E32C81C719476397E7088304E400A2
:1024C8002D45974000E0E780E0091315456063CC8F
:1024D800A4067C389146094799073CB43C4034A48B
:1024E80058B094A33C40343494B383479402858B0A
:1024F80089E7834784026397E70038401C2393E702
:1025080007041CA32840CA8519460905EFF0CFA780
:10251800284070384C502105EFF00FA7834524055B
:1025280030340D45EFF08FE2975001E0E7802052FC
:102538002244B24092440249814517F500E0130550
:10254800C50C410121BC975001E0E780405022852D
:102558002244B24092440249410111B5B24022449A
:08256800924402494101828006
:1025700097010020938181A117110020130181A8E8
:1025800017F5FFFF130585A897E5FF1F938585A71E
:1025900017F6FF1F130686FD63FAC50083220500A8
:1025A00023A0550011059105E3EAC5FE175501006A
:1025B000130585E997F5FF1F938545FB13868190E9
:1025C00063FAC5008322050023A05500110591057B
:1025D000E3EAC5FE13858190970500209385455950
:1025E0006377B500232005001105E36DB5FE930266
:1025F0005002739002BC8D4273904280854273906A
:1026000012BC8962938282887390023097E2FF1F26
:102610009382429F93E232007390523097120000EF
:102620009382222C73901234730020302A8309CABB
:1026300083830500230073007D16050385056DFA6D
:1026400082802A8311C62300B3007D16050365FE30
:102650008280371700408347E70412054111BD8B84
:10266000C98F93F7F70F93068008F3B6068093F6A9
:10267000860836C60F100000930670052300D704A5
:10268000930680FA2300D7040F1000002307F704F5
:1026900023000704B247F3A707800F100000410191
:1026A0008280011126CA06CE22CC8947B314A02805
:1026B00063F9A700954763EAA70A93042500B314BA
:1026C0009028B717004003D70705B166558F2398A8
:1026D000E7041307800873370780137787083AC623
:1026E0000F100000130770052380E704130780FA1A
:1026F0002380E7040F10000003C737051375F50F9B
:1027000013670708A389E704A389A70403C737054C
:1027100013670702A389E70423800704B247F3A7DE
:1027200007800F10000081470146B716004003D70D
:102730000605131757606352070403D7060583C6BF
:10274000260513948700931727013694C9833A040A
:102750003E94C12C33549402F240D2443355850246
:10276000624423A4A19005618280994793040040AC
:10277000E309F5F49304F07FA9B703C72605937521
:10278000F70F6373C70085072E8655B741113A8E40
:102790002A838148930E407E130F0019930F400641
:1027A00063EF6E14130700193377E502854E0D4F62
:1027B000994FFD4263E1BE1861477D1603A58190E4
:1027C0004696AA85B3F6E602130780703387E602C1
:1027D000F946330EDE0293D61700858B7297369733
:1027E00091E38145B307A602A166FD161306302AC0
:1027F00013D8F700F58FB387C7021166B385A5021A
:102800003307A702B29513F6F71F1E06BD81A583F5
:10281000F98EB3A6C6203D83AE96BA9713D70601AC
:10282000BA972D671307078C33D6E702B3C606089D
:1028300033F7E70242964207558FB716004083C729
:10284000F60293F70708DC838C8383C7F60293F7BD
:102850000708E396F5FE9C83B716004063810712D4
:1028600093078008F3B7078093F787083EC40F10DB
:102870000000B7170040930670052380D704930625
:1028800080FA2380D7040F100000D0DB83C6170323
:1028900093E60608A388D70223800704A247F3A77C
:1028A00007800F1000001166B71700407D16D45B3B
:1028B000CC5FAD8EF18EE5FE93068008F3B6068000
:1028C00093F6860836C60F10000093067005238025
:1028D000D704930680FA2380D7040F100000D8DBBA
:1028E00003C7170313670704A388E70223800704BD
:1028F000B247F3A707800F100000410182807D13CB
:102900003377E3031308E01601CF3377F30313089B
:10291000D01619C713783300133818001308D816C7
:10292000C298BDBD13F81500F91563FBBF029305EE
:10293000E801AE989A851383F5FFE395E5FF854599
:1029400001CF13084006337805038145630608006C
:102950009375350093B51500F105AE989A8599BD2C
:10296000B3850241DDBF83C7F60293F70708DC8316
:102970008C8383C7F60293F70708E396F5FE9C83E2
:10298000FDD3F9BD0D06719A81473307F5006393B6
:10299000C700828014433387F500910714C3F5B74D
:1029A000914763ECB704973701009387A72EB3C50F
:1029B000F52098413E97B71700409387470B028751
:1029C000944337170040B3F6A64094C39306070B11
:1029D0009C42B3F7A74019A8944337170040B3F6B9
:1029E000A64094C39306070B9C42C98F9CC29307D1
:1029F000070A98433377A74098C3828094433717D8
:102A00000040C98ED9B798433377A74098C3B7170A
:102A100000409387070A9843498FF9BF9843498F2D
:102A2000F5B7B717004098279306000C1377070CEB
:102A30006315D70003A58190828098279306000430
:102A40001377070C6310D702942713070002FD8A3F
:102A500099C298277D8B3745C323130505603345FD
:102A6000E5028280942713070002FD8A99C2982705
:102A70007D8B3755E80113050580D5B737E700E0B2
:102A80001C435443A183E206D58F1CC1FD5723206C
:102A9000F7182322F7180F1000008280B7F700E024
:102AA000884782803285814737370040A14663C31B
:102AB000A70082800346B740E30ED6FE3386F500BA
:102AC000102285072304C740DDB797F6FF1F9386C2
:102AD000E6CBAA8788421707002013076709AA9741
:102AE00063E9E7000A87130707FC6364F7009CC2E9
:102AF00082807D558280411122C406C62A84153702
:102B00002947B307E502B2408D83B3D78702224439
:102B10009507B3D7E70237370040B3C70708231636
:102B2000F74041018280716541111305052006C6F9
:102B3000D937B7370040130710F82381E7400D4716
:102B4000A381E74013070004A380E74005472387DC
:102B5000E740B24041018280371700403E2FB3C7A3
:102B6000070893F707FCB3C707083EAF09C93E2F14
:102B70008E055D8ED18DB3C505082EAF8280828013
:102B8000AE87B285902309470545631FE602DC4303
:102B9000294598239C33A207D98F4167130717EE65
:102BA0006394E70285C283A7019189CFDC4399CB67
:102BB000411106C6014513F6F60F8297B240014552
:102BC0004101828001458280828098218947631C6F
:102BD000F704DC4198239C33A207D98F4167130780
:102BE00017EE639EE70232852390060003C6C1906C
:102BF0001DCE411192A29385C1AB06C697E0FF1F7F
:102C0000E780C0B82386019083A7019189C79C43C0
:102C100099C301458297B2400145410182802390CA
:102C200006002945828023900600054582800145E3
:102C30008280058909CD97F6FF1F9386269341462A
:102C4000914517F5FF1F130525936F50E03301459C
:102C5000828009C523A8A1900145828045458280D4
:102C6000130740026360C70241111385C1AB06C65A
:102C70002386C19097E0FF1FE78040B1B240014535
:102C8000410182801305E00F8280411122C480251A
:102C900006C6137404023DE883CE05000948639913
:102CA0000E0703A84500834E0800034818002208B9
:102CB0003368D801C16E137FD8FF851E630EDF0114
:102CC0008D679387279029446312F8022244B2400B
:102CD000854741016F30D01D15EF0547639EE60221
:102CE000D845142214A303A7419211E7B2402285CC
:102CF000224441018280184375DBC8459387319295
:102D00001D8D3335A00006050297CDB72144F9BFCC
:102D10000544E9BF2D44D9BF3544C9BFAD4725E7B8
:102D2000982189476313F706DC41328598239C3349
:102D3000A207D98F4167130647FE638AC700636FF6
:102D4000F600FD070547B3C70708636BF702854721
:102D50009EA2DC459C231CA1814735A015176391D9
:102D6000E702CC45954741119EA2154606C697E05D
:102D7000FF1FE780A0A1B24081473E8541018280CC
:102D800023900600A9473E85828023900600854750
:102D9000DDBFC167F917630CF502411122C406C6F5
:102DA00085472A84639AF50022852244B2409385A0
:102DB000C19141016F50002789476396F500854511
:102DC000EF60E03675D1B2402244410182808280BA
:102DD000411122C42A8441659385C1917D1506C69F
:102DE000EF504024170500001305E5FA0588EF6051
:102DF000202C05C02244B24097E6FF1F9386867CB4
:102E00004146C54517E5FF1F1305857C41016F50FD
:102E1000A017B240224401454101828009C523A286
:102E2000A19201458280454582801147636FA706C4
:102E300097360100938646E73345D5201841AE8783
:102E4000B28536970287054761456396E7001C22E5
:102E5000A381F1920145828005476145E39DE7FE2C
:102E60001C222381F192FDB705476145E395E7FEFA
:102E70001C22A380F192F9BF05476145E39DE7FC61
:102E80001C222380F192F9B715476145E395E7FCD1
:102E9000411113854191154606C697E0FF1FE78053
:102EA000E08EB24001454101828009458280114790
:102EB000AA876367A70417370100130727E0B3C782
:102EC000E7209C432E85BA97828783C731921CA145
:102ED0000145828083C72192DDBF83C71192C5BFA0
:102EE00083C70192EDB7411115469385419106C6FE
:102EF00097E0FF1FE7808089B24001454101828051
:102F000009458280B287411113962500BE8506C609
:102F1000953CB240014541018280011122CC26CA74
:102F2000939625002A84B284AA850146054506CEDB
:102F300036C6EF005021B2462686A2850945EF002D
:102F40009020F2406244D2440145056182805D7167
:102F5000A2C486C62E849397556063DD0700EF00F8
:102F6000503E19C1EF00B0321315F468B640264444
:102F70006161828093F7150013C51500E5FB896731
:102F8000ED8FB1C3EF80901B1945EFF08FF1AA854B
:102F900023A8A1920A85D92A51468A856810EFF0A4
:102FA000EFE86810EF104052F52437F60200239C3A
:102FB000A192130606E0896503C5C192EF00706A0D
:102FC0001315D46865B711656D8D4DD117350100A6
:102FD000130505D0EF10113213060064916503C587
:102FE000C192EF0010681315E46849B75D715D4642
:102FF00097350100938505CE1735010013050501AE
:1030000086C6A2C497D0FF1FE780007F01E917356D
:1030100001001305A5CDEF10F12D01A0B7F700E0D9
:1030200023A40700795798CB3D4798C3930780089E
:10303000F3B7078093F787083EC00F100000B7175B
:103040000040130770052380E704130780FA2380EC
:10305000E7040F100000B847B70600C1FD16758FD2
:10306000B706000E558FB8C7238007048247F3A721
:1030700007800F10000097E7FF1F9387C7BC23A4AA
:10308000F192130700F8B7E700E0A38AE7401306C0
:1030900040038145680097D0FF1FE780E07197F7F4
:1030A000FF1F9387E7A005643EC6930704E0FC80FA
:1030B000E17793C727812310F102B7B703003ECA17
:1030C000B7070103938707103ECC9307B002FC8635
:1030D0008547230FF100970700009387E7E23EDC66
:1030E000B7F5030097070000938767E33EDE81464C
:1030F000970700009387C79A5000E10519453ED60F
:10310000EF00700419464C0013053102EFF00FD2A6
:10311000B24791C7BC801304F4BF6363F40001A0FD
:103120006800EF10E014AA8501C9173501001305E6
:1031300025BDEF10510801A0B64026446161828090
:103140004111170500001305C5E006C622C4EF10A3
:10315000800F1384C19208A02D2808202244B24079
:1031600013060032896541016F00B04F17D7FF1F6A
:103170001307472818C13707C0A858C105671307A8
:10318000479C3AA517D7FF1F130747280EA518C954
:103190008280397126DA06DE22DC4AD84ED652D435
:1031A00093048008F3B7048093F787083EC20F109A
:1031B00000003714004093097005230034051309FB
:1031C00080FA230024050F1000008347F40293E7E0
:1031D0001700A307F402230004049247F3A7078013
:1031E0000F1000001945EFF0CFCB138A0193AA8589
:1031F0002320AA0017350100130585B2EF10A17B2B
:10320000814671468545814701471305507EEFF0A1
:10321000EFD783570A0017D7FF1F1307A71D3AC61A
:10322000FC8285679387479C3707C0A8FC836800AA
:1032300097D7FF1F9387871D3AC83ECEEF10E02B2C
:10324000F3B4048093F4840826C40F100000230014
:103250003405230024050F100000010001008347FE
:10326000140393E70702A308F40223000404A2470F
:10327000F3A707800F100000F2506254B7E700E098
:103280003707001023A0E710D2544259B259225AEE
:1032900021618280411103A5819006C622C426C205
:1032A0004AC0EF10216C17E9FF1F130929552A8620
:1032B000AE86032509008325490017E4FF1F130488
:1032C0006454EF00713610405440EF10C10C1040B0
:1032D0005440EF10410C2A86AE8603250900832551
:1032E0004900EF007134AA842E842A86AE86032515
:1032F00009008325490017E9FF1F1309A951EF00B1
:10330000B13297E7FF1F938767509043D443EF1084
:1033100081080326090083264900EF008140EF1051
:1033200001589307850CB3C707081305006433F5EC
:10333000A70AEF10215C2686A286EF10C10503269E
:10334000090083264900EF00C13DEF104155B2400E
:1033500022443345050892440249410182801735D1
:1033600001001305E59C6F10E1787D15954763EC2E
:10337000A70A173701001307E7A33345E5201C41CF
:10338000011122CCBA9706CE26CA2E848287173521
:1033900001001305E59A6244F240D24405616F10C2
:1033A0006175173501001305A59AF5B7E6251735A0
:1033B00001001305E59AEF10E173B14763FB970431
:1033C000173501001305C59AEF10C1722A24624413
:1033D000F240D24483C731841307803E8146314690
:1033E000994505616FB0103F1735010013054599E8
:1033F0005DB7854785451306F10013055030DC871E
:10340000EFB070666C20173501001305E598EF10DA
:10341000815AF2406244D24405618280173501002E
:103420001305C5988DBF8280011106CE19C5894745
:103430006300F502F2400561828017350100130533
:10344000E598EF10216B9305F10001458D34DDB750
:103450001735010013054599EF10C1699305F10077
:103460000945EDB77971170500001305C51706D694
:1034700022D426D2EF00305D93843184054488A0A5
:103480003008854513055030230C8100EFB0B05D46
:1034900017E6FF1F13060627F14513057030EFB03E
:1034A000905C1386C1839D4513056030EFB0B05B1F
:1034B0009305000A0945EF20204D9305000A0D45AC
:1034C000EF20804C3008914513057040C08640873E
:1034D0002308810002CCA3070100EFA0D00C130643
:1034E000D100854513050040EFA0F00B1306E10065
:1034F000854513051040EFA0100B1306F10085451C
:1035000013052040EFA0300A1008854513055040F0
:10351000EFA070097D55EFB0407C7D55EF40702DD8
:103520007D55EFF0FF8A7D55EFF0AFF017E6FF1FF6
:103530001306C61BD5450145EFB0A06989475C87D6
:103540008D47DC87B7373233938707133ECCB737C5
:103550003637938747533ECEB70703049387172028
:103560003EC81306D100954785450145230AF10061
:10357000C086EFF09F8B1306E10085450545EFF00F
:10358000DF8A1306F10085450945EFF01F8A3008F0
:10359000A1450D45EFF07F89100895451145EFF0E5
:1035A000DF8813858183EFF07F8713850183EFF038
:1035B0004FEA22548820B2509254854545616F30BD
:1035C00021282E86AA8501456FF08FE901114886D2
:1035D0008945680006CEA3060100E537F240056183
:1035E0008280011122CC06CE26CA4AC82E84939727
:1035F000556063D0070203C53184A12311C141295D
:103600009314F468F240624442492685D24405612D
:10361000828093F715008DC793843184882017E644
:10362000FF1F1306E60B938501AEEFB0501F8820F5
:103630001306803E8945EF00D00293441400D9B7A9
:1036400093F725008DC789451306803E03C5318455
:10365000EF0030012C000D45EFF07F8511E53000C3
:10366000A1450D45EFF06FFC9344240061BF93F436
:103670004500C9D89384C19390401389419483270E
:1036800009009315C600172501001305A577BE95FF
:10369000EF1061329C40832509008566B207014620
:1036A000BE9505454D241375F50F09C5053793449F
:1036B000440089BF9C4003A7019485079CC0A28455
:1036C000E3E2E7F41725010013050575EF108142C9
:1036D0000145ED3D9344440035B71305E00FFDB5BA
:1036E000411122C411462A84938501AF37A50300F6
:1036F00006C6EFF02FA985660146B7A5030005456C
:103700009924138601AF00A22244B2409146B7A586
:1037100003000945410105AC01456FF02FB69387C1
:1037200001B0982391461347070863E8E6169726E9
:1037300001009386A6783347D7201843797106D6BF
:10374000369722D426D20287AE239033ED679205B6
:10375000BE95138481949384C194172501001305A9
:10376000A56C0CC090C0EF1001250C40962013866C
:1037700041B00945C92A1374F50F19C41725010072
:103780001305456CEF10013722852254B250925434
:1037900045612DBDAE23D2236D679205BA95938402
:1037A000419413840194172501001305A56A23A4ED
:1037B000B19423AE0192238D019210C08CC0EF1002
:1037C000811F9840F167636AF7001C40FD17B2073C
:1037D000BA97377703006375F7001305F00F75B7D5
:1037E0002254B250925403C53184914545616F30E3
:1037F0002105AE239033ED679205BE951384819425
:103800009384C194172501001305C5660CC090C0B0
:10381000EF10611A0C409440138641B00D452522EB
:103820001374F50F19C41725010013056566EF1011
:10383000612C9387A19398233365E40088A3B1B7E3
:103840001725010013050566EF10C12AF1350D4556
:10385000413D294597D0FF1FE780E0B72254B25081
:103860009254456117D3FF1F6700C3A717250100B6
:1038700013050564EF100128B707B00189073EC69C
:103880006800B7071072D1453EC8230A0100153BF6
:10389000B250225492544561828081B54111138502
:1038A00001B006C697D0FF1FE78040EEB24041014D
:1038B000BDB5011111466C0037A5030006CEEFF02F
:1038C0006F8C1C8685461387F7FF1377F70F63F31A
:1038D000E6008547F2402382F18405618280411130
:1038E00022C4371400401E2C71777D17F98F06C64D
:1038F0001EAC1945EFE0FFD51305600497C0FF1F0C
:10390000E7804079A1471304840B1CC08D452145F5
:10391000EFF00F89014681450545EFF0EFA3EFF089
:103920008FA0172501001305656EEF10A11C5137FC
:10393000EFF0CFEBEFF0DF80EFB0B02E253697D071
:10394000FF1FE780E0AE01112A8706CE2E8526CC28
:10395000B2854ACA368622C637240040B7E700E05F
:10396000FD5603A90700C44323A0D71823A2D718E4
:103970009307F7FF93F7F70F0948636AF808B7173B
:10398000004083C75704B7C80300F957637415058F
:10399000B306C50063E0D80463140705098297D015
:1039A000FF1FE780E0BBAA8737170040930670052A
:1039B0002300D704930680FA2300D70483464704E4
:1039C000C18A2302D70437E700E0232027112322EE
:1039D00097103244F240E24452493E8505618280AC
:1039E0008547631FF7008567FD173E96E98F3E9672
:1039F000FD777D8E7D8D97D0FF1FE78060BC65B71A
:103A000097D0FF1FE780E0C29307150071BFB5474D
:103A1000631AF7001305900B97D0FF1FE78060C66D
:103A2000814759B7B1476315F7001305B00AEDB7E1
:103A300099476317F70097D0FF1FE780A0C5CDB760
:103A40009D47631BF70023A0050023A2050097D024
:103A5000FF1FE780C0C9E9B791476317F70097D008
:103A6000FF1FE780A0CC6DBF81471DDFF1572DBF41
:103A700023AC05FE1C4189E7010001000CC18280D6
:103A80003E8783A787FFEDFF232CB7FE828041117D
:103A900022C437E400E026C204403707200006C6EF
:103AA000F98C2320E4180F10000009E9232094105A
:103AB0001545B24022449244410182800347E5FF0C
:103AC0009307F00F6306F700232094101145D5B734
:103AD00097D0FF1FE7804029014523209410D1BFD4
:103AE000411126C2B7E400E04AC003A90400B707A9
:103AF000200006C622C43379F90023A0F4180F1061
:103B0000000009E523A02411014535A095659385A2
:103B100005D0C98D2A842105B3C50508334505089C
:103B2000EF20D17C65D1FD572320050042A17CA167
:103B300023A024112105B2402244924402494101AC
:103B400082804111B7E700E026C284433707200096
:103B500006C622C4F98C23A0E7180F100000938634
:103B60000195904201440147B28799EF19C8832714
:103B700084FF6311C4069CC2FD57232C04FE230F4F
:103B8000F4FEA165D1291DA083C5E7FF639DA502B1
:103B900021C0832784FF6315C4029CC2FD57232CD8
:103BA00004FE230FF4FEA165EF209149B240228567
:103BB0002244B7E700E023A097109244410182809D
:103BC000232CF7FEE1BF11E03E8783A787FF71BF7B
:103BD0003E84E5BF232CF7FE45B741114AC037E9C3
:103BE00000E022C403240900B707200006C626C24D
:103BF0007D8C2320F9180F10000089E523208910FF
:103C0000154515A0AA8497F7FF1F83C777CA2E858D
:103C100063F5F400854763EE9700953DB7E700E054
:103C200023A087100D45B24022449244024941012D
:103C3000828083A785FF99E703C7E5FF9307F00F0D
:103C40006308F700A935B7E700E023A087104DBF50
:103C5000238F95FE13850195213DA1652685EF20D3
:103C6000313E0145232089107DBF23A80194828025
:103C70002A8713F5F50F2DC1411122C426C206C6AD
:103C80004AC013F41500AE8419C0814709A88147C2
:103C9000A1468507638AD70233D6F4487DDAB14658
:103CA0003367F7203307D70203A9C196B317F0286B
:103CB00033C407083A9983270900032549008297EE
:103CC000232009002322090033459400B2402244F6
:103CD000924402494101828082800111B7E700E0ED
:103CE00026CA84434AC83707200006CE22CC2A8938
:103CF0002E86F98C23A0E7180F1000009305F0041E
:103D000032C633450608EF20715E2A8419C5324653
:103D1000CA8597D0FF1FE78060A7F24022856244E2
:103D2000B7E700E023A097104249D24405618280A2
:103D3000411193757500014506C6B315B028B3C58A
:103D40000508EF20110B09C50845B24041018280EA
:103D50000145E5BFB7E700E09843B706200023A080
:103D6000D718758F0F10000097F6FF1F83C656B443
:103D7000637ED50083A681963325D5201621B3F521
:103D8000B6400EA123A0E7100145828023A0E710D2
:103D90000D4582807971B7E700E026D2844337076A
:103DA000200006D622D44AD04ECE52CCF98C23A085
:103DB000E7180F100000930785FF93F7F70F1D47D3
:103DC000636BF70831473307E50283A7C196BA97BB
:103DD0009C43D1C31D893315A028AE89B34505087E
:103DE00005452EC6EF20F1002A8929C9B2450545AF
:103DF00017FAFF1F130A0AB1B13F83A701968297F2
:103E000083578A002A848146338737031306006468
:103E1000B3B7370313050732B335E500BE95EFF0AE
:103E2000A056B307850083264A003E8763E4A700B7
:103E300063E4D7003387D7402324E900B7E700E0E5
:103E400023A097100145B250225492540259F249CE
:103E5000624A45618280B7E700E023A097100945D8
:103E6000DDB7797122D437E400E04AD00329040099
:103E7000B707200006D626D24ECE52CC56CA5AC814
:103E80005EC63379F9002320F4180F10000097F76D
:103E9000FF1F83C7F7A16376F50083AB0196639795
:103EA0000B00B7E700E023A0271199A097FAFF1FA6
:103EB000938A4AA503AB4A00B74736FE938707C8E3
:103EC0003E9B83D78A002E8AAA84B385C702B28913
:103ED0008146B3B7C70213850532B335B500130663
:103EE0000064BE95EFF0404A6370AB0223202411BA
:103EF0000145B250225492540259F249624AD24AC0
:103F0000424BB24B45618280829B83D78A002A84D0
:103F100013060064B38537038146B3B737031385AF
:103F20000532B335B500BE95EFF00046B307850006
:103F300003A74A003E8463E4A70063E4E7003384F8
:103F4000E740D2852685EF20C16A01C900C5B7E7E1
:103F500000E023A02711054569BF93E504F0414522
:103F6000B3C50508EF20913811E997F7FF1F83A724
:103F7000A79885DBA6851145829725B713874195BC
:103F80001C4399EB08C32326050000C523114501F6
:103F900004A12322050065BF3E87DC47F5FF48C723
:103FA000DDB77971B7E700E026D2844337072000F8
:103FB00006D622D44AD04ECE52CC56CA5AC85EC675
:103FC00062C466C2F98C23A0E7180F10000021CD4F
:103FD0002A892E8AB28AB6892144B14C138BC196A4
:103FE000414CB30B940383270B00DE979C43A1EF56
:103FF0009375740056860545B315B028B3C50508FA
:104000008D3531C183270B00DE9723A0270123A222
:1040100047016384090023808900B7E700E023A0FB
:104020009710014521A023A097100945B2502254B2
:1040300092540259F249624AD24A424BB24B224C44
:10404000924C456182800504E31D84F9B7E700E0E6
:1040500023A097102145D9BF011126CAB7E400E07B
:104060004EC683A9040022CC52C4B707200006CE56
:104070004AC82A8A2E84B3F9F90023A0F4180F1035
:104080000000EF20015717F9FF1F130969821DE196
:10409000A2855285C131834709006380470523A06B
:1040A00034111945F2406244D2444249B249224A8D
:1040B0000561828023110500A285528561398347FD
:1040C00009006386470123A034110145E1BF8357EE
:1040D0006900C18F2313F900FDB7835769005D8C18
:1040E000231389006DBF01114AC837E900E022CCD3
:1040F00003240900B707200006CE26CA4EC67D8CD1
:104100002320F9180F100000BD4763E5A704B14450
:10411000B30495029389C19683A70900A6979C438F
:1041200095CB937575000D81B315B028B3C50508FF
:10413000253783A709000145A69723A0070023A2DE
:10414000070023208910F2406244D2444249B24918
:1041500005618280B7E700E023A087100945E5B735
:10416000411106C623AEA1940295B24097E7FF1F06
:1041700023A8A77401454101828023A0A19601458F
:1041800082804111114681451385819506C622C45E
:1041900026C223AA019423AE019423A0019697C0BE
:1041A000FF1FE780606113060002814517E5FF1FCE
:1041B0001305057097C0FF1FE7800060EFB0202F48
:1041C000C14717E4FF1F1304A46E854513050012B1
:1041D0003CA09384C196EF20711188C025C1302086
:1041E000994781453306F6021306060C97C0FF1F58
:1041F000E780805C9C403820938441969387070C2D
:104200009CC0B347F72023A4F196EFF01FA6552ECC
:104210001C309840172601001306863FB3C6E720DE
:1042200090C293862700850793F7F70FB3C7E7205F
:1042300014B0170700001307E7A398C3B240224445
:1042400092444101828097E6FF1F938666662A8723
:10425000BC228832637BF5001306150083A74196C4
:1042600090B2B347F52098C382801305F00F828087
:104270001C41F1C7370700F07D8FB7060020894742
:104280006310D70C5A21411122C406C62A845DC38B
:1042900019469305F00F5D05EF20A14605478D47B0
:1042A000630AE5081C4491C75854994741C71858F8
:1042B00051C313064003814517E5FF1F13054561F0
:1042C00097C0FF1FE780404F13064003A28517E504
:1042D000FF1F1305E55F97C0FF1FE780204B97E79F
:1042E000FF1F9387E75EDA2701E713070010DAA7BD
:1042F000F82719E30547F8A79A2B19E36D479AABFE
:10430000F83719E30D47F8B7B82B19E30547B8ABF1
:10431000B83B19E3F837B8BBD82B19E34947D8ABFA
:10432000583801E713074006D8BBFD57238CF1A688
:10433000893D8147B24022443E85410182808947C0
:104340003E85828079714ECE97E9FF1F9389895B04
:1043500083A7090006D622D426D24AD052CC82970F
:1043600013090064B335250303D68900814617EA93
:10437000FF1F130AEA5332C633052503EFF0C000CE
:1043800083240A012A840145638684023246330568
:10439000944063EF840003A549008146B335A90228
:1043A0003305A902EFE0507EB307954033858700BF
:1043B00023288A00B250225492540259F249624A88
:1043C00045618280011122CC0A852E8441469725C1
:1043D00001009385258B06CEEFE04FA51808332406
:1043E000E420035704FFF240624497E7FF1F83D79E
:1043F000075237450F00BA97130505243355F502C8
:104400000561828097E7FF1F83D7675051471D459D
:10441000637CF702794719456378F7021307200395
:1044200015456373F7021307B0041145637EF70067
:10443000130740060D456379F70013076009094526
:104440006374F70013B5B70F8280411122C426C2EE
:104450002E84AA8406C6058C97C0FF1FE780A02E75
:10446000B327A402B2402244338597001375F50F99
:10447000924441018280411122C426C22E84AA8422
:1044800006C6058C97C0FF1FE780E02BB327A40268
:10449000B2402244338597003345050892444101D8
:1044A0008280411122C426C22E84AA8406C6058CAD
:1044B00097C0FF1FE78020293335A402B240224471
:1044C0002695924441018280AA8517E5FF1F1305B6
:1044D0006543184197C7FF1F9387A752630DF700E5
:1044E0004111514606C697C0FF1FE780202AB240FF
:1044F00001454101828005458280411106C622C4E2
:1045000026C259C11C41AA850545B5CBDC41A5CBC6
:104510009E25B5C7BE25A5C7514617E5FF1F130544
:10452000653E97C0FF1FE780602697E7FF1F238146
:10453000073E97E4FF1F9384E43C884017E4FF1F85
:10454000130404391D397C2899EF8A24930780705D
:1045500037460F003305F5021306062481468145D0
:10456000EFE0906268A87828AD4763E4E700B147C0
:104570007CA817050000130525DDDD360145B24096
:10458000224492444101828097E7FF1F23AC073207
:1045900097E7FF1F9387073717C7FF1F1307674664
:1045A00098C337873200FD56130727A1D4C398C795
:1045B00097E7FF1F238E0734B7C7004023A4D726F1
:1045C0008DBF011122CC17E4FF1F1304643008448F
:1045D00006CE26CA4AC801E90545F2406244D244E3
:1045E0004249056182805C54E5DB185875D770003C
:1045F000854582971844B247E300F7FE4A249305A5
:10460000E00417E9FF1F1309A92AEF20214E232CEC
:10461000A90079D152249305F00F814497C0FF1F60
:10462000E78080197C240326890163C1F402328566
:1046300097C0FF1FE7804073014597E7FF1F23A541
:10464000072897E7FF1F23A3072841BF4E241844DC
:10465000B3879502898185043385E7001C5808C219
:104660008297C9B701114EC697E9FF1F9389492662
:1046700083A7890022CC4AC852C406CE26CA56C295
:104680005AC02A8A2E843289638F071C03A7C90265
:10469000630E07101307F01F636CA71097E4FF1F4A
:1046A0009384042183AA840163970A0803D5C9006F
:1046B0009565938515E0EF20614388CC2A867DC5FA
:1046C00083D5C90083A7C90203A589008981829780
:1046D00083A7890083AA8401DCCC89476313FA0885
:1046E000C1476315F40C83D7C9001147938707FCB2
:1046F000B3C7E702B3C75721B4231307A0056393D9
:10470000E60A9A236310470B938547004A85228661
:1047100097C0FF1FE78080079C4C5685639D57110B
:104720000145F2406244D2444249B249224A924A87
:10473000024B05618280D84CE381E7FA03D5C900BA
:104740009565938525E0EF20613AAA8A25C183D536
:10475000C9002A8683A7C90203A589008981829797
:10476000ADBF8D47631CFA00C1476311F40483D7C2
:10477000C900938747FDF19BD697BDBF914763184A
:10478000FA006315440383D7C900A117EDB7930757
:104790000010631DFA00A14763EA870083D7C900B0
:1047A000C117D1BF9C4C5685639A570B294595BFBD
:1047B0001D676377E508130705E099463347D7027D
:1047C00083D6C90017EBFF1F130B8B0E3307D702DD
:1047D000B30AF7008327CB016395570183248B012C
:1047E0008DE003D5C9009305E004EF202130AA84B1
:1047F00055DD83D5C90083A7C9022A8689815685DC
:10480000829791451307A00593F5C50FB387B400B0
:10481000B4236390E6049623639B460391052286A6
:10482000A6954A8597C0FF1FE78040F683278B0136
:10483000E38897EE268597C0FF1FE780E052CDB54D
:10484000A166F916E3E4A6F63307E54095BFAC335D
:1048500065BF83278B01E38B97F4268597C0FF1FE5
:10486000E7808050A1B797E5FF1F83A5E5059DDD93
:1048700091479306A00593F7C70F3387F5003023C0
:10488000E316D6F21223631B460191072286BE95DA
:104890004A8597C0FF1FE78060EF59B53C33E1BF01
:1048A00097E7FF1F9387C702984721C7985B31C3DB
:1048B00085466310D504411122C417E4FF1F130479
:1048C00024FF104C06C615C2CE27484C898102979A
:1048D000084C97C0FF1FE780204997E7FF1F23A5DB
:1048E00007FE97E7FF1F23A307FEB24022444101C2
:1048F00082808280011122CC17E4FF1F130444FD43
:104900004EC68329840026CA4AC852C406CE56C25F
:104910002A89AE84328A6385091A1C5899EB294585
:10492000F2406244D2444249B249224A924A056165
:1049300082805C54EDD79307F01F63E0A70C97E9E2
:10494000FF1F9389E9F683A78901A9C7084483A7B4
:10495000C901639AA70489476311F906C147E39027
:10496000F4FC5E241147938707FCB3C7E70203A753
:104970008901B3C7E7201307A005B8A32390270137
:104980002686D2851385470097C0FF1FE78000E089
:10499000014579B74A249305E004EF20211523ACA3
:1049A000A9004DF5ADBF4E245C5403A68901898151
:1049B00082971C4423AEF90079BF8D47631DF9002F
:1049C000C147E39EF4F45A24130747FD83A78901E6
:1049D000719BBA974DB791476317F900E39124F59E
:1049E0005A242117E5B793070010E31AF9F2A147FB
:1049F000E3E797F25A244117D1BF9D676372F5062A
:104A0000930705E01947B3C7E7025A2497EAFF1F47
:104A1000938A0AEAB387E702BE9983A78A01A1CBEA
:104A200083A7CA01639E370503A58A01914713082E
:104A3000A0059305F00F13F7C70FB306E500B022EA
:104A4000631D060583D80600B03263962805B307B8
:104A5000F64063C1970411072686D2853A952DB793
:104A600021677917E36DA7EAB307F54079BF4A24B8
:104A70009305E004EF20810723ACAA0055F145B56A
:104A80004E245C5403A68A0189814E85829723AE09
:104A90003A0159BF8EA2B28779BF5224B3859700DD
:104AA0009105130606FCE36CB6E613863400719A92
:104AB0001106B2972381060123902601BCB261BF83
:104AC00097E9FF1F9389C9DE83A789019DCB03A5C1
:104AD000890191471308A0059305F00F13F7C70F3D
:104AE000B306E500B022631C060383D80600B0328B
:104AF00063972801B307F640E3DF97F48EA2B287ED
:104B0000F1BF7C244A249305E0043305F5023345C4
:104B10000508EF10B17D23ACA90055F909B5522461
:104B20006C24B385C502338697001106E3E9C5DE20
:104B3000ADBF01458280011106CE2EC6EF40804FE9
:104B400019C5B245F2402A2105616F707048F240E4
:104B5000494505618280A38801982388019823A68E
:104B6000019823A4019823AA019623A8019697E708
:104B7000FF1F938767DA3707B40098C33707A00091
:104B80001307070AD8C337C70700130707B898C722
:104B900041674107D8C737077F0098CB370781FFA8
:104BA000D8CB7D579AAF8280011152C42A8A214501
:104BB00022CC26CA4AC84EC606CE2E84B289368971
:104BC000BA84EFE0FFF105C9930700FD1CA19947E6
:104BD000A30045013CA12303250164B12312350143
:104BE000AA8522856244F240D2444249B249224A0F
:104BF00005616FE09FFEF2406244D2444249B249EF
:104C0000224A0561828023A6A198828023A4A198CC
:104C10008280011122CC26CA4AC806CE4EC62A89F5
:104C2000AE840144B309890063699400F240624490
:104C3000D2444249B2490561828097C0FF1FE78094
:104C400080B0B3470508A1832380F90093071400BF
:104C500093F7F70F850963F89700CA97090488A3AB
:104C60001374F40FC1B73E84C1B7411122C417E4D5
:104C7000FF1F1304E4CB0A28C16706C6FD17630AA9
:104C8000F50003C6819D93858197EF40C01DFD57B8
:104C90001EA8B24022444101828023900500B1CE7B
:104CA0008147130E000C63FAC7043387F6000348EC
:104CB0000700138717003347070863000804B30889
:104CC000E800634C1603B388E60083C808006386D7
:104CD0000802138328FC1373F30F63706E0213032F
:104CE000F8FF239065006396A80005073385E6006A
:104CF0008280C297B3C707087DB701458280011142
:104D000022CC26CA4AC84EC606CE97E4FF1F93841B
:104D100024C22E8990C4CCC088C02A844146930501
:104D2000F00F4A85EF10F11D854963173503C84020
:104D3000C145C53541469305F00F2285EF10711C22
:104D400005496313250362448840F240D244424936
:104D5000B249C145056175BD414681454A85EF109F
:104D6000511AE31935FDE1B7414681452285EF101F
:104D70005119E30A25FDF2406244D2444249B24946
:104D800005618280411122C426C22E84AA84714604
:104D9000814517E5FF1F1305A5B906C64AC097C090
:104DA000FF1FE78060A117E9FF1F130969B8238E71
:104DB000819CA3079900EF703023854719C1814773
:104DC00049452306F900B240224492440249410178
:104DD00082809DC11DC185476317F500DC3193E7D3
:104DE00007FCDCB121A089476304F50005458280FA
:104DF000DC3193F7F703F5B7014582808DC10DC112
:104E0000DC311307000C054593F7070C638AE700B4
:104E10001307000409456395E7000D4582800145AD
:104E20008280411122C4005D06C626C21DC8AA8424
:104E3000085009C597C0FF1FE78000F3485009C517
:104E400097C0FF1FE78040F2085409C597C0FF1FB5
:104E5000E78080F1228597C0FF1FE780E0F023AC58
:104E60000402B240224492444101828009ED97E756
:104E7000FF1F83C7C7AC17E5FF1F1305A5AC81CB88
:104E800013850198828017E5FF1F1305A5AB82806B
:104E900017E5FF1F0345A5AA828017E5FF1F03251D
:104EA00025A9828017E5FF1F0325C5A8828097E703
:104EB000FF1F83A767A88843828017E7FF1F130798
:104EC00027A714479C4285079CC268379307F00FB9
:104ED0006305F50091656F10B1168280011122CC37
:104EE00006CE2E8432C6EF4020239147B245631C84
:104EF000F50083A7819881CB9C4391C722856244AA
:104F0000F24005618287F240624405450561828076
:104F1000797122D42A844A214ECE06D626D24AD08E
:104F2000EF40C0009389019929E583C409009307E4
:104F3000F00F6399F40083C511992685ED3E19E1C0
:104F4000238801984A20EF40201D9147631CF500FB
:104F500097E7FF1F9387C79D56209A2B6394E6001F
:104F60007D579AABB250225492540259F24945618E
:104F70008280582504212A893AC665354A85EF4042
:104F8000C0464A20EF40C01483C70900324799C386
:104F9000E38397FA9307F00F5220E385F4FA742025
:104FA0002820A685113179BF411126C206C622C428
:104FB0004AC097E4FF1F9384A497F8349307F00F37
:104FC0006303F7042A892945EFE09FB12A8405CDC0
:104FD000930700FD1CA1A147A30025013CA1FC24CF
:104FE000938501981105A30FF5FE194697B0FF1F91
:104FF000E780C079A2852244E834B2409244024955
:1050000041016FE09FBDB2402244924402494101F8
:10501000828079715AC82A8B2E854ECE52CC56CAC0
:1050200006D622D426D24AD05EC62E8AB28AB68945
:10503000EF30D06F65C5045D2A89EDC09C50130523
:10504000400391E361459C5489C79307450133C5EB
:105050000708638609009307C50133C50708DC50BC
:1050600089C79307750133C50708EFE07FA72A8436
:1050700055C56146814597B0FF1FE780E07397EB08
:10508000FF1F83CB6B8A63940B00834B090093074C
:1050900000FD1CA0A947A30064013CA02303540108
:1050A0008C50231244011305840191C908C4714630
:1050B000130A440397B0FF1FE780406D52858C545C
:1050C00091C948C45146130A450197B0FF1FE780B4
:1050D000E06B5285638C090008C87146CE85130ABF
:1050E000C50197B0FF1FE780606A5285CC5099C513
:1050F00048C85D4697B0FF1FE7804069A2855E857E
:10510000EFE0BFAD2254B2509254F249624AD24A03
:10511000424BB24B4A850259456121B3B2502254E9
:1051200092540259F249624AD24A424BB24B45610B
:10513000828001114EC6AA892E8526CA06CE22CCAF
:105140004AC8AE84EF30905E31C517D9FF1F0349BE
:10515000A97D63140900034905001945EFE05F9834
:105160002A840DC98145194697B0FF1FE780C064A6
:10517000930700FD1CA0B947A30034013CA046A042
:10518000A2856244F240D244B2494A85424905614F
:105190006FE0BFA4F2406244D2444249B249056183
:1051A0008280797162C42A8C2E8526D24ECE52CC52
:1051B00056CA5AC85EC606D622D44AD0AE84B28B2E
:1051C000368BBA8A3E8AC289EF30505625C52A8965
:1051D0004145EFE0FF902A8431CD4146814597B0AB
:1051E000FF1FE780605D17D5FF1F0345E57319E1D9
:1051F00003450900930700FD1CA0BD47A3008401DF
:105200003CA023047401A304640123055401A305F5
:10521000440146A023263401A2852254B250925460
:105220000259F249624AD24A424BB24B224C456182
:105230006FE0BF9AB250225492540259F249624A26
:10524000D24A424BB24B224C45618280411126C268
:1052500006C622C44AC097D4FF1F9384646DF834F5
:105260009307F00F6306F7042A893945EFE05F875B
:105270002A841DCD930700FD1CA1A3002501230155
:10528000050097D5FF1F9385E56B0D05194697B06F
:10529000FF1FE780A04FBE28A2853EA4DC345CA49B
:1052A0002244E834B2409244024941016FE0FF9247
:1052B000B24022449244024941018280011156C207
:1052C000AA8A314526CA4AC84EC652C406CE22CC46
:1052D0005AC0AE84328AB6893A89EFE07F803DC1F8
:1052E0002A842685EF30904429C903CBD19D639B46
:1052F0000A0083A7C1A49C4791C7CA864E86D2855F
:1053000026858297930700FD1CA09D47A3005401AA
:105310003CA046A023134401231434012315240187
:10532000A2856244F240D2444249B249224A924A9A
:105330005A85024B05616FE05F8A17DBFF1F034B45
:105340001B60C9B7F2406244D2444249B249224A82
:10535000924A024B05618280411126C2AA842145EE
:1053600022C406C62E84EFE0AFF715C5930700FDF3
:105370001CA1C5473CA13C30AA853CB15E205EA182
:105380007C207CA17C307CB12244B24026859244B2
:1053900041016FE09F84B2402244924441018280E7
:1053A000797162C42A8C594526D24AD04ECE52CC4D
:1053B00056CA5AC85EC666C26AC006D622D4035D03
:1053C0000103834C41032E89B28BB6843A8BBE8A8B
:1053D000428AC689EFE0CFF035C5930700FD1CA1D6
:1053E0009547A30085013CA1A30175012A841946B4
:1053F0001105B9C0A68597B0FF1FE78020392306A5
:105400005401230A9401231564012317440123182E
:1054100034012319A401A2852254B2509254F249B6
:10542000624AD24A424BB24B224C924C024D4A85C0
:10543000025945616FE06FFA814597B0FF1FE78021
:10544000A03775BFB250225492540259F249624AB1
:10545000D24A424BB24B224C924C024D4561828063
:10546000797122D406D626D24AD04ECE52CC0944E7
:1054700059C12A890A212E8A5144EF30302BAA843F
:105480003DC91C5D4544A5EB9165938545711305A8
:10549000C002EF10A16588DCAA894D4429CD13060E
:1054A000C002814597B0FF1FE78000318357090094
:1054B0009386490036852391F9007146930549008A
:1054C00036C697B0FF1FE780602C89472380F9001C
:1054D000B2460356090083C5819D0145EF40007D1A
:1054E0002A8463060A00D2852685EF40E01501C4B0
:1054F0002685EFF01F93B250228522549254025910
:10550000F249624A4561828031CA411122C426C2F1
:105510004AC006C62E89B284EF3050212A845145F4
:1055200005C8485409C597C0FF1FE780E083F145CF
:105530002685EFE08FFAAA8748D44D4591CB5820B5
:105540009367470063040900936767005CA0014507
:10555000B24022449244024941018280094582803E
:10556000AD4763EAA70097D7FF1F9387E73A332534
:10557000F5200A21828041657D158280011122CCAF
:105580002A842E8526CA06CEAE84EF30301A0DCD81
:10559000B7470F009387F723094563E287028145E8
:1055A0000A85414697B0FF1FE7800021A6856080ED
:1055B0000A8541804081A3010100EF40C05BF240B9
:1055C0006244D244056182804945D5BF238DA19CA8
:1055D00082806F406065797152CC2A8A328526D2EA
:1055E0004AD04ECE56CA5AC85EC662C406D622D427
:1055F0002E8CB28A368BBA8B3E89C289C684EF3034
:10560000F01205C92A8463100A1893774B000343EC
:10561000450085CF13632301639A0B1463180912A5
:10562000639B090885E81C5C1373B3FF23026400C5
:10563000C5E7B250225492540259F249624AD24A02
:10564000424BB24B224C456182801373D3FF1363EC
:105650000301D9B713634300230264009C48414609
:10566000A6851CD41305840197B0FF1FE7800012A4
:1056700063190C1063860B0A485409C597B0FF1FC5
:10568000E780806EF1455E85EFE02FE548D4005C51
:105690004DD01C5081EB9165938535717145EF10AC
:1056A000E14408D008500DC17146DE8597B0FF1F58
:1056B000E780C00D11A81363430023026400D9FCE6
:1056C000005C630C0C0235D4639A0902B1EC29A08A
:1056D000005C25D0639409022254B2509254F249DE
:1056E000B24B224CCA865A860259424BD685528505
:1056F000D24A624A45616FF0DF9105DC5C5081EB74
:105700009165938525715D45EF10413E48D0485025
:1057100055DD5D46CE8597B0FF1FE78020077DB73A
:10572000005C01D8E39C09FC1C5481EB91659385D6
:1057300015715145EF10813B08D4085451DD514695
:10574000A68597B0FF1FE780600479B71363430015
:1057500023026400E39404F0E30C0CF6485415E9CA
:10576000F1454A85EFE06FD748D431A81363430071
:1057700023026400E39404EEE3000CF0E31009FE5E
:1057800039B7E31D09FC005CE30504EAE3930BF081
:1057900025BF97B0FF1FE780205DD9B7011126CA4A
:1057A00052C406CE22CC4AC84EC62A8AAE84EF30F6
:1057B000E07725C12A893945EFE08FB22A8431C9C3
:1057C00097D9FF1F83C949166394090083490900CB
:1057D0009307000D1EA0AD473CA09305690013057B
:1057E0003400194697B0FF1FE78040FA93F7140082
:1057F0005CA493D4144844B423154401A2856244A4
:10580000F240D2444249224A4E85B24905616FE0D6
:10581000CFBCF2406244D2444249B249224A0561B7
:10582000828003A5019701CD411106C697B0FF1FE5
:10583000E7808053B24023A8019641018280828094
:10584000411122C406C626C24AC02E84EF30006E23
:1058500039C900D517D9FF1F0349090DAA8463145C
:105860000900034905004145EFE08FA72A8405CDD3
:105870009307000D1EA1A5473CA1DC309385640071
:105880001105A30FF5FE194697B0FF1FE78000F042
:105890009C54A285B2405CC4224492444A85024989
:1058A00041016FE08FB3B24022449244024941016A
:1058B0008280938781978EA3B2A3BE8503C6819D04
:1058C000D6A3FAA36F30205A011122CC26CA06CEE5
:1058D000AA842E84EF3080650DC954251147AA870C
:1058E0004945639FE6009C5F91C3E02B97560000FB
:1058F000938606870A86894526854080EF30D04BFF
:10590000F2406244D244056182805145D5BF21C630
:10591000411122C426C24AC006C62E89B284EF3085
:10592000E0602A84514515C0630609005C2093E7B6
:1059300027005CA0130584014146A68597B0FF1F90
:10594000E780C0E49C4801451CD4B2402244924404
:1059500002494101828009458280011122CC26CA78
:1059600006CE2A84AE84EF30605C19C96C002285B3
:105970004486EF30104AF2406244D244056182808E
:105980005145D5BF6F30C06F2D47AA876360A7020E
:1059900041677D170945638CE50017D7FF1F130783
:1059A000A7F7B3A7E72001458EA38280094582802F
:1059B000011122CC3E8606CE26CA4AC89147094428
:1059C0006392F50232C6B6843A89EFF0AFBB324635
:1059D0002A8409E9CA852685EFF06FB2EF005033BB
:1059E000EF005013F24022856244D24442490561DF
:1059F0008280411106C622C42A84EFF0CF95EF00C1
:105A00001014EF904076814517D5FF1F130545F21E
:105A1000714697B0FF1FE78020DA930700F017D791
:105A2000FF1F231EF7F07D579387819DB8A380A3A6
:105A300022852244B240954541016F2030381D71C6
:105A4000A6CA86CEA2CCCAC8CEC6D2C4D6C2DAC036
:105A50005EDE62DC66DA6AD86ED6AE8493975560F5
:105A600063DA07341389819D03450900C169930AEC
:105A7000200AEFE00F8D2A84130BF00F930B10090F
:105A8000154CB94C17DDFF1F130D8DEAFD1915E0FC
:105A90001395F468F6406644D6444649B649264A0A
:105AA000964A064BF25B625CD25C425DB25D256158
:105AB00082801C20639A5701034AFD002A20228617
:105AC000CE85EFF0AFC1F1A8034A2900639A7709A8
:105AD0001C30639E87012285EFF08FC32285EFD0B3
:105AE0001FFB03450900EFE0CF852A844DB7639B78
:105AF00097115E2005672507639AE7040C4497DD3C
:105B0000FF1F938DEDE2882115E51946850517D510
:105B1000FF1F130525E397B0FF1FE78020C703C7CA
:105B2000CD008547631EF70289472386FD00EF609D
:105B3000B04D6DB703C7CD0085476313F70297D704
:105B4000FF1F238D07DEEFF06FF049BF0967930653
:105B500057006384D70A63ECF60009076385E704FE
:105B6000E30E6AF7A2855285EFE02F879DBF2907D4
:105B70006372F70279771307A7FCBA977147B3C727
:105B80000708E36FF7FC370700181307F770B357E0
:105B9000F748F9D783A7C198B1D39C43A1D32285F5
:105BA00082970DFD75BF832D8400E38B0DFA03C72B
:105BB0000D0097D7FF1F9387A7D719EB03C72D00B9
:105BC00083C61D002207558FBAAB03C73D00D8B767
:105BD000D4270947E396E6F803C70D0001CB97D712
:105BE000FF1F238D07D403C50D00B1BFCC37AA2BEF
:105BF0000D47D8A7EF20301FFDB71C448823EFF0D6
:105C0000AFBAE9BD3D476393E7045A20896793869D
:105C1000D700E305D7EC93869701E301D7ECCD07D6
:105C2000E310F7F4C16717D7FF1F035767D1FD17BC
:105C3000E306F7EA83A78198E38207EA9C43E38FB0
:105C400007E80965A2854D058297A1BF1307E00308
:105C5000E398E7F03C2005476399E70A83A7C198DA
:105C600097DDFF1F83CDBDCD91C7DC4381C7814543
:105C7000014582976830130A8400D285EFF00F98AF
:105C80005C2868B0835804010358E4005A202A862F
:105C900028303EC23E28D286EE853EC09147EFF0C6
:105CA0002FF03C3095E3DD47835804010358E400AE
:105CB00074304E203EC23E28528705463EC06E8557
:105CC0009147EF30205A28B083A7019781C711452B
:105CD000EFF03FB5138A019903450A00E30005E0A0
:105CE00083C51199EFE03FE5E30A05DE3430930701
:105CF00010036389F600522083450A001147368558
:105D0000EFE09FEA23880198D1BB31476386E7081B
:105D10006361F7040D47638EE7041947E392E7E4F4
:105D20006C0813051031EF9020489305E10113052D
:105D30002031EF9060477220BC874A2063E6C7009D
:105D40001624B88663FBE60293050002EF60303B41
:105D500071B349476385E7044D47E393E7E083A7C1
:105D6000C198E38F07DEDC43E38C07DEA28509459B
:105D700081A022868D454A20A9B36373E6007AA0EC
:105D800063F3D7001EA45A24362412246E2001483F
:105D90008147EF60303499B32286B145E9BF83A7CC
:105DA000C198E38F07DADC43E38C07DA81450545C8
:105DB00082977DB313F52500E30E05CC83A7C19828
:105DC00091C7DC4381C781450545829713C52400EF
:105DD000D1B11D71A6CA938441979840A2CC86CEBA
:105DE000CAC8CEC6054435CF283397D7FF1F83C70F
:105DF00007B5B337F000930547003EDEEFE07FFDC7
:105E000098402ADC09452C232EDAEFF06FF52AD8CA
:105E10000D45EFF0EFF403A904002AD6254503470A
:105E2000A9008349B9003AD4EFF08FF3AA84294539
:105E3000EFF00FF36258F2572257B2564256D2553E
:105E40001375F50F2ACC22C402CA02C802C64EC07E
:105E50009308490005459394446026C2EF60D02E14
:105E60002A84F64022856644D6444649B6492561CF
:105E7000828003A5419701CD411106C697B0FF1F4F
:105E8000E78080EEB24023AA0196410182808280A1
:105E9000011122CC06CE26CA8D472E846313F50449
:105EA000B831E947CA2197D4FF1F938464A86315CA
:105EB000F7009E286382A704EF3040077220162463
:105EC0003A2401C572A516A93AA94E202830EFF050
:105ED000EFBE5A209E286314F700FD579EA8054583
:105EE00025A88967CD07631CF500BC213147638570
:105EF000E7004547E395E7FEEFE03FD7CDB7B14771
:105F00006317F50003C5D19DEFF00FC5C9BFC16789
:105F1000FD176308F5000145F2406244D244056173
:105F20008280D831C947E318F7FECC212A203000FF
:105F300023140100EF2010725DB7411122C44AC042
:105F400006C626C21389119A834709001307E00F7A
:105F50002E846380E7041307F00F6383E702114583
:105F6000EFD01FB8AA8509CD930700FD1CA1894772
:105F70003CA1854700B13CB103450900EFD0FFC506
:105F8000F9572300F900B2402244924402494101EA
:105F90008280AA841145EFD0BFB4AA856DD593073E
:105FA00000FD1CA1894700B13CA124B12244B240AC
:105FB0009244024903C5019A41016FD01FC20111E9
:105FC00026CA938441979C4006CE22CC4AC8B5EBA2
:105FD0002E8991652380A19A2A8493857571314514
:105FE000EF00D130AA8788C04D45B1C780A3A380F8
:105FF0000700138527002946CA8597A0FF1FE78061
:10600000E07894409147B82263E2E702CD4711CF90
:106010000546F547630BC7000946C9476307C70034
:106020000D46C1476303C700D547BCA25D3301C518
:106030002AC681353245F2406244D2444249056164
:1060400082804545CDBF011126CA938441979C406B
:1060500022CC06CE4AC8494495CF9C230D44639B6D
:10606000A7021389819D034509008945EFD0DFFE12
:10607000034509009145EFD03FFE9C400147814612
:1060800080B31306F100854785450145DC87EF6045
:10609000D0142A84F24022856244D24442490561E8
:1060A000828041114AC006C61389419722C426C284
:1060B000054783270900631AE500D9C32244B2408B
:1060C0009244024988234101BDBFBDCB8947631E6D
:1060D000F5042D45AE84EFD0BFA02A8435C19307C7
:1060E00000FD1CA1E547A30005003CA1BC3015053F
:1060F0001946230FF5FEDC2093855400A30FF5FE0F
:1061000097A0FF1FE780806803C5D19D9307F00F1C
:106110006315F500832709008823A2852244B24035
:106120009244024941016FD05FAB894503C5819D0F
:10613000EFD09FF22244B24092440249410115BB84
:10614000B24022449244024941018280FD4763FCEF
:10615000A700094582800945F2406244D244424981
:10616000B24905618280011122CC06CE26CA4AC8F6
:106170004EC62A8421CDAE8991652105938565712E
:1061800033450508EF009116AA8471D51389C1998A
:106190000325090009C597B0FF1FE780E0BC138500
:1061A000840088C0228681452320990097A0FF1F84
:1061B000E7808060832709002286CE85884397A0E8
:1061C000FF1FE780A05C83270900C2A383A7419734
:1061D00085CB83C7C19D918B95C783A7C19991CF6B
:1061E0009843D6236244F240D2444249B24905461C
:1061F0008D45054505616F60407A01478146DDB7F1
:10620000014599BF494589BFFD4763FCA700094582
:1062100082800945F2406244D2444249B249056154
:106220008280011122CC06CE26CA4AC84EC62A84D4
:1062300021CDAE89916521059385557133450508BA
:10624000EF00D10AAA8471D5138981990325090029
:1062500009C597B0FF1FE78020B11385840088C06F
:10626000228681452320990097A0FF1FE780C05414
:10627000832709002286CE85884397A0FF1FE780E9
:10628000E05083270900C2A383A7419785CB83C72A
:10629000C19D918B95C783A7819991CF9843D623B0
:1062A0006244F240D2444249B24905468D45054513
:1062B00005616F60807001478146DDB7014599BF78
:1062C000494589BF83A7C19989CFD2238C43411106
:1062D00006C697A0FF1FE780604BB2400145410111
:1062E00082800945828083A7C19995C303A78199BC
:1062F000894719CF52230C43411106C697A0FF1FAF
:10630000E780C048B24081473E854101828089478D
:106310003E85828083C7C19D918B99CF41111385A2
:10632000419906C6EFE09F8EB240FD5717C7FF1F89
:106330002318F7604101828001456FE03F8DFD57D2
:106340002380F19AF957A380F19A23AE019823ACE8
:10635000019897C7FF1F9387675F17070000130710
:10636000470798C3170700001307E7D3D8C31707D9
:106370000000130747A698C797070000938787B1C7
:1063800023AAF1988280411126C2938441979C40B0
:1063900006C622C485CB2A840D45EFD06FF4AA85AA
:1063A00019C9930700FD1CA18D4700B13CA19C4079
:1063B0008823EFD09F8219C42244B2409244410105
:1063C0006FF03FABB240224492444101828056219B
:1063D0000111096706CE22CC26CA13066703AA87D5
:1063E000639DC6001C4501458C23EFF01FB5054594
:1063F000F2406244D24405618280130677036396BB
:10640000C6001C4505458C23CDB713068703639B47
:10641000C6061C459384119A1307E00F80239C2025
:106420006389E7021307F00F6382E7021145EFD09B
:106430002FEBAA8501CD930700FD1CA1894700B170
:106440003CA1A30105008820EFD02FF9F9579CA0AB
:1064500079BF83A741970145C1DF15E005472317A1
:106460000100588698B39306E1001307D10070002D
:1064700085450545A3060100EF6020568DBF2285A6
:106480001937B5B7130797030145E393E6F613846D
:106490004197184031DF9C471833842385476304B4
:1064A000F7020D45EFD0CFE3AA8519C9930700FD88
:1064B0001CA1914704B13CA11C408823EFD0EFF10F
:1064C000EFF03F9B2DB783A7C19989CB9443D2238B
:1064D0009305E1000545EFE04FFC05E10145EFF0D4
:1064E0002F882A8611C6894503C5819DEFD07F97E5
:1064F0001C400947268598B361B71C21858BF9DFBD
:106500000545EFF0EF85930700643306F502D9BF28
:10651000411122C403C4C19D06C6118809CC17C508
:10652000FF1F1305A542EFE00FEE4D44B240228558
:106530002244410182800145EFE0EFECC5BF0145F7
:10654000828003C7F19D814763E4E70001458280B3
:106550009221938645006314A6002E8582808507CC
:10656000B685DDB71DC5411122C406C63821930783
:10657000D00F2A8463EBE7000E2128310147F9464A
:106580005D46EF90E072F9573EA0B24022444101CF
:106590008280828003C7F19D8147FD5663C3E70077
:1065A000828016A12301050085071105C5BF01459D
:1065B0008280938511859307000285469CA1FD5733
:1065C0002388F184A387F1842387F1842396D184DF
:1065D0002394019A23A2019A23AE019A23AC019A33
:1065E000138641859387C18E5CC22380019C97C727
:1065F000FF1F93876736094718A298A398AB23809B
:10660000E7022388E7021387818D94A7D0C794AF50
:10661000D8DB1385818E0D471386018E9386418CBE
:10662000238CE702C8C323950700D0CB239D070026
:10663000CCCFD4D3238407022395070223A60702D5
:10664000239D070203A7C19AD8DF97C7FF1F93872F
:10665000A734170700001307E70A23A00700D8C3D1
:1066600023A407008280411106C6E13D09C5282107
:10667000B240410182800145E5BF411122C426C2DA
:106680004AC006C6AA842E893284653DAA8709E9D4
:106690004165CA857D157535AA87454581C786A39D
:1066A000A0A30145B24022449244024941018280A4
:1066B00015EF09483547639C0603011106CE22CC2D
:1066C000182210322206598E32C6B377F64095E36F
:1066D000CC452A842EC4413F32460147630DC50094
:1066E00022856244A245F240056141BF2D473A85AB
:1066F000828013070008F24062443A850561828077
:1067000083C80500094863900803DC4103C80700FB
:106710009C33A207B3E707010D6813082890639420
:106720000701894771B70545828001114EC606CE23
:1067300022CC26CA4AC89389F18403C7090093076B
:10674000F00F630DF7022A892945AE843284EFD019
:106750002FB9AA8505C59307100B1EA123020500BA
:1067600002A562442311250166A1F24003C5090078
:10677000D2444249B24905616FD02FC6F24062440B
:10678000D2444249B24905618280411126C2AE8499
:1067900083A5C19A22C406C62A84F135098909C98C
:1067A00022852244B240A685924441016F90207810
:1067B000B24022449244054541018280411122C4E5
:1067C00026C24AC006C6AA8413044500130945061A
:1067D0001E209DC3084409C597A0FF1FE780C0582D
:1067E00022853146814597A0FF1FE780E0FC3104F8
:1067F000231A04FEE31E24FDB2402244FD579EA04E
:10680000024992444101828083C6F19D83A7419B46
:1068100001476394E600014582808E231386470674
:106820006394A5003E85828005071377F70FB28732
:10683000CDB7AA8703A5C19B01C95A216314F700EC
:10684000084582800841CDBF8280411106C6D537F8
:1068500009C50845B240410182800145E5BF797113
:1068600022D41384450026D24AD052CC5AC82E8A4C
:1068700006D64ECE56CA5EC622892287014B814477
:1068800081468147A145122355C6A5EE46233E23E6
:10689000B286A697B3C70708050B3107E315BBFE01
:1068A000BDC09165938545702685EF002124AA8B94
:1068B00039C90C44D1C9814A8149522033853B01F1
:1068C00097A0FF1FE78080EC5E200844BE99B3C903
:1068D000090897A0FF1FE780204963980A00310943
:1068E000854A832589004A84E9F931468145228514
:1068F000850A97A0FF1FE78020EC63826A053109B3
:10690000CDB7630ED6000145B250225492540259BD
:10691000F249624AD24A424BB24B456182803223ED
:10692000E313F6FE5223B294B297B3C40408B3C77C
:1069300007089DB78547E3E567F70545F1B72326C7
:106940007A0123149A00D5BF1309C400854A8149EE
:1069500049BFAA8703A5819B11E1828018453A2788
:106960006314F700110582800841FDB7411106C686
:10697000CD3709C50A21B240410182800145E5BFFA
:10698000411106C6F93709C52821B240410182806C
:106990004145E5BF411122C42A84090506C6EF908E
:1069A000C03CFD573CB0B24022444101828083C7C5
:1069B000F19DAA86850703A5019B01471221630764
:1069C000D60005071905E36BF7FE014582804111EA
:1069D00022C4416406C626C29307E4FF630BF50098
:1069E000AA8489EDE93711E51305F4FFC93711C110
:1069F00006A1B24022449244410182808547639EB1
:106A0000F50275372A8475D5FD571EA13C20130762
:106A1000F00F6381E7021307E00F6389E700283076
:106A20000147F9465146A685EF90802822859D377B
:106A3000FD573CA0230204006DBF8947E39BF5FA94
:106A40008545EF20C06E55F5268595372A845DFD76
:106A50004DB75D71A2C4CAC086C6A6C24EDE52DC66
:106A600056DA5AD82E84AC21F9472A89639EF5025A
:106A70003D3F2A8419CD38219307D00F63EBE700FF
:106A800028310147F9460146CA85EF9060222285E8
:106A900011370145B640264496440649F259625AD8
:106AA000D25A425B61618280832A0400B7070001E9
:106AB000938707F037071200B3F7FA0013070710A0
:106AC000B28981446385E7022EC6D535B245AA84D2
:106AD00019CD502109CE93174660E3CC07FA4A85B9
